:020000022000DC
:1060000000000120CDEF02000DF0020055F7020064
:1060100011F0020013F0020015F002000000000071
:106020000000000000000000000000004DEF020032
:1060300019F00200000000006DEF02001DF00200E8
:106040001FF002001FF00200F9D602001FF002004C
:106050001FF002001FF002001FF002001FF00200FC
:106060001FF002001FF002001FF002001FF00200EC
:106070001FF002001FF002001FF002001FF00200DC
:106080001FF0020071ED02001FF002001FF002007D
:106090001FF002001FF00200F59302001FF0020043
:1060A0001FF002001FF002001FF002001FF00200AC
:1060B0001FF002001FF002000000000000000000BE
:1060C0001FF002001FF002001FF002001FF002008C
:1060D0001FF002001FF002001FF00200000000008D
:1060E00000000000000000000000000000000000B0
:1060F00000000000000000000000000000000000A0
:10610000000000000000000000000000000000008F
:10611000000000000000000000000000000000007F
:10612000000000000000000000000000000000006F
:10613000000000000000000000000000000000005F
:10614000000000000000000000000000000000004F
:10615000000000000000000000000000000000003F
:10616000000000000000000000000000000000002F
:10617000000000000000000000000000000000001F
:10618000000000000000000000000000000000000F
:1061900000000000000000000000000000000000FF
:1061A00000000000000000000000000000000000EF
:1061B00000000000000000000000000000000000DF
:1061C00000000000000000000000000000000000CF
:1061D00000000000000000000000000000000000BF
:1061E00000000000000000000000000000000000AF
:1061F000000000000000000000000000000000009F
:10620000044B05481B1A062B02D9044B03B118474F
:10621000704700BFE7340020E43400200000000095
:1062200005490648091A891001EBD171491002D0BD
:10623000034B03B118477047E4340020E4340020D6
:106240000000000010B5064C237843B9FFF7D8FFD3
:10625000044B13B10448AFF300800123237010BD39
:10626000E4340020000000008C5C030008B5084BFB
:106270001BB108490848AFF300800848036813B908
:10628000BDE80840CCE7064B002BF9D09847F7E76C
:1062900000000000E83400208C5C0300E0340020A3
:1062A00000000000154B002B08BF134B9D46A3F5C3
:1062B000803A00218B460F461348144A121A09F0FF
:1062C0001CFF0F4B002B00D098470E4B002B00D02B
:1062D00098470020002104000D000D48002802D03E
:1062E0000C48AFF3008009F09DFE2000290008F063
:1062F00097FE09F071FE00BF0000080000000120B9
:106300000000000000000000E4340020E053002002
:1063100000000000000000007047000030B520249D
:1063200089B0054622460021684609F0E6FE23466C
:10633000094C0A486A46294601F03CFF08492046B4
:1063400006F094FF6946204606F0A0FF0549204666
:1063500006F09CFF09B030BD9C3B0020D8360020E1
:10636000CC340300DA34030010B5044600F0B2FD6B
:10637000204610BD70B590E860000446AE4204D0DF
:10638000284600F0A7FD3035F8E7206808B108F08E
:10639000C5FE204670BD000010B5114C06212046F8
:1063A00001F0DCF8204601F0C7F80E49204601F064
:1063B00095F804F1380001F09FF82046012101F022
:1063C000FAF82046F422202101F0F1F820461E219F
:1063D00001F0EBF820460021BDE8104001F066B95D
:1063E000B43900200436002010B552230446072299
:1063F000182100F025FF204610BD427D438D3AB99B
:106400000133018D9BB2994243850BD8428506E04A
:10641000013B9BB243852BB9038D013B4385C36A86
:1064200003B11847704770B51546022283610275A3
:1064300004460E4600F0CCFF002363859DF8103023
:10644000208526626562637570BD70B504460025BF
:106450000326204600F0BCFF85420FDA628D2A44F5
:1064600092FBF6F303EB43039A42A9B20CBF226AF4
:10647000626A204600F01FFF0135EAE7204600F07F
:106480007BFD2046BDE87040FFF7B7BF10B5026A3C
:10649000418D044600F00FFF204600F06DFD2046C0
:1064A000BDE81040FFF7A9BF38B50423037582612A
:1064B00004460D4600F08CFF013840000023208583
:1064C0002562638538BD0846C1F34602C0F34640E5
:1064D000C1F3462100F021BF70B5044600252046D7
:1064E00000F076FF854218DA628D9542AEB203D095
:1064F000238D9B1A9D4201D1226A08E03146204635
:1065000000F017FF01462046FFF7DDFF0246314647
:10651000204600F0D0FE0135E1E7204600F02CFDDA
:106520002046BDE87040FFF768BF70B505460E46CF
:106530000024284600F04CFF844206DAA1B232461D
:10654000284600F0B8FE0134F3E72846BDE8704065
:1065500000F012BDF8B50546B0F828E06F6A036A8E
:10656000468DFAB2C6EB0E00D9B2724300FB01228F
:10657000C7F30721C3F307247143C7F3074700FBA1
:1065800004117E43C3F3074492FBFEF291FBFEF13C
:1065900000FB0463D2B293FBFEF0C9B2C0B200F0BC
:1065A000BCFE01462846FFF7C0FF284600F0E4FC89
:1065B0002846BDE8F840FFF720BFC943C9B25429B7
:1065C00007D801EB4102A1EB8101481ED2B20021A4
:1065D00015E0A9290AD85539C9B2A1EB8102013ABF
:1065E00001EB4101D2B2C9B2002009E05631C8B274
:1065F000A0EB8001013900EB40000022C9B2C0B21B
:1066000000F08BBE38B513490446134806F03EFE31
:106610000025204600F0DCFE8542204612DA00F01C
:10662000D7FE94F82A30290291FBF0F0C118C9B2C4
:106630002046FFF7C2FFA9B20246204600F03BFE0B
:106640000135E6E700F098FC2046BDE83840FFF74A
:10665000D4BE00BF023503009C3B002010B50446A9
:106660002149224806F012FE0A22E1691F4806F07D
:1066700070FE0A22A1691D4806F06BFE07F05DF866
:10668000E369C01AA36998422CD91949174806F042
:10669000FDFD07F052F8237DE061013B042B21D87A
:1066A000DFE803F0030C11161B0012490F4806F037
:1066B000EDFD2046BDE81040FFF7A4BF2046BDE831
:1066C0001040FFF7C2BE2046BDE81040FFF7DEBE17
:1066D0002046BDE81040FFF7FFBE2046BDE8104051
:1066E000FFF738BF10BD00BF173503009C3B0020EB
:1066F00026350300353503002DE9F84F1A4BDFF836
:1067000078901D68002780463C46CB46174B1B7887
:106710009F4224DA2646164B1A78331B9A4218DD1C
:1067200099F80030AA7869782878032B1FFA86FA3E
:1067300002D100F0F2FD02E0EB7800F0F3FD02463A
:106740005146404600F0B7FD9BF8003001361D442D
:10675000E1E7084B1B789C1A34440137D6E74046E2
:10676000BDE8F84F00F008BCD0350020BC36002052
:106770002C3500206C3500200434002070B52F48E3
:106780002F4C03F0FFFA4FF480712E4803F020FCE9
:106790002D4A2E492B4809F0EDFB0023236063604E
:1067A000A360C02008F0B8FC00F1C00605462060D8
:1067B0006060A66015B12846FFF716FE3035AE4280
:1067C000F8D1234D204A23491D48666009F0D2FBC9
:1067D000214C522310221821284600F031FDEC6292
:1067E00028461E4D184A1E4909F0C4FB52231E229A
:1067F0001821284600F024FDEC622846194D124A63
:10680000174909F0B7FB52230F221821284600F040
:1068100017FDEC622846144D0B4A114909F0AAFBFA
:106820001B2218212846522300F00AFDEC6228465C
:10683000054A0B49BDE8704009F09CBB00350020BB
:1068400030350020043600200034002075A10200FD
:106850003C3500207563020019630200A03500205A
:1068600069630200D43500207035002070B5314CCA
:10687000314E20464FF4E13106F0D7FD2F49204636
:1068800006F004FD2E49204606F000FD2D49204665
:1068900006F0FCFC2C4B1C680FCE25460FC50FCE16
:1068A0000FC596E80F0085E80F00284E0FCE04F1C3
:1068B00030050FC50FCE0FC596E80F00244E85E8B2
:1068C0000F000FCE04F160050FC50FCE0FC596E87F
:1068D0000F0085E80F001F4D0FCD90340FC40FCD72
:1068E0000FC495E80F0084E80F001B4C0022012123
:1068F000204602F0FBFA0421204602F0F3FC204679
:10690000164902F0B9FC2046154C164902F05EFD0E
:106910002046154903F05CFA1449204603F056FA64
:10692000204603F057FA124803F046FCBDE87040D9
:10693000FFF732BD9C3B00203C3500208D35030025
:1069400057350300B635030030350020A035002050
:10695000D435002070350020D8360020AF35030034
:10696000003500201D630200E0350300F43503000C
:106970000436002010B5024604460749074806F0D1
:106980008FFC20460AF082FB21460246BDE81040FB
:10699000034803F0EBBB00BF083603009C3B00201C
:1069A0001436002070B5164D86B006460C462846B3
:1069B000144906F06BFC1449284606F067FC13499D
:1069C000284606F063FC0A223146284606F0EDFC14
:1069D000F1B2204600F0FEFC204600F0CDFA0FCCCC
:1069E00001AD0FC523682B6001A8FFF785FE01A844
:1069F00000F070FA0648FFF7BDFF06B070BD00BF9B
:106A00009C3B00204F3503001B3603003936030042
:106A1000E34303002DE9F047B64CB74F2368DFF896
:106A2000EC82591CB54B91FBF3F203FB1213002BC4
:106A300018BF0B4694B02360002597E80C009B1A02
:106A40001B1108FB03F39D42AB4E06D2302000FB26
:106A50000520FFF703FE0135EFE7A94802F09EFC91
:106A6000002800F02B822168A44B91FBF3F203FB7A
:106A700012136BB9A349A44806F008FC96E80A0073
:106A80005B1AA249A0481B110A22594306F057FC81
:106A90009F4803F005FA4428074600F0BF8043DC16
:106AA00042284DD06FDC412840F00882984803F01E
:106AB000F7F90546964803F0F3F99649804692485F
:106AC00006F0E4FB39460A228F4806F06EFC2946A0
:106AD0000A228D4806F069FC41460A228A4806F0DF
:106AE00064FC3368302404FB05340FCC08AE0FC6B9
:106AF0000FCC0FC694E80F00012486E80F00FF209A
:106B00008DF83440CDF83880ADF8480006F00AFE24
:106B1000C1B208A8FFF751FD7F4B10907F497A481A
:106B20001C7006F0B3FBC6E1462800F03781C0F2C6
:106B3000FD80592800F07B815A2800F09D81BDE13D
:106B4000734803F0ADF90546714803F0A9F93368BD
:106B5000302404FB053407460FCC08AE0FC60FCC1B
:106B60000FC694E80F0008AD86E80F000FCD03AC08
:106B70000FC42B682360384603A9FFF713FF03A84F
:106B800000F0A8F997E1624803F08AF9804660486E
:106B900003F086F93468302303FB084407460FCC22
:106BA00008AD0FC50FCC0FC594E80F0085E80F00A6
:106BB0005B49554806F06AFB0A224321524806F019
:106BC000F4FB41460A22504806F0EFFB0A22394600
:106BD0004D4806F0EAFB0223FF208DF8343006F022
:106BE000A1FDC1B208A8FFF7E8FC1090FF2006F055
:106BF00099FDC1B208A8FFF7E0FC0446FF2006F0AB
:106C000091FDC1B208A8FFF7D8FC0023009302460B
:106C1000FBB2214608A8FFF706FC4CE13C4803F014
:106C20003FF905463A4803F03BF90446384803F07B
:106C300037F98046364803F033F98246344803F08A
:106C40002FF938498146304806F020FB0A223946A0
:106C50002D4806F0AAFB29460A222B4806F0A5FB80
:106C600021460A22284806F0A0FB41460A2226486F
:106C700006F09BFB51460A22234806F096FB0A22A7
:106C80004946214806F091FB336827491E483024C5
:106C900004FB05340025257506F0F8FA204600F0BF
:106CA00097FB0A220146184806F07FFB5FFA8AFA32
:106CB0005FFA88F85FFA89F6204600F089FB854282
:106CC00008DAA9B2009653464246204600F0CEFAB2
:106CD0000135F1E7204600F04FF90FCC08AD0FC5A4
:106CE00008A823682B60FFF707FD08A800F0F2F85A
:106CF000E4E000BF2835002030350020A0860100E8
:106D0000D8360020473603009C3B0020ABAAAAAA35
:106D100004360020603603002D3500207D36030048
:106D200089360300A6360300C0360300654803F029
:106D3000B7F88046634803F0B3F83468302303FBA8
:106D4000084407460FCC08AD0FC50FCC0FC594E81B
:106D50000F0085E80F005C495C4806F097FA0A22AC
:106D600045215A4806F021FB41460A22574806F0C1
:106D70001CFB0A223946554806F017FB0423FF2066
:106D80008DF8343006F0CEFCC1B208A8FFF715FC30
:106D9000FAB2014608A8FFF787FB8CE0494803F0E8
:106DA0007FF83468302303FB004480460FCC08ADE5
:106DB0000FC50FCC0FC594E80F0085E80F004449BC
:106DC000424806F063FA39460A22404806F0EDFAD6
:106DD0000A2241463D4806F0E8FA3A4803F060F8D6
:106DE00005250446FF208DF8345006F09BFCC1B207
:106DF00008A8FFF7E2FB0746FF2006F093FCC1B2AC
:106E000008A8FFF7DAFB064608A800F0E1FA06F04A
:106E100089FCE4B200238DF834500E94ADF848009C
:106E200010971196ADF84A308DF8353043E025487B
:106E300003F036F83468302303FB00440FCC08AD70
:106E40000FC50FCC0FC594E80F0085E80F00032392
:106E500008A88DF8343000F0BBFA6423ADF8480080
:106E6000FF200E9306F05EFCC1B208A8FFF7A5FB59
:106E7000109008A800F02EF8124803F011F83468BA
:106E8000302303FB00440FCC08AD0FC50FCC0FC55A
:106E900094E80F0085E80F00032308A88DF834302C
:106EA00000F096FA0A23ADF84800002108A80E93D6
:106EB000FFF783FB109008A800F00CF814B0BDE8B1
:106EC000F08700BF04360020DE3603009C3B002024
:106ED000F536030010B50446806808B109F0D0F813
:106EE00094F90600002802DB002108F00FFD20467F
:106EF00010BD70B5054680680E4608B109F0C0F8AF
:106F0000EB7B2C7BA3420CBF0324042414FB06F46C
:106F1000A4B2AC80204609F0ABF8A86028B12246A4
:106F2000002109F0EAF86E8070BDA880688070BD0D
:106F300070B4C27B047B151B6C42C1F381066C41AB
:106F4000FF29C1F38112C1F30115467301F0030655
:106F50008CBF0021012101708168C27305738673A3
:106F600041B1511B4A424A41A24203D0418870BC00
:106F7000FFF7BFBF70BC70472DE9F04F83688BB03F
:106F80000546002B00F0348106F0E2FB2B69C01AA5
:106F9000B0F5967FF8D3984BAF8893E8070007AE1B
:106FA00086E80700002356F82340D4F8002502BBEA
:106FB000D4F86025002A1CDAD4F86425002A18DAEF
:106FC000D4F86825002A14DAD4F86C25002A10DADF
:106FD00007F0F2FB3F0104370128384602D109F0DF
:106FE00047F801E006F07EFC0646002840F0888065
:106FF00002E00133032BD6D107F0A6FE95F9062057
:107000007E4B7F4C53F822307E4A1F2B88BF203B9B
:1070100001269E402B78002B14BF12231A230393C2
:1070200014BF292346230293D36843F08073D360AF
:10703000236843F00103236015BF5823C3234FF097
:1070400047084FF09C080593A1466368D5F808A04F
:107050000493AB88504600224FF0A041CAEB0007D2
:10706000BFB2BB4232D9082710F801BB01974FF0DD
:10707000800ED4F804C0C2EB0C0CE045F9D8D9F866
:107080000420D1F808C51BEA0E0F46EA0C0CC1F823
:1070900008C507D0D4F804C0029FC2EB0C0C6745AA
:1070A000F8D806E0D4F804C0039FC2EB0C0C674587
:1070B000F8D8D1F80CC5019F46EA0C0C013FC1F885
:1070C0000CC54FEA5E0E0197D3D1C7E76168891AF4
:1070D0008845FBD80499D9F80420521A0599DB0099
:1070E0004B439A4206D3484B4FF4964043F001037A
:1070F0009847AAE707F032FE06F02AFB286177E0FE
:10710000002048F20D0A48F21308A98895F800C03B
:1071100082B2D30091429BB221D9A96811F802B082
:107120000132D20092B24FF0800E0EEA0B01BCF198
:10713000000F05D148F20809002918BFC14604E034
:1071400048F20609002918BFD14626F813900133EA
:107150009BB29A424FEA5E0EE7D10130D5E74FF479
:10716000004226F8132001339BB226F81320002397
:10717000C4F80435C4F80C35BCF1000F01D1282245
:1071800000E014227F08C4F80825C4F81435C4F8B8
:107190001035C4F82065C4F82475C4F82835C4F83F
:1071A0002C3595F90610154A52F82120C4F86025AF
:1071B0000122C4F80025C4F81031A260D4F81031BF
:1071C00013B908F0D9F8F9E70023C4F81031C4F86E
:1071D00000354FF0FF33C4F8603507F0EDFA0128B1
:1071E000304602D108F04CFF86E706F08AFB83E7C1
:1071F0000BB0BDE8F08F00BF4C370300044A03001A
:10720000001000E0F0ED00E06037030038B543788F
:1072100004460D4633B190F90600002802DB002138
:1072200008F074FB6378A5714BB12846012108F082
:107230006DFB28460021BDE8384008F089BB38BD09
:1072400070B50E46002104464170C1718160016134
:1072500019461546FFF76CFE31462046FFF749FEFA
:1072600020462946FFF7D2FF204670BDF0B544887E
:107270009DF814708C421DD9C47944B112FB04F2FC
:1072800014FB03F314FB07F4120A1B0A270AC57B3D
:10729000047BAC4284681DBF04EB810100264E557F
:1072A00001EB410108BF0919057B4A55427B8B540C
:1072B000837BCF54F0BD43888B42F0B52CD9C37982
:1072C000C2F30746C2F30725D4B20BB9A64608E0BD
:1072D0005E435D435C43C6F30726C5F30725C4F34D
:1072E000072E077BC47BA742876803D101EB4101CE
:1072F00039440AE007EB8101120E0C440BB9D3B2FA
:1073000002E05343C3F307232370037BCE54437B34
:10731000CD54837B01F803E0F0BD42EA012242EA4A
:107320000040704742EA012242EA004040EA03601E
:10733000704743888B42F0B548D9C67B077B83688A
:10734000C279447B857BBE421BD101EB41011944CC
:107350007AB18B5D085D1B02B3FBF2F31B040002E4
:10736000B0FBF2F043EA00204B5D1B02B3FBF2F3EB
:1073700005E0885D0B5D000440EA03204B5D184387
:10738000F0BD03EB8101B2B1CB5D885D1B02B3FBA5
:10739000F2F31B040002B0FBF2F043EA00604B5D25
:1073A0001B02B3FBF2F30343085D0002B0FBF2F0F3
:1073B00043EA0020F0BDC85D8B5D000440EA036035
:1073C0004B5D18430B5D40EA0320F0BD0020F0BD8B
:1073D000408870474A1CC379D2B29A4270B51ED019
:1073E000013B13F0FF0384680CD0FF291FBF11027B
:1073F00001F1FF3191FBF3F39BB204BF4FF6FF7134
:1074000091FBF3F32546291B868889B28E4205D964
:1074100029785943091205F8011BF4E7C27170BDC0
:1074200072DF704773DF704777DF70470022C277E3
:107430000270704770B51D46C37F0E461146EA18AC
:107440001D2A04460EDC18446A1CE254023000F87F
:10745000016C2A4608F02BFEE27F0232AB18E3777C
:10746000012070BD002070BD2DE9F041002688B0DC
:1074700007460D4601EBC2083446454516D028465E
:1074800001F0EFFB102802D0802809D00CE008AAF8
:10749000631C02EB44042A8824F8202CDCB203E0AD
:1074A0000EB1002017E06E680835E6E714B966B93A
:1074B000012010E0630003F0FE036A460321384612
:1074C000FFF7B8FF0028F2D1EBE71023324607217F
:1074D0003846FFF7AFFF08B0BDE8F08113B50831BB
:1074E000044603C901228DE8030069462046FFF7E0
:1074F000BBFF02B010BD000030B589B005462022A8
:1075000069460C4801F0CCFEEA7F13181D2BC3BF5F
:10751000C2F11D02D0B20824092403466A4621465E
:107520002846FFF787FF18B1A4F1090358425841D4
:1075300009B030BDD836002013B50446064801F026
:107540000BFF02AA012302F8010D0A212046FFF7D2
:1075500071FF02B010BD00BFD836002007B502AAE7
:10756000012302F8011D1946FFF764FF03B05DF81F
:1075700004FB08B50346FFF759FFFF22202183F8DB
:107580002020012283F8212083F8222099840022E0
:10759000F42019851E21D88483F823205985DA85A3
:1075A0009A851A635A63184608BD418570478184DD
:1075B000C2840185704780F8221070472DE9F041A0
:1075C000054686B00F46164600211822684608F088
:1075D00094FD95F821308DF8003006EB860303EB1F
:1075E00083032C4A02979B00ADF80C301368DB072D
:1075F00009D4294BE97F998028499960C97F1D608A
:107600009981012313606A46234905F12000FFF7A1
:1076100007FF804678B14FF4B5722149214809F03F
:10762000AFFB404608F0DAF809F0AAFB0A2009F09F
:10763000BFFB00202BE01C4895F8204001F08CFE99
:10764000214602460120FFF7EFFE044638B140F222
:107650006B121349134809F093FB2046E2E701211E
:1076600095F82000FFF7DEFE804610B14FF4B672A9
:10767000D3E70D4801F0C6FFEA8D2F8596424FF003
:10768000010094BF921B921A85F82300EA8506B088
:10769000BDE8F081C0360020C4360020EC3900205F
:1076A0006637030096370300D836002010B504462D
:1076B000C1858185FA21054801F051FE628DA18CBA
:1076C0002046BDE81040FFF779BF00BFD836002044
:1076D00038B50B88112B044612D0262B24D0102B42
:1076E00059D1CD7B012D56D1002380F823302A4873
:1076F00001F099FF29462848BDE8384001F09FBFB6
:107700008988254800F02EFD012844D10021224817
:1077100001F095FF94F82230002B3CD0A18D20463B
:10772000BDE83840FFF7C2BF0B7A012B33D10023ED
:1077300080F823304FF4FA71174801F010FEA38D42
:1077400023B9636B03B19847002205E0E38D4BB189
:10775000636B03B19847E28DE18C2046BDE8384069
:10776000FFF72CBF0C4801F05EFF236B9BB107F0C5
:1077700023F801284FF0100002D108F079FC01E055
:1077800006F0B0F80021236B017243600160BDE890
:10779000384007F0A5BE38BDD836002075DF7047E9
:1077A00010B5044607F008F80128204603D1BDE8CB
:1077B000104008F05DBCBDE8104006F093B8102200
:1077C00042800280C82100228280C1808260C26023
:1077D00070470000014800F019BC00BF6C3A00205F
:1077E0002DE9F3410F888D88112F06460C461CD0D9
:1077F0001F2F39D0102F44D12946234800F0B2FC66
:1078000002283ED1B368002B3BD03846FFF7C8FFB3
:10781000B26842600122027202AA0021016042F8AD
:10782000085D03461068D8601AE02946164800F043
:1078300099FC0228804624D1F36813B31420FFF783
:10784000AFFF0027F2680760426080F80880227A64
:10785000019200956A46034603CA1961D860394609
:10786000184607F03DFE0CE054F8080F61686B46BF
:1078700003C36946BDF80030ADF802302846FFF773
:107880008DFF02B0BDE8F081D8360020AADF704736
:10789000ABDF7047ACDF7047ADDF7047AEDF7047DE
:1078A000704710B5044607F039FC204610BD0000B3
:1078B00070B5644B04461B680361061D96B03046E4
:1078C00001F0DEF994F8223013F0320101BF94F890
:1078D000232061F3030261F3071284F8232013F0DD
:1078E0000C0101BF94F8242061F3030261F3071235
:1078F00084F8242013F030050ED04FF0000301224D
:1079000062F342038DF806304F4B1B788DF804303C
:1079100094F823308DF805301C2200210FA808F0C0
:10792000ECFB94F822308DF83C3000230DB91A4658
:1079300000E001AAADF8083014924FF000030122D4
:1079400062F3420360698DF80A3094F823308DF8B1
:10795000083058B103784BB1109009F097FB02AB97
:1079600080B2ADF84400ADF846001393A37E13B186
:1079700004F11A031293142200210DEB020008F007
:10798000BCFB04F12303069394F825300596DB072E
:1079900054BFE3890023ADF81C30E389ADF82030F3
:1079A00005AA04F126030FA90020FFF76FFF054683
:1079B00010B140F209122CE0637E002B36D0034652
:1079C000012262F342038DF80E3094F82330ADF8B3
:1079D0000C008DF80C301D4B1868049029461422B9
:1079E0000AA808F08AFB0223ADF83030ADF8343035
:1079F00004AB0A9303AB0B93284604F118030DF173
:107A000002020AA90E93FFF743FF054670B140F248
:107A100023120F490F4809F0B3F9284607F0DEFE9C
:107A200009F0AEF90A2009F0C3F907E0257B25B972
:107A30002146094800F00EFF00E00025284616B058
:107A400070BD00BFD4360020B6370300B83703003E
:107A5000F537030096370300B43700200B88502B0E
:107A600073B505460C4614D0512B2CD18B79022BC3
:107A700003D1436B0BB108319847A379012B22D175
:107A80002B6B03B304F10801284602B0BDE8704037
:107A90001847CA88C38C9A4205D1866B1EB1CB8920
:107AA0000A8A1231B047E2886B8D9A420BD1EB6B98
:107AB0004BB1628AADF80620BDF80610284602B028
:107AC000BDE87040184702B070BD00001422C281AA
:107AD000104A127880F8242080F8232001214FF0EA
:107AE0000102002361F342020373036143610383D4
:107AF000C0F81A30C0F81E3080F8223080F82520F7
:107B0000C384038583854385036343638363C363BE
:107B1000704700BFB637030013B504468DE8060072
:107B20002346064943F8041B9DE8030083E805004B
:107B30002046FFF7CBFF204602B010BD843803007B
:107B40000069704701230373704780F82210704763
:107B5000C181704790F8253019B1C1816FF30003DE
:107B600001E043F0010380F82530704780F82310CE
:107B700080F824207047816370470A1C90F82530F4
:107B8000416318BF012262F3041380F82530704767
:107B90004161704751F8263F03604B68436070476E
:107BA00037B5C38901919A4228BF1A460024009430
:107BB000C18CADF800204FF6FF706A46FFF76AFEF1
:107BC000054678B140F2A7120849094809F0D8F8EB
:107BD000284607F003FE09F0D3F80A2009F0E8F878
:107BE000204601E0BDF8000003B030BDBC37030003
:107BF0009637030038B5054608460C4609F046FAA4
:107C0000214682B22846BDE83840FFF7C9BF07B514
:107C100002AB022223F8021D1946FFF7C1FF03B091
:107C20005DF804FB30B5044685B0194801F0B6FB99
:107C300058B3608D48B30223002502951448ADF86F
:107C400008300DF10603039301F0C3FB618D02AA16
:107C5000FFF722FE43F201439842044602D1ADF8F9
:107C6000065010E07CB14FF400720A490A4809F04E
:107C700087F8204607F0B2FD09F082F80A2009F0E3
:107C800097F8A0B201E0BDF8060005B030BD00BF16
:107C9000D8360020543803009637030008B590F812
:107CA000222002F0100202F0FF0322B1FFF7BAFF18
:107CB00000F0010008BD184608BD00002DE9F043A2
:107CC00090F8223003F010030F4687B0064603F009
:107CD000FF01002B58D0C489944228BF1446FFF7F7
:107CE000DDFF8046002849D02A4801F072FB01469A
:107CF000284800F059FA03381FFA80F9002C44D0C4
:107D0000244801F066FB0146224800F03CFA90B39B
:107D1000A1454B464FF0100228BF2346002102A880
:107D2000ADF8063008F0E9F901238DF80A30F38C3C
:107D3000ADF80830174805970DF10603049301F0DC
:107D400048FB02A9FFF7AAFD054670B140F22D22BB
:107D50001149124809F014F8284607F03FFD09F0D0
:107D60000FF80A2009F024F805E0BDF80630E41AFF
:107D7000A4B21F44C2E74FF0000806E0224639468D
:107D80003046FFF70DFF00E08846404607B0BDE8EB
:107D9000F08300BFD83600201E380300963703005A
:107DA000A1DF7047A3DF7047A4DF704710B504461A
:107DB00006F002FD0128204603D1BDE8104008F07E
:107DC00057B9BDE8104005F08DBD00238382704790
:107DD000806900F00BB9808A704700002DE9FF41EF
:107DE0000B88CF88382B04460D4600F08480392B51
:107DF00003D0362B40F0F080C8E00B7B012B02D083
:107E0000022B31D0E8E0C36A002B00F0E58090F847
:107E1000342012F0010FCA8923D01046FFF7C6FFA5
:107E20000646002800F0D880EA8905F1100108F024
:107E30003EF91820FFF7BAFFE26A4260032202729D
:107E4000EA89066003920194029601AA034603CAD6
:107E50001961D860106858610021184607F040FB8E
:107E6000BAE010319847B7E0036B002B00F0B48004
:107E700090F834208E8812F0020FCA8923D0104661
:107E8000FFF794FF0746002800F0A680EA8905F175
:107E9000100108F00CF91820FFF788FF226B4260F0
:107EA00003220272EA89076003920194029701AAF1
:107EB000034603CA1961D86010685861002118464A
:107EC00007F00EFB01E01031984769893046FFF753
:107ED0006BFF044600287FD04FF4DB7240494148D5
:107EE00008F04EFF204607F079FC08F049FF0A2011
:107EF00008F05EFF70E017B104F11C006AE000F1C9
:107F00001C060A8A3046394602F021FA95F80C80A0
:107F1000B8F1010FF0D0B8F1040F5DD1A06900F005
:107F200065F80146304800F03FF9228DA38A0538F4
:107F300080B2904228BF1046B0B10197EA89ADF8EF
:107F400006302B8AADF80A001344ADF80830A0695A
:107F5000636A8DF80480039300F048F801A9FFF7E5
:107F600021FF002838D00FE00522029003908DF801
:107F70000420A069ADF8063001228DF8052000F03C
:107F800035F801A9FFF70EFF304623E0806900F0C5
:107F90002DF80146144800F007F90646002FABD132
:107FA00004F11C07EA8905F11001384602F0CFF907
:107FB000238D73B1033EEB89B6B2013EB34208DBB9
:107FC000A06900F013F8628DA18A92B2FFF7E8FE73
:107FD00010B1384602F0D3F904B0BDE8F08100BF1B
:107FE0009438030096370300D83600208088704705
:107FF00010B50446043002F060F9012323804FF6E7
:10800000FF73638000232375204610BD017D10B5EA
:10801000044621B9043002F054F90123237510BD40
:10802000007D704738B50B88322B05460C461AD0B8
:10803000332B2AD0302B40D1CB8823B94B896BB15D
:108040000A2211442EE01D491D4808F099FEE188DE
:108050001C4808F095FE0A2008F0AAFE281DBDE87D
:10806000384002F08CB9CB8843B94A89002AF5D050
:10807000013A02EB820252000C3210E00F49104824
:1080800008F07EFEE1881048E3E7CB8873B94A899F
:10809000002AE3D0013A02EB42025200083292B2C7
:1080A00004F10A01281D02F052F9D7E703490448F8
:1080B00008F066FEE1880548CBE738BDCC38030000
:1080C000D1380300F03803000B39030026390300D0
:1080D0006DDF70477FDF704786DF70478FDF704747
:1080E00090DF7047B1DF7047B5DF704710B5C82229
:1080F000044600210C3008F000F8172303222380E7
:10810000E3800123E37023716372A37262F30613A9
:1081100084F8D430072384F8D5301023A27022725B
:1081200084F8D63084F8D72084F8D820204610BDB3
:1081300001290CBF0088C088704707B56846FFF763
:10814000C7FF02AB9DF8000053F8072D0A609B881B
:108150008B80400803B05DF804FB282303FB01017A
:10816000487B7047282303FB0101887B704710B5CB
:10817000282303FB021252F8123F03609388838086
:108180009379837110BD042908B50BD8282303FB0C
:108190000101086A38B1662105F024FE003018BFDD
:1081A000012008BD002008BD282303FB0101088A27
:1081B00070470000F0B587B004AC16461F460D4668
:1081C00020464FF4285100F041FD8DE8C0004FF6E5
:1081D000FF7303930123029394E80C00294602489D
:1081E00000F0DCF907B0F0BDB4370020F0B58E88A0
:1081F0004FF6FF739E4218BF28240B881ABF04FB5A
:1082000006040C3400241A2B97B007460D4600F0E4
:10821000D58019D8132B54D010D8102B29D0112B5E
:1082200040F08E81002560696570257005F096FE2E
:108230006561A06905F092FEA56181E1142B00F053
:10824000A280192B72D07BE1232B00F0F88006D896
:10825000212B00F00481222B00F0268170E1552BA8
:1082600000F04481572B00F0C4803C2B40F0688123
:10827000D2E001232370CB7BA37055F8080FC4F81C
:1082800006001723A988AA79A380F6B2282303FB46
:108290000673618122739B7B012B0CBFF878787A7F
:1082A000014605F034FC282303FB06766061B37BAE
:1082B000012B0CBF3879B87A014605F028FCA06183
:1082C0003EE106F079FA01284FF0500002D107F0A4
:1082D000CFFE01E005F006FB05462061002800F016
:1082E0002F815022002107F008FF4FF6FF73202254
:1082F000E381002102A807F000FF05F11C030693AB
:10830000A3780295012B05F138050CBF07F1D402C3
:10831000002202AB002130460795FFF7DBFE044642
:10832000002800F00D8140F2531292E00B7A4BB915
:108330002269A07801236370538AE381314602F0F9
:108340004BF812E07F49804840F2651208F018FDB2
:108350007E4B297A18689B880290ADF80C3002A8F1
:1083600032238DF80A3008F00BFD256906F024FA57
:108370000128284602D107F083FE01E005F0C1FA8A
:1083800000232361DCE05022002102A807F0B5FEA3
:1083900002AA298AA07802F091F80346A88843B17E
:1083A000002310AA02A9FFF797FEBDF81A30E38157
:1083B000C6E01A461946FFF78FFEC1E00B7A112B73
:1083C0000DD0E289A078314602F028F9034620B9A1
:1083D000024601463046FFF785FE01236370606A5E
:1083E000002800F0AD8000231A46194605F098FBDE
:1083F000A6E06369002B00F0A3800026AA79F3B2FF
:108400009A4206F1010640F29B8000231A46194663
:10841000606905F085FBF1E7A369002B00F090800F
:108420000026AA7AF3B29A4206F1010640F2888049
:1084300000231A461946A06905F072FBF1E70022F5
:1084400011463046FFF74CFE0446002878D04FF422
:10845000DF723C493E4808F093FC204660E03D4B0B
:108460000FCB02AC84E80F003B493C4808F088FC85
:108470006A7A3B4816AB03EB82022B7A52F8502CF7
:1084800016A901EB830353F8501C08F079FC0A206D
:1084900008F08EFC002301A930468DF804308DF8D9
:1084A0000530FFF71BFE4BE00B7A33B12A492B480E
:1084B00008F066FC297A2B483DE0264B0FCB02AC36
:1084C00084E80F002449254808F05AFCAA7A264877
:1084D00016AB03EB82026B7A52F8502C16A901EB13
:1084E000830353F8501C08F04BFC26E02822F3B21B
:1084F00002FB0303C9889B7B012B0CBF0388C38845
:10850000994228BF1946A1803046FFF7EDFD054688
:1085100058B140F2ED120B490D4808F031FC2846E5
:1085200007F05CF908F02CFC07E00B490B4808F059
:1085300027FCA1880D4808F023FC0A2008F038FC2D
:1085400017B0F0BD543903007B390300093A03002A
:1085500096370300443903009C390300D1380300E7
:10856000A0390300BB390300D6390300F0390300FA
:10857000A0DF704738B50446F82500F5F87001F023
:108580009CFE2A460021204607F0B7FD2A4600211E
:10859000601907F0B2FD204638BD0000F0B585B087
:1085A0008DE80C00BDF83030ADF80C30BDF834303B
:1085B000ADF80E300F466E4600F5F875284601F00E
:1085C000C4FE044628B1194800F010FF05F0CCF8AD
:1085D000F4E70121284601F074FEBDF82C200A9929
:1085E000284601F083FE314603AA3846FFF7C0FF54
:1085F000064630B94FF4FA71284601F07CFE044675
:108600000CE046220A490B4808F0BAFB304607F056
:10861000E5F808F0B5FB0A2008F0CAFB284601F08F
:1086200059FE24EAE47080B205B0F0BDD8360020CF
:10863000283A0300963703002DE9F04F0E888F8803
:10864000A6F11003012B87B005460C4612D84FF057
:1086500000082A785FFA88F39A420BD99B002B44D2
:10866000112E586803680CBF1B685B68984708F1B7
:108670000108EEE7764800F0ACFE874217D14FF0D4
:1086800028094FF0000A09FB07F90AE0502E13D021
:10869000512E04D1B4F80880B8F1000F0FD10AF1BF
:1086A000010A95F854205FFA8AF39A42EED805F54C
:1086B000A67A4FF000091FE0B4F80680ECE7163305
:1086C000684655F823B05946FFF764FABDF8002014
:1086D000424500F09980594602A8FFF75BFABDF8C1
:1086E0000C204245DBD18FE05AF8040FFFF770FBF6
:1086F000874206D009F1010995F84C319945F3DB21
:1087000016E0382E03D0392E01D0362EF2D1B4F82F
:108710000A80B8F1000FEDD0DAF800B05846FFF744
:108720005AFB8045E6D121465846FFF757FBE1E763
:10873000112E26D1002495F8F820E3B29A4201D8F0
:10874000002618E005EB8303D3F8FC008388BB42C6
:1087500002D103681B6898470134ECE705EB8404F9
:10876000D4F85001FFF734FB874203D1D4F850010D
:10877000FFF72BFB013695F84C31F4B2A342EDD84C
:1087800062E0532E1AD0562E2AD0352E5CD1618944
:10879000002959D0A2890E34231B901CB3FBF0F39F
:1087A0008B4205F5F87503D2A11C284601F0CFFDD8
:1087B000284607B0BDE8F04F01F0E1BD244A282368
:1087C00007FB033313441446586820B100231A46AC
:1087D000194605F0A5F9282202FB0747012310E0FE
:1087E0001B4A282307FB033313441446586820B15F
:1087F00000231A46194605F093F9282202FB074781
:10880000002387F828301FE0DBF800205846D268A4
:10881000214690470E4800F0DFFD00283FF43FAFAF
:10882000502E7FF43CAF594604A8FFF7B3F9BDF8CA
:10883000143043457FF433AF054B4B4439465A8BD4
:10884000987B01F0F3FD2AE707B0BDE8F08F00BF89
:10885000D836002090F85430282B1FBF5A1C1633EE
:1088600080F8542040F8231014BF012000207047E6
:108870000378132B9FBF5A1C027000EB83004160EA
:1088800094BF0120002070478ADF704710B504466E
:1088900005F092FF0128204603D1BDE8104007F003
:1088A000E7BBBDE8104005F01DB810B504461F2316
:1088B000206283840123002180F82930802380F8FE
:1088C000281080F82A3080F82B10818580F8341029
:1088D00001638163C1630E22403007F00EFCA023C8
:1088E000A4F842305023A4F84430204610BD0000C4
:1088F00038B504461F232062A0F84610838400F197
:1089000020014030FFF7C0FF054670B17B220A49C5
:108910000A4808F035FA284606F060FF08F030FAF9
:108920000A2008F045FA002038BD054800F06AFE2C
:10893000012084F8280038BD813A030096370300EF
:10894000D836002010B500F120010020FFF79CFF71
:10895000044670B186220849084808F011FA2046FA
:1089600006F03CFF08F00CFA0A2008F021FA00207B
:1089700010BD012010BD00BFA23A030096370300CE
:1089800038B5012A9DF814501BD948780C789842C4
:1089900004D1013C0231E4B209D114E0E0430244C5
:1089A000013412F0FF022144EFD1104638BD15B159
:1089B000AC4228BF2C462246049807F078FB20469C
:1089C00038BD002038BD084638BD37B59DF8185071
:1089D0000C7F8DE82800134689692246FFF7D0FFF7
:1089E00003B030BD2DE9F04F8FB002AC8046204679
:1089F000894684E80C0000F034F9C0B2102807D191
:108A000002238DF8143003238DF81530274606E035
:108A100006238DF81430039F07238DF815300026A8
:108A2000C508B2461F22002106A807F066FB05AB69
:108A30004946F25CCDF800A006AB4046FFF7C5FF03
:108A40000DF1180B04465CB12A463946584607F02A
:108A50001FFB08B9012007E0641BAB44E4B2F2E756
:108A60000136022EDED120460FB0BDE8F08F0000A7
:108A7000F0B50B88112B85B006464CD002D8102BD0
:108A80003BD095E01B2B5DD01D2B40F0918090F9E1
:108A90002A2091F91B309A4267DC90F8343001F1BA
:108AA000080523B996F82B30002B62D015E000277B
:108AB00096F83430FCB2A3420AD9336B03EBC403FB
:108AC0000CCB29463046FFF78DFF01370028EFD049
:108AD00096F83430A342E5D147E002230093FF2209
:108AE00003AB29463046FFF770FF00283DD0B28D1A
:108AF000BDF80C309A4238D13BE0CB7B022B57D1EA
:108B0000002380F828302B4800F08DFD01212948F2
:108B100000F095FD4CE089882648FFF723FB0228EA
:108B200046D196F82810002942D1224800F087FD4E
:108B300096F82930002B3BD0B6F846103046FFF7A8
:108B4000D7FE35E00B7A012B32D1C36B002480F8BD
:108B500028406BB31020FFF799FEF26B046042606F
:108B60000472214606F0BCFC22E03046FFF7EAFE24
:108B70001EE02420FFF78AFE0746C8B10FCD3C4611
:108B80000FC40FCD0FC42B682360B36B83B11020CB
:108B9000FFF77CFEB26B42600122027204AA0760FA
:108BA00042F8047D03461068D86000211846D9E7D2
:108BB00005B0F0BDD8360020A8DF70477047000030
:108BC00037B500F108040546204600F059F8214663
:108BD0000DF106020120FFF7EFFF044668B14522C0
:108BE0000A490B4808F0CCF8204606F0F7FD08F0DB
:108BF000C7F80A2008F0DCF805E0064B06481D60BF
:108C00002946FFF735FE204603B030BDBC3A0300CD
:108C100096370300D4360020B437002013B504463D
:108C20008DE806002346064943F8081B9DE803002B
:108C300083E8050000232046A38002B010BD00BFDA
:108C4000E83A030062DF704763DF704701238370F7
:108C500000230180436070470023837003804160DC
:108C600070478378012B06D0426832B9012B8CBF44
:108C7000802000207047102070478020704700003F
:108C800010B5837802460BB1002419E04068002833
:108C9000FAD0911CFFF7D6FF10205168FFF7D4FFE0
:108CA00004460028F0D06D220649074808F068F80D
:108CB000204606F093FD08F063F80A2008F078F8E3
:108CC000204610BDF43A0300963703004BDF70478F
:108CD00010DF704775DF704776DF704777DF7047CA
:108CE00078DF70477ADF70477CDF70477DDF704741
:108CF000B1DF704760DF704769DF704761DF704741
:108D000067DF70472DE9F74303461D4D0646894648
:108D100014461C491C484C2208F032F84D221B49CD
:108D20001B4808F02DF828680090B5F80480ADF8CD
:108D300004803827494668468DF8027008F020F80C
:108D40004E221249134808F01BF82868009021466B
:108D50006846ADF804808DF8027008F011F8012E15
:108D60000CD15CB10C490D4808F00AF82288616802
:108D70000B4808F005F80A2008F01AF8FEE700BFD3
:108D8000093A0300BC3B0300C93B0300113F030049
:108D9000DB3B0300EB3B0300FD3B0300D13803004A
:108DA000043C0300132006F0FFBD000037B5164D4C
:108DB000D5F8C8034FF0FF3105F014F80028F7D0BC
:108DC000124C01A8FFF782FF0528F1D00028F8D146
:108DD000019B023B012BF4D80D490E4807F0D0FF50
:108DE0000D4B01990D4802290CBF2146194607F089
:108DF000C7FF0A2007F0DCFF094B002BE1D00198E8
:108E000004F048FDDDE700BFD8360020163C030023
:108E1000243C0300D13803001E3C0300283C03001F
:108E200095D8020010B5044605F0C6FC012820467E
:108E300003D1BDE8104007F01BB9BDE8104004F0B5
:108E400051BD10B50446FFF751F904F1DC00FFF7FE
:108E500091FB04F53770FEF78CFB04F54570FEF7C7
:108E6000E5FA04F54D70FFF720FD04F56170FEF79B
:108E7000A6FC04F56570FFF7BBF804F5757000F00B
:108E8000CFFE4FF400620023C4F8AC230A22C4F8DA
:108E9000B03384F8B123012284F8B02384F8D023BE
:108EA0004FF6FF72A4F824241022A4F8B623182247
:108EB000A4F8B82384F8B433C82284F8B53384F80E
:108EC000C033C4F8C433C4F8C833C4F8CC33A4F8EE
:108ED000BA33A4F8BC23A4F8BE33C4F82834C4F8C9
:108EE0002C34C4F83034204610BD000070B5A44EB8
:108EF00080F8B4138CB080F8B52305463068039031
:108F0000A04903A8FFF7E4FE044610B140F20D1299
:108F100010E009909C4A0A900B9095F8B1330492A6
:108F200009A901208DF82430FFF7E6FE044670B150
:108F30004FF49F729549964807F022FF204606F0AD
:108F40004DFC07F01DFF0A2007F032FF82E195F883
:108F5000B43309908DF8253095F8B5338DF8263067
:108F600000330A900B9018BF0123049A8DF8273024
:108F700009A94020FFF7C0FE044610B140F2451297
:108F8000D8E795F8B033099063F300040A900B908A
:108F9000049A8DF8244009A9A020FFF7ADFE0446ED
:108FA00010B14FF4A772C5E70A900B90D5F8AC3317
:108FB000049A099309A9A120FFF79EFE044610B167
:108FC00040F25312B6E795F8B433002B4CD02A8800
:108FD00009900A900B900123ADF8262009A9049A64
:108FE0008DF824302320FFF787FE044610B14FF49C
:108FF000AE729FE795F8B42309908DF82620AA78E1
:109000000A900B90ADF8282009A9049A8DF8243015
:109010002020FFF771FE044610B140F2631289E789
:10902000EA7809900A900B908DF8262009A9049AF5
:109030008DF824302220FFF75FFE044610B140F285
:10904000691277E709900A900B908DF82430049A02
:109050002B798DF8263009A92120FFF74DFE044613
:1090600010B140F26F1265E795F8B533002B4DD083
:109070000023EA8809930A930B93ADF82620022374
:10908000049A8DF8243009A92320FFF735FE044601
:1090900010B14FF4BC724DE795F8B52309908DF8E7
:1090A00026202A7A0A900B90ADF8282009A9049A64
:1090B0008DF824302020FFF71FFE044610B140F247
:1090C0007F1237E76A7A09900A900B908DF8262074
:1090D00009A9049A8DF824302220FFF70DFE0446DA
:1090E00010B140F2851225E709900A900B908DF897
:1090F0002430049AAB7A8DF8263009A92120FFF795
:10910000FBFD044610B140F28B1213E704A8FFF7F1
:10911000F1FD044658B11F491F4807F031FE1A4AB5
:1091200004991E4807F02CFE0A2007F041FE194959
:10913000194807F025FE0499194807F021FE0A2076
:1091400007F036FE14B14FF4CD72F3E6079408949D
:10915000E4B244F0010407A902208DF81C40FFF797
:10916000CFFD044610B140F2A112E3E605F2B6309D
:10917000FFF7B8FD0446A8B14FF4D372DAE600BF9A
:109180000C3B0300058D020000340020413F03002A
:1091900096370300433C0300D1380300473C0300EB
:1091A000EE3C03000CA8337900F8283D0B222B4934
:1091B000FFF79AFD044610B14FF4D572BAE6FFF7F7
:1091C0008FFD044610B14FF4D672B3E605F5757005
:1091D00000F048FD95F8B5331BB105F56170FEF759
:1091E000F9FA03220021012004F074FCC5F8C4033D
:1091F00008B904242EE005AB032401934FF4C062A8
:10920000002317490094174805F031F82246002141
:10921000012004F05FFCC5F8C8030028E9D006ABC4
:10922000019300940023C8220F49104805F01FF84D
:109230000F4B4FF480021A600E4B00930023012263
:109240004FF48071184605F0EFFBC5F8CC0301F030
:1092500015F9002420460CB070BD00BF103D03007E
:10926000D3500300BD950200243C0300AD8D0200E5
:1092700000E100E0A58D020037B5084B02AC1B7978
:1092800004F8043D08460D4607F000FF294682B267
:109290002046FFF729FD03B030BD00BF0C3B0300A3
:1092A00013B5084602A921F8022DFFF71FFD044659
:1092B00078B14FF4F0720949094807F061FD204682
:1092C00006F08CFA07F05CFD0A2007F071FD002023
:1092D00001E09DF8060002B010BD00BF883B03000E
:1092E000963703007FB5194A05460C461068516849
:1092F000127A01AB03C31A70002301AAD156A1420E
:1093000003D00133092BF9D119E0B5F824144FF635
:10931000FF73994215D022460320FFF7DFFC064673
:1093200078B140F2F7120A490A4807F029FD3046A1
:1093300006F054FA07F024FD0A2007F039FD00205A
:1093400002E085F8C043012004B070BD113B03006A
:109350002C3B03009637030090F9C003704773B5A8
:109360000446D0F8CC030E4605F09CFC00230546CD
:10937000B6024FF47A720093B6FBF2F20421D4F8ED
:10938000CC0305F06FFB3DB900952B462A4603211F
:10939000D4F8CC0305F066FB02B070BDB0F824042D
:1093A0004FF6FF73C01A18BF01207047B0F82404AD
:1093B00008B54FF6FF73984206D01321FFF78CFCD7
:1093C000B0FA80F0400908BD012008BDC0F828149B
:1093D0007047B0F824047047B0F824144FF6FF73B8
:1093E000994201D0FEF7B9BE00207047B0F8BE0325
:1093F0007047000010B5064C0021D4F8C80304F0F3
:109400004EFCD4F8C4030021BDE8104004F047BC72
:10941000D8360020F7B50D4604468E886248634969
:1094200007F0AEFC288806F0C5F9324601466048D0
:1094300007F0A6FC0A2007F0BBFC29462046FEF7F1
:10944000D5FE294604F53770FEF742F904F54D7054
:109450002946FFF70DFBB4F824042B88864205D07B
:10946000102B01D01B2B5FD1112B01E0112B3CD015
:1094700002D8102B0AD057E0122B32D0522B53D1E6
:1094800000231A461946FFF733FC4DE0EB7B012B16
:109490004AD12B8AB4F8B623A888A4F824049A42A7
:1094A000A4F8BE3367D8B4F8B823934263D8D4F88D
:1094B0002834002B38D01020FFF7B4FCD4F828242F
:1094C000426001220272002102AA03460160B4F840
:1094D000240442F8080D1068D860184606F000F819
:1094E00022E02B89A4F8BE331EE0D4F82C34BBB1A3
:1094F0001420FFF797FCD4F82C2442600222027259
:1095000000270760B4F8242400922A7A01926A4660
:10951000034603CAD86019611846394605F0E0FFD2
:109520004FF6FF73A4F8243494F8B53363B1B4F85C
:109530002434B34203D14FF6FF739E4204D129462F
:1095400004F56170FEF74CF904F565763046FEF7D8
:1095500067FD18B129463046FEF764FD294604F13F
:10956000DC00FFF769F8D4F83034DBB1284603B0EB
:10957000BDE8F04018470021FFF7ACFB0746002884
:1095800095D040F216320B490B4807F0F9FB3846EC
:1095900006F024F907F0F4FB0A2003B0BDE8F04020
:1095A00007F006BC03B0F0BDD1380300D350030070
:1095B0001C3D0300573B03009637030073B54FF47F
:1095C000FA70FFF72FFC0E4E04464FF0FF31D6F82D
:1095D000C40304F007FC0028F7D04FF4FA750DF12E
:1095E00006012046ADF80650FFF788FB20B921465A
:1095F0000348FFF70FFFF2E70528E6D0EFE700BFCB
:10960000D836002090F8D03313B553B1D0F8CC43FE
:1096100004F09AFE0023024600930121204605F043
:1096200021FA02B010BD07B5002300931A460321AA
:10963000D0F8CC0305F016FA03B05DF804FB90F8FF
:10964000D03313B1132006F083B9704730B5BE4D47
:109650002DED028B95F862308DB00446002B00F0A2
:10966000B881D0F8C433002B00F0B381B749284645
:1096700003F00CFEB64AB749284603F011FE0A2251
:1096800094F8B113284603F050FEB34AB149284676
:1096900003F006FE0A22D4F8AC13284603F059FE64
:1096A000AE4AAC49284603F0FBFD0A2294F8B013F9
:1096B000284603F03AFE94F8B433002B3BD0A84977
:1096C000284603F0E3FDA749284603F0CFFDA64A4C
:1096D000A049284603F0E4FD0A222188284603F029
:1096E00064FEA049284603F0C1FDA04A99492846D6
:1096F00003F0D6FD0A22A178284603F016FE994908
:10970000284603F0B3FD9A4A9249284603F0C8FD63
:109710000A22E178284603F008FE9249284603F021
:10972000A5FD944A8B49284603F0BAFD0A22217907
:10973000284603F0FAFD94F8B533002B3BD08E4950
:10974000814803F0A3FD87497F4803F08FFD864AD7
:1097500080497D4803F0A4FD0A22E1887A4803F09D
:1097600024FE8049784803F081FD804A7949764893
:1097700003F096FD0A22217A734803F0D6FD794959
:10978000714803F073FD7A4A72496F4803F088FD0F
:109790000A22617A6C4803F0C8FD72496A4803F0F6
:1097A00065FD744A6B49684803F07AFD0A22A17A84
:1097B000654803F0BAFD7149634803F067FD04ADE5
:1097C0006F4A6449604803F06BFD2022002128465F
:1097D00006F093FC202229462046FFF761FD29462A
:1097E000594803F05DFD584803F048FD654A594962
:1097F000554803F055FD94F8B423634952480032AC
:1098000018BF012203F04CFD94F8B5335F494E4870
:10981000002B14BF0422002203F042FD4A4803F04B
:109820002DFD5B4A4B49484803F03AFD594B0FCB9D
:1098300085E80F0002A92046FEF77FFC00230546BD
:10984000009306223A2302A93F4803F0B9FD0CAB6E
:1098500003EB8505504955F8202C3B4803F020FDCB
:10986000394803F00BFD4D4A3A49374803F018FDDB
:1098700094F9C0234A49344803F012FD324803F0FA
:10988000FDFC484A3349304803F00AFDB4F8B633CA
:1098900007EE903AF8EEE77AB7EE048A67EE887A38
:1098A00017EE900A06F0FEFA02460B4626483E499D
:1098B00003F0F6FCB4F8B83307EE903AF8EEE77A26
:1098C00067EE887A17EE900A06F0ECFA0B4602462D
:1098D00036491D4803F0E4FC1B4803F0CFFC344A32
:1098E0001C49194803F0DCFCB4F8BC3307EE903A8D
:1098F000F8EEE77AB2EE047A67EE877A17EE900A0E
:1099000006F0D0FA0B4602462A490F4803F0C8FC7D
:109910000D4803F0B3FC94F8B43353B1264A0D4913
:10992000094803F0BDFC084803F0A8FC012000F042
:1099300001FE94F8B533002B48D0204A054902486F
:1099400003F0AEFC3CE000BF9C3B0020323D030036
:10995000583D0300643D03006C3D03007C3D030063
:109960008C3D0300A73D0300AC3D0300B43D030064
:10997000C13D0300D03D0300E13D0300F93D03007C
:109980001B3E0300203E0300303E0300423E030026
:10999000503E03001C3B0300583E03005E3E0300A4
:1099A000673E03006E3E03007D3E03008D3E0300D4
:1099B0009B3E0300933E0300A83E0300C23E03000B
:1099C000064803F05BFC022000F0B4FD034803F0FE
:1099D00055FC0DB0BDEC028B30BD00BF9C3B0020A0
:1099E0000148FFF733BE00BFD836002010B5054C44
:1099F0002046FFF726FA2046034A0449BDE81040F6
:109A000006F0B8BAD836002000340020119A0200BF
:109A100010B5054BC0F8D433044600F57970FDF756
:109A20003FFF204610BD00BFA83F03003CDF70474A
:109A30003DDF704711DF704713DF7047B0DF7047BD
:109A4000B2DF7047F0B59DB00C8807460D46014661
:109A500008A8FEF79FF8BDF82030A34240F0C98067
:109A6000AB79043B022B40F2C480634E3046FFF7D3
:109A7000B0FC1022044600210DEB020006F03DFB75
:109A8000022338468DF81030FEF708F940B940F24D
:109A9000FD1304A92046ADF81430FFF7CFFFA8E06E
:109AA000002304A92046ADF81430FFF7C7FF2F7B31
:109AB000012F40F09E80514D19463E22284606F067
:109AC0001CFB1CAA082322F8623D4D493B46204658
:109AD000FFF7B6FF224631466846FEF748FB00987E
:109AE0002860BDF804209DF80630AB71AA8021469D
:109AF0003046FEF732FB10B3282303FB046408AAA8
:109B0000618B384600F0DAFCC8B11AAC94E8030067
:109B10003C4AA980090C2860A97116AD2B4603CBDD
:109B2000A342106051601D4602F10802F6D108AC54
:109B30000FCC354D0FC594E8070085E807002F4886
:109B4000324C4FF6FF7110F8012B82EA112383EAA1
:109B500013139AB243EA012383EA023383EA4213DE
:109B6000A04299B2EFD1254B294899870021FDF7F2
:109B700022FD2148FFF71AFCFF210020FFF758FFC4
:109B8000B1210020FFF752FF044608B1A32204E0F0
:109B9000FFF750FF044668B1A4221E491E4807F093
:109BA000EFF8204605F01AFE07F0EAF80A2007F061
:109BB000FFF81EE0194B4FF48002C3F88021012406
:109BC000420900F01F012032013004FA01F1272878
:109BD00043F82210F4D14FF010235869FFF72CFFFF
:109BE000044608B1B922D8E780F31488586900F018
:109BF00069FE1DB0F0BD00BFD8360020807F002078
:109C0000B47F0020877F0020987F0020BC7F002049
:109C1000B4390020C43F03009637030000E100E0A0
:109C200073B505460C496846FFF716F82E469DE8C1
:109C300006002846FEF7F2FF084B46F8103B684640
:109C40000749FFF709F89DE806003046FDF764FF75
:109C5000284602B070BD00BF723F0300A83F03005A
:109C6000B43F030070B5A2B00646FEF7A9FF044654
:109C700068B1C9223E493F4807F082F8204605F006
:109C8000ADFD07F07DF80A2007F092F86DE012AD07
:109C900039492846FEF7E0FF95E8060002A8FDF7DF
:109CA0003BFF02A8FDF74EFF042102A8FDF74DFF80
:109CB000142102A8FDF74CFF02A8FDF7F9FD0446A8
:109CC00008B1D02213E006F1100420461821FDF758
:109CD0003CFF20461721FDF73BFF20462749FDF7B3
:109CE0004CFF2046FDF7E4FD044668B1D52220492B
:109CF000204807F045F8204605F070FD07F040F8D1
:109D00000A2007F055F82DE01D496846FEF7A4FF2C
:109D10009DE806002846FDF7FFFE2846FDF712FFE6
:109D200002212846FDF711FF02212846FDF712FF08
:109D30002846FDF7BDFD044668B1DB220C490D48FD
:109D400007F01EF8204605F049FD07F019F80A2033
:109D500007F02EF803E001212846FDF758FF2846BA
:109D6000FDF79EFD02A8FDF79BFD204622B070BDC9
:109D7000823F03009637030014400300459A020017
:109D80002440030037B5044641F60A016846FEF751
:109D90005DFF9DE806002046FEF740FF074B23606D
:109DA000074B236100236361A361E361054B2362D9
:109DB000054B6362204603B030BD00BF784003000E
:109DC000344003001A4E0300E03503000161704780
:109DD00041627047F0B593B00446FEF7F1FE0546C8
:109DE00068B14F222C492D4806F0CAFF284605F0DD
:109DF000F5FC06F0C5FF0A2006F0DAFF48E005F0A2
:109E000049FD606105F010FD0C34E06042F6242647
:109E10006F4654F8043F002B33D031463846FEF7E6
:109E200015FF97E8060002A8FDF776FE02A8FDF7E9
:109E300089FE022102A8FDF788FE206807F026F9B6
:109E400081B202A8FDF786FE02A8FDF731FD0546A6
:109E500080B15E221049114806F092FF284605F0B5
:109E6000BDFC06F08DFF0A2006F0A2FF02A8FDF758
:109E700017FD0DE0216802A8FDF7BCFE02A8FDF762
:109E80000FFD0136B6B242F62A239E42C1D100250B
:109E9000284613B0F0BD00BF4F40030096370300C3
:109EA00007B5036801229B690DF10701984710B1BE
:109EB0009DF8070001E04FF0FF3003B05DF804FBB0
:109EC000A0F11000FFF7ECBF13B502AB026803F876
:109ED000011D146A19460122A04702B010BDA0F16D
:109EE0001000FFF7F1BFD0F8A030988980B270471A
:109EF000A0F11000FFF7F7BF70B50D461646FDF74D
:109F00001FFE044632462946D0F8A00005F0B5FBF6
:109F1000D4F8A83013B1BDE87040184770BD37B50C
:109F20000546D0F8B40080B10024009423462246B0
:109F3000052104F097FDD5F8AC00C5F8B44020B178
:109F400003B0BDE8304005F056BB03B030BDD0F8DB
:109F5000A00005F050BBA0F11000FFF7F8BF08B556
:109F600092B2D0F8A00005F0C9FB08BD07B5D0F843
:109F7000A0000DF1070105F0DBFB10B19DF8070013
:109F800001E04FF0FF3003B05DF804FBA0F11000DA
:109F9000FFF7ECBF37B590F8B03004469BB10B4BE0
:109FA0000093012203460A21002004F03DFDC4F87D
:109FB000B400054604F0C8F90023024600930121CD
:109FC000284604F04FFD03B030BD00BFC1A0020021
:109FD000F7B504460F4668461A49FEF73DFE9DE870
:109FE00006002046FEF71AFE4FF47A73A361164B63
:109FF0001649002603F108024033236122606846B7
:10A000006661FEF729FE9DE8060004F12000FDF7D9
:10A0100083FD68460E49FEF71FFE9DE8060004F129
:10A020006000FDF779FD2046C4F8A060C4F8A86080
:10A03000A4F8A470C4F8AC6084F8B060C4F8B4604C
:10A0400003B0F0BD94400300A4400300844003002B
:10A05000FC40030070B506461848FFF7BAF9014600
:10A060001648FEF7A1F8033885B204F0A5FB0128D5
:10A07000284602D105F0FCFF01E003F033FC044662
:10A08000D8B12A460146D6F8AC0005F037FB0246A7
:10A0900030B1214606F12000FDF710FE054600E034
:10A0A000012504F089FB0128204602D105F0E8FFD4
:10A0B00001E003F026FC284670BD70BDD8360020B4
:10A0C00008B504F0FBFDD0F8AC301BB1BDE808408A
:10A0D000FFF7C0BF08BD00002DE9F04790F8B03091
:10A0E00005468946174600F1200813B1D0F8AC3078
:10A0F0003BB9BAB249464046FDF7E0FDF0B900244D
:10A100002EE04046FDF7CAFD0028F8D0BEB2324628
:10A110004946D5F8AC0005F0B0FAD5F8AC300446A5
:10A120001148B3F80CA0FFF754F901460E48FEF7AA
:10A130003BF81FFA8AFA0338824501DA3C460FE001
:10A140002846FFF787FF0028D9D0A742F6D9321B4F
:10A1500092B209EB04014046FDF7B0FD0028EDD1B5
:10A160002046BDE8F08700BFD8360020A0F11000DF
:10A17000FFF7B2BF0A4B10B50360383304460361E2
:10A18000D0F8AC0010B103685B68984704F1600038
:10A19000FDF786FB04F12000FDF782FB204610BD91
:10A1A000AC40030010B50446FFF7E4FF204604F07E
:10A1B000B5FF204610BD0000F8B50446182004F095
:10A1C000ABFF00220546012105F0E0F92846C4F85E
:10A1D000A050B4F8A41005F0F6F92046FEF7F0FC04
:10A1E000054610B11034B3233DE001212748FDF7A7
:10A1F0009FFF04F12006074610213046FDF7A5FC1D
:10A200002A4611213046FDF7B1FC39463046FDF7AC
:10A210009FFC1F493046FDF7BBFC3046FDF748FB6D
:10A22000054610B11034BD231DE004F160060C2179
:10A230003046FDF78AFC17493046FDF79CFC112299
:10A2400029463046FDF792FC39463046FDF780FC42
:10A2500011493046FDF79CFC3046FDF729FB0546C9
:10A2600088B11034C7230D4A0D49204603F018F871
:10A27000284605F0B3FA0146204603F011F80949D3
:10A28000204603F00DF82846F8BD00BFD836002060
:10A290000C410300F99E0200104103001441030029
:10A2A00096370300E44A0300012303700023437040
:10A2B00043608360C3818381704708B5FFF7F4FF73
:10A2C00008BD10B50446217019B90A2003F01FFC1F
:10A2D000606010BD037810B5044613B9406803F000
:10A2E0003DFE2046BDE81040FFF7DEBF0023816041
:10A2F0008281C3817047037870B505460C466BB9FF
:10A300000123A4024FF47A716B70B4FBF1F1686819
:10A3100003F068FD68B94FF0FF340CE00322002120
:10A32000012003F0D7FB68600028E9D14FF0FF302F
:10A3300070BDEC89A4B22B7800266E701BB16868E2
:10A3400003F00CFE6E60204670BD4078704738B553
:10A3500085899542044628BF154619B12A4680686A
:10A3600005F0A5FEA3682B44A360A3895B1BA38112
:10A37000E38915FA83F39BB2E381284638BD406830
:10A3800020B100231A46194603F0CABB7047B1DF5B
:10A390007047B2DF7047000010B4054B054C01292F
:10A3A0000CBF214619465DF8044B06F00BBE00BFFA
:10A3B000814103006841030010B5044604F0FCF934
:10A3C0000128204603D1BDE8104005F051BEBDE88C
:10A3D000104003F087BA0000F0B5064685B0502063
:10A3E0000D461746FFF7E8FF0446D8B1502239461C
:10A3F00005F05DFE1820FFF7DFFF0B4A42600322E5
:10A40000027201960295039401AA0346046003CAEE
:10A41000D8601068196158610021184605F060F88D
:10A420000120FFE705B0F0BDCDA70200F0B54FF663
:10A43000FF739A4285B007460E4615464FF000045A
:10A4400017D01820FFF7B8FF0B4A426003220272B0
:10A4500001970296039501AA0346046003CAD860D7
:10A460001068196158612146184605F039F8012035
:10A4700000E0204605B0F0BDFDA6020008B50C487E
:10A4800000F04AFD0B490A4800F099FB18B9094948
:10A49000074800F051FC0849054800F090FB28B936
:10A4A00005490348BDE8084000F046BC08BD00BFB0
:10A4B0000C3B00209A410300AE41030030B591B03F
:10A4C00015460A46014601A8FFF766FF0F4B00221A
:10A4D00001A908A800F0F2FA08A800F003FB04465E
:10A4E00008B900240CE008A800F04EFA50280246F3
:10A4F000F7D1294608A800F037FA08A800F09CFA1E
:10A5000008A800F0E1F9204611B030BD0C3B002056
:10A5100038B5044600F038FA051E08DD204600F084
:10A5200056FA2918204600F041FA012038BD0020D3
:10A5300038BD0000B0B53549354C364B98B000AF4A
:10A54000012808BF21460022384600F0B7FA3149F9
:10A5500007F1200000F0F8F90022394607F1400029
:10A5600000F0D2FA07F1400107F1200000F078FA7C
:10A5700000F0B8FA044607F1400000F0A5F984B3F2
:10A5800007F1200000F0BEFA30BB07F12000FFF712
:10A59000BFFF08B307F1200000F0F6F9021E1BDD33
:10A5A000D31D23F007036C46ADEB030D694692B251
:10A5B00007F1200000F0D8F907F1200000F097FA29
:10A5C000054607F1200000F023FA6A4603462946B3
:10A5D000114806F0D5FBA54607F1200000F02CFA43
:10A5E000BAE70A2006F0E4FB07F1200000F024FAA5
:10A5F000384600F021FA07F1200000F065F93846EE
:10A6000000F062F96037BD46B0BD00BFAE41030047
:10A610009A4103000C3B0020C2410300F0B54FF605
:10A62000FF7391B09A420E4600AF0BD128492948DA
:10A6300006F0A6FB284806F0A3FB0A2006F0B8FBAC
:10A64000002440E00146381DFFF7A6FE234B002200
:10A65000391D07F1200000F031FA07F1200000F069
:10A6600041FA08B9002424E007F12000FFF750FF69
:10A6700007F12000FFF74CFF07F1200000F084F9FC
:10A680000028EFDDC31D23F0070384B26D46ADEB58
:10A69000030D2246694607F1200000F065F92246C5
:10A6A000694603233046FFF772FEB0FA80F464096E
:10A6B000AD4607F1200000F0BFF907F1200000F0DF
:10A6C00003F9002CB2D020464437BD46F0BD00BF90
:10A6D000D8410300D1380300DD4103000C3B0020CA
:10A6E00070B505460E461446D1B200F0EEF822468B
:10A6F00031462846BDE8704000F015B92DE9F04319
:10A7000091B000AF07F140040E46002124F83E1D31
:10A7100003238046914630462246FFF73AFE7B8867
:10A720006D46002B46D0073323F00703ADEB030D36
:10A730002246032369463046FFF72BFE044668B1E4
:10A74000AA221F491F4806F01BFB204605F046F8C9
:10A7500006F016FB0A2006F02BFB2BE04A4641468A
:10A76000381DFFF719FE184B0122391D07F1200093
:10A7700000F0A4F907F1200000F0B4F9B0B12146CF
:10A7800007F1200000F012F907F12000FFF7C0FEEA
:10A7900007F12000FFF7BCFE07F120007A88694628
:10A7A000FFF79EFF07F1200000F046F907F12000B7
:10A7B00000F08AF84437AD46BD46BDE8F08300BFDF
:10A7C00033410300963703000C3B002030B514469C
:10A7D00001289DB00CBF528AE28D0D46014605A8A6
:10A7E000FFF7DAFD05A9254800F0E9F918B105A938
:10A7F000224800F009FB214B012205A90CA800F01A
:10A800005DF90CA800F06EF9002832D050222146E4
:10A810000CA8FFF765FF2022002114A805F06DFCAD
:10A82000202314AA29461648FDF7C4FC9DF8503091
:10A830009BB994F84910039194F84A10029194F846
:10A840004B10019194F84C10009194F84D3094F80D
:10A850004E200C4914A806F0B5FB14A806F016FC0F
:10A86000421C92B20CA814A9FFF73AFF0CA800F002
:10A87000E3F80CA800F028F81DB030BD0C3B002018
:10A88000D8360020F4410300F0B50346186880F381
:10A8900008885868FF2464B2EFF30585002D01D1C4
:10A8A000A64600472546064621273FBAF0B40024B5
:10A8B000002500260027F0B4F92040B2004700BF71
:10A8C000F0BD00BFFFF7E0BF704707B5027F8DF80E
:10A8D000071032B9036801225B680DF10701984740
:10A8E00000E0002003B05DF804FB10B5044604F05E
:10A8F00015FC204610BD10B5044603F05DFF01288D
:10A90000204603D1BDE8104005F0BABBBDE81040B9
:10A9100002F0F7BF027F034622B900695969026855
:10A92000926A104770471346027F30B442B90469F7
:10A930002268156A0A46AC464169204630BC604729
:10A94000002030BC7047000010B54FF47A7400222C
:10A950008460044C4260046001614261826102775C
:10A9600010BD00BF1C4203001346027F30B442B941
:10A9700004692268556A0A46AC464169204630BCE3
:10A980006047002030BC7047037F07B513B14FF01C
:10A99000FF3008E001220DF10701FFF7E5FF002875
:10A9A000F5DD9DF8070003B05DF804FB0A46017F62
:10A9B00010B4034639B9006901680C6B5969234624
:10A9C0005DF8044B184700205DF8044B7047027F88
:10A9D000034622B9006959690268526B104700208A
:10A9E000704738B5037F05467BB90368DB68984735
:10A9F00004462846FFF7EBFF08B1411E00E0014680
:10AA00002846FFF7D3FF204638BD4FF0FF3038BD52
:10AA1000027F034622B9006959690268926B1047A8
:10AA20000020704738B50546FFF7F2FF0446284678
:10AA3000FFF7CDFF201A38BD416910B5044639B182
:10AA40000069227F0368DB6A98476069FFF753FF5C
:10AA5000A06908B1FFF74FFF00236361A36110BD38
:10AA600038B5436905460C460BB1FFF7E5FF2146B3
:10AA70002B4604F1200251F8040B43F8040B9142D9
:10AA8000F9D1284638BDF0B5436989B004460E4671
:10AA900017460BB1FFF7D0FF21690B6832465D689E
:10AAA00068463B46A84769462046FFF7D9FF6069DC
:10AAB000003018BF012009B0F0BD000070B54FF4A0
:10AAC0007A7600258660064E45600446066003617E
:10AAD000456185610577FFF7D6FF204670BD00BF51
:10AAE0001C4203004069003018BF0120704710B5B8
:10AAF00084692F21204606F0D1FA08B1013010BD3B
:10AB0000204610BD007F70470B7F73B505461BB90B
:10AB10000969FFF719FF07E00C6923680092DE6BF3
:10AB20004A698B692146B047284602B070BD70471C
:10AB300008B502F0BBFE002008BD08B501F55A615A
:10AB400002EBC110029A194602F0B6FE002008BDC1
:10AB500008B501F55A6102EBC1111846029A02F0DC
:10AB6000B3FE002008BD10B5044604F0D7FA204615
:10AB700010BD08B53C30002301F080FDC043C00F7C
:10AB800008BD10B5044603F017FE0128204603D186
:10AB9000BDE8104005F074BABDE8104002F0B1BE47
:10ABA00010B5044603F008FE0128204603D1BDE895
:10ABB000104005F05DBABDE8104002F093BE00B54C
:10ABC000C3B06A463C3001F02DF9B0FA80F040097C
:10ABD00043B05DF804FB08B53C3001F02BFB20EAE4
:10ABE000E07008BD3C3001F0E4BC3C3001F00EB92F
:10ABF0003C3001F00DB93C300AB101F082B801F0EF
:10AC0000E5BF000010F1140F08B502462DD013DC8B
:10AC100010F11C0F2FD007DC10F1340F1FD010F1F2
:10AC2000270F2AD1194808BD10F1160F21D010F1B5
:10AC3000150F22D1164808BD10F1090F17D007DCF7
:10AC400010F1110F0FD010F10C0F16D1114808BDE3
:10AC5000811C06D0B8B1431D0FD10F4808BD0F4865
:10AC600008BD0F4808BD0F4808BD0F4808BD0F4874
:10AC700008BD0F4808BD0F4808BD0F490F4806F032
:10AC8000A1F90E4808BD0E4808BD00BF3A440300B4
:10AC90002C44030074440300E6430300F143030023
:10ACA000014403000F4403001D4403004B44030010
:10ACB0005844030066440300133C0300903B00200B
:10ACC000DB43030070B5054679B905F13C06043550
:10ACD0002946304602F088F8044688B1E622144935
:10ACE000144806F04DF8204616E04FF4DA242046CA
:10ACF00004F5805402F0F4FDB4F5E82FF7D1E4E751
:10AD00002946304601F0CCF8054670B1E7220849E3
:10AD1000084806F035F82846FFF774FF06F030F8CB
:10AD20000A2006F045F8002070BD012070BD00BF6C
:10AD30007B420300963703002DE9F0470B782F2B59
:10AD4000804600AF0D460CBF481C08464FF0000A75
:10AD50002F2106F06AF90446A0B3421B02F1080352
:10AD600023F00703E946ADEB030D6E468DF800A016
:10AD70006B460DEB02018B4202D003F801AFFAE7FC
:10AD80002946304605F093F9314608F13C0002F0BF
:10AD9000C1F8064698B110F1110F10D040F25312CD
:10ADA0001749184805F0ECFF3046FFF72BFF05F078
:10ADB000E7FF0A2005F0FCFFCD4600201CE0601CE8
:10ADC000CD46C5E7294608F13C0002F0A3F8054648
:10ADD00088B110F1110F0ED040F25D1208490948F8
:10ADE00005F0CEFF2846FFF70DFF05F0C9FF0A204A
:10ADF00005F0DEFFE1E70120BD46BDE8F08700BFBA
:10AE0000234303009637030010B53C3002F084F969
:10AE1000044678B14FF4B3720749084805F0B0FF13
:10AE20002046FFF7EFFE05F0ABFF0A2005F0C0FF5C
:10AE3000002010BD012010BDD84403009637030048
:10AE400010B53C3002F068F9044668B14FF4B672B0
:10AE50000649074805F094FF2046FFF7D3FE05F0AA
:10AE60008FFF0A2005F0A4FF012010BD4D43030011
:10AE70009637030010B53C3002F04EF9044668B135
:10AE800040F275120649074805F07AFF2046FFF7A1
:10AE9000B9FE05F075FF0A2005F08AFF012010BDFC
:10AEA000034503009637030010B53C3001F040FE27
:10AEB000044678B140F285120749084805F060FF62
:10AEC0002046FFF79FFE05F05BFF0A20BDE810401B
:10AED00005F06EBF10BD00BF774303009637030037
:10AEE00010B53C3000F082FF044678B140F2CB123E
:10AEF0000749084805F044FF2046FFF783FE05F0A8
:10AF00003FFF0A20BDE8104005F052BF10BD00BF52
:10AF1000A74403009637030038B590F880500446E4
:10AF2000BDB9012380F88030011D3C3000F0B8FF2E
:10AF300034300ED10849094805F022FF084805F0D1
:10AF40001FFF0A2005F034FF23682946DB692046ED
:10AF50009847012038BD00BF82440300D138030068
:10AF60008944030073B501F55A61CD010024FF2621
:10AF7000601901220DF1070101348DF8076002F01C
:10AF80009BFC802CF4D1002002B070BD0E4B10B59C
:10AF900038220446002140F8043B05F0AEF80B4B84
:10AFA000A3600B4BE3600B4B23610B4B636180236E
:10AFB000A361E3612362E022A3620023626284F85A
:10AFC0008030204610BD00BF3845030051AB020061
:10AFD0003BAB020065AF020031AB02002DE9F84344
:10AFE000984605460E461746FFF7AEFCB8F1000F2F
:10AFF00005D0B8F1010F39D140F2031901E04FF04B
:10B0000001093820FFF7CCFD044678B33C364B46A7
:10B010003A462146304602F078F8814680B1204613
:10B02000FFF7AFFDFD221349134805F0A9FE48467E
:10B03000FFF7E8FD05F0A4FE0A2005F0B9FE15E0D3
:10B04000B8F1010F05D1024602232146304601F036
:10B0500015FB00232B776C61384606F017F801309A
:10B06000FFF79EFD3946A86105F0F7FF2846BDE8C9
:10B07000F88300BF9E43030096370300F8B50F46E0
:10B0800015460446FFF760FC2C20FFF789FD2A4691
:10B090000146064607F13C0000F00AFE074688B16B
:10B0A0003046FFF76EFD40F219120E490E4805F0CA
:10B0B00067FE3846FFF7A6FD05F062FE0A2005F0A0
:10B0C00077FE0CE0012323776661284605F0DEFF5A
:10B0D0000130FFF765FD2946A06105F0BEFF20465F
:10B0E000F8BD00BFF04203009637030010B5054CD1
:10B0F0002046FFF74BFF2046034A0449BDE81040B5
:10B1000004F038BF0C3B0020003400202FAB0200BD
:10B110002DE9F0410C46CAB0154698460646FFF7A1
:10B1200013FC08AA294604F13C0000F07BFE074608
:10B1300048B99DF82030112B0AD02A46214668468E
:10B14000FFF79CFF0AE0831C10D1B8F1010F1BD15F
:10B1500043462A4621466846FFF740FF6946304687
:10B16000FFF77EFC6846FFF7AFFB0DE040F23912B7
:10B170000749084805F004FE3846FFF743FD05F08F
:10B18000FFFD0A2005F014FE30464AB0BDE8F0810C
:10B190003C420300963703002DE9F043CBB000AFEB
:10B1A00080460E4691461D46FFF7CEFB07F1200272
:10B1B000494606F13C0000F0B3FD012804460ED1DB
:10B1C00007F128012F4805F03EFF0028EED007F1D7
:10B1D00028012D4805F037FF0028E7D010E00028AF
:10B1E00049DA40F2C3122949294805F0C9FD204631
:10B1F000FFF708FD05F0C4FD0A2005F0D9FD3AE08F
:10B20000284605F043FF044607F1280005F03EFFFD
:10B210002044093020F00700E946ADEB000D294637
:10B22000684605F01AFF2B782F2B6C4601D16B78FE
:10B230001BB11849204605F0E9FE07F12801204618
:10B2400005F0E4FE97F82030112B07D197F848312C
:10B25000224631463846FFF7C1FE04E02246314619
:10B260003846FFF70BFF39464046FFF7F9FB3846F3
:10B27000FFF72AFBCD46404607F59677BD46BDE869
:10B28000F08300BF45360300443603009F420300AD
:10B2900096370300A544030003681A6AC36AD31AE9
:10B2A0001944B1FBF2F302FB1311036B994210B581
:10B2B0000BD24C09C26B012301F01F0103FA01F10B
:10B2C00052F82430194342F82410002010BD0368BE
:10B2D000013304D04068431C584258417047012054
:10B2E000704710B50B6804689C4209D040684A68F2
:10B2F000904205D0944203D0181A18BF012010BD07
:10B30000002010BD03689B6A10B5044613B9C069DC
:10B3100002F0F7FA2368DB6A13B9A06A02F0F1FAC7
:10B3200023681B6B23B9E06BBDE8104002F0E9BA5B
:10B3300010BD00002DE9F04F984603681B6A85B0E8
:10B34000434582460F4691460E9C0F9E109D28D87D
:10B35000354B364A3648122104F012FEDAF8000066
:10B36000B9F1000F20D0D9F8003098451CD1D9F898
:10B370000410A14218D8836901EB030B5C4513D27A
:10B38000C4EB0B0BAB45D9F8083028BFAB46611AAC
:10B3900030465A46194404F08AFE5E445C44CBEBC6
:10B3A0000505002DDAD13BE03B6898450FD179685F
:10B3B0008C420CD3436901EB030B5C4507D2C4EB11
:10B3C0000B0BAB4528BFAB46611ABB68E0E743698E
:10B3D000B4FBF3F203FB1242AAB99D4213D3B5FBAF
:10B3E000F3F203FB125BCBEB05030093039343687B
:10B3F00022461D4641463346A84790B9039B5D4609
:10B400001E441C44CDE7A21AC7F800807A6000935E
:10B41000D0F804B0BB684146D8470028C1D000E04E
:10B42000284605B0BDE8F08FB8450300B5490300D4
:10B43000D64503001FB5069C8DE81C000B46002274
:10B4400000F11401FFF776FF04B010BD10B50C46F3
:10B450008269A068FF2104F050FE4FF0FF332360A3
:10B4600010BD00008B6A10B5044601600BB1C361CA
:10B4700005E0486902F036FAE06100285FD02368F1
:10B48000DA6A0AB1A26205E0986902F02BFAA062BA
:10B49000002854D0206804F12001FFF7D7FF4FF0B7
:10B4A000FF3363612368586AC20604D0274B284AD9
:10B4B00040F6130104E030B9264B254A40F614014A
:10B4C000254804F05DFD1B6B0BB1E36305E0C0088C
:10B4D00002F008FAE063002831D0236898695969BE
:10B4E000B0FBF1F201FB120222B11C4B184A40F6EC
:10B4F0001F01E5E7DA69B2FBF0F300FB132020B18E
:10B50000174B134A4FF40261DAE74FF0FF31A2F113
:10B510000803B1FBF3F30B44B3FA83F3C3F1200345
:10B52000B2EB830F04D20F4B094A40F62401C7E760
:10B530006160A160E060206184F8400010BD204699
:10B54000FFF7E0FE6FF00B0010BD00BF3E460300AA
:10B55000A04503005C460300D64503007446030083
:10B56000A3460300D3460300C069F8B50E68A0F1F6
:10B5700008050F46B6FBF5F080B1013804F0E6FC93
:10B580000230A6EB8004B4FBF5F4204604F0DEFCA8
:10B5900004FB1565A5EB800038602046F8BD2DE959
:10B5A000F04F89B09B46129B139F884608A9013B28
:10B5B000064641F80C3D00689146FFF7D5FF0DF1B6
:10B5C000180A044659461498B84718BB0CB304F03F
:10B5D0000105C5F10205AB0002938DE801045B464D
:10B5E0004A4641463046FFF7A5FE98B9034605F1A5
:10B5F000FF3B5B4506DA06991498B84701230028FB
:10B60000F7D007E008AB03EB8B0B641B5BF808BCBF
:10B61000D8E7204609B0BDE8F08F00002DE9F04FD3
:10B6200089B0064689460592139F1BB94FF0FF3239
:10B630003A6042E008A9013B41F8043D0068FFF789
:10B6400093FF12A905463068FFF78EFF4FF0040AFA
:10B6500080460DF1140BA8452CD2C8EB0503B3FAB4
:10B6600083F395FAA5F4B4FA84F4C3F11F039C4262
:10B6700028BF1C46A3000093CDF808A0059BCDF879
:10B6800004B0002249463046FFF754FE059BB8B986
:10B69000012B03D93268126A934206D90A4B0B4A2E
:10B6A0000B484FF48F6104F06BFC012303FA04F4A0
:10B6B0002D1BD0E7059B3B60129B149A0020136062
:10B6C00009B0BDE8F08F00BF1F470300934503009A
:10B6D000D64503002DE9F04F87B00646109C119D1A
:10B6E0000F46904625444FF001090DF1170AC4EBAF
:10B6F000030BAC4214D00BEB04030093CDF808907D
:10B70000CDF804A04346002239463046FFF712FE2A
:10B7100038B914F8013B9DF817209A42E9D000E0AF
:10B72000012007B0BDE8F08FF7B50C4609684B1C47
:10B73000054616461ED000686268836900938768D4
:10B74000A368B847B8B926B921462868FFF77EFE36
:10B7500010E02B689B690193A3680093314694E83D
:10B760000C002846FFF7B6FF002804DBECD16FF091
:10B77000330000E0002003B0F0BD00002DE9F04FE1
:10B78000994603681B6A85B04B4507468846924632
:10B790000E9D0F9E109C25D83A4B3B4A9C212CE0D5
:10B7A000D8F80400854223D33B689B6900EB030B68
:10B7B0005D451DD2C5EB0B0BA345D8F8083028BF5B
:10B7C000A346281A5A463146184404F070FC3B68D8
:10B7D0009A695D44B5FBF2F302FB13535E44CBEB75
:10B7E00004046BB1002C48D0D8F800209145D7D084
:10B7F00001320DD0254B244AB721254804F0C0FB67
:10B80000524641463846FFF78FFF0028EAD035E020
:10B8100038688269B5FBF2F302FB13533BBB9442D9
:10B8200025D3B4FBF2F302FB134BCBEB04030093E1
:10B83000039383682A461C4649463346A047E8B925
:10B84000BAF1000F04D1039B5C461E441D44C9E7B6
:10B85000039B019300962B464A4651463846FFF714
:10B8600039FF00280ADBEED16FF0330006E0EB1A57
:10B87000C8F80090C8F80430B4E7204605B0BDE829
:10B88000F08F00BFB8450300844503004A4703001A
:10B89000D64503002DE9F04786B00546894600F1FC
:10B8A0001408D71814464FF0010A0DF11706BC42D0
:10B8B0000FD08DE850044B46002241462846FFF742
:10B8C00039FD013430B9012231460E9801F074FC83
:10B8D000EDE7002006B0BDE8F08700002DE9F04F4D
:10B8E0008BB01368049300245368059380460E467A
:10B8F000274606AD4FF0100A04AB002253F82490FF
:10B90000CDF800A02B4649464046FFF793FD30BBDB
:10B9100027B1F269069B9B1A002B3ADB079B23F0A9
:10B920000043132B35D9D8F80020D269934230D880
:10B930000DF1280B4FF0FF334BF81C3D1022294628
:10B94000584601F039FC079BCDF800B023F00043C6
:10B95000103B102249464046FFF79CFF18B110F1FA
:10B96000340F25D115E0039B9BB9631C0AAA03F091
:10B97000010302EB830306F11C0753F8183CB36084
:10B9800095E80F00C6F80490C6F80CA087E80F00F1
:10B9900001270134022CAFD14FB9059B049A064808
:10B9A0004FF4F77105F0ECF96FF0330000E0002080
:10B9B0000BB0BDE8F08F00BF664703002DE9F341EF
:10B9C00006460C46154601F124074FF01008216A7F
:10B9D000E26821F0004302F10C00043B984211D9C7
:10B9E000002903DB2A606FF0010026E03A46214679
:10B9F0003046FFF773FF00BBA369C4F80C80143313
:10BA0000A361E4E70C23009361682B1D3046FFF728
:10BA100011FD90B96A79A979E3682B600432114469
:10BA2000EA790A441344E3606B79AA790433134436
:10BA3000EA791344A2691344A36102B0BDE8F0811E
:10BA400030B5044693B004300D46FFF740FC40BBD0
:10BA50000190012301AA07A920460293FFF73EFFA8
:10BA600000BB10A8FFF733FCD8B910AA07A92046DD
:10BA7000FFF734FFB0B903AA07A92046FFF79EFFDE
:10BA800010B1831CEDD00DE09DF91030002BF2DBDE
:10BA90000822294605A804F0FBFA0028EBD1012072
:10BAA00000E0002013B030BD2DE9F8431D4600230F
:10BAB00053620123074688461446936202F1240626
:10BAC00005F108093046FFF702FCE0B9324621468D
:10BAD0003846FFF703FFC8B92A4621463846FFF724
