:020000022000DC
:106000000000012031F2020071F20200B9F9020031
:1060100075F2020077F2020079F20200000000003F
:10602000000000000000000000000000B1F10200CC
:106030007DF2020000000000D1F1020081F20200B6
:1060400083F2020083F202005DD9020083F20200B3
:1060500083F2020083F2020083F2020083F2020064
:1060600083F2020083F2020083F2020083F2020054
:1060700083F2020083F2020083F2020083F2020044
:1060800083F20200D5EF020083F2020083F20200E5
:1060900083F2020083F202006D96020083F2020096
:1060A00083F2020083F2020083F2020083F2020014
:1060B00083F2020083F202000000000000000000F2
:1060C00083F2020083F2020083F2020083F20200F4
:1060D00083F2020083F2020083F20200000000005B
:1060E00000000000000000000000000000000000B0
:1060F00000000000000000000000000000000000A0
:10610000000000000000000000000000000000008F
:10611000000000000000000000000000000000007F
:10612000000000000000000000000000000000006F
:10613000000000000000000000000000000000005F
:10614000000000000000000000000000000000004F
:10615000000000000000000000000000000000003F
:10616000000000000000000000000000000000002F
:10617000000000000000000000000000000000001F
:10618000000000000000000000000000000000000F
:1061900000000000000000000000000000000000FF
:1061A00000000000000000000000000000000000EF
:1061B00000000000000000000000000000000000DF
:1061C00000000000000000000000000000000000CF
:1061D00000000000000000000000000000000000BF
:1061E00000000000000000000000000000000000AF
:1061F000000000000000000000000000000000009F
:10620000044B05481B1A062B02D9044B03B118474F
:10621000704700BFE7340020E43400200000000095
:1062200005490648091A891001EBD171491002D0BD
:10623000034B03B118477047E4340020E4340020D6
:106240000000000010B5064C237843B9FFF7D8FFD3
:10625000044B13B10448AFF300800123237010BD39
:10626000E4340020000000007C5E030008B5084B09
:106270001BB108490848AFF300800848036813B908
:10628000BDE80840CCE7064B002BF9D09847F7E76C
:1062900000000000E83400207C5E0300E0340020B1
:1062A00000000000154B002B08BF134B9D46A3F5C3
:1062B000803A00218B460F461348144A121A0AF0FE
:1062C0004EF80F4B002B00D098470E4B002B00D000
:1062D00098470020002104000D000D48002802D03E
:1062E0000C48AFF3008009F0CFFF2000290008F030
:1062F000C9FF09F0A3FF00BF000008000000012053
:106300000000000000000000E4340020D053002012
:10631000000000000000000030B5202489B00546D0
:106320002246002168460AF01AF82346094C0A481A
:106330006A46294602F07AF80849204607F0D2F862
:106340006946204607F0DEF80549204607F0DAF8EE
:1063500009B030BD8C3B0020C83600203C3703001C
:106360004A37030010B5044600F004FF204610BD74
:10637000C043C0B2542807D800EB4002A0EB800015
:106380000138D2B2002115E0A9280AD85538C1B287
:10639000A1EB8102013A01EB4101D2B2C9B2002066
:1063A00009E05630C0B2A0EB8001013900EB40009B
:1063B0000022C9B2C0B201F0EDB8427D438D3AB9B6
:1063C0000133018D9BB2994243850BD8428506E08B
:1063D000013B9BB243852BB9038D013B4385C36AC7
:1063E00003B118477047437D23B901234375038DDB
:1063F000013B01E0002343754385704708B502481F
:10640000FFF7F1FF08BD00BF8036002008B5024845
:10641000FFF7E9FF08BD00BF2C35002008B5024892
:10642000FFF7E1FF08BD00BF5C35002008B502485A
:10643000FFF7D9FF08BD00BF8C35002038B5042315
:106440000375826104460D4601F0FFF801384000F3
:10645000002320852562638538BD70B5044600257C
:10646000204601F0F2F885421CDA628D9542AEB208
:1064700003D0238D9B1A9D4201D1226A0CE0314644
:10648000204601F093F8C0F34602C0F34621C0F362
:10649000464001F07FF802463146204601F048F8B8
:1064A0000135DDE7204600F0C9FE2046FFF785FFF5
:1064B00070BDF8B50446036A676AB0F828E0468DF7
:1064C000FAB2C6EB0E00D9B2724300FB0122C7F349
:1064D0000721C3F307257143C7F3074700FB0511E5
:1064E0007E43C3F3074500FB056392FBFEF291FB7D
:1064F000FEF193FBFEF0D2B2C9B2C0B201F04AF88D
:1065000000250646204601F0A0F8A84206DDA9B203
:106510003246204601F00CF80135F3E7204600F042
:106520008DFE204600F08AFE2046FFF746FFF8BDAC
:1065300070B5044607F033FAE369C01AA3699842BC
:106540004FD907F02CFA237DE061013B042B48D89A
:10655000DFE803F00603344044000025032618E07A
:106560000025204601F071F8A84220462CDD01F0FC
:106570006CF82B0293FBF0F094F82A301844C0B268
:10658000FFF7F6FEA9B20246204600F0D1FF013522
:10659000E7E7204601F059F8A84214DD628D2A444D
:1065A00092FBF6F303EB43039A42A9B20CBF226AB3
:1065B000626A204600F0BCFF0135EAE7226A618D7D
:1065C000204600F0B5FF204600F038FE2046FFF7D9
:1065D000F4FE70BD2046FFF740FF70BD2046FFF778
:1065E00068FF70BD10B5114C0621204601F0F2F88D
:1065F000204601F0DDF80E49204601F0ACF804F128
:10660000380001F0B5F82046012101F010F92046CC
:10661000F422202101F007F920461E2101F001F9A2
:1066200020460021BDE8104001F07CB9A4390020CB
:10663000C43500202DE9F84F1A4BDFF878901D681B
:10664000002780463C46CB46174B1B789F4224DAF6
:106650002646164B1A78331B9A4218DD99F80030FB
:10666000AA7869782878032B1FFA86FA02D100F0FD
:1066700091FF02E0EB7800F092FF0246514640465F
:1066800000F056FF9BF8003001361D44E1E7084B4F
:106690001B789C1A34440137D6E74046BDE8F84FD2
:1066A00000F0CCBDC03500207C360020283500200D
:1066B000BC3500200434002070B5254D254C2648FB
:1066C000264E03F09BFC4FF48071284603F0BCFD7E
:1066D00022462349284609F07FFD52231022182123
:1066E000304600F00FFF1F4D1F4BF36230461F4E28
:1066F0002246294609F070FD52231E2218213046F9
:1067000000F000FF1A4BF36230461A4E224629462B
:1067100009F062FD52230F221821304600F0F2FEEC
:10672000154BF3623046154E2246294609F054FDBA
:1067300052231B221821304600F0E4FE104BF36276
:10674000224629463046BDE8704009F045BD00BFED
:10675000C4350020003400200035002080360020A1
:10676000EDA3020065630200FD6302002C350020EA
:106770000D6402005C3500201D6402008C35002091
:106780002D6402002DE9F84F634CDFF8C481634F9C
:10679000634E644D20464FF4E13106F078FF6249C4
:1067A000204606F0AFFE6149204606F0ABFE2046CB
:1067B00006F0A0FE5E49204606F0A4FE404600F02A
:1067C000E8FC384600F0E5FC304600F0E2FC2846E4
:1067D00000F0DFFC4046782100F039FF3846782190
:1067E00000F035FF3046782100F031FF284678214F
:1067F00000F02DFF0022FF21104600F0CBFE3222D8
:1068000083461721002000F0C5FE4FF0020A4FF02A
:1068100064090446404688F814A0C8F8189000F0AF
:1068200014FFC8F824400024A8F828002246FF21BD
:106830002046C8F820B0A8F82A4088F8154000F093
:10684000A9FE322283461721204600F0A3FE80468F
:10685000384687F814A0C7F8189000F0F6FE2246D4
:106860003885FF212046C7F820B0C7F824807C85F2
:106870007C7500F08FFE322280461721204600F002
:1068800089FE0746304686F814A0C6F8189000F036
:10689000DCFE22463085FF212046C6F82080776244
:1068A0007485747500F076FE322207461721204663
:1068B00000F070FE0646284685F814A0C5F818902A
:1068C00000F0C3FE2F6228856E626C856C75194DD1
:1068D00022460121284602F045FC0421284602F008
:1068E0003DFE154C1549284602F002FE2846144983
:1068F00002F0A8FE2046134903F0A6FB12492046E9
:1069000003F0A0FB204603F0A1FB104803F090FD2C
:10691000BDE8F84FFFF766BE8C3B00202C35002009
:106920005C3500208C350020B03703007A37030037
:10693000D9370300C836002000350020D2370300C5
:10694000196302000338030017380300C435002020
:106950008036002010B5024604460749074806F075
:10696000DBFD20460AF0C4FC21460246BDE810408B
:10697000034803F037BD00BF2B3803008C3B0020D9
:10698000D43500202DE9F041354C3649364F374E8D
:10699000374D86B08046204606F0B4FD3549204686
:1069A00006F0B0FD3449204606F0ACFD0A2241460F
:1069B00020465FFA88F806F02AFE4146384600F085
:1069C00046FE2E4C4146304600F041FE41462846E8
:1069D00000F03DFE4146204600F039FE384600F00A
:1069E0002DFC304600F02AFC284600F027FC20460B
:1069F00000F024FC0FCF0DF1040EAEE80F003B6851
:106A0000CEF8003001A8FFF715FE01A800F0B2FB98
:106A10000FCE01AF0FC733683B6001A8FFF70AFE36
:106A200001A800F0A7FB0FCD01AE0FC62B683360A5
:106A300001A8FFF7FFFD01A800F09CFB0FCC01AD02
:106A40000FC523682B6001A8FFF7F4FD01A800F033
:106A500091FB0B48FFF77EFF06B0BDE8F08100BF59
:106A60008C3B002072370300803600202C3500203C
:106A70005C3500203E380300533803008C3500207D
:106A8000D34503002DE9F74FC44CC54EC54DC64F45
:106A90002046FFF74DFD3046FFF74AFD2846FFF739
:106AA00047FD3846FFF744FDC04802F0B3FDA3465A
:106AB000B246A946B846002800F05783BC4803F008
:106AC0002BFB4428034600F0138105DC42285FD0ED
:106AD00066DC41280CD048E3462800F0E581C0F28E
:106AE0008581592800F08A825A2800F0C5823CE34B
:106AF0000190AF4803F010FB0746AD4803F00CFBD4
:106B0000AC498146AC4806F0FDFC019BAA481946F9
:106B10000A2206F07CFD0A223946A74806F077FDD6
:106B20000A224946A44806F072FD012F0DD1FF202C
:106B30002775C4F81890208506F026FFC0B2FFF72D
:106B400017FC7821206220460AE3022F08D1012396
:106B50003375FF23C6F81890338578213046FFE25D
:106B6000032F08D101232B75FF23C5F818902B851F
:106B700078212846F4E2042F40F0F782012388F8B8
:106B80001430FF23C8F81890A8F828307821E6E2DE
:106B9000874803F0C1FA03B0BDE8F04FFFF7F2BE3B
:106BA000834803F0B9FA8146814803F0B5FA834976
:106BB0008046814806F0A6FC0A2243217E4806F062
:106BC00026FD0A2249467C4806F021FD0A2241465C
:106BD000794806F01CFDB9F1010F1ED10225FF20F6
:106BE000257506F0D1FEC0B2FFF7C2FB2062FF2080
:106BF00006F0CAFEC0B2FFF7BBFB0746FF2006F057
:106C0000C3FEC0B2FFF7B4FB5FFA88F30646204626
:106C10002575A36100F019FD7FE1B9F1020F22D1C2
:106C2000FF2086F8149006F0AFFEC0B2FFF7A0FB7D
:106C30003062FF2006F0A8FEC0B2FFF799FB0546C0
:106C4000FF2006F0A1FEC0B2FFF792FB5FFA88F3C7
:106C50000446304686F81490B36100F0F6FC3562C5
:106C6000308574627FE1B9F1030F1ED10224FF2049
:106C70002C7506F089FEC0B2FFF77AFB2862FF2070
:106C800006F082FEC0B2FFF773FB0746FF2006F056
:106C90007BFEC0B2FFF76CFB5FFA88F3064628461E
:106CA0002C75AB6100F0D1FC7DE1B9F1040F40F02F
:106CB0005C820224FF203C7506F066FEC0B2FFF73E
:106CC00057FB3862FF2006F05FFEC0B2FFF750FBB3
:106CD0000646FF2006F058FEC0B2FFF749FB5FFAF8
:106CE00088F3054638463C75BB6100F0AEFC7EE19A
:106CF00001902F4803F010FA80462D4803F00CFA5B
:106D00002F4981462C4806F0FDFB019B2A48194675
:106D10000A2206F07CFC0A224146274806F077FC4E
:106D20000A224946244806F072FCB8F1010F0FD13F
:106D300003232046237500F088FC2085FF20C4F83B
:106D4000189006F021FEC0B2FFF712FB20620CE2A1
:106D5000B8F1020F0FD103233046337500F075FCF4
:106D60003085FF20C6F8189006F00EFEC0B2FFF77F
:106D7000FFFA3062F9E1B8F1030F23D1284685F814
:106D8000148000F062FC2885FF20C5F8189006F0FA
:106D9000FBFDC0B2FFF7ECFA2862E6E18036002086
:106DA0002C3500205C3500208C350020C8360020B2
:106DB000C4350020613803008C3B00207E3803007E
:106DC0009B380300B8F1040F40F0CF81032338460D
:106DD0003B7500F03AFC3885FF20C7F8189006F0A4
:106DE000D3FDC0B2FFF7C4FA3862BEE1CA4803F06F
:106DF00093F98046C84803F08FF9C8498146C848CE
:106E000006F080FB0A224521C54806F000FC0A2254
:106E10004146C34806F0FBFB0A224946C04806F03B
:106E2000F6FBB8F1010F0CD10423FF20237506F007
:106E3000ABFDC0B2FFF79CFA5FFA89F2014620462B
:106E40000EE0B8F1020F0ED10423FF20337506F0D7
:106E50009BFDC0B2FFF78CFA5FFA89F2014630461B
:106E6000FFF7ECFA81E1B8F1030F0CD10423FF2006
:106E70002B7506F089FDC0B2FFF77AFA5FFA89F246
:106E800001462846ECE7B8F1040F40F06E81FF2080
:106E900087F8148006F078FDC0B2FFF769FA5FFA50
:106EA00089F201463846DBE701909B4803F034F94C
:106EB0008146994803F030F99A498046984806F08F
:106EC00021FB019B964819460A2206F0A0FB0A22E4
:106ED0004946934806F09BFB0A224146904806F03B
:106EE00096FBB9F1010F1FD10525FF20257506F08E
:106EF0004BFDC0B2FFF73CFA0746FF2006F044FD09
:106F0000C0B2FFF735FA0646204600F09EFB06F0B9
:106F10003BFD5FFA88F32575A36100232085276276
:106F200066626385637520E1B9F1020F1FD1052404
:106F3000FF20347506F028FDC0B2FFF719FA0746A6
:106F4000FF2006F021FDC0B2FFF712FA05463046D9
:106F500000F07BFB06F018FD5FFA88F33475B3612F
:106F6000308537627562002373857375FDE0B9F172
:106F7000030F1FD10524FF202C7506F005FDC0B2BC
:106F8000FFF7F6F90746FF2006F0FEFCC0B2FFF758
:106F9000EFF90646284600F058FB06F0F5FC5FFACC
:106FA00088F32C75AB61002328852F626E626B8598
:106FB0006B75DAE0B9F1040F40F0D7800524FF20AB
:106FC0003C7506F0E1FCC0B2FFF7D2F90646FF209F
:106FD00006F0DAFCC0B2FFF7CBF90546384600F000
:106FE00034FB06F0D1FC5FFA88F33C75BB610023EB
:106FF00038853E627D627B857B75B6E00325019016
:107000002046257500F021FB20856424FF20CBF865
:10701000184006F0B9FCC0B2FFF7AAF9CBF820007F
:107020003046357500F011FB3085FF20B46106F065
:10703000ABFCC0B2FFF79CF93062484689F81450A7
:1070400000F003FBA9F82800FF20C9F8184006F05B
:107050009BFCC0B2FFF78CF9C9F8200038463D759B
:1070600000F0F3FA3885FF20BC6106F08DFCC0B259
:10707000FFF77EF9019B38622748019303F04CF833
:1070800029490446264806F03DFA019B2448194642
:107090000A2206F0BCFA0A222146214806F0B7FA75
:1070A000012C12D1032321488BF8143000F0CDFAC3
:1070B0006423ABF828000020CBF81830FFF758F90C
:1070C0000021CBF8200019484AE0022C12D10323FA
:1070D00017488AF8143000F0B8FA6423AAF8280098
:1070E0000020CAF81830FFF743F90021CAF8200041
:1070F0000F4835E0032C1FD10E4889F8144000F0EA
:10710000A4FA6423A9F828000020C9F81830FFF772
:107110002FF9C9F8200028E0C4350020B538030055
:107120008C3B0020CC380300E03803008036002080
:107130002C3500205C350020042C16D103230C488C
:1071400088F8143000F081FA6423A8F828000020A1
:10715000C8F81830FFF70CF90021C8F820000448DF
:1071600003B0BDE8F04F00F072BA03B0BDE8F08F95
:107170008C35002010B50446806808B109F0B2F8DB
:1071800094F90600002802DB002108F0F1FC2046FB
:1071900010BD10B5044690F90600002807DB012158
:1071A00008F0E6FC002194F9060008F003FD012335
:1071B000637010BD70B5054680680E4608B109F0D1
:1071C00091F8EB7B2C7BA3420CBF0324042414FB1B
:1071D00006F4A4B2AC80204609F07CF8A86028B17F
:1071E0002246002109F0BBF86E8070BDA88068803F
:1071F00070BD70B4C27B047B151B6C42C1F3810669
:107200006C41FF29C1F38112C1F30115467301F0EE
:1072100003068CBF0021012101708168C2730573D0
:10722000867341B1511B4A424A41A24203D0418870
:1072300070BCFFF7BFBF70BC704700002DE9F04F76
:1072400083688BB00546002B00F0348106F0B2FB5A
:107250002B69C01AB0F5967FF8D3984BAF8893E8A6
:10726000070007AE86E80700002356F82340D4F84D
:10727000002502BBD4F86025002A1CDAD4F8642566
:10728000002A18DAD4F86825002A14DAD4F86C2514
:10729000002A10DA07F0C2FB3F0104370128384604
:1072A00002D109F017F801E006F04EFC064600286E
:1072B00040F0888002E00133032BD6D107F076FE40
:1072C00095F906207E4B7F4C53F822307E4A1F2BC7
:1072D00088BF203B01269E402B78002B14BF122331
:1072E0001A23039314BF292346230293D36843F040
:1072F0008073D360236843F00103236015BF5823D4
:10730000C3234FF047084FF09C080593A1466368DC
:10731000D5F808A00493AB88504600224FF0A04156
:10732000CAEB0007BFB2BB4232D9082710F801BB35
:1073300001974FF0800ED4F804C0C2EB0C0CE0456E
:10734000F9D8D9F80420D1F808C51BEA0E0F46EA8F
:107350000C0CC1F808C507D0D4F804C0029FC2EBDA
:107360000C0C6745F8D806E0D4F804C0039FC2EBC4
:107370000C0C6745F8D8D1F80CC5019F46EA0C0CF7
:10738000013FC1F80CC54FEA5E0E0197D3D1C7E7A4
:107390006168891A8845FBD80499D9F80420521AE3
:1073A0000599DB004B439A4206D3484B4FF4964075
:1073B00043F001039847AAE707F002FE06F0FAFA45
:1073C000286177E0002048F20D0A48F21308A988E6
:1073D00095F800C082B2D30091429BB221D9A9682E
:1073E00011F802B00132D20092B24FF0800E0EEAD4
:1073F0000B01BCF1000F05D148F20809002918BFA4
:10740000C14604E048F20609002918BFD14626F813
:10741000139001339BB29A424FEA5E0EE7D10130DE
:10742000D5E74FF4004226F8132001339BB226F82B
:1074300013200023C4F80435C4F80C35BCF1000F48
:1074400001D1282200E014227F08C4F80825C4F8DE
:107450001435C4F81035C4F82065C4F82475C4F890
:107460002835C4F82C3595F90610154A52F8212014
:10747000C4F860250122C4F80025C4F81031A260C8
:10748000D4F8103113B908F0A9F8F9E70023C4F8CB
:107490001031C4F800354FF0FF33C4F8603507F001
:1074A000BDFA0128304602D108F01CFF86E706F03D
:1074B0005AFB83E70BB0BDE8F08F00BF38390300FB
:1074C000F44B0300001000E0F0ED00E05039030041
:1074D00038B5437804460D4633B190F906000028CC
:1074E00002DB002108F044FB6378A5714BB128460C
:1074F000012108F03DFB28460021BDE8384008F096
:1075000059BB38BD70B50E46002104464170C171AB
:107510008160016119461546FFF76BFE3146204632
:10752000FFF748FE20462946FFF7D2FF204670BDF0
:1075300043888B42F0B52CD9C379C2F30746C2F316
:107540000725D4B20BB9A64608E05E435D435C4311
:10755000C6F30726C5F30725C4F3072E077BC47BB4
:10756000A742876803D101EB410139440AE007EBE8
:107570008101120E0C440BB9D3B202E05343C3F3A2
:1075800007232370037BCE54437BCD54837B01F8C8
:1075900003E0F0BD42EA012242EA0040704742EABD
:1075A000012242EA004040EA0360704743888B4270
:1075B000F0B548D9C67B077B8368C279447B857B5D
:1075C000BE421BD101EB410119447AB18B5D085DCC
:1075D0001B02B3FBF2F31B040002B0FBF2F043EA20
:1075E00000204B5D1B02B3FBF2F305E0885D0B5DF1
:1075F000000440EA03204B5D1843F0BD03EB81011A
:10760000B2B1CB5D885D1B02B3FBF2F31B04000239
:10761000B0FBF2F043EA00604B5D1B02B3FBF2F3F8
:107620000343085D0002B0FBF2F043EA0020F0BD26
:10763000C85D8B5D000440EA03604B5D18430B5D41
:1076400040EA0320F0BD0020F0BD408870474A1C8E
:10765000C379D2B29A4270B51ED0013B13F0FF033A
:1076600084680CD0FF291FBF110201F1FF3191FB8B
:10767000F3F39BB204BF4FF6FF7191FBF3F3254682
:10768000291B868889B28E4205D929785943091267
:1076900005F8011BF4E7C27170BD72DF704773DF3C
:1076A000704777DF70470022C2770270704770B56D
:1076B0001D46C37F0E461146EA181D2A04460EDCFD
:1076C00018446A1CE254023000F8016C2A4608F0A3
:1076D00020FEE27F0232AB18E377012070BD00206C
:1076E00070BD2DE9F041002688B007460D4601EB3C
:1076F000C2083446454516D0284601F0EEFB102856
:1077000002D0802809D00CE008AA631C02EB4404D4
:107710002A8824F8202CDCB203E00EB1002017E008
:107720006E680835E6E714B966B9012010E0630019
:1077300003F0FE036A4603213846FFF7B8FF00282E
:10774000F2D1EBE71023324607213846FFF7AFFFAF
:1077500008B0BDE8F08113B50831044603C9012221
:107760008DE8030069462046FFF7BBFF02B010BD5D
:1077700030B589B00546202269460C4801F0CCFEA0
:10778000EA7F13181D2BC3BFC2F11D02D0B208241B
:10779000092403466A4621462846FFF788FF18B1A8
:1077A000A4F109035842584109B030BDC836002041
:1077B00013B50446064801F00BFF02AA012302F8A4
:1077C000010D0A212046FFF772FF02B010BD00BF75
:1077D000C836002007B502AA012302F8011D194688
:1077E000FFF765FF03B05DF804FB08B50346FFF73C
:1077F0005AFFFF22202183F82020012283F8212034
:1078000083F8222099840022F42019851E21D8842F
:1078100083F823205985DA859A851A635A631846B6
:1078200008BD418570478184C2840185704780F816
:10783000221070472DE9F041054686B00F461646E6
:1078400000211822684608F08AFD95F821308DF84D
:10785000003006EB860303EB83032C4A02979B0060
:10786000ADF80C301368DB0709D4294BE97F998008
:1078700028499960C97F1D609981012313606A4678
:10788000234905F12000FFF708FF804678B14FF447
:10789000B5722149214809F0A5FB404608F0D0F80F
:1078A00009F0A0FB0A2009F0B5FB00202BE01C48E2
:1078B00095F8204001F08CFE214602460120FFF79A
:1078C000F0FE044638B140F26B121349134809F038
:1078D00089FB2046E2E7012195F82000FFF7DFFE53
:1078E000804610B14FF4B672D3E70D4801F0C6FFE1
:1078F000EA8D2F8596424FF0010094BF921B921A99
:1079000085F82300EA8506B0BDE8F081B036002096
:10791000B4360020DC3900205639030086390300D4
:10792000C836002010B50446C1858185FA21054876
:1079300001F051FE628DA18C2046BDE81040FFF79A
:1079400079BF00BFC836002038B50B88112B04461C
:1079500012D0262B24D0102B59D1CD7B012D56D1FE
:10796000002380F823302A4801F099FF294628484F
:10797000BDE8384001F09FBF8988254800F02EFD02
:10798000012844D10021224801F095FF94F82230CB
:10799000002B3CD0A18D2046BDE83840FFF7C2BF88
:1079A0000B7A012B33D1002380F823304FF4FA7186
:1079B000174801F010FEA38D23B9636B03B19847FC
:1079C000002205E0E38D4BB1636B03B19847E28D74
:1079D000E18C2046BDE83840FFF72CBF0C4801F091
:1079E0005EFF236B9BB107F019F801284FF01000E0
:1079F00002D108F06FFC01E006F0A6F80021236B2D
:107A0000017243600160BDE8384007F09BBE38BD9D
:107A1000C836002075DF704710B5044606F0FEFF3B
:107A20000128204603D1BDE8104008F053BCBDE852
:107A3000104006F089B8102242800280C82100223E
:107A40008280C1808260C26070470000014800F0FF
:107A500019BC00BF5C3A00202DE9F3410F888D88E6
:107A6000112F06460C461CD01F2F39D0102F44D1A1
:107A70002946234800F0B2FC02283ED1B368002B0F
:107A80003BD03846FFF7C8FFB2684260012202725D
:107A900002AA0021016042F8085D03461068D86020
:107AA0001AE02946164800F099FC0228804624D1A5
:107AB000F36813B31420FFF7AFFF0027F2680760E5
:107AC000426080F80880227A019200956A46034657
:107AD00003CA1961D8603946184607F033FE0CE036
:107AE00054F8080F61686B4603C36946BDF800305F
:107AF000ADF802302846FFF78DFF02B0BDE8F081F7
:107B0000C8360020AADF7047ABDF7047ACDF704794
:107B1000ADDF7047AEDF7047704710B5044607F021
:107B20002FFC204610BD000070B5644B04461B6856
:107B30000361061D96B0304601F0DEF994F822305C
:107B400013F0320101BF94F8232061F3030261F3C3
:107B5000071284F8232013F00C0101BF94F82420AD
:107B600061F3030261F3071284F8242013F0300557
:107B70000ED04FF00003012262F342038DF806306D
:107B80004F4B1B788DF8043094F823308DF8053076
:107B90001C2200210FA808F0E2FB94F822308DF897
:107BA0003C3000230DB91A4600E001AAADF80830B8
:107BB00014924FF00003012262F3420360698DF8D2
:107BC0000A3094F823308DF8083058B103784BB15F
:107BD000109009F08DFB02AB80B2ADF84400ADF817
:107BE00046001393A37E13B104F11A0312931422D7
:107BF00000210DEB020008F0B2FB04F12303069311
:107C000094F825300596DB0754BFE3890023ADF8CF
:107C10001C30E389ADF8203005AA04F126030FA932
:107C20000020FFF76FFF054610B140F209122CE06B
:107C3000637E002B36D00346012262F342038DF8A7
:107C40000E3094F82330ADF80C008DF80C301D4B3D
:107C500018680490294614220AA808F080FB022321
:107C6000ADF83030ADF8343004AB0A9303AB0B936E
:107C7000284604F118030DF102020AA90E93FFF73A
:107C800043FF054670B140F223120F490F4809F037
:107C9000A9F9284607F0D4FE09F0A4F90A2009F052
:107CA000B9F907E0257B25B92146094800F00EFF08
:107CB00000E00025284616B070BD00BFC436002085
:107CC000A6390300A8390300E5390300863903000B
:107CD000A43700200B88502B73B505460C4614D0F2
:107CE000512B2CD18B79022B03D1436B0BB1083173
:107CF0009847A379012B22D12B6B03B304F1080120
:107D0000284602B0BDE870401847CA88C38C9A4222
:107D100005D1866B1EB1CB890A8A1231B047E28841
:107D20006B8D9A420BD1EB6B4BB1628AADF806209A
:107D3000BDF80610284602B0BDE87040184702B0F2
:107D400070BD00001422C281104A127880F82420ED
:107D500080F8232001214FF00102002361F3420249
:107D60000373036143610383C0F81A30C0F81E3007
:107D700080F8223080F82520C384038583854385DD
:107D8000036343638363C363704700BFA639030083
:107D900013B504468DE806002346064943F8041B44
:107DA0009DE8030083E805002046FFF7CBFF20464F
:107DB00002B010BD743A03000069704701230373D9
:107DC000704780F822107047C181704790F82530C5
:107DD00019B1C1816FF3000301E043F0010380F8A2
:107DE0002530704780F8231080F824207047816385
:107DF00070470A1C90F82530416318BF012262F3D6
:107E0000041380F8253070474161704751F8263FD0
:107E100003604B684360704737B5C38901919A424C
:107E200028BF1A4600240094C18CADF800204FF6FC
:107E3000FF706A46FFF76AFE054678B140F2A71266
:107E40000849094809F0CEF8284607F0F9FD09F07D
:107E5000C9F80A2009F0DEF8204601E0BDF800006C
:107E600003B030BDAC3903008639030038B5054690
:107E700008460C4609F03CFA214682B22846BDE885
:107E80003840FFF7C9BF07B502AB022223F8021D35
:107E90001946FFF7C1FF03B05DF804FB30B5044697
:107EA00085B0194801F0B6FB58B3608D48B3022382
:107EB000002502951448ADF808300DF10603039330
:107EC00001F0C3FB618D02AAFFF722FE43F20143DA
:107ED0009842044602D1ADF8065010E07CB14FF450
:107EE00000720A490A4809F07DF8204607F0A8FD0B
:107EF00009F078F80A2009F08DF8A0B201E0BDF889
:107F0000060005B030BD00BFC8360020443A03006B
:107F10008639030008B590F8222002F0100202F022
:107F2000FF0322B1FFF7BAFF00F0010008BD1846B9
:107F300008BD00002DE9F04390F8223003F0100353
:107F40000F4687B0064603F0FF01002B58D0C489C6
:107F5000944228BF1446FFF7DDFF8046002849D031
:107F60002A4801F072FB0146284800F059FA03380C
:107F70001FFA80F9002C44D0244801F066FB01462A
:107F8000224800F03CFA90B3A1454B464FF0100256
:107F900028BF2346002102A8ADF8063008F0DFF91B
:107FA00001238DF80A30F38CADF808301748059797
:107FB0000DF10603049301F048FB02A9FFF7AAFDA7
:107FC000054670B140F22D221149124809F00AF815
:107FD000284607F035FD09F005F80A2009F01AF8DF
:107FE00005E0BDF80630E41AA4B21F44C2E74FF022
:107FF000000806E0224639463046FFF70DFF00E054
:108000008846404607B0BDE8F08300BFC836002070
:108010000E3A030086390300A1DF7047A3DF7047E3
:10802000A4DF704710B5044606F0F8FC012820468E
:1080300003D1BDE8104008F04DB9BDE8104005F08F
:1080400083BD002383827047806900F00BB9808A6A
:10805000704700002DE9FF410B88CF88382B04467C
:108060000D4600F08480392B03D0362B40F0F08091
:10807000C8E00B7B012B02D0022B31D0E8E0C36AB1
:10808000002B00F0E58090F8342012F0010FCA892F
:1080900023D01046FFF7C6FF0646002800F0D88020
:1080A000EA8905F1100108F034F91820FFF7BAFF4A
:1080B000E26A426003220272EA8906600392019436
:1080C000029601AA034603CA1961D8601068586174
:1080D0000021184607F036FBBAE010319847B7E0A8
:1080E000036B002B00F0B48090F834208E8812F0DF
:1080F000020FCA8923D01046FFF794FF07460028D5
:1081000000F0A680EA8905F1100108F002F91820B4
:10811000FFF788FF226B426003220272EA89076040
:1081200003920194029701AA034603CA1961D86019
:10813000106858610021184607F004FB01E0103177
:10814000984769893046FFF76BFF044600287FD0C7
:108150004FF4DB724049414808F044FF204607F0E5
:108160006FFC08F03FFF0A2008F054FF70E017B1E1
:1081700004F11C006AE000F11C060A8A3046394608
:1081800002F021FA95F80C80B8F1010FF0D0B8F1A7
:10819000040F5DD1A06900F065F80146304800F099
:1081A0003FF9228DA38A053880B2904228BF10463D
:1081B000B0B10197EA89ADF806302B8AADF80A0014
:1081C0001344ADF80830A069636A8DF80480039306
:1081D00000F048F801A9FFF721FF002838D00FE090
:1081E0000522029003908DF80420A069ADF80630B6
:1081F00001228DF8052000F035F801A9FFF70EFFE8
:10820000304623E0806900F02DF80146144800F064
:1082100007F90646002FABD104F11C07EA8905F1E6
:108220001001384602F0CFF9238D73B1033EEB897C
:10823000B6B2013EB34208DBA06900F013F8628DCC
:10824000A18A92B2FFF7E8FE10B1384602F0D3F9E6
:1082500004B0BDE8F08100BF843A03008639030012
:10826000C83600208088704710B50446043002F0FC
:1082700060F9012323804FF6FF7363800023237589
:10828000204610BD017D10B5044621B9043002F02E
:1082900054F90123237510BD007D704738B50B8854
:1082A000322B05460C461AD0332B2AD0302B40D126
:1082B000CB8823B94B896BB10A2211442EE01D49AA
:1082C0001D4808F08FFEE1881C4808F08BFE0A204C
:1082D00008F0A0FE281DBDE8384002F08CB9CB881C
:1082E00043B94A89002AF5D0013A02EB82025200D2
:1082F0000C3210E00F49104808F074FEE188104875
:10830000E3E7CB8873B94A89002AE3D0013A02EB4C
:1083100042025200083292B204F10A01281D02F012
:1083200052F9D7E70349044808F05CFEE1880548A4
:10833000CBE738BDBC3A0300C13A0300E03A030082
:10834000FB3A0300163B03006DDF70477FDF704789
:1083500086DF70478FDF704790DF7047B1DF70476F
:10836000B5DF704710B5C822044600210C3007F075
:10837000F6FF172303222380E3800123E370237198
:108380006372A37262F3061384F8D430072384F86F
:10839000D5301023A270227284F8D63084F8D7200A
:1083A00084F8D820204610BD01290CBF0088C08861
:1083B000704707B56846FFF7C7FF02AB9DF800009E
:1083C00053F8072D0A609B888B80400803B05DF846
:1083D00004FB282303FB0101487B7047282303FB90
:1083E0000101887B704710B5282303FB021252F865
:1083F000123F0360938883809379837110BD0429B1
:1084000008B50BD8282303FB0101086A38B166219F
:1084100005F01AFE003018BF012008BD002008BD7D
:10842000282303FB0101088A70470000F0B587B0DC
:1084300004AC16461F460D4620464FF4285100F066
:1084400041FD8DE8C0004FF6FF73039301230293B3
:1084500094E80C002946024800F0DCF907B0F0BDB2
:10846000A4370020F0B58E884FF6FF739E4218BFE8
:1084700028240B881ABF04FB06040C3400241A2B92
:1084800097B007460D4600F0D58019D8132B54D06D
:1084900010D8102B29D0112B40F08E810025606957
:1084A0006570257005F08CFE6561A06905F088FE99
:1084B000A56181E1142B00F0A280192B72D07BE121
:1084C000232B00F0F88006D8212B00F00481222B0A
:1084D00000F0268170E1552B00F04481572B00F00D
:1084E000C4803C2B40F06881D2E001232370CB7B19
:1084F000A37055F8080FC4F806001723A988AA79B5
:10850000A380F6B2282303FB0673618122739B7B51
:10851000012B0CBFF878787A014605F02AFC282355
:1085200003FB06766061B37B012B0CBF3879B87A08
:10853000014605F01EFCA0613EE106F06FFA01283D
:108540004FF0500002D107F0C5FE01E005F0FCFA43
:1085500005462061002800F02F815022002107F0FD
:10856000FEFE4FF6FF732022E381002102A807F0F0
:10857000F6FE05F11C030693A3780295012B05F185
:1085800038050CBF07F1D402002202AB00213046AF
:108590000795FFF7DBFE0446002800F00D8140F24E
:1085A000531292E00B7A4BB92269A07801236370D1
:1085B000538AE381314602F04BF812E07F4980484C
:1085C00040F2651208F00EFD7E4B297A18689B88F0
:1085D0000290ADF80C3002A832238DF80A3008F072
:1085E00001FD256906F01AFA0128284602D107F094
:1085F00079FE01E005F0B7FA00232361DCE05022A8
:10860000002102A807F0ABFE02AA298AA07802F096
:1086100091F80346A88843B1002310AA02A9FFF7E6
:1086200097FEBDF81A30E381C6E01A461946FFF7F7
:108630008FFEC1E00B7A112B0DD0E289A078314674
:1086400002F028F9034620B9024601463046FFF7FA
:1086500085FE01236370606A002800F0AD8000236E
:108660001A46194605F08EFBA6E06369002B00F060
:10867000A3800026AA79F3B29A4206F1010640F2DD
:108680009B8000231A461946606905F07BFBF1E7E1
:10869000A369002B00F090800026AA7AF3B29A42D8
:1086A00006F1010640F2888000231A461946A069A7
:1086B00005F068FBF1E7002211463046FFF74CFE5B
:1086C0000446002878D04FF4DF723C493E4808F059
:1086D00089FC204660E03D4B0FCB02AC84E80F00E4
:1086E0003B493C4808F07EFC6A7A3B4816AB03EBFA
:1086F00082022B7A52F8502C16A901EB830353F80F
:10870000501C08F06FFC0A2008F084FC002301A92B
:1087100030468DF804308DF80530FFF71BFE4BE036
:108720000B7A33B12A492B4808F05CFC297A2B4894
:108730003DE0264B0FCB02AC84E80F0024492548CE
:1087400008F050FCAA7A264816AB03EB82026B7A3B
:1087500052F8502C16A901EB830353F8501C08F073
:1087600041FC26E02822F3B202FB0303C9889B7B6D
:10877000012B0CBF0388C388994228BF1946A180EA
:108780003046FFF7EDFD054658B140F2ED120B49BA
:108790000D4808F027FC284607F052F908F022FCA3
:1087A00007E00B490B4808F01DFCA1880D4808F0B4
:1087B00019FC0A2008F02EFC17B0F0BD443B030062
:1087C0006B3B0300F93B030086390300343B030095
:1087D0008C3B0300C13A0300903B0300AB3B03001A
:1087E000C63B0300E03B0300A0DF704738B50446FA
:1087F000F82500F5F87001F09CFE2A46002120467D
:1088000007F0ADFD2A460021601907F0A8FD2046BB
:1088100038BD0000F0B585B08DE80C00BDF83030F3
:10882000ADF80C30BDF83430ADF80E300F466E4662
:1088300000F5F875284601F0C4FE044628B1194831
:1088400000F010FF05F0C2F8F4E70121284601F01E
:1088500074FEBDF82C200A99284601F083FE3146AB
:1088600003AA3846FFF7C0FF064630B94FF4FA7145
:10887000284601F07CFE04460CE046220A490B48DB
:1088800008F0B0FB304607F0DBF808F0ABFB0A203D
:1088900008F0C0FB284601F059FE24EAE47080B2DB
:1088A00005B0F0BDC8360020183C0300863903002F
:1088B0002DE9F04F0E888F88A6F11003012B87B0A9
:1088C00005460C4612D84FF000082A785FFA88F364
:1088D0009A420BD99B002B44112E586803680CBF99
:1088E0001B685B68984708F10108EEE7764800F0DE
:1088F000ACFE874217D14FF028094FF0000A09FB60
:1089000007F90AE0502E13D0512E04D1B4F8088094
:10891000B8F1000F0FD10AF1010A95F854205FFA5F
:108920008AF39A42EED805F5A67A4FF000091FE0C7
:10893000B4F80680ECE71633684655F823B059467C
:10894000FFF764FABDF80020424500F099805946CF
:1089500002A8FFF75BFABDF80C204245DBD18FE09F
:108960005AF8040FFFF770FB874206D009F101099E
:1089700095F84C319945F3DB16E0382E03D0392EAB
:1089800001D0362EF2D1B4F80A80B8F1000FEDD044
:10899000DAF800B05846FFF75AFB8045E6D1214689
:1089A0005846FFF757FBE1E7112E26D1002495F832
:1089B000F820E3B29A4201D8002618E005EB8303C1
:1089C000D3F8FC008388BB4202D103681B68984738
:1089D0000134ECE705EB8404D4F85001FFF734FBD5
:1089E000874203D1D4F85001FFF72BFB013695F8ED
:1089F0004C31F4B2A342EDD862E0532E1AD0562E79
:108A00002AD0352E5CD16189002959D0A2890E3433
:108A1000231B901CB3FBF0F38B4205F5F87503D2D2
:108A2000A11C284601F0CFFD284607B0BDE8F04F55
:108A300001F0E1BD244A282307FB03331344144605
:108A4000586820B100231A46194605F09BF92822E0
:108A500002FB0747012310E01B4A282307FB0333CF
:108A600013441446586820B100231A46194605F0ED
:108A700089F9282202FB0747002387F828301FE0E6
:108A8000DBF800205846D268214690470E4800F097
:108A9000DFFD00283FF43FAF502E7FF43CAF594636
:108AA00004A8FFF7B3F9BDF8143043457FF433AFA2
:108AB000054B4B4439465A8B987B01F0F3FD2AE76E
:108AC00007B0BDE8F08F00BFC836002090F85430E2
:108AD000282B1FBF5A1C163380F8542040F823104F
:108AE00014BF0120002070470378132B9FBF5A1C2E
:108AF000027000EB8300416094BF012000207047AA
:108B00008ADF704710B5044605F088FF012820462B
:108B100003D1BDE8104007F0DDBBBDE8104005F013
:108B200013B810B504461F2320628384012300215B
:108B300080F82930802380F8281080F82A3080F8C7
:108B40002B10818580F8341001638163C1630E228C
:108B5000403007F004FCA023A4F842305023A4F8CE
:108B60004430204610BD000038B504461F23206263
:108B7000A0F84610838400F120014030FFF7C0FFC9
:108B8000054670B17B220A490A4808F02BFA2846AC
:108B900006F056FF08F026FA0A2008F03BFA0020FB
:108BA00038BD054800F06AFE012084F8280038BD71
:108BB000713C030086390300C836002010B500F16F
:108BC00020010020FFF79CFF044670B1862208496F
:108BD000084808F007FA204606F032FF08F002FACB
:108BE0000A2008F017FA002010BD012010BD00BFB8
:108BF000923C03008639030038B5012A9DF81450D1
:108C00001BD948780C78984204D1013C0231E4B277
:108C100009D114E0E0430244013412F0FF02214480
:108C2000EFD1104638BD15B1AC4228BF2C462246C4
:108C3000049807F06EFB204638BD002038BD08467A
:108C400038BD37B59DF818500C7F8DE828001346C5
:108C500089692246FFF7D0FF03B030BD2DE9F04F00
:108C60008FB002AC80462046894684E80C0000F0B4
:108C700034F9C0B2102807D102238DF81430032331
:108C80008DF81530274606E006238DF81430039F33
:108C900007238DF815300026C508B2461F22002193
:108CA00006A807F05CFB05AB4946F25CCDF800A0D6
:108CB00006AB4046FFF7C5FF0DF1180B04465CB14B
:108CC0002A463946584607F015FB08B9012007E047
:108CD000641BAB44E4B2F2E70136022EDED120463B
:108CE0000FB0BDE8F08F0000F0B50B88112B85B0F8
:108CF00006464CD002D8102B3BD095E01B2B5DD004
:108D00001D2B40F0918090F92A2091F91B309A4256
:108D100067DC90F8343001F1080523B996F82B3060
:108D2000002B62D015E0002796F83430FCB2A34245
:108D30000AD9336B03EBC4030CCB29463046FFF74B
:108D40008DFF01370028EFD096F83430A342E5D1EB
:108D500047E002230093FF2203AB29463046FFF78A
:108D600070FF00283DD0B28DBDF80C309A4238D14A
:108D70003BE0CB7B022B57D1002380F828302B48D7
:108D800000F08DFD0121294800F095FD4CE0898817
:108D90002648FFF723FB022846D196F82810002921
:108DA00042D1224800F087FD96F82930002B3BD0B5
:108DB000B6F846103046FFF7D7FE35E00B7A012BA8
:108DC00032D1C36B002480F828406BB31020FFF72A
:108DD00099FEF26B046042600472214606F0B2FC18
:108DE00022E03046FFF7EAFE1EE02420FFF78AFE6D
:108DF0000746C8B10FCD3C460FC40FCD0FC42B683A
:108E00002360B36B83B11020FFF77CFEB26B42602E
:108E10000122027204AA076042F8047D034610682A
:108E2000D86000211846D9E705B0F0BDC83600204B
:108E3000A8DF70477047000037B500F10804054609
:108E4000204600F059F821460DF106020120FFF7F7
:108E5000EFFF044668B145220A490B4808F0C2F802
:108E6000204606F0EDFD08F0BDF80A2008F0D2F823
:108E700005E0064B06481D602946FFF735FE2046F3
:108E800003B030BDAC3C030086390300C43600207B
:108E9000A437002013B504468DE806002346064992
:108EA00043F8081B9DE8030083E8050000232046E3
:108EB000A38002B010BD00BFD83C030062DF704742
:108EC00063DF704701238370002301804360704794
:108ED000002383700380416070478378012B06D0A4
:108EE000426832B9012B8CBF8020002070471020CF
:108EF000704780207047000010B5837802460BB1A0
:108F0000002419E040680028FAD0911CFFF7D6FF32
:108F100010205168FFF7D4FF04460028F0D06D22DE
:108F20000649074808F05EF8204606F089FD08F07B
:108F300059F80A2008F06EF8204610BDE43C030002
:108F4000863903004BDF704710DF704775DF7047CD
:108F500076DF704777DF704778DF70477ADF7047DA
:108F60007CDF70477DDF7047B1DF704760DF70479F
:108F700069DF704761DF704767DF70472DE9F743AE
:108F800003461D4D0646894614461C491C484C2282
:108F900008F028F84D221B491B4808F023F82868E0
:108FA0000090B5F80480ADF804803827494668463B
:108FB0008DF8027008F016F84E221249134808F096
:108FC00011F82868009021466846ADF804808DF8B5
:108FD000027008F007F8012E0CD15CB10C490D4865
:108FE00008F000F8228861680B4807F0FBFF0A20B0
:108FF00008F010F8FEE700BFF93B0300AC3D0300AA
:10900000B93D030001410300CB3D0300DB3D0300FC
:10901000ED3D0300C13A0300F43D0300132006F0C8
:10902000F5BD000037B5164DD5F8C8034FF0FF3138
:1090300005F00AF80028F7D0124C01A8FFF782FFCC
:109040000528F1D00028F8D1019B023B012BF4D870
:109050000D490E4807F0C6FF0D4B01990D48022936
:109060000CBF2146194607F0BDFF0A2007F0D2FFCA
:10907000094B002BE1D0019804F03EFDDDE700BF75
:10908000C8360020063E0300143E0300C13A030028
:109090000E3E0300183E0300F9DA020010B5044644
:1090A00005F0BCFC0128204603D1BDE8104007F0C4
:1090B00011B9BDE8104004F047BD10B50446FFF7F4
:1090C00051F904F1DC00FFF791FB04F53770FEF76E
:1090D0008CFB04F54570FEF7E6FA04F54D70FFF7DA
:1090E00020FD04F56170FEF7A6FC04F56570FFF73E
:1090F000BBF804F5757000F0CFFE4FF4006200235A
:10910000C4F8AC230A22C4F8B03384F8B123012296
:1091100084F8B02384F8D0234FF6FF72A4F82424F7
:109120001022A4F8B6231822A4F8B82384F8B43384
:10913000C82284F8B53384F8C033C4F8C433C4F803
:10914000C833C4F8CC33A4F8BA33A4F8BC23A4F8C9
:10915000BE33C4F82834C4F82C34C4F83034204664
:1091600010BD000070B5A44E80F8B4138CB080F828
:10917000B523054630680390A04903A8FFF7E4FE35
:10918000044610B140F20D1210E009909C4A0A907A
:109190000B9095F8B133049209A901208DF8243081
:1091A000FFF7E6FE044670B14FF49F72954996486A
:1091B00007F018FF204606F043FC07F013FF0A20D3
:1091C00007F028FF82E195F8B43309908DF8253037
:1091D00095F8B5338DF8263000330A900B9018BF00
:1091E0000123049A8DF8273009A94020FFF7C0FE1B
:1091F000044610B140F24512D8E795F8B033099013
:1092000063F300040A900B90049A8DF8244009A996
:10921000A020FFF7ADFE044610B14FF4A772C5E7DA
:109220000A900B90D5F8AC33049A099309A9A120B0
:10923000FFF79EFE044610B140F25312B6E795F8D0
:10924000B433002B4CD02A8809900A900B9001234C
:10925000ADF8262009A9049A8DF824302320FFF7C1
:1092600087FE044610B14FF4AE729FE795F8B42321
:1092700009908DF82620AA780A900B90ADF8282046
:1092800009A9049A8DF824302020FFF771FE0446C6
:1092900010B140F2631289E7EA7809900A900B90C6
:1092A0008DF8262009A9049A8DF824302220FFF792
:1092B0005FFE044610B140F2691277E709900A9008
:1092C0000B908DF82430049A2B798DF8263009A95B
:1092D0002120FFF74DFE044610B140F26F1265E702
:1092E00095F8B533002B4DD00023EA8809930A93F3
:1092F0000B93ADF826200223049A8DF8243009A997
:109300002320FFF735FE044610B14FF4BC724DE741
:1093100095F8B52309908DF826202A7A0A900B90AB
:10932000ADF8282009A9049A8DF824302020FFF7F1
:109330001FFE044610B140F27F1237E76A7A0990A7
:109340000A900B908DF8262009A9049A8DF82430F4
:109350002220FFF70DFE044610B140F2851225E7EA
:1093600009900A900B908DF82430049AAB7A8DF80E
:10937000263009A92120FFF7FBFD044610B140F279
:109380008B1213E704A8FFF7F1FD044658B11F49FB
:109390001F4807F027FE1A4A04991E4807F022FECC
:1093A0000A2007F037FE1949194807F01BFE0499F7
:1093B000194807F017FE0A2007F02CFE14B14FF4ED
:1093C000CD72F3E607940894E4B244F0010407A9CF
:1093D00002208DF81C40FFF7CFFD044610B140F28B
:1093E000A112E3E605F2B630FFF7B8FD0446A8B1D6
:1093F0004FF4D372DAE600BFFC3C03007D8F02001D
:10940000003400203141030086390300333E03005D
:10941000C13A0300373E0300DE3E03000CA8337957
:1094200000F8283D0B222B49FFF79AFD044610B1A6
:109430004FF4D572BAE6FFF78FFD044610B14FF432
:10944000D672B3E605F5757000F048FD95F8B533B2
:109450001BB105F56170FEF7F9FA03220021012026
:1094600004F06AFCC5F8C40308B904242EE005AB77
:10947000032401934FF4C062002317490094174856
:1094800005F027F822460021012004F055FCC5F81C
:10949000C8030028E9D006AB019300940023C8223A
:1094A0000F49104805F015F80F4B4FF480021A6071
:1094B0000E4B0093002301224FF48071184605F0F3
:1094C000E5FBC5F8CC0301F015F9002420460CB0EB
:1094D00070BD00BF003F0300C35203003598020077
:1094E000143E03002590020000E100E01D90020000
:1094F00037B5084B02AC1B7904F8043D08460D460D
:1095000007F0F6FE294682B22046FFF729FD03B098
:1095100030BD00BFFC3C030013B5084602A921F88A
:10952000022DFFF71FFD044678B14FF4F072094990
:10953000094807F057FD204606F082FA07F052FD71
:109540000A2007F067FD002001E09DF8060002B048
:1095500010BD00BF783D0300863903007FB5194A6E
:1095600005460C4610685168127A01AB03C31A70A5
:10957000002301AAD156A14203D00133092BF9D10E
:1095800019E0B5F824144FF6FF73994215D022461E
:109590000320FFF7DFFC064678B140F2F7120A49D4
:1095A0000A4807F01FFD304606F04AFA07F01AFD98
:1095B0000A2007F02FFD002002E085F8C0430120BB
:1095C00004B070BD013D03001C3D0300863903005B
:1095D00090F9C003704773B50446D0F8CC030E462B
:1095E00005F092FC00230546B6024FF47A72009310
:1095F000B6FBF2F20421D4F8CC0305F065FB3DB9CB
:1096000000952B462A460321D4F8CC0305F05CFBD9
:1096100002B070BDB0F824044FF6FF73C01A18BF33
:1096200001207047B0F8240408B54FF6FF73984244
:1096300006D01321FFF78CFCB0FA80F0400908BD7A
:10964000012008BDC0F828147047B0F82404704702
:10965000B0F824144FF6FF73994201D0FEF7B9BE5B
:1096600000207047B0F8BE037047000010B5064CEC
:109670000021D4F8C80304F044FCD4F8C40300214A
:10968000BDE8104004F03DBCC8360020F7B50D46DB
:1096900004468E886248634907F0A4FC288806F0D7
:1096A000BBF932460146604807F09CFC0A2007F0EF
:1096B000B1FC29462046FEF7D5FE294604F5377051
:1096C000FEF742F904F54D702946FFF70DFBB4F89B
:1096D00024042B88864205D0102B01D01B2B5FD190
:1096E000112B01E0112B3CD002D8102B0AD057E0EF
:1096F000122B32D0522B53D100231A461946FFF7B2
:1097000033FC4DE0EB7B012B4AD12B8AB4F8B62316
:10971000A888A4F824049A42A4F8BE3367D8B4F801
:10972000B823934263D8D4F82834002B38D01020C3
:10973000FFF7B4FCD4F82824426001220272002111
:1097400002AA03460160B4F8240442F8080D106828
:10975000D860184605F0F6FF22E02B89A4F8BE3346
:109760001EE0D4F82C34BBB11420FFF797FCD4F8DA
:109770002C2442600222027200270760B4F82424DD
:1097800000922A7A01926A46034603CAD860196198
:109790001846394605F0D6FF4FF6FF73A4F8243477
:1097A00094F8B53363B1B4F82434B34203D14FF61F
:1097B000FF739E4204D1294604F56170FEF74CF90F
:1097C00004F565763046FEF767FD18B12946304648
:1097D000FEF764FD294604F1DC00FFF769F8D4F8D0
:1097E0003034DBB1284603B0BDE8F0401847002113
:1097F000FFF7ACFB0746002895D040F216320B4924
:109800000B4807F0EFFB384606F01AF907F0EAFBC1
:109810000A2003B0BDE8F04007F0FCBB03B0F0BD88
:10982000C13A0300C35203000C3F0300473D03004D
:109830008639030073B54FF4FA70FFF72FFC0E4E14
:1098400004464FF0FF31D6F8C40304F0FDFB0028B6
:10985000F7D04FF4FA750DF106012046ADF8065029
:10986000FFF788FB20B921460348FFF70FFFF2E717
:109870000528E6D0EFE700BFC836002090F8D033C7
:1098800013B553B1D0F8CC4304F090FE0023024648
:1098900000930121204605F017FA02B010BD07B56C
:1098A000002300931A460321D0F8CC0305F00CFAEC
:1098B00003B05DF804FB90F8D03313B1132006F029
:1098C00079B9704730B5BE4D2DED028B95F86230F9
:1098D0008DB00446002B00F0B881D0F8C433002BC3
:1098E00000F0B381B749284603F00CFEB64AB749E9
:1098F000284603F011FE0A2294F8B113284603F01B
:1099000050FEB34AB149284603F006FE0A22D4F8B5
:10991000AC13284603F04FFEAE4AAC49284603F08C
:10992000FBFD0A2294F8B013284603F03AFE94F89F
:10993000B433002B3BD0A849284603F0E3FDA749E8
:10994000284603F0CFFDA64AA049284603F0E4FDCF
:109950000A222188284603F05AFEA049284603F02F
:10996000C1FDA04A9949284603F0D6FD0A22A178F4
:10997000284603F016FE9949284603F0B3FD9A4A9B
:109980009249284603F0C8FD0A22E178284603F0F0
:1099900008FE9249284603F0A5FD944A8B492846C3
:1099A00003F0BAFD0A222179284603F0FAFD94F863
:1099B000B533002B3BD08E49814803F0A3FD874986
:1099C0007F4803F08FFD864A80497D4803F0A4FD5F
:1099D0000A22E1887A4803F01AFE8049784803F0A9
:1099E00081FD804A7949764803F096FD0A22217A62
:1099F000734803F0D6FD7949714803F073FD7A4A44
:109A000072496F4803F088FD0A22617A6C4803F0BE
:109A1000C8FD72496A4803F065FD744A6B4968489D
:109A200003F07AFD0A22A17A654803F0BAFD714974
:109A3000634803F067FD04AD6F4A6449604803F072
:109A40006BFD20220021284606F089FC20222946B1
:109A50002046FFF761FD2946594803F05DFD58484F
:109A600003F048FD654A5949554803F055FD94F8FF
:109A7000B42363495248003218BF012203F04CFD61
:109A800094F8B5335F494E48002B14BF04220022DE
:109A900003F042FD4A4803F02DFD5B4A4B4948481C
:109AA00003F03AFD594B0FCB85E80F0002A9204681
:109AB000FEF77FFC00230546009306223A2302A905
:109AC0003F4803F0AFFD0CAB03EB8505504955F85B
:109AD000202C3B4803F020FD394803F00BFD4D4A94
:109AE0003A49374803F018FD94F9C0234A493448ED
:109AF00003F012FD324803F0FDFC484A3349304878
:109B000003F00AFDB4F8B63307EE903AF8EEE77AC0
:109B1000B7EE048A67EE887A17EE900A06F0F4FA38
:109B200002460B4626483E4903F0F6FCB4F8B8332B
:109B300007EE903AF8EEE77A67EE887A17EE900A29
:109B400006F0E2FA0B46024636491D4803F0E4FCF3
:109B50001B4803F0CFFC344A1C49194803F0DCFCD5
:109B6000B4F8BC3307EE903AF8EEE77AB2EE047A36
:109B700067EE877A17EE900A06F0C6FA0B460246A1
:109B80002A490F4803F0C8FC0D4803F0B3FC94F8D1
:109B9000B43353B1264A0D49094803F0BDFC0848C7
:109BA00003F0A8FC012000F001FE94F8B533002B6F
:109BB00048D0204A0549024803F0AEFC3CE000BF13
:109BC0008C3B0020223F0300483F0300543F03002A
:109BD0005C3F03006C3F03007C3F0300973F0300A2
:109BE0009C3F0300A43F0300B13F0300C03F0300BC
:109BF000D13F0300E93F03000B4003001040030086
:109C00002040030032400300404003000C3D0300AD
:109C1000484003004E400300574003005E400300ED
:109C20006D4003007D4003008B4003008340030030
:109C300098400300B2400300064803F05BFC02209A
:109C400000F0B4FD034803F055FC0DB0BDEC028BF1
:109C500030BD00BF8C3B00200148FFF733BE00BF82
:109C6000C836002010B5054C2046FFF726FA2046DE
:109C7000034A0449BDE8104006F0AEBAC8360020D9
:109C800000340020899C020010B5054BC0F8D43385
:109C9000044600F57970FDF73FFF204610BD00BF78
:109CA000984103003CDF70473DDF704711DF70478C
:109CB00013DF7047B0DF7047B2DF7047F0B59DB07B
:109CC0000C8807460D46014608A8FEF79FF8BDF828
:109CD0002030A34240F0C980AB79043B022B40F214
:109CE000C480634E3046FFF7B0FC102204460021CA
:109CF0000DEB020006F033FB022338468DF81030DE
:109D0000FEF708F940B940F2FD1304A92046ADF86A
:109D10001430FFF7CFFFA8E0002304A92046ADF8D8
:109D20001430FFF7C7FF2F7B012F40F09E80514D6D
:109D300019463E22284606F012FB1CAA082322F8E8
:109D4000623D4D493B462046FFF7B6FF224631466D
:109D50006846FEF748FB00982860BDF804209DF88F
:109D60000630AB71AA8021463046FEF732FB10B3B5
:109D7000282303FB046408AA618B384600F0DAFC50
:109D8000C8B11AAC94E803003C4AA980090C2860C9
:109D9000A97116AD2B4603CBA342106051601D463E
:109DA00002F10802F6D108AC0FCC354D0FC594E88E
:109DB000070085E807002F48324C4FF6FF7110F876
:109DC000012B82EA112383EA13139AB243EA012397
:109DD00083EA023383EA4213A04299B2EFD1254BC2
:109DE000294899870021FDF722FD2148FFF71AFC39
:109DF000FF210020FFF758FFB1210020FFF752FF9D
:109E0000044608B1A32204E0FFF750FF044668B1FE
:109E1000A4221E491E4807F0E5F8204605F010FE72
:109E200007F0E0F80A2007F0F5F81EE0194B4FF4B0
:109E30008002C3F880210124420900F01F01203272
:109E4000013004FA01F1272843F82210F4D14FF031
:109E500010235869FFF72CFF044608B1B922D8E750
:109E600080F31488586900F069FE1DB0F0BD00BF92
:109E7000C8360020807F0020B47F0020877F00202C
:109E8000987F0020BC7F0020A4390020B44103004B
:109E90008639030000E100E073B505460C496846C9
:109EA000FFF716F82E469DE806002846FEF7F2FF5B
:109EB000084B46F8103B68460749FFF709F89DE84C
:109EC00006003046FDF764FF284602B070BD00BFB3
:109ED0006241030098410300A441030070B5A2B0A1
:109EE0000646FEF7A9FF044668B1C9223E493F482D
:109EF00007F078F8204605F0A3FD07F073F80A2074
:109F000007F088F86DE012AD39492846FEF7E0FF0A
:109F100095E8060002A8FDF73BFF02A8FDF74EFFFB
:109F2000042102A8FDF74DFF142102A8FDF74CFF04
:109F300002A8FDF7F9FD044608B1D02213E006F1AE
:109F4000100420461821FDF73CFF20461721FDF79D
:109F50003BFF20462749FDF74CFF2046FDF7E4FD77
:109F6000044668B1D5222049204807F03BF8204636
:109F700005F066FD07F036F80A2007F04BF82DE0F3
:109F80001D496846FEF7A4FF9DE806002846FDF738
:109F9000FFFE2846FDF712FF02212846FDF711FFBC
:109FA00002212846FDF712FF2846FDF7BDFD0446B5
:109FB00068B1DB220C490D4807F014F8204605F083
:109FC0003FFD07F00FF80A2007F024F803E0012115
:109FD0002846FDF758FF2846FDF79EFD02A8FDF72D
:109FE0009BFD204622B070BD7241030086390300FC
:109FF00004420300BD9C02001442030037B504462E
:10A0000041F60A016846FEF75DFF9DE8060020461E
:10A01000FEF740FF074B2360074B2361002363617A
:10A02000A361E361054B2362054B6362204603B0E5
:10A0300030BD00BF68420300244203000A50030001
:10A04000033803000161704741627047F0B593B077
:10A050000446FEF7F1FE054668B14F222C492D4813
:10A0600006F0C0FF284605F0EBFC06F0BBFF0A2017
:10A0700006F0D0FF48E005F03FFD606105F006FD09
:10A080000C34E06042F624266F4654F8043F002B5F
:10A0900033D031463846FEF715FF97E8060002A890
:10A0A000FDF776FE02A8FDF789FE022102A8FDF762
:10A0B00088FE206807F01CF981B202A8FDF786FE31
:10A0C00002A8FDF731FD054680B15E221049114816
:10A0D00006F088FF284605F0B3FC06F083FF0A204F
:10A0E00006F098FF02A8FDF717FD0DE0216802A811
:10A0F000FDF7BCFE02A8FDF70FFD0136B6B242F631
:10A100002A239E42C1D10025284613B0F0BD00BFCE
:10A110003F4203008639030007B5036801229B69AB
:10A120000DF10701984710B19DF8070001E04FF0CD
:10A13000FF3003B05DF804FBA0F11000FFF7ECBFA7
:10A1400013B502AB026803F8011D146A1946012217
:10A15000A04702B010BDA0F11000FFF7F1BFD0F88A
:10A16000A030988980B27047A0F11000FFF7F7BFC8
:10A1700070B50D461646FDF71FFE044632462946C9
:10A18000D0F8A00005F0ABFBD4F8A83013B1BDE8BF
:10A190007040184770BD37B50546D0F8B40080B19F
:10A1A0000024009423462246052104F08DFDD5F8B5
:10A1B000AC00C5F8B44020B103B0BDE8304005F0B4
:10A1C0004CBB03B030BDD0F8A00005F046BBA0F1F9
:10A1D0001000FFF7F8BF08B592B2D0F8A00005F064
:10A1E000BFFB08BD07B5D0F8A0000DF1070105F0D1
:10A1F000D1FB10B19DF8070001E04FF0FF3003B034
:10A200005DF804FBA0F11000FFF7ECBF37B590F844
:10A21000B03004469BB10B4B0093012203460A2148
:10A22000002004F033FDC4F8B400054604F0BEF984
:10A230000023024600930121284604F045FD03B0A7
:10A2400030BD00BF39A30200F7B504460F4668468B
:10A250001A49FEF73DFE9DE806002046FEF71AFE6D
:10A260004FF47A73A361164B1649002603F10802D6
:10A2700040332361226068466661FEF729FE9DE84F
:10A28000060004F12000FDF783FD68460E49FEF745
:10A290001FFE9DE8060004F16000FDF779FD2046F1
:10A2A000C4F8A060C4F8A860A4F8A470C4F8AC60B6
:10A2B00084F8B060C4F8B46003B0F0BD8442030019
:10A2C0009442030074420300EC42030070B506465A
:10A2D0001848FFF7BAF901461648FEF7A1F8033807
:10A2E00085B204F09BFB0128284602D105F0F2FF5D
:10A2F00001E003F029FC0446D8B12A460146D6F80D
:10A30000AC0005F02DFB024630B1214606F12000DD
:10A31000FDF710FE054600E0012504F07FFB012853
:10A32000204602D105F0DEFF01E003F01CFC2846C8
:10A3300070BD70BDC836002008B504F0F1FDD0F83E
:10A34000AC301BB1BDE80840FFF7C0BF08BD00003E
:10A350002DE9F04790F8B03005468946174600F1E0
:10A36000200813B1D0F8AC303BB9BAB249464046E8
:10A37000FDF7E0FDF0B900242EE04046FDF7CAFDF0
:10A380000028F8D0BEB232464946D5F8AC0005F0F8
:10A39000A6FAD5F8AC3004461148B3F80CA0FFF784
:10A3A00054F901460E48FEF73BF81FFA8AFA0338C3
:10A3B000824501DA3C460FE02846FFF787FF002878
:10A3C000D9D0A742F6D9321B92B209EB040140461C
:10A3D000FDF7B0FD0028EDD12046BDE8F08700BFB5
:10A3E000C8360020A0F11000FFF7B2BF0A4B10B52D
:10A3F0000360383304460361D0F8AC0010B1036841
:10A400005B68984704F16000FDF786FB04F12000CB
:10A41000FDF782FB204610BD9C42030010B50446A8
:10A42000FFF7E4FF204604F0ABFF204610BD00001C
:10A43000F8B50446182004F0A1FF002205460121CA
:10A4400005F0D6F92846C4F8A050B4F8A41005F0D9
:10A45000ECF92046FEF7F0FC054610B11034B323AA
:10A460003DE001212748FDF79FFF04F12006074644
:10A4700010213046FDF7A5FC2A4611213046FDF794
:10A48000B1FC39463046FDF79FFC1F493046FDF7C9
:10A49000BBFC3046FDF748FB054610B11034BD2328
:10A4A0001DE004F160060C213046FDF78AFC1749D7
:10A4B0003046FDF79CFC112229463046FDF792FC00
:10A4C00039463046FDF780FC11493046FDF79CFCCB
:10A4D0003046FDF729FB054688B11034C7230D4AE5
:10A4E0000D49204603F018F8284605F0A9FA014660
:10A4F000204603F011F80949204603F00DF82846DC
:10A50000F8BD00BFC8360020FC42030071A1020064
:10A51000004303000443030086390300D44C0300C6
:10A52000012303700023437043608360C3818381F0
:10A53000704708B5FFF7F4FF08BD10B50446217059
:10A5400019B90A2003F015FC606010BD037810B53E
:10A55000044613B9406803F033FE2046BDE81040BE
:10A56000FFF7DEBF002381608281C38170470378DB
:10A5700070B505460C466BB90123A4024FF47A71FD
:10A580006B70B4FBF1F1686803F05EFD68B94FF0E1
:10A59000FF340CE003220021012003F0CDFB6860B2
:10A5A0000028E9D14FF0FF3070BDEC89A4B22B78C0
:10A5B00000266E701BB1686803F002FE6E602046D4
:10A5C00070BD4078704738B585899542044628BFEC
:10A5D000154619B12A46806805F09BFEA3682B44F6
:10A5E000A360A3895B1BA381E38915FA83F39BB264
:10A5F000E381284638BD406820B100231A46194639
:10A6000003F0C0BB7047B1DF7047B2DF7047000096
:10A6100010B4054B054C01290CBF214619465DF8C5
:10A62000044B06F001BE00BF714303005843030012
:10A6300010B5044604F0F2F90128204603D1BDE824
:10A64000104005F047BEBDE8104003F07DBA0000A1
:10A65000F0B5064685B050200D461746FFF7E8FFD7
:10A660000446D8B15022394605F053FE1820FFF7B2
:10A67000DFFF0B4A426003220272019602950394A7
:10A6800001AA0346046003CAD860106819615861C2
:10A690000021184605F056F80120FFE705B0F0BD8F
:10A6A00045AA0200F0B54FF6FF739A4285B00746FF
:10A6B0000E4615464FF0000417D01820FFF7B8FFDC
:10A6C0000B4A42600322027201970296039501AA87
:10A6D0000346046003CAD8601068196158612146B6
:10A6E000184605F02FF8012000E0204605B0F0BD27
:10A6F00075A9020008B50C4800F04AFD0B490A484C
:10A7000000F099FB18B90949074800F051FC0849C5
:10A71000054800F090FB28B905490348BDE808400A
:10A7200000F046BC08BD00BFFC3A00208A4303008D
:10A730009E43030030B591B015460A46014601A874
:10A74000FFF766FF0F4B002201A908A800F0F2FAFC
:10A7500008A800F003FB044608B900240CE008A890
:10A7600000F04EFA50280246F7D1294608A800F01A
:10A7700037FA08A800F09CFA08A800F0E1F9204692
:10A7800011B030BDFC3A002038B5044600F038FA6C
:10A79000051E08DD204600F056FA2918204600F074
:10A7A00041FA012038BD002038BD0000B0B5354960
:10A7B000354C364B98B000AF012808BF2146002227
:10A7C000384600F0B7FA314907F1200000F0F8F9F7
:10A7D0000022394607F1400000F0D2FA07F14001AB
:10A7E00007F1200000F078FA00F0B8FA044607F10B
:10A7F000400000F0A5F984B307F1200000F0BEFA94
:10A8000030BB07F12000FFF7BFFF08B307F12000BE
:10A8100000F0F6F9021E1BDDD31D23F007036C4682
:10A82000ADEB030D694692B207F1200000F0D8F9B4
:10A8300007F1200000F097FA054607F1200000F02C
:10A8400023FA6A4603462946114806F0CBFBA54683
:10A8500007F1200000F02CFABAE70A2006F0DAFB34
:10A8600007F1200000F024FA384600F021FA07F141
:10A87000200000F065F9384600F062F96037BD4607
:10A88000B0BD00BF9E4303008A430300FC3A002092
:10A89000B2430300F0B54FF6FF7391B09A420E46F3
:10A8A00000AF0BD12849294806F09CFB284806F048
:10A8B00099FB0A2006F0AEFB002440E00146381D5B
:10A8C000FFF7A6FE234B0022391D07F1200000F000
:10A8D00031FA07F1200000F041FA08B9002424E021
:10A8E00007F12000FFF750FF07F12000FFF74CFFB2
:10A8F00007F1200000F084F90028EFDDC31D23F0EC
:10A90000070384B26D46ADEB030D2246694607F19D
:10A91000200000F065F92246694603233046FFF720
:10A9200072FEB0FA80F46409AD4607F1200000F031
:10A93000BFF907F1200000F003F9002CB2D0204647
:10A940004437BD46F0BD00BFC8430300C13A030011
:10A95000CD430300FC3A002070B505460E46144670
:10A96000D1B200F0EEF8224631462846BDE87040EC
:10A9700000F015B92DE9F04391B000AF07F14004A4
:10A980000E46002124F83E1D0323804691463046A2
:10A990002246FFF73AFE7B886D46002B46D00733F0
:10A9A00023F00703ADEB030D22460323694630462F
:10A9B000FFF72BFE044668B1AA221F491F4806F084
:10A9C00011FB204605F03CF806F00CFB0A2006F0CF
:10A9D00021FB2BE04A464146381DFFF719FE184B74
:10A9E0000122391D07F1200000F0A4F907F1200031
:10A9F00000F0B4F9B0B1214607F1200000F012F9DF
:10AA000007F12000FFF7C0FE07F12000FFF7BCFEB2
:10AA100007F120007A886946FFF79EFF07F12000C2
:10AA200000F046F907F1200000F08AF84437AD46FF
:10AA3000BD46BDE8F08300BF234303008639030011
:10AA4000FC3A002030B5144601289DB00CBF528A54
:10AA5000E28D0D46014605A8FFF7DAFD05A9254858
:10AA600000F0E9F918B105A9224800F009FB214BD3
:10AA7000012205A90CA800F05DF90CA800F06EF900
:10AA8000002832D0502221460CA8FFF765FF202273
:10AA9000002114A805F063FC202314AA29461648B7
:10AAA000FDF7C4FC9DF850309BB994F84910039110
:10AAB00094F84A10029194F84B10019194F84C10BC
:10AAC000009194F84D3094F84E200C4914A806F0EB
:10AAD000ABFB14A806F00CFC421C92B20CA814A903
:10AAE000FFF73AFF0CA800F0E3F80CA800F028F8F4
:10AAF0001DB030BDFC3A0020C8360020E4430300FE
:10AB0000F0B50346186880F308885868FF2464B2DB
:10AB1000EFF30585002D01D1A646004725460646E0
:10AB200021273FBAF0B40024002500260027F0B406
:10AB3000F92040B2004700BFF0BD00BFFFF7E0BF03
:10AB4000704707B5027F8DF8071032B903680122FC
:10AB50005B680DF10701984700E0002003B05DF845
:10AB600004FB10B5044604F00BFC204610BD10B5E4
:10AB7000044603F053FF0128204603D1BDE81040EE
:10AB800005F0B0BBBDE8104002F0EDBF027F034608
:10AB900022B9006959690268926A104770471346E2
:10ABA000027F30B442B904692268156A0A46AC468D
:10ABB0004169204630BC6047002030BC704700002F
:10ABC00010B54FF47A7400228460044C4260046033
:10ABD000016142618261027710BD00BF0C44030035
:10ABE0001346027F30B442B904692268556A0A46A6
:10ABF000AC464169204630BC6047002030BC7047FD
:10AC0000037F07B513B14FF0FF3008E001220DF1CB
:10AC10000701FFF7E5FF0028F5DD9DF8070003B009
:10AC20005DF804FB0A46017F10B4034639B9006998
:10AC300001680C6B596923465DF8044B18470020E6
:10AC40005DF8044B7047027F034622B900695969D9
:10AC50000268526B10470020704738B5037F0546E5
:10AC60007BB90368DB68984704462846FFF7EBFF8B
:10AC700008B1411E00E001462846FFF7D3FF2046F9
:10AC800038BD4FF0FF3038BD027F034622B900695E
:10AC900059690268926B10470020704738B5054625
:10ACA000FFF7F2FF04462846FFF7CDFF201A38BD14
:10ACB000416910B5044639B10069227F0368DB6A37
:10ACC00098476069FFF753FFA06908B1FFF74FFF8E
:10ACD00000236361A36110BD38B5436905460C4686
:10ACE0000BB1FFF7E5FF21462B4604F1200251F896
:10ACF000040B43F8040B9142F9D1284638BDF0B556
:10AD0000436989B004460E4617460BB1FFF7D0FFE2
:10AD100021690B6832465D6868463B46A84769462C
:10AD20002046FFF7D9FF6069003018BF012009B045
:10AD3000F0BD000070B54FF47A7600258660064EAF
:10AD40004560044606600361456185610577FFF74C
:10AD5000D6FF204670BD00BF0C44030040690030A0
:10AD600018BF0120704710B584692F21204606F0D6
:10AD7000C7FA08B1013010BD204610BD007F7047F2
:10AD80000B7F73B505461BB90969FFF719FF07E08B
:10AD90000C6923680092DE6B4A698B692146B047D3
:10ADA000284602B070BD704708B502F0B1FE002021
:10ADB00008BD08B501F55A6102EBC110029A1946A7
:10ADC00002F0ACFE002008BD08B501F55A6102EBA7
:10ADD000C1111846029A02F0A9FE002008BD10B564
:10ADE000044604F0CDFA204610BD08B53C300023DF
:10ADF00001F080FDC043C00F08BD10B5044603F04C
:10AE00000DFE0128204603D1BDE8104005F06ABAC6
:10AE1000BDE8104002F0A7BE10B5044603F0FEFDE9
:10AE20000128204603D1BDE8104005F053BABDE823
:10AE3000104002F089BE00B5C3B06A463C3001F054
:10AE40002DF9B0FA80F0400943B05DF804FB08B575
:10AE50003C3001F02BFB20EAE07008BD3C3001F0F3
:10AE6000E4BC3C3001F00EB93C3001F00DB93C308F
:10AE70000AB101F082B801F0E5BF000010F1140F33
:10AE800008B502462DD013DC10F11C0F2FD007DCC3
:10AE900010F1340F1FD010F1270F2AD1194808BD27
:10AEA00010F1160F21D010F1150F22D1164808BD50
:10AEB00010F1090F17D007DC10F1110F0FD010F1AE
:10AEC0000C0F16D1114808BD811C06D0B8B1431D26
:10AED0000FD10F4808BD0F4808BD0F4808BD0F48E7
:10AEE00008BD0F4808BD0F4808BD0F4808BD0F48F2
:10AEF00008BD0F490F4806F097F90E4808BD0E48E7
:10AF000008BD00BF2A4603001C4603006446030038
:10AF1000D6450300E1450300F1450300FF4503006A
:10AF20000D4603003B460300484603005646030017
:10AF3000033E0300803B0020CB45030070B505466F
:10AF400079B905F13C0604352946304602F088F807
:10AF5000044688B1E6221449144806F043F8204616
:10AF600016E04FF4DA24204604F5805402F0EAFD9E
:10AF7000B4F5E82FF7D1E4E72946304601F0CCF8E4
:10AF8000054670B1E7220849084806F02BF8284624
:10AF9000FFF774FF06F026F80A2006F03BF80020C1
:10AFA00070BD012070BD00BF6B44030086390300F3
:10AFB0002DE9F0470B782F2B804600AF0D460CBFD4
:10AFC000481C08464FF0000A2F2106F060F904469D
:10AFD000A0B3421B02F1080323F00703E946ADEBDF
:10AFE000030D6E468DF800A06B460DEB02018B42FF
:10AFF00002D003F801AFFAE72946304605F089F997
:10B00000314608F13C0002F0C1F8064698B110F153
:10B01000110F10D040F253121749184805F0E2FF03
:10B020003046FFF72BFF05F0DDFF0A2005F0F2FFA9
:10B03000CD4600201CE0601CCD46C5E7294608F13E
:10B040003C0002F0A3F8054688B110F1110F0ED0B4
:10B0500040F25D120849094805F0C4FF2846FFF791
:10B060000DFF05F0BFFF0A2005F0D4FFE1E7012046
:10B07000BD46BDE8F08700BF1345030086390300D5
:10B0800010B53C3002F084F9044678B14FF4B37245
:10B090000749084805F0A6FF2046FFF7EFFE05F038
:10B0A000A1FF0A2005F0B6FF002010BD012010BD51
:10B0B000C84603008639030010B53C3002F068F939
:10B0C000044668B14FF4B6720649074805F08AFF96
:10B0D0002046FFF7D3FE05F085FF0A2005F09AFF12
:10B0E000012010BD3D4503008639030010B53C30FA
:10B0F00002F04EF9044668B140F27512064907485D
:10B1000005F070FF2046FFF7B9FE05F06BFF0A203F
:10B1100005F080FF012010BDF346030086390300CF
:10B1200010B53C3001F040FE044678B140F2851283
:10B130000749084805F056FF2046FFF79FFE05F037
:10B1400051FF0A20BDE8104005F064BF10BD00BFEC
:10B15000674503008639030010B53C3000F082FFDC
:10B16000044678B140F2CB120749084805F03AFF8F
:10B170002046FFF783FE05F035FF0A20BDE81040AA
:10B1800005F048BF10BD00BF974603008639030095
:10B1900038B590F880500446BDB9012380F880305E
:10B1A000011D3C3000F0B8FF34300ED10849094889
:10B1B00005F018FF084805F015FF0A2005F02AFFE2
:10B1C00023682946DB6920469847012038BD00BF27
:10B1D00072460300C13A03007946030073B501F5D6
:10B1E0005A61CD010024FF26601901220DF10701EB
:10B1F00001348DF8076002F091FC802CF4D100201E
:10B2000002B070BD0E4B10B538220446002140F844
:10B21000043B05F0A4F80B4BA3600B4BE3600B4B16
:10B2200023610B4B63618023A361E3612362E0220E
:10B23000A3620023626284F88030204610BD00BF04
:10B2400028470300C9AD0200B3AD0200DDB1020022
:10B25000A9AD02002DE9F843984605460E4617466B
:10B26000FFF7AEFCB8F1000F05D0B8F1010F39D1EE
:10B2700040F2031901E04FF001093820FFF7CCFD3F
:10B28000044678B33C364B463A462146304602F0F7
:10B2900078F8814680B12046FFF7AFFDFD221349C3
:10B2A000134805F09FFE4846FFF7E8FD05F09AFEBB
:10B2B0000A2005F0AFFE15E0B8F1010F05D10246F6
:10B2C00002232146304601F015FB00232B776C61E9
:10B2D000384606F00DF80130FFF79EFD3946A861AB
:10B2E00005F0EDFF2846BDE8F88300BF8E4503005A
:10B2F00086390300F8B50F4615460446FFF760FC93
:10B300002C20FFF789FD2A460146064607F13C003E
:10B3100000F00AFE074688B13046FFF76EFD40F2A6
:10B3200019120E490E4805F05DFE3846FFF7A6FDDE
:10B3300005F058FE0A2005F06DFE0CE0012323778E
:10B340006661284605F0D4FF0130FFF765FD294608
:10B35000A06105F0B4FF2046F8BD00BFE044030043
:10B360008639030010B5054C2046FFF74BFF2046F9
:10B37000034A0449BDE8104004F02EBFFC3A002007
:10B3800000340020A7AD02002DE9F0410C46CAB000
:10B39000154698460646FFF713FC08AA294604F10D
:10B3A0003C0000F07BFE074648B99DF82030112B89
:10B3B0000AD02A4621466846FFF79CFF0AE0831C14
:10B3C00010D1B8F1010F1BD143462A4621466846E9
:10B3D000FFF740FF69463046FFF77EFC6846FFF7FF
:10B3E000AFFB0DE040F239120749084805F0FAFDBD
:10B3F0003846FFF743FD05F0F5FD0A2005F00AFE8B
:10B4000030464AB0BDE8F0812C4403008639030081
:10B410002DE9F043CBB000AF80460E4691461D4665
:10B42000FFF7CEFB07F12002494606F13C0000F091
:10B43000B3FD012804460ED107F128012F4805F07D
:10B4400034FF0028EED007F128012D4805F02DFF2C
:10B450000028E7D010E0002849DA40F2C312294959
:10B46000294805F0BFFD2046FFF708FD05F0BAFDAD
:10B470000A2005F0CFFD3AE0284605F039FF0446E2
:10B4800007F1280005F034FF2044093020F00700C0
:10B49000E946ADEB000D2946684605F010FF2B7814
:10B4A0002F2B6C4601D16B781BB11849204605F053
:10B4B000DFFE07F12801204605F0DAFE97F820307C
:10B4C000112B07D197F84831224631463846FFF70D
:10B4D000C1FE04E0224631463846FFF70BFF3946ED
:10B4E0004046FFF7F9FB3846FFF72AFBCD464046BA
:10B4F00007F59677BD46BDE8F08300BF5F380300CF
:10B500005E3803008F44030086390300954603002C
:10B5100003681A6AC36AD31A1944B1FBF2F302FB37
:10B520001311036B994210B50BD24C09C26B012366
:10B5300001F01F0103FA01F152F82430194342F8D7
:10B540002410002010BD0368013304D04068431C60
:10B550005842584170470120704710B50B68046885
:10B560009C4209D040684A68904205D0944203D07A
:10B57000181A18BF012010BD002010BD03689B6A77
:10B5800010B5044613B9C06902F0EDFA2368DB6A0E
:10B5900013B9A06A02F0E7FA23681B6B23B9E06BCA
:10B5A000BDE8104002F0DFBA10BD00002DE9F04FF9
:10B5B000984603681B6A85B0434582460F4691460C
:10B5C0000E9C0F9E109D28D8354B364A36481221C6
:10B5D00004F008FEDAF80000B9F1000F20D0D9F825
:10B5E000003098451CD1D9F80410A14218D88369BD
:10B5F00001EB030B5C4513D2C4EB0B0BAB45D9F845
:10B60000083028BFAB46611A30465A46194404F048
:10B6100080FE5E445C44CBEB0505002DDAD13BE0B7
:10B620003B6898450FD179688C420CD3436901EB94
:10B63000030B5C4507D2C4EB0B0BAB4528BFAB46F5
:10B64000611ABB68E0E74369B4FBF3F203FB124203
:10B65000AAB99D4213D3B5FBF3F203FB125BCBEB0C
:10B66000050300930393436822461D464146334633
:10B67000A84790B9039B5D461E441C44CDE7A21A1F
:10B68000C7F800807A600093D0F804B0BB684146E8
:10B69000D8470028C1D000E0284605B0BDE8F08FAB
:10B6A000A8470300A54B0300C64703001FB5069C2F
:10B6B0008DE81C000B46002200F11401FFF776FF15
:10B6C00004B010BD10B50C468269A068FF2104F0DB
:10B6D00046FE4FF0FF33236010BD00008B6A10B5AB
:10B6E000044601600BB1C36105E0486902F02CFA21
:10B6F000E06100285FD02368DA6A0AB1A26205E03F
:10B70000986902F021FAA062002854D0206804F160
:10B710002001FFF7D7FF4FF0FF3363612368586ABA
:10B72000C20604D0274B284A40F6130104E030B982
:10B73000264B254A40F61401254804F053FD1B6BA7
:10B740000BB1E36305E0C00802F0FEF9E0630028F6
:10B7500031D0236898695969B0FBF1F201FB1202FC
:10B7600022B11C4B184A40F61F01E5E7DA69B2FB2B
:10B77000F0F300FB132020B1174B134A4FF4026182
:10B78000DAE74FF0FF31A2F10803B1FBF3F30B440A
:10B79000B3FA83F3C3F12003B2EB830F04D20F4B50
:10B7A000094A40F62401C7E76160A160E0602061BA
:10B7B00084F8400010BD2046FFF7E0FE6FF00B005C
:10B7C00010BD00BF2E480300904703004C48030003
:10B7D000C64703006448030093480300C3480300BE
:10B7E000C069F8B50E68A0F108050F46B6FBF5F084
:10B7F00080B1013804F0DCFC0230A6EB8004B4FB1D
:10B80000F5F4204604F0D4FC04FB1565A5EB80009C
:10B8100038602046F8BD2DE9F04F89B09B46129B59
:10B82000139F884608A9013B064641F80C3D006875
:10B830009146FFF7D5FF0DF1180A044659461498B2
:10B84000B84718BB0CB304F00105C5F10205AB0005
:10B8500002938DE801045B464A4641463046FFF7B5
:10B86000A5FE98B9034605F1FF3B5B4506DA06994C
:10B870001498B84701230028F7D007E008AB03EB82
:10B880008B0B641B5BF808BCD8E7204609B0BDE809
:10B89000F08F00002DE9F04F89B0064689460592E9
:10B8A000139F1BB94FF0FF323A6042E008A9013BF9
:10B8B00041F8043D0068FFF793FF12A90546306880
:10B8C000FFF78EFF4FF0040A80460DF1140BA845D8
:10B8D0002CD2C8EB0503B3FA83F395FAA5F4B4FAB6
:10B8E00084F4C3F11F039C4228BF1C46A3000093AD
:10B8F000CDF808A0059BCDF804B00022494630469B
:10B90000FFF754FE059BB8B9012B03D93268126AC0
:10B91000934206D90A4B0B4A0B484FF48F6104F04F
:10B9200061FC012303FA04F42D1BD0E7059B3B6067
:10B93000129B149A0020136009B0BDE8F08F00BF7D
:10B940000F49030083470300C64703002DE9F04F6A
:10B9500087B00646109C119D0F46904625444FF037
:10B9600001090DF1170AC4EB030BAC4214D00BEB29
:10B9700004030093CDF80890CDF804A043460022BC
:10B9800039463046FFF712FE38B914F8013B9DF8EE
:10B9900017209A42E9D000E0012007B0BDE8F08FFF
:10B9A000F7B50C4609684B1C054616461ED00068C4
:10B9B0006268836900938768A368B847B8B926B9F5
:10B9C00021462868FFF77EFE10E02B689B690193F3
:10B9D000A3680093314694E80C002846FFF7B6FFB1
:10B9E000002804DBECD16FF0330000E0002003B04E
:10B9F000F0BD00002DE9F04F994603681B6A85B041
:10BA00004B450746884692460E9D0F9E109C25D8B2
:10BA10003A4B3B4A9C212CE0D8F80400854223D3C2
:10BA20003B689B6900EB030B5D451DD2C5EB0B0B1F
:10BA3000A345D8F8083028BFA346281A5A463146ED
:10BA4000184404F066FC3B689A695D44B5FBF2F368
:10BA500002FB13535E44CBEB04046BB1002C48D0C3
:10BA6000D8F800209145D7D001320DD0254B244A7B
:10BA7000B721254804F0B6FB524641463846FFF749
:10BA80008FFF0028EAD035E038688269B5FBF2F311
:10BA900002FB13533BBB944225D3B4FBF2F302FBEE
:10BAA000134BCBEB04030093039383682A461C4695
:10BAB00049463346A047E8B9BAF1000F04D1039BC9
:10BAC0005C461E441D44C9E7039B019300962B4628
:10BAD0004A4651463846FFF739FF00280ADBEED1C7
