:020000022000DC
:106000000000012075E00200B5E00200B7E00200E8
:10601000B9E00200BBE00200BDE0020000000000A9
:10602000000000000000000000000000F5DF02009A
:10603000C1E002000000000015E00200C5E002001F
:10604000C7E00200C7E00200EDC70200C7E002009F
:10605000C7E00200C7E00200C7E00200C7E002009C
:10606000C7E00200C7E00200C7E00200C7E002008C
:10607000C7E00200C7E00200C7E00200C7E002007C
:10608000C7E0020019DE0200C7E00200C7E002001C
:10609000C7E00200C7E002000D900200C7E0020066
:1060A000C7E00200C7E00200C7E00200C7E002004C
:1060B000C7E00200C7E0020000000000000000008E
:1060C000C7E00200C7E00200C7E00200C7E002002C
:1060D000C7E00200C7E00200C7E0020000000000C5
:1060E00000000000000000000000000000000000B0
:1060F00000000000000000000000000000000000A0
:10610000000000000000000000000000000000008F
:10611000000000000000000000000000000000007F
:10612000000000000000000000000000000000006F
:10613000000000000000000000000000000000005F
:10614000000000000000000000000000000000004F
:10615000000000000000000000000000000000003F
:10616000000000000000000000000000000000002F
:10617000000000000000000000000000000000001F
:10618000000000000000000000000000000000000F
:1061900000000000000000000000000000000000FF
:1061A00000000000000000000000000000000000EF
:1061B00000000000000000000000000000000000DF
:1061C00000000000000000000000000000000000CF
:1061D00000000000000000000000000000000000BF
:1061E00000000000000000000000000000000000AF
:1061F000000000000000000000000000000000009F
:10620000044B05481B1A062B02D9044B03B118474F
:10621000704700BFE7340020E43400200000000095
:1062200005490648091A891001EBD171491002D0BD
:10623000034B03B118477047E4340020E4340020D6
:106240000000000010B5064C237843B9FFF7D8FFD3
:10625000044B13B10448AFF300800123237010BD39
:10626000E434002000000000542E030008B5084B61
:106270001BB108490848AFF300800848036813B908
:10628000BDE80840CCE7064B002BF9D09847F7E76C
:1062900000000000E8340020542E0300E034002009
:1062A00000000000154B002B08BF134B9D46A3F5C3
:1062B000803A00218B460F461348144A121A08F000
:1062C000BEFE0F4B002B00D098470E4B002B00D08A
:1062D00098470020002104000D000D48002802D03E
:1062E0000C48AFF3008008F03FFE2000290007F0C3
:1062F000FDFE08F013FE00BF0000080000000120B2
:106300000000000000000000E4340020AC53002036
:10631000000000000000000030B5202489B00546D0
:1063200022460021684608F08AFE2346094C0A48A6
:106330006A46294601F012FF0849204606F06AF82D
:106340006946204606F076F80549204606F072F8C0
:1063500009B030BD783B0020C8360020242203005D
:106360003222030010B5044600F06EFE204610BD38
:10637000C043C0B2542807D800EB4002A0EB800015
:106380000138D2B2002115E0A9280AD85538C1B287
:10639000A1EB8102013A01EB4101D2B2C9B2002066
:1063A00009E05630C0B2A0EB8001013900EB40009B
:1063B0000022C9B2C0B201F055B8427D438D3AB94E
:1063C0000133018D9BB2994243850BD8428506E08B
:1063D000013B9BB243852BB9038D013B4385C36AC7
:1063E00003B118477047437D23B901234375038DDB
:1063F000013B01E0002343754385704708B502481F
:10640000FFF7F1FF08BD00BF8036002008B5024845
:10641000FFF7E9FF08BD00BF2C35002008B5024892
:10642000FFF7E1FF08BD00BF5C35002008B502485A
:10643000FFF7D9FF08BD00BF8C35002038B5042315
:106440000375826104460D4601F067F8013840008B
:10645000002320852562638538BD70B5044600257C
:10646000204601F05AF885421CDA628D9542AEB2A0
:1064700003D0238D9B1A9D4201D1226A0CE0314644
:10648000204600F0FBFFC0F34602C0F34621C0F3F4
:10649000464000F0E7FF02463146204600F0B0FFDC
:1064A0000135DDE7204600F033FE2046FFF785FF8B
:1064B00070BDF8B50446036A676AB0F828E0468DF7
:1064C000FAB2C6EB0E00D9B2724300FB0122C7F349
:1064D0000721C3F307257143C7F3074700FB0511E5
:1064E0007E43C3F3074500FB056392FBFEF291FB7D
:1064F000FEF193FBFEF0D2B2C9B2C0B200F0B2FF1F
:1065000000250646204601F008F8A84206DDA9B29B
:106510003246204600F074FF0135F3E7204600F0D4
:10652000F7FD204600F0F4FD2046FFF746FFF8BDDA
:1065300070B5044606F07BF9E369C01AA369984276
:106540004FD906F074F9237DE061013B042B48D854
:10655000DFE803F00603344044000025032618E07A
:106560000025204600F0D9FFA84220462CDD00F08F
:10657000D4FF2B0293FBF0F094F82A301844C0B2F9
:10658000FFF7F6FEA9B20246204600F039FF0135BA
:10659000E7E7204600F0C1FFA84214DD628D2A44DF
:1065A00092FBF6F303EB43039A42A9B20CBF226AB3
:1065B000626A204600F024FF0135EAE7226A618D15
:1065C000204600F01DFF204600F0A2FD2046FFF708
:1065D000F4FE70BD2046FFF740FF70BD2046FFF778
:1065E00068FF70BD10B5114C0621204601F05AF825
:1065F000204601F045F80E49204601F014F804F158
:10660000380001F01DF82046012101F078F82046FD
:10661000F422202101F06FF820461E2101F069F8D4
:1066200020460021BDE8104001F0C4B8A439002084
:10663000C43500202DE9F84F1A4BDFF878901D681B
:10664000002780463C46CB46174B1B789F4224DAF6
:106650002646164B1A78331B9A4218DD99F80030FB
:10666000AA7869782878032B1FFA86FA02D100F0FD
:10667000F9FE02E0EB7800F0FAFE02465146404691
:1066800000F0BEFE9BF8003001361D44E1E7084BE8
:106690001B789C1A34440137D6E74046BDE8F84FD2
:1066A00000F036BDC03500207C36002028350020A3
:1066B000BC3500200434002070B5254D254C2648FB
:1066C000264E02F027FF4FF48071284603F02AF887
:1066D00022462349284608F0EFFB522310221821B6
:1066E000304600F077FE1F4D1F4BF36230461F4EC1
:1066F0002246294608F0E0FB52231E22182130468C
:1067000000F068FE1A4BF36230461A4E22462946C4
:1067100008F0D2FB52230F221821304600F05AFE17
:10672000154BF3623046154E2246294608F0C4FB4D
:1067300052231B221821304600F04CFE104BF3620E
:10674000224629463046BDE8704008F0B5BB00BF80
:10675000C4350020003400200035002080360020A1
:10676000C998020065630200FD6302002C35002019
:106770000D6402005C3500201D6402008C35002091
:106780002D640200F8B5394C394F3A4E3A4D204647
:106790004FF4E13105F0BFFE3849204605F04AFECE
:1067A0003749204605F046FE204605F03BFE3549B8
:1067B000204605F03FFE3846334C00F054FC30468E
:1067C00000F051FC284600F04EFC204600F04BFC47
:1067D0003846782100F0A3FE3046782100F09FFE75
:1067E0002846782100F09BFE2046782100F097FE95
:1067F00005230A2000220121BB61B061FF230F2085
:106800002385628562752175A061204CA8612046B0
:106810003B857A857A753385728572752B856A8595
:106820006A7539753175297502F0CCF90421204655
:1068300002F076FB2046164902F04EFB2046154C2E
:10684000154902F0CFFB2046144902F089FE144995
:10685000204602F083FE204602F084FE114803F039
:1068600055F8BDE8F840FFF7BDBE00BF783B0020FB
:10687000803600202C3500205C3500209822030053
:1068800062220300C12203008C350020C83600209C
:10689000BA2203000035002019630200EB22030036
:1068A000FF220300C435002010B502460446074904
:1068B000074805F0C9FD204609F0DEFA21460246E8
:1068C000BDE81040034802F0FBBF00BF13230300E4
:1068D000783B0020D43500202DE9F041354C364975
:1068E000364F374E374D86B08046204605F0A2FD24
:1068F0003549204605F09EFD3449204605F09AFDB5
:106900000A22414620465FFA88F805F0F7FD414625
:10691000384600F004FE2E4C4146304600F0FFFDA4
:106920004146284600F0FBFD4146204600F0F7FDB9
:10693000384600F0EDFB304600F0EAFB284600F058
:10694000E7FB204600F0E4FB0FCF0DF1040EAEE8AC
:106950000F003B68CEF8003001A8FFF76BFE01A8DE
:1069600000F072FB0FCE01AF0FC733683B6001A888
:10697000FFF760FE01A800F067FB0FCD01AE0FC668
:106980002B68336001A8FFF755FE01A800F05CFBFF
:106990000FCC01AD0FC523682B6001A8FFF74AFE9D
:1069A00001A800F051FB0B48FFF77EFF06B0BDE8E1
:1069B000F08100BF783B00205A220300803600207F
:1069C0002C3500205C350020262303003B230300E8
:1069D0008C350020492303002DE9F74FC74CC84EE2
:1069E000C84DC94F2046FFF7A3FD3046FFF7A0FD75
:1069F0002846FFF79DFD3846FFF79AFDC34802F091
:106A0000D9FAA346B246A946B846002800F0088342
:106A1000BF4802F0EFFD442800F0068105DC422863
:106A200052D059DC41280CD0FAE2462800F0D88137
:106A3000C0F27881592800F07D825A2800F0B68291
:106A4000EEE20190B24802F0D5FD0746B04802F0F0
:106A5000D1FDB0498146B04805F0ECFC019BAE4841
:106A600019460A2205F04AFD0A223946AA4805F0CD
:106A700045FD0A224946A84805F040FD012F05D1F1
:106A8000FF202775C4F818902085F6E0022F06D164
:106A900001233375FF23C6F818903385C0E2032F16
:106AA00006D101232B75FF23C5F818902B85B7E27B
:106AB000042F40F0B582012388F81430FF23C8F872
:106AC0001890A8F82830ABE2914802F093FD03B08B
:106AD000BDE8F04FFFF700BF8D4802F08BFD814607
:106AE0008B4802F087FD8D4980468B4805F0A2FC5B
:106AF0000A224321884805F001FD0A2249468648BA
:106B000005F0FCFC0A224146834805F0F7FCB9F188
:106B1000010F1ED10225FF20257505F07DFEC0B2B4
:106B2000FFF726FC2062FF2005F076FEC0B2FFF7DB
:106B30001FFC0746FF2005F06FFEC0B2FFF718FCF0
:106B40005FFA88F3064620462575A36100F0E5FC50
:106B50007FE1B9F1020F22D1FF2086F8149005F0F1
:106B60005BFEC0B2FFF704FC3062FF2005F054FE6C
:106B7000C0B2FFF7FDFB0546FF2005F04DFEC0B299
:106B8000FFF7F6FB5FFA88F30446304686F8149068
:106B9000B36100F0C2FC3562308574627FE1B9F107
:106BA000030F1ED10224FF202C7505F035FEC0B264
:106BB000FFF7DEFB2862FF2005F02EFEC0B2FFF7D4
:106BC000D7FB0746FF2005F027FEC0B2FFF7D0FB3A
:106BD0005FFA88F3064628462C75AB6100F09DFCF1
:106BE0007DE1B9F1040F40F01B820224FF203C75C7
:106BF00005F012FEC0B2FFF7BBFB3862FF2005F0C4
:106C00000BFEC0B2FFF7B4FB0646FF2005F004FE02
:106C1000C0B2FFF7ADFB5FFA88F3054638463C7516
:106C2000BB6100F07AFC7EE10190394802F0E2FCA1
:106C30008046374802F0DEFC39498146364805F087
:106C4000F9FB019B344819460A2205F057FC0A2239
:106C50004146314805F052FC0A2249462E4805F0CB
:106C60004DFCB8F1010F0FD103232046237500F02E
:106C700054FCC4F818902085FF2005F0CDFDC0B26B
:106C8000FFF776FB2062CBE1B8F1020F0FD10323AF
:106C90003046337500F041FC3085FF20C6F818906F
:106CA00005F0BAFDC0B2FFF763FB3062B8E1B8F19E
:106CB000030F0FD1284685F8148000F02EFC28859C
:106CC000FF20C5F8189005F0A7FDC0B2FFF750FBF4
:106CD0002862A5E1B8F1040F40F0A28103233846F1
:106CE0003B7500F01AFC3885FF20C7F8189005F0B6
:106CF00093FDC0B2FFF73CFB386291E18036002083
:106D00002C3500205C3500208C350020C836002052
:106D1000C43500204C230300783B00206923030086
:106D200086230300C04802F065FC8046BE4802F09E
:106D300061FCBE498146BE4805F07CFB0A22452124
:106D4000BB4805F0DBFB0A224146B94805F0D6FBFB
:106D50000A224946B64805F0D1FBB8F1010F0CD123
:106D60000423FF20237505F057FDC0B2FFF700FB99
:106D70005FFA89F2014620462FE0B8F1020F0CD1EC
:106D80000423FF20337505F047FDC0B2FFF7F0FA8A
:106D90005FFA89F2014630461FE0B8F1030F0CD1CB
:106DA0000423FF202B7505F037FDC0B2FFF7E0FA92
:106DB0005FFA89F2014628460FE0B8F1040F40F06F
:106DC0002F81FF2087F8148005F026FDC0B2FFF761
:106DD000CFFA5FFA89F201463846FFF72FFB1FE131
:106DE0000190914802F006FC81468F4802F002FCB7
:106DF000904980468E4805F01DFB019B8C48194642
:106E00000A2205F07BFB0A224946894805F076FBF9
:106E10000A224146864805F071FBB9F1010F1FD1E6
:106E20000525FF20257505F0F7FCC0B2FFF7A0FA95
:106E30000746FF2005F0F0FCC0B2FFF799FA0646BE
:106E4000204600F06AFB05F0E7FC5FFA88F3257541
:106E5000A361002320852762666263856375DFE096
:106E6000B9F1020F1FD10524FF20347505F0D4FCC1
:106E7000C0B2FFF77DFA0746FF2005F0CDFCC0B297
:106E8000FFF776FA0546304600F047FB05F0C4FCF4
:106E90005FFA88F33475B361308537627562002319
:106EA00073857375BCE0B9F1030F1FD10524FF2072
:106EB0002C7505F0B1FCC0B2FFF75AFA0746FF2067
:106EC00005F0AAFCC0B2FFF753FA0646284600F0C8
:106ED00024FB05F0A1FC5FFA88F32C75AB6100235D
:106EE00028852F626E626B856B7599E0B9F1040F8E
:106EF00040F096800524FF203C7505F08DFCC0B263
:106F0000FFF736FA0646FF2005F086FCC0B2FFF711
:106F10002FFA0546384600F000FB05F07DFC5FFACD
:106F200088F33C75BB61002338853E627D627B85BA
:106F30007B7575E003252046257500F0EEFA208567
:106F40006424FF20CBF8184005F066FCC0B2FFF7C0
:106F50000FFACBF820003046357500F0DEFA3085A8
:106F6000FF20B46105F058FCC0B2FFF701FA3062AF
:106F7000484689F8145000F0D0FAA9F82800FF20FC
:106F8000C9F8184005F048FCC0B2FFF7F1F9C9F89C
:106F9000200038463D7500F0C0FA3885FF20BC61FE
:106FA00005F03AFCC0B2FFF7E3F938620325224846
:106FB0008BF8145000F0B1FA0A24ABF82800002036
:106FC000CBF81840FFF7D4F9CBF820001B488AF81B
:106FD000145000F0A2FAAAF828000020CAF81840BD
:106FE000FFF7C6F9CAF82000154889F8145000F0D8
:106FF00094FAA9F828000020C9F81840FFF7B8F95A
:10700000C9F820000F4888F8145000F086FAA8F854
:1070100028000020C8F81840FFF7AAF9C8F8200097
:1070200003B0BDE8F08F00BFC4350020A0230300EB
:10703000783B0020B7230300803600202C35002049
:107040005C3500208C35002010B50446806808B1FE
:1070500007F0B8FF94F90600002802DB002107F0D2
:10706000F7FB204610BD10B5044690F90600002835
:1070700007DB012107F0ECFB002194F9060007F083
:1070800009FC0123637010BD70B5054680680E468B
:1070900008B107F097FFEB7B2C7BA3420CBF0324C6
:1070A000042414FB06F4A4B2AC80204607F082FF4F
:1070B000A86028B12246002107F0C1FF6E8070BD94
:1070C000A880688070BD70B4C27B047B151B6C42C5
:1070D000C1F381066C41FF29C1F38112C1F301158F
:1070E000467301F003068CBF002101210170816805
:1070F000C2730573867341B1511B4A424A41A24291
:1071000003D0418870BCFFF7BFBF70BC7047000060
:107110002DE9F04F83688BB00546002B00F03381DA
:1071200005F090FB2B69C01AB0F5967FF8D3974B0A
:10713000AF8893E8070007AE86E80700002356F8FB
:107140002340D4F8002502BBD4F86025002A1CDABD
:10715000D4F86425002A18DAD4F86825002A14DA4D
:10716000D4F86C25002A10DA06F07AFB3F010437C8
:107170000128384602D107F01DFF01E005F006FCAA
:107180000646002840F0858002E00133032BD6D16B
:1071900006F02EFE95F906207D4B7E4C53F82230EA
:1071A0007D4A01269E402B78002B14BF12231A2300
:1071B000039314BF292346230293D36843F08073BB
:1071C000D360236843F00103236015BF5823C32312
:1071D0004FF047084FF09C080593A1466368D5F827
:1071E00008A00493AB88504600224FF0A041CAEBA0
:1071F0000007BFB29F4232D2082710F801BB0197A7
:107200004FF0800ED4F804C0C2EB0C0CE045F9D866
:10721000D9F80420D1F808C51BEA0E0F46EA0C0C79
:10722000C1F808C507D0D4F804C0029FC2EB0C0C0B
:107230006745F8D806E0D4F804C0039FC2EB0C0CF5
:107240006745F8D8D1F80CC5019F46EA0C0C013F00
:10725000C1F80CC54FEA5E0E0197D3D1C7E761684C
:10726000891A8845FBD80499D9F80420521A05993F
:10727000DB004B439A4206D3484B4FF4964043F011
:1072800001039847AAE706F0BDFD05F0DBFA286187
:1072900079E0002048F20D0A48F21308A98895F811
:1072A00000C082B2D30091429BB221D9A96811F8E3
:1072B00002B00132D20092B24FF0800E0BEA0E0102
:1072C000BCF1000F05D148F20809002918BFC146DA
:1072D00004E048F20609002918BFD14626F81390A9
:1072E00001339BB293424FEA5E0EE7D10130D5E7FE
:1072F0005A1C02339BB292B24FF4004126F812108E
:1073000026F813100023C4F80435C4F80C35BCF17A
:10731000000F01D1282200E014227F08C4F80825BC
:10732000C4F81435C4F81035C4F82065C4F82475C1
:10733000C4F82835C4F82C3595F90610144A52F8CB
:107340002120C4F860250122C4F80025C4F81031BA
:10735000A260D4F8103113B907F054F8F9E700230C
:10736000C4F81031C4F800354FF0FF33C4F860356D
:1073700006F076FA0128304602D107F023FE84E7B2
:1073800005F013FB81E70BB0BDE8F08F0C24030080
:107390004C2B0300001000E0F0ED00E0202403007F
:1073A00038B5437804460D4633B190F906000028FD
:1073B00002DB002107F04CFA6378A5714BB1284637
:1073C000012107F045FA28460021BDE8384007F0C2
:1073D00061BA38BD70B50E46002104464170C171D6
:1073E0008160016119461546FFF76DFE3146204662
:1073F000FFF74AFE20462946FFF7D2FF204670BD20
:1074000043888B42F0B52CD9C379C2F30746C2F347
:107410000725D4B20BB9A64608E05E435D435C4342
:10742000C6F30726C5F30725C4F3072E077BC47BE5
:10743000A742876803D101EB410139440AE007EB19
:107440008101120E0C440BB9D3B202E05343C3F3D3
:1074500007232370037BCE54437BCD54837B01F8F9
:1074600003E0F0BD42EA012242EA0040704742EAEE
:10747000012242EA004040EA0360704743888B42A1
:10748000F0B548D9C67B077B8368C279447B857B8E
:10749000BE421BD101EB410119447AB18B5D085DFD
:1074A0001B02B3FBF2F31B040002B0FBF2F043EA51
:1074B00000204B5D1B02B3FBF2F305E0885D0B5D22
:1074C000000440EA03204B5D1843F0BD03EB81014B
:1074D000B2B1CB5D885D1B02B3FBF2F31B0400026B
:1074E000B0FBF2F043EA00604B5D1B02B3FBF2F32A
:1074F0000343085D0002B0FBF2F043EA0020F0BD58
:10750000C85D8B5D000440EA03604B5D18430B5D72
:1075100040EA0320F0BD0020F0BD408870474A1CBF
:10752000C379D2B29A4270B51ED0013B13F0FF036B
:1075300084680CD0FF291FBF110201F1FF3191FBBC
:10754000F3F39BB204BF4FF6FF7191FBF3F32546B3
:10755000291B868889B28E4205D929785943091298
:1075600005F8011BF4E7C27170BD72DF704773DF6D
:10757000704777DF70470022C2770270704770B59E
:107580001D46C37F0E461146EA181D2A04460EDC2E
:1075900018446A1CE254023000F8016C2A4607F0D5
:1075A00028FDE27F0232AB18E377012070BD002096
:1075B00070BD2DE9F041002688B007460D4601EB6D
:1075C000C2083446454516D0284601F03AFA10283C
:1075D00002D0802809D00CE008AA631C02EB440406
:1075E0002A8824F8202CDCB203E00EB1002017E03A
:1075F0006E680835E6E714B966B9012010E063004B
:1076000003F0FE036A4603213846FFF7B8FF00285F
:10761000F2D1EBE71023324607213846FFF7AFFFE0
:1076200008B0BDE8F08113B50831044603C9012252
:107630008DE8030069462046FFF7BBFF02B010BD8E
:1076400030B589B00546202269460C4801F058FC47
:10765000EA7F13181D2BC3BFC2F11D02D0B208244C
:10766000092403466A4621462846FFF788FF18B1D9
:10767000A4F109035842584109B030BDC836002072
:1076800013B50446064801F073FC02AA012302F870
:10769000010D0A212046FFF772FF02B010BD00BFA6
:1076A000C836002007B502AA012302F8011D1946B9
:1076B000FFF765FF03B05DF804FB08B50346FFF76D
:1076C0005AFFFF22202183F82020012283F8212065
:1076D00083F8222099840022F42019851E21D88461
:1076E00083F823205985DA859A851A635A631846E8
:1076F00008BD418570478184C2840185704780F848
:1077000022107047F0B5044687B00E46154600219A
:107710001822684607F093FC94F821308DF8003069
:1077200005EB850303EB83031E4A02969B00ADF82D
:107730000C301368DB0709D41B4BE17F99801B4990
:107740009960C97F1C609981012313606A461649BC
:1077500004F12000FFF709FF08B1002020E01448E1
:1077600094F8207001F004FC394602460120FFF72E
:1077700000FF0028F1D1012194F82000FFF7F7FE67
:107780000028EAD10A4801F01DFDE28D26859542C8
:107790004FF0010094BF521B921A84F82300E28537
:1077A00007B0F0BDB0360020B4360020DC39002030
:1077B000C836002010B50446C1858185FA210548E8
:1077C00001F0D9FB628DA18C2046BDE81040FFF787
:1077D00099BF00BFC836002038B50B88112B04466E
:1077E00012D0262B24D0102B59D1CD7B012D56D170
:1077F000002380F823302A4801F0F5FC2946284868
:10780000BDE8384001F0FBBC8988254800F07EFCCB
:10781000012844D10021224801F0F1FC94F82230E3
:10782000002B3CD0A18D2046BDE83840FFF7C2BFF9
:107830000B7A012B33D1002380F823304FF4FA71F7
:10784000174801F098FBA38D23B9636B03B19847E8
:10785000002205E0E38D4BB1636B03B19847E28DE5
:10786000E18C2046BDE83840FFF74CBF0C4801F0E2
:10787000BAFC236B9BB105F0F3FF01284FF0100019
:1078800002D107F097FB01E005F080F80021236B9F
:10789000017243600160BDE8384006F02DBE38BD7E
:1078A000C836002010B5044605F0DAFF012820464E
:1078B00003D1BDE8104007F07DBBBDE8104005F0E6
:1078C00065B8102202801822428000224260826045
:1078D00070470000014800F0A3BB00BF583A0020E9
:1078E0002DE9F3410F888C88102F05460E4602D0F3
:1078F000112F18D038E021461D4800F007FC02285F
:1079000032D16B6883B33846FFF7CCFF6A684260B8
:107910000122027202AA034642F8084D00210160CA
:107920001068D8601AE02146114800F0EFFB0228E9
:10793000804619D1AB68BBB11420FFF7B3FF002715
:10794000AA680760426080F80880327A0192009449
:107950006A46034603CA1961D8603946184602B020
:10796000BDE8F04106F0C8BD02B0BDE8F08100BF3F
:10797000C8360020AADF7047ABDF7047ACDF704726
:10798000ADDF7047AEDF7047704710B5044606F0B4
:107990000BFC204610BD000070B55A4B04461B6816
:1079A0000361061D96B0304601F059F894F8223074
:1079B00013F0320101BF94F8232061F3030261F355
:1079C000071284F8232013F00C0101BF94F824203F
:1079D00061F3030261F3071284F8242013F03005E9
:1079E0000ED04FF00003012262F342038DF80630FF
:1079F000454B1B788DF8043094F823308DF8053012
:107A00001C2200210FA807F01AFB94F822308DF8F1
:107A10003C3000230DB91A4600E001AAADF8083049
:107A200014924FF00003012262F3420360698DF863
:107A30000A3094F823308DF8083058B103784BB1F0
:107A4000109008F019FA02AB80B2ADF84400ADF81E
:107A500046001393A37E13B104F11A031293142268
:107A600000210DEB020007F0EAFA04F1230306936C
:107A700094F825300596DB0754BFE3890023ADF861
:107A80001C30E389ADF8203005AA04F126030FA9C4
:107A90000020FFF76FFF054680BB637E43B30346BC
:107AA000012262F342038DF80E3094F82330ADF8D2
:107AB0000C008DF80C30154B1868049014222946E0
:107AC0000AA807F0BCFA0223ADF83030ADF8343024
:107AD00004AB0A9303AB0B930DF1020204F11803FC
:107AE0000AA928460E93FFF747FF08B1054605E0AF
:107AF000237B1BB92146064800F0D4FD284616B06A
:107B000070BD00BFC43600202624030028240300D3
:107B1000A43700200B88502B73B505460C4614D0B3
:107B2000512B2CD18B79022B03D1436B0BB1083134
:107B30009847A379012B22D12B6B03B304F10801E1
:107B4000284602B0BDE870401847CA88C38C9A42E4
:107B500005D1866B1EB1CB890A8A1231B047E28803
:107B60006B8D9A420BD1EB6B4BB1628AADF806205C
:107B7000BDF80610284602B0BDE87040184702B0B4
:107B800070BD00001422C281104A127880F82420AF
:107B900080F8232001214FF00102002361F342020B
:107BA0000373036143610383C0F81A30C0F81E30C9
:107BB00080F8223080F82520C3840385838543859F
:107BC000036343638363C363704700BF26240300DA
:107BD00013B504468DE806002346064943F8041B06
:107BE0009DE8030083E805002046FFF7CBFF204611
:107BF00002B010BD342403000069704701230373F1
:107C0000704780F822107047C181704790F8253086
:107C100019B1C1816FF3000301E043F0010380F863
:107C20002530704780F8231080F824207047816346
:107C300070470A1C90F82530416318BF012262F397
:107C4000041380F8253070474161704751F8263F92
:107C500003604B684360704713B5C4890191A24229
:107C600028BF224600230093C18CADF800204FF6B8
:107C7000FF706A46FFF782FE10B9BDF8000000E011
:107C8000184602B010BD38B5054608460C4608F047
:107C9000F3F8214682B22846BDE83840FFF7DCBF42
:107CA00007B502AB022223F8021D1946FFF7D4FFE5
:107CB00003B05DF804FB000030B5054685B01148FF
:107CC00001F078F9E0B1688DD0B10223002402946C
:107CD0000C48ADF808300DF10603039301F085F967
:107CE00002AA698DFFF74CFE43F20143984202D18C
:107CF000ADF8064002E008B180B201E0BDF8060030
:107D000005B030BDC836002008B590F8222002F03A
:107D1000100202F0FF0322B1FFF7CEFF00F00100D6
:107D200008BD184608BD00002DE9F04190F822304A
:107D300003F010030E4686B0054603F0FF01002B4A
:107D400046D0C489944228BF1446FFF7DDFF07469A
:107D5000002837D0214801F048F901461F4800F0BB
:107D6000F7F903381FFA80F89CB31C4801F03DF97D
:107D700001461A4800F0DBF958B3A04543464FF0DE
:107D8000000128BF2346102202A8ADF8063007F0F4
:107D900056F901238DF80A30EB8CADF808300F4806
:107DA00005960DF10603049301F01FF902A9FFF7F0
:107DB000E9FD28B9BDF80630E41AA4B21E44D3E7A1
:107DC000002706E0224631462846FFF745FF00E03F
:107DD0000F46384606B0BDE8F08100BFC836002027
:107DE000A1DF7047A3DF7047A4DF704710B50446DA
:107DF00005F036FD0128204603D1BDE8104007F00C
:107E0000D9B8BDE8104004F0C1BD0023838270479B
:107E1000806900F0F5B8808A704700002DE9FF41C5
:107E20000B88CF88382B04460D4672D0392B03D0EF
:107E3000362B40F0DF80B7E00B7B012B02D0022B0A
:107E400031D0D7E0C36A002B00F0D48090F8342002
:107E500012F0010FCA8923D01046FFF7C7FF06466C
:107E6000002800F0C780EA8905F1100107F0C1F889
:107E70001820FFF7BBFFE26A426003220272EA8920
:107E8000066003920194029601AA034603CA19618F
:107E9000D860106858610021184606F02DFBA9E053
:107EA00010319847A6E0036B002B00F0A38090F8F8
:107EB00034208E8812F0020FCA8923D01046FFF7B3
:107EC00095FF0746002800F09580EA8905F110012A
:107ED00007F08FF81820FFF789FF226B426003221A
:107EE0000272EA89076003920194029701AA03468D
:107EF00003CA1961D860106858610021184606F05D
:107F0000FBFA01E01031984769893046FFF76CFFB2
:107F100070E017B104F11C006AE000F11C060A8A47
:107F20003046394601F09DFD95F80C80B8F1010FFF
:107F3000F0D0B8F1040F5DD1A06900F061F80146FE
:107F40002E4800F005F9228DA38A053880B29042B0
:107F500028BF1046B0B10197EA89ADF806302B8AE8
:107F6000ADF80A001344ADF80830A069636A8DF8D3
:107F70000480039300F044F801A9FFF733FF0028C1
:107F800038D00FE00522029003908DF80420A069FC
:107F9000ADF8063001228DF8052000F031F801A976
:107FA000FFF720FF304623E0806900F029F8014602
:107FB000124800F0CDF80646002FABD104F11C07A3
:107FC000EA8905F11001384601F04BFD238D73B1AC
:107FD000033EEB89B6B2013EB34208DBA06900F074
:107FE0000FF8628DA18A92B2FFF7FAFE10B13846FF
:107FF00001F04FFD04B0BDE8F08100BFC83600209D
:108000008088704710B50446043001F0E0FC01237D
:1080100023804FF6FF73638000232375204610BD35
:10802000017D10B5044621B9043001F0D4FC0123D0
:10803000237510BD007D70470B88322B10B50446A8
:1080400011D0332B1BD0302B27D1CB8833B94B89A0
:1080500023B10A221144201D01F003FD201DBDE8BB
:10806000104001F016BDCB88002BF7D14A89002AB9
:10807000F4D0013A02EB820252000C320AE0CB88C3
:10808000002BEBD14A89002AE8D0013A02EB4202E8
:108090005200083292B20A31DDE710BD7FDF70472F
:1080A00086DF70478FDF704790DF7047B1DF704722
:1080B000B5DF704710B5C822044600210C3006F029
:1080C000BEFF172303222380E3800123E370237183
:1080D0006372A37262F3061384F8D430072384F822
:1080E000D5301023A270227284F8D63084F8D720BD
:1080F00084F8D820204610BD01290CBF0088C08814
:108100007047282303FB0101487B7047282303FBAA
:108110000101887B704710B5282303FB021252F837
:10812000123F0360938883809379837110BD042983
:1081300008B50BD8282303FB0101086A38B1662172
:1081400004F0A4FE003018BF012008BD002008BDC7
:10815000282303FB0101088A70470000F0B587B0AF
:1081600004AC16461F460D4620464FF4285100F039
:108170005DFC8DE8C0004FF6FF730393012302936B
:1081800094E80C002946024800F042F907B0F0BD1F
:10819000A4370020F0B58D884FF6FF739D4218BFBD
:1081A00028240B881ABF04FB05040C3400241A2B66
:1081B00095B007460E4600F0BD8019D8132B56D057
:1081C00010D8102B2BD0112B40F00A8100256069AC
:1081D0006570257004F016FF6561A06904F012FF58
:1081E000A561FDE0142B00F08A80192B6ED0F7E01A
:1081F0003C2B00F0CA800BD8212B00F0D680232B1B
:1082000040F0EE80002211462846FFF74DFFE7E0E0
:10821000552B00F0D480572B00F0A680E0E001231E
:108220002370CB7BA37056F8080FC4F80600172301
:10823000B188B279A380EDB2282303FB0573618175
:1082400022739B7B012B0CBFF878787A014604F0EF
:10825000B2FC282303FB05756061AB7B012B0CBFCF
:108260003879B87A014604F0A6FCA061B8E005F0C0
:10827000F7FA01284FF0500002D106F09BFE01E012
:1082800004F084FB06462061002800F0A9805022FB
:10829000002106F0D4FE4FF6FF732022E381002177
:1082A000684606F0CCFE06F11C030493A378009602
:1082B000012B06F138060CBF07F1D40200226B46F1
:1082C000002128460596FFF7E9FE89E00B7A43B9BD
:1082D0002269A07801236370538AE381294601F063
:1082E00005FC256905F0BCFA0128284602D106F0F4
:1082F00069FE01E004F059FB0023236170E0502285
:108300000021684606F09BFE6A46318AA07801F09B
:108310005FFC0346B08843B100230EAA6946FFF70D
:10832000BFFEBDF81230E3815AE01A461946FFF746
:10833000B7FE55E00B7A112B0DD0E289A0782946C3
:1083400001F082FC034620B9024601462846FFF7A9
:10835000ADFE01236370606A002841D000231A46F5
:10836000194604F031FC3BE06369002B38D000254E
:10837000B279EBB29A4205F1010531D900231A46D0
:108380001946606904F020FCF2E7A36943B30025B5
:10839000B27AEBB29A4205F1010521D900231A46BF
:1083A0001946A06904F010FCF2E70023694628464C
:1083B0008DF800308DF80130FFF774FE10E0EBB25D
:1083C000282202FB0303C9889B7B012B0CBF038877
:1083D000C388994228BF1946A1802846FFF768FE46
:1083E00015B0F0BDA0DF704738B50446F82500F59C
:1083F000F87001F0ECFA2A460021204606F01FFE34
:108400002A460021601906F01AFE204638BD0000F9
:10841000F0B585B08DE80C00BDF83030ADF80C300B
:10842000BDF83430ADF80E300F466E4600F5F875E5
:10843000284601F014FB044628B1124800F0E2FD82
:1084400004F00CFAF4E70121284601F0C4FABDF863
:108450002C200A99284601F0D3FA03AA314638465F
:10846000FFF7C0FF28B94FF4FA71284601F0CDFAA2
:108470000446284601F0B8FA24EAE47080B205B058
:10848000F0BD00BFC83600202DE9F04F0E888F8860
:10849000A6F11003012B87B005460C4612D84FF009
:1084A00000082A785FFA88F39A420BD99B002B4484
:1084B000112E586803680CBF1B685B68984708F169
:1084C0000108EEE7764800F090FD874217D14FF0A3
:1084D00028094FF0000A09FB07F90AE0502E13D0D3
:1084E000512E04D1B4F80880B8F1000F0FD10AF171
:1084F000010A95F854205FFA8AF39A42EED805F5FE
:10850000A67A4FF000091FE0B4F80680ECE71633B6
:10851000684655F823B05946FFF798FBBDF8002090
:10852000424500F09980594602A8FFF78FFBBDF83D
:108530000C204245DBD18FE05AF8040FFFF768FCAE
:10854000874206D009F1010995F84C319945F3DBD2
:1085500016E0382E03D0392E01D0362EF2D1B4F8E1
:108560000A80B8F1000FEDD0DAF800B05846FFF7F6
:1085700052FC8045E6D121465846FFF74FFCE1E723
:10858000112E26D1002495F8F820E3B29A4201D8A2
:10859000002618E005EB8303D3F8FC008388BB4278
:1085A00002D103681B6898470134ECE705EB8404AB
:1085B000D4F85001FFF72CFC874203D1D4F85001C6
:1085C000FFF723FC013695F84C31F4B2A342EDD805
:1085D00062E0532E1AD0562E2AD0352E5CD16189F6
:1085E000002959D0A2890E34231B901CB3FBF0F351
:1085F0008B4205F5F87503D2A11C284601F031FA2B
:10860000284607B0BDE8F04F01F043BA244A2823BA
:1086100007FB033313441446586820B100231A465D
:10862000194604F0D1FA282202FB0747012310E083
:108630001B4A282307FB033313441446586820B110
:1086400000231A46194604F0BFFA282202FB074706
:10865000002387F828301FE0DBF800205846D26856
:10866000214690470E4800F0C3FC00283FF43FAF7E
:10867000502E7FF43CAF594604A8FFF7E7FABDF847
:10868000143043457FF433AF054B4B4439465A8B86
:10869000987B01F055FA2AE707B0BDE8F08F00BFDC
:1086A000C836002090F85430282B1FBF5A1C1633B0
:1086B00080F8542040F8231014BF01200020704798
:1086C0000378132B9FBF5A1C027000EB830041609C
:1086D00094BF0120002070478ADF704710B5044620
:1086E00005F0BEF80128204603D1BDE8104006F091
:1086F00061BCBDE8104004F049B910B504461F2321
:10870000206283840123002180F82930802380F8AF
:10871000281080F82A3080F82B10818580F83410DA
:1087200001638163C1630E22403006F088FCA02300
:10873000A4F842305023A4F84430204610BD000075
:1087400010B504461F232062A0F84610838400F170
:1087500020014030FFF7C0FF30B9044800F032FD7F
:10876000012084F8280010BD002010BDC83600206C
:1087700000F1200108B50020FFF7AEFFB0FA80F04D
:10878000400908BD38B5012A9DF814501BD9487816
:108790000C78984204D1013C0231E4B209D114E0D2
:1087A000E0430244013412F0FF022144EFD11046AD
:1087B00038BD15B1AC4228BF2C462246049806F0BD
:1087C00018FC204638BD002038BD084638BD37B5F6
:1087D0009DF818500C7F8DE82800134689692246C1
:1087E000FFF7D0FF03B030BD2DE9F04F8FB002ACE2
:1087F00080462046894684E80C0000F022F9C0B289
:10880000102807D102238DF8143003238DF815307A
:10881000274606E006238DF81430039F07238DF8C2
:1088200015300026C508B2461F22002106A806F012
:1088300006FC05AB4946F25CCDF800A006AB40460D
:10884000FFF7C5FF0DF1180B04465CB12A46394607
:10885000584606F0BFFB08B9012007E0641BAB4493
:10886000E4B2F2E70136022EDED120460FB0BDE8B9
:10887000F08F0000F0B50B88112B85B006464CD068
:1088800002D8102B3BD095E01B2B5DD01D2B40F068
:10889000918090F92A2091F91B309A4267DC90F878
:1088A000343001F1080523B996F82B30002B62D043
:1088B00015E0002796F83430FCB2A3420AD9336B96
:1088C00003EBC4030CCB29463046FFF78DFF01377D
:1088D0000028EFD096F83430A342E5D147E00223D8
:1088E0000093FF2203AB29463046FFF770FF0028B4
:1088F0003DD0B28DBDF80C309A4238D13BE0CB7BF5
:10890000022B57D1002380F828302B4800F06BFC55
:108910000121294800F073FC4CE089882648FFF7C4
:10892000F5FB022846D196F82810002942D12248AA
:1089300000F065FC96F82930002B3BD0B6F84610C5
:108940003046FFF7FDFE35E00B7A012B32D1C36BC9
:10895000002480F828406BB31020FFF7BFFEF26BB5
:10896000046042600472214605F0C6FD22E03046F4
:10897000FFF7FEFE1EE02420FFF7B0FE0746C8B159
:108980000FCD3C460FC40FCD0FC42B682360B36BD3
:1089900083B11020FFF7A2FEB26B42600122027287
:1089A00004AA076042F8047D03461068D8600021DD
:1089B0001846D9E705B0F0BDC8360020A8DF7047DB
:1089C0007047000037B500F108050446284600F05E
:1089D00046F829460DF106020120FFF7EFFF054694
:1089E00028B9044B04481C602146FFF769FE28465D
:1089F00003B030BDC4360020A437002013B50446B0
:108A00008DE806002346064943F8081B9DE803004D
:108A100083E8050000232046A38002B010BD00BFFC
:108A20004C24030062DF704763DF704701238370CB
:108A300000230180436070470023837003804160FE
:108A400070478378012B06D0426832B9012B8CBF66
:108A5000802000207047102070478020704708B5A4
:108A60008378024653B9406840B1911CFFF7DAFFA2
:108A700010205168BDE80840FFF7D6BF002008BDB0
:108A80004BDF704710DF704775DF704776DF704748
:108A900077DF704778DF70477ADF70477CDF704799
:108AA0007DDF7047B1DF704760DF704769DF704777
:108AB00061DF704767DF70477047132005F016BF0E
:108AC00037B50D4C0D4DD4F8C0034FF0FF3104F015
:108AD000DDF90028F7D001A8FFF7D2FF0528F2D072
:108AE0000028F8D10198831E012BF4D8002DF2D074
:108AF00003F024FFEFE700BFC83600203DC90200A5
:108B000010B5044604F0ACFE0128204603D1BDE8B0
:108B1000104006F04FBABDE8104003F037BF10B563
:108B20000446FFF7C7FA04F1DC00FFF75DFC04F52B
:108B30003770FEF7C2FD04F54570FEF71CFD04F525
:108B40004D70FFF7DAFD04F56170FEF7BAFE04F52B
:108B50006470FFF757FA04F5737000F057FC4FF498
:108B600000620023C4F8A8230A22C4F8AC3384F8B6
:108B7000AD23012284F8AC2384F8C8234FF6FF729A
:108B8000A4F81C241022A4F8B2231822A4F8B423B9
:108B900084F8B033C82284F8B13384F8BA33C4F807
:108BA000BC33C4F8C033C4F8C433A4F8B623A4F863
:108BB000B833C4F82034C4F82434C4F82834204628
:108BC00010BD000070B5B84B80F8B0138EB080F8BF
:108BD000B123054618680390B44903A8FFF752FF74
:108BE0000446002840F0758195F8AD130B90B04A0B
:108BF0000C900D908DF82C1001200BA90492FFF71A
:108C000055FF0446002840F0648195F8B0230B908E
:108C10008DF82D2095F8B1238DF82E20003218BF45
:108C200001220C900D908DF82F200BA9049A402062
:108C3000FFF73CFF0446002840F04B8195F8AC2339
:108C40000B9062F300040C900D90049A8DF82C4068
:108C50000BA9A020FFF72AFF0446002840F0398125
:108C6000D5F8A8230C900D900B920BA9049AA12083
:108C7000FFF71CFF0446002840F02B8195F8B02335
:108C800022B995F8B123002A49D192E02A880B90A5
:108C90000C900D90ADF82E200126049A8DF82C60D2
:108CA0000BA92320FFF702FF0446002840F01181A2
:108CB00095F8B0230B908DF82E20AA780C900D908B
:108CC000ADF830200BA9049A8DF82C602020FFF716
:108CD000EDFE0446002840F0FC80EA780B900C90F2
:108CE0000D908DF82E200BA9049A8DF82C6022206F
:108CF000FFF7DCFE0446002840F0EB802A790B9059
:108D00000C900D908DF82E200BA9049A8DF82C60F4
:108D10002120FFF7CBFE04460028B2D0D9E0002284
:108D20000B920C920D92EA88ADF82E200226049A3E
:108D30008DF82C600BA92320FFF7B8FE044600280D
:108D400040F0C78095F8B1230B908DF82E202A7A39
:108D50000C900D90ADF830200BA9049A8DF82C6082
:108D60002020FFF7A3FE0446002840F0B2806A7A74
:108D70000B900C900D908DF82E200BA9049A8DF875
:108D80002C602220FFF792FE0446002840F0A180CC
:108D9000AA7A0B900C900D908DF82E200BA9049AB6
:108DA0008DF82C602120FFF781FE0446002840F05A
:108DB000908004A8FFF778FE002840F08980079093
:108DC0000890C0B240F001008DF81C0007A90220F5
:108DD000FFF770FE044600287BD1B5F8B223ADF84A
:108DE0002420B5F8B4230A90ADF8262009A8B5F8D8
:108DF000B623ADF82A20FFF74FFE0446002868D1BD
:108E00000EA81B7900F8303D0B222A49FFF746FED9
:108E1000044600285DD1FFF73DFE0446002858D1E6
:108E200005F5737000F014FB95F8B1331BB105F52F
:108E30006170FEF74FFD03220021012003F09EFE2A
:108E4000C5F8BC0308B9042443E005AB032601932D
:108E50004FF4C062002318490096184804F05BFAEA
:108E600032460021012003F089FEC5F8C003002826
:108E7000E9D006AB019300960023C822104911489F
:108E800004F049FA104B4FF480021A600F4B009324
:108E9000002301224FF48071184604F019FEC5F832
:108EA000C40300F075FE14E058240300B98A0200E0
:108EB0000034002078240300842403007D91020004
:108EC00088240300C18A020000E100E0BB8A02009E
:108ED000044620460EB070BD37B5084B02AC1B7976
:108EE00004F8043D08460D4606F0C6FF294682B246
:108EF0002046FFF7D3FD03B030BD00BF5824030068
:108F000007B5084602A921F8022DFFF7C9FD10B9DF
:108F10009DF8060000E0002003B05DF804FB0000AF
:108F200030B5124A85B005460C4610685168127A71
:108F300001AB03C31A70002301AAD156A14204D089
:108F40000133092BF9D100200EE0B5F81C144FF6BF
:108F5000FF73994205D022460320FFF799FD0028B0
:108F6000F1D185F8BA43012005B030BD5D2403007E
:108F700090F9BA03704773B50446D0F8C4030E469F
:108F800004F0E4FE00230546B6024FF47A72009323
:108F9000B6FBF2F20421D4F8C40304F0B7FD3DB9E6
:108FA00000952B462A460321D4F8C40304F0AEFDF5
:108FB00002B070BDB0F81C044FF6FF73C01A18BFA2
:108FC00001207047B0F81C0408B54FF6FF739842B3
:108FD00006D01321FFF75AFDB0FA80F0400908BD12
:108FE000012008BDC0F820147047B0F81C04704779
:108FF000B0F81C144FF6FF73994201D0FFF781B807
:1090000000207047B0F8B8037047000010B5064C58
:109010000021D4F8C00303F096FED4F8BC0300216D
:10902000BDE8104003F08FBEC8360020F7B50446F7
:109030000D468E88FFF7AEF8294604F53770FEF727
:10904000CBFB04F54D702946FFF714FCB4F81C0463
:109050002B88864205D0102B01D01B2B5FD1112B02
:1090600001E0112B3CD002D8102B0AD057E0122B74
:1090700032D0522B53D100231A461946FFF712FD66
:109080004DE0EB7B012B4AD12B8AB4F8B223A888A0
:10909000A4F81C049A42A4F8B83367D8B4F8B423EF
:1090A000934263D8D4F82034002B38D01020FFF737
:1090B00027FDD4F82024426001220272002102AA76
:1090C00003460160B4F81C0442F8080D1068D8602B
:1090D000184605F011FA22E02B89A4F8B8331EE0F7
:1090E000D4F82434BBB11420FFF70AFDD4F82424AB
:1090F00042600222027200270760B4F81C2400922A
:109100002A7A01926A46034603CAD8601961184652
:10911000394605F0F1F94FF6FF73A4F81C3494F8C2
:10912000B13363B1B4F81C34B34203D14FF6FF73CB
:109130009E4204D1294604F56170FEF7D1FB04F587
:1091400064763046FEF776FF18B129463046FEF7C2
:1091500073FF294604F1DC00FFF796F9D4F82834B0
:109160004BB1284603B0BDE8F04018470021FFF797
:109170008BFC002896D003B0F0BD000073B54FF40F
:10918000FA70FFF7BDFC0E4E04464FF0FF31D6F8E3
:10919000BC0303F07BFE0028F7D04FF4FA750DF105
:1091A00006012046ADF80650FFF782FC20B92146A3
:1091B0000348FFF73BFFF2E70528E6D0EFE700BFE3
:1091C000C836002090F8C83313B553B1D0F8C44363
:1091D00004F00EF90023024600930121204604F01A
:1091E00095FC02B010BD07B5002300931A46032179
:1091F000D0F8C40304F08AFC03B05DF804FB90F8D7
:10920000C83313B1132005F045BB704710B5054CAA
:109210002046FFF784FC2046034A0449BDE810407D
:1092200005F04ABEC836002000340020319202000A
:1092300010B5054BC0F8CC33044600F57770FEF747
:10924000A3FB204610BD00BF942603003CDF7047FF
:109250003DDF704711DF704713DF7047B0DF7047A5
:10926000B2DF7047F0B59DB00C8807460D46014649
:1092700008A8FEF7EBFCBDF82030A34240F0B48014
:10928000AB79043B022B40F2AF80584E3046FFF7DB
:10929000ACFE1022044600210DEB020005F0CFFECB
:1092A000022338468DF81030FEF72EFD40B940F20B
:1092B000FD1304A92046ADF81430FFF7CFFF93E06B
:1092C000002304A92046ADF81430FFF7C7FF2F7B19
:1092D000012F40F08980464D19463E22284605F070
:1092E000AEFE1CAA082322F8623D42493B462046B6
:1092F000FFF7B6FF224631466846FEF70CFF00989E
:109300002860BDF804209DF80630AB71AA80214684
:109310003046FEF7F6FE10B3282303FB046408AAC8
:10932000618B384600F054FCC8B11AAC94E80300D5
:10933000314AA980090C2860A97116AD2B4603CBD0
:10934000A342106051601D4602F10802F6D108AC3C
:109350000FCC2A4D0FC594E8070085E80700244884
:10936000274C4FF6FF7110F8012B82EA112383EA94
:1093700013139AB243EA012383EA023383EA4213C6
:10938000A04299B2EFD11A4B1E4899870021FEF7EF
:10939000B6F91648FFF716FEFF210020FFF758FF29
:1093A000B1210020FFF752FFF0B9FFF753FFD8B902
:1093B000154B4FF48002C3F880210124420900F0CC
:1093C0001F012032013004FA01F1272843F822104E
:1093D000F4D14FF010235869FFF73EFF20B980F316
:1093E0001488586900F05EFD1DB0F0BDC83600203D
:1093F000807F0020B47F0020877F0020987F00209E
:10940000BC7F0020A439002000E100E073B50546D0
:109410000C496846FFF710FB2E469DE806002846DB
:10942000FFF7ECFA084B46F8103B68460749FFF790
:1094300003FB9DE806003046FEF7CAFB284602B053
:1094400070BD00BF6B260300942603007B2603003B
:1094500070B5A2B00646FFF7B5FA054600284FD111
:1094600012AC29492046FFF7E7FA94E8060002A863
:10947000FEF7AEFB02A8FEF7C1FB042102A8FEF72F
:10948000C0FB142102A8FEF7BFFB02A8FEF784FA76
:10949000054690BB06F1100528461821FEF7B1FBE2
:1094A00028461721FEF7B0FB28461849FEF7C1FBF6
:1094B0002846FEF771FA0546F8B915496846FFF7E0
:1094C000BBFA9DE806002046FEF782FB2046FEF729
:1094D00095FB02212046FEF794FB02212046FEF771
:1094E00095FB2046FEF758FA054618B9012120469B
:1094F000FEF7D6FB2046FEF747FA02A8FEF744FA2D
:10950000284622B070BD00BFA0260300659202006D
:10951000B026030037B5044641F60A016846FFF756
:1095200085FA9DE806002046FFF768FA074B23609E
:10953000074B236100236361A361E361054B236251
:10954000054B6362204603B030BD00BFEC2603002C
:10955000C0260300DB260300EB22030001617047F5
:10956000416270472DE9F04192B00446FFF72AFAB4
:10957000064600283AD105F02FF9606105F0F6F8AB
:109580000C34E06042F624256F4654F8043F3BB3A8
:1095900029463846FFF74AFA97E8060002A8FEF780
:1095A00017FB02A8FEF72AFB022102A8FEF729FBFF
:1095B000206806F061FC81B202A8FEF727FB02A832
:1095C000FEF7EAF9804620B102A8FEF7DDF946462B
:1095D0000CE0216802A8FEF756FB02A8FEF7D4F9BA
:1095E0000135ADB242F62A239D42CED1304612B0AB
:1095F000BDE8F08107B5036801229B690DF1070101
:10960000984710B19DF8070001E04FF0FF3003B01C
:109610005DF804FBA0F11000FFF7ECBF13B502AB3F
:10962000026803F8011D146A19460122A04702B01E
:1096300010BDA0F11000FFF7F1BFD0F8A03098895D
:1096400080B27047A0F11000FFF7F7BF70B50D466C
:109650001646FEF7D1FA044632462946D0F8A00055
:1096600005F017F8D4F8A83013B1BDE870401847DA
:1096700070BD37B50546D0F8B40080B10024009421
:1096800023462246052104F041FAD5F8AC00C5F87E
:10969000B44020B103B0BDE8304004F0B8BF03B01F
:1096A00030BDD0F8A00004F0B2BFA0F11000FFF769
:1096B000F8BF08B592B2D0F8A00005F02BF808BDAD
:1096C00007B5D0F8A0000DF1070105F03DF810B185
:1096D0009DF8070001E04FF0FF3003B05DF804FB98
:1096E000A0F11000FFF7ECBF37B590F8B03004469A
:1096F0009BB10B4B0093012203460A21002004F08A
:10970000E7F9C4F8B400054603F072FE00230246F0
:1097100000930121284604F0F9F903B030BD00BFE1
:1097200015980200F7B504460F4668461A49FFF738
:1097300083F99DE806002046FFF760F94FF47A733D
:10974000A361164B1649002603F10802403323613A
:10975000226068466661FFF76FF99DE8060004F134
:109760002000FEF735FA68460E49FFF765F99DE8D7
:10977000060004F16000FEF72BFA2046C4F8A06052
:10978000C4F8A860A4F8A470C4F8AC6084F8B06011
:10979000C4F8B46003B0F0BD082703001827030025
:1097A000F82603007027030070B506461848FFF737
:1097B0001CFC01461648FEF7CBFC033885B204F0CA
:1097C0004FF80128284602D105F0F4FB01E003F030
:1097D000DDF80446D8B12A460146D6F8AC0004F0BC
:1097E00099FF024630B1214606F12000FEF79CFAAF
:1097F000054600E0012504F033F80128204602D197
:1098000005F0E0FB01E003F0D0F8284670BD70BD24
:10981000C836002008B504F0A5FAD0F8AC301BB16A
:10982000BDE80840FFF7C0BF08BD00002DE9F047C4
:1098300090F8B03005468946174600F1200813B16C
:10984000D0F8AC303BB9BAB249464046FEF76CFAA4
:10985000F0B900242EE04046FEF756FA0028F8D072
:10986000BEB232464946D5F8AC0004F012FFD5F836
:10987000AC3004461148B3F80CA0FFF7B6FB014624
:109880000E48FEF765FC1FFA8AFA0338824501DAB2
:109890003C460FE02846FFF787FF0028D9D0A742B3
:1098A000F6D9321B92B209EB04014046FEF73CFAAE
:1098B0000028EDD12046BDE8F08700BFC836002063
:1098C000A0F11000FFF7B2BF0A4B10B503603833A8
:1098D00004460361D0F8AC0010B103685B68984798
:1098E00004F16000FEF750F804F12000FEF74CF898
:1098F000204610BD2027030010B50446FFF7E4FF03
:10990000204604F051FC204610BD0000F8B5044686
:10991000182004F047FC00220546012104F042FE15
:10992000B4F8A410C4F8A050284604F058FE20460D
:10993000FFF748F80646B8BB01211C48FEF7DCFBE0
:1099400004F12005074610212846FEF75AF9324651
:1099500011212846FEF766F939462846FEF754F9E4
:1099600013492846FEF770F92846FEF715F8064613
:10997000D0B9603420460C21FEF743F920460D494A
:10998000FEF755F9112231462046FEF74BF93946CC
:109990002046FEF739F920460749FEF755F92046DB
:1099A000BDE8F840FDF7F8BF3046F8BDC8360020E6
:1099B000802703004D9602008427030001230370D3
:1099C0000023437043608360C3818381704708B57F
:1099D000FFF7F4FF08BD10B50446217019B90A203D
:1099E00003F0E9F8606010BD037810B5044613B9C0
:1099F000406803F007FB2046BDE81040FFF7DEBFDC
:109A0000002381608281C3817047037870B5054669
:109A10000C466BB90123A4024FF47A716B70B4FB4E
:109A2000F1F1686803F032FA68B94FF0FF340CE0E6
:109A300003220021012003F0A1F868600028E9D189
:109A40004FF0FF3070BDEC89A4B22B7800266E7009
:109A50001BB1686803F0D6FA6E60204670BD40788E
:109A6000704738B585899542044628BF154619B117
:109A70002A46806805F0BDFAA3682B44A360A38939
:109A80005B1BA381E38915FA83F39BB2E38128462C
:109A900038BD406820B100231A46194603F094B837
:109AA0007047B1DF7047B2DF7047000010B4054B5C
:109AB000054C01290CBF214619465DF8044B06F000
:109AC00077B900BFA12703008827030010B504461B
:109AD00003F0C6FE0128204603D1BDE8104005F082
:109AE00069BABDE8104002F051BF0000F0B506466B
:109AF00085B050200D461746FFF7E8FF0446D8B161
:109B00005022394605F075FA1820FFF7DFFF0B4A9F
:109B100042600322027201960295039401AA034651
:109B2000046003CAD86010681961586100211846A2
:109B300004F0E2FC0120FFE705B0F0BDAD9D02009E
:109B4000F0B54FF6FF739A4285B007460E461546AC
:109B50004FF0000417D01820FFF7B8FF0B4A4260FF
:109B60000322027201970296039501AA034604603C
:109B700003CAD8601068196158612146184604F07C
:109B8000BBFC012000E0204605B0F0BD059D0200B1
:109B900008B50C4800F039FB0B490A4800F0FFFA01
:109BA00018B90949074800F059FB0849054800F071
:109BB000F6FA28B905490348BDE8084000F04EBB55
:109BC00008BD00BFF43A0020BA270300CE270300E7
:109BD00030B591B015460A46014601A8FFF766FF69
:109BE0000F4B002201A908A800F058FA08A800F0BD
:109BF00069FA044608B900240CE008A800F0B4F99A
:109C000050280246F7D1294608A800F09DF908A877
:109C100000F002FA08A800F047F9204611B030BD64
:109C2000F43A002038B5044600F09EF9051E08DD20
:109C3000204600F0BCF92918204600F0A7F90120C1
:109C400038BD002038BD0000F0B54FF6FF7391B06D
:109C50009A420E4600AF3FD00146381DFFF726FF5F
:109C6000204B0022391D07F1200000F017FA07F100
:109C7000200000F027FA08B9002424E007F12000B2
:109C8000FFF7D0FF07F12000FFF7CCFF07F120001E
:109C900000F06AF90028EFDDC31D23F0070384B24A
:109CA0006D46ADEB030D2246694607F1200000F03A
:109CB0004BF92246694603233046FFF7F2FEB0FA1D
:109CC00080F46409AD4607F1200000F0A5F907F122
:109CD000200000F0E9F800E0002420464437BD46AB
:109CE000F0BD00BFF43A002070B505460E4614469C
:109CF000D1B200F0DAF8224631462846BDE870407D
:109D000000F001B92DE9F04391B000AF07F1400434
:109D10000E46002124F83E1D03238046914630461E
:109D20002246FFF7C0FE7B886D46C3B3073323F09E
:109D30000703ADEB030D2246032369463046FFF7C8
:109D4000B2FE044658BB4A464146381DFFF7AEFEF8
:109D5000154B0122391D07F1200000F09FF907F192
:109D6000200000F0AFF9B0B1214607F1200000F06B
:109D70000DF907F12000FFF755FF07F12000FFF76D
:109D800051FF07F120007A886946FFF7ADFF07F120
:109D9000200000F041F907F1200000F085F8443779
:109DA000AD46BD46BDE8F083F43A002030B5144618
:109DB00001289DB00CBF528AE28D0D46014605A8D0
:109DC000FFF774FE05A9254800F0E9F918B105A9C7
:109DD000224800F0F0F9214B012205A90CA800F05F
:109DE0005DF90CA800F06EF9002832D0502221460F
:109DF0000CA8FFF779FF2022002114A805F01FF915
:109E0000202314AA29461648FEF7A8F99DF85030D9
:109E10009BB994F84910039194F84A10029194F870
:109E20004B10019194F84C10009194F84D3094F837
:109E30004E200C4914A805F0BBFF14A806F01CF82E
:109E4000421C92B20CA814A9FFF74EFF0CA800F018
:109E5000E3F80CA800F028F81DB030BDF43A00205B
:109E6000C8360020F8270300F0B50346186880F3D1
:109E700008885868FF2464B2EFF30585002D01D1EE
:109E8000A64600472546064621273FBAF0B40024DF
:109E9000002500260027F0B4F92040B2004700BF9B
:109EA000F0BD00BFFFF7E0BF704707B5027F8DF838
:109EB000071032B9036801225B680DF1070198476A
:109EC00000E0002003B05DF804FB10B5044604F088
:109ED0006BF9204610BD10B5044603F0C1FC012803
:109EE000204603D1BDE8104005F06CB8BDE8104035
:109EF00002F05BBD027F034622B90069596902681E
:109F0000926A104770471346027F30B442B9046921
:109F10002268156A0A46AC464169204630BC604753
:109F2000002030BC7047000010B54FF47A74002256
:109F30008460044C42600460016142618261027786
:109F400010BD00BF202803001346027F30B442B981
:109F500004692268556A0A46AC464169204630BC0D
:109F60006047002030BC7047037F07B513B14FF046
:109F7000FF3008E001220DF10701FFF7E5FF00289F
:109F8000F5DD9DF8070003B05DF804FB0A46017F8C
:109F900010B4034639B9006901680C6B596923464E
:109FA0005DF8044B184700205DF8044B7047027FB2
:109FB000034622B9006959690268526B10470020B4
:109FC000704738B5037F05467BB90368DB6898475F
:109FD00004462846FFF7EBFF08B1411E00E00146AA
:109FE0002846FFF7D3FF204638BD4FF0FF3038BD7D
:109FF000027F034622B9006959690268926B1047D3
:10A000000020704738B50546FFF7F2FF04462846A2
:10A01000FFF7CDFF201A38BD416910B5044639B1AC
:10A020000069227F0368DB6A98476069FFF753FF86
:10A03000A06908B1FFF74FFF00236361A36110BD62
:10A0400038B5436905460C460BB1FFF7E5FF2146DD
:10A050002B4604F1200251F8040B43F8040B914203
:10A06000F9D1284638BDF0B5436989B004460E469B
:10A0700017460BB1FFF7D0FF21690B6832465D68C8
:10A0800068463B46A84769462046FFF7D9FF606906
:10A09000003018BF012009B0F0BD000070B54FF4CA
:10A0A0007A7600258660064E4560044606600361A8
:10A0B000456185610577FFF7D6FF204670BD00BF7B
:10A0C000202803004069003018BF01207047704706
:10A0D00008B502F03FFC002008BD08B501F55A6143
:10A0E00002EBC110029A194602F03AFC002008BDAA
:10A0F00008B501F55A6102EBC1111846029A02F047
:10A1000037FC002008BD10B5044604F04DF8204689
:10A1100010BD38B5044679B904F13C050434214634
:10A12000284601F035FF90B92146284601F008F88D
:10A13000B0FA80F0400938BD4FF4DA25284605F51D
:10A14000805502F021FCB5F5E82FF7D1E4E70020B7
:10A1500038BD08B53C30002301F0B4FBC043C00F4C
:10A1600008BD10B5044603F07BFB0128204603D14F
:10A17000BDE8104004F026BFBDE8104002F015BC59
:10A1800010B5044603F06CFB0128204603D1BDE85E
:10A19000104004F00FBFBDE8104002F0F7BB00B55F
:10A1A000C3B06A463C3000F08DFFB0FA80F0400941
:10A1B00043B05DF804FB08B53C3002F081F8B0FA1A
:10A1C00080F0400908BD08B53C3002F079F8012064
:10A1D00008BD08B53C3001F059F920EAE07008BD2F
:10A1E0003C3001F079BD3C3001F007BB3C3000F061
:10A1F0005DBF3C3000F05CBF3C300AB100F0D1BE26
:10A2000001F0B8BD3C3000F041BF38B590F8805047
:10A2100004466DB9012380F88030011D3C3000F008
:10A220008FFF343004D123682946DB6920469847E4
:10A23000012038BD73B501F55A61CD010024FF2618
:10A24000601901220DF1070101348DF8076002F059
:10A2500087FB802CF4D1002002B070BD2DE9F047BF
:10A260000B782F2B064600AF0D460CBF481C084646
:10A270004FF000082F2105F0CEFD044620B3421B0D
:10A2800002F1080323F00703E946ADEB030DEA46AC
:10A290008DF800806B460DEB02018B4202D003F873
:10A2A000018FFAE72946504604F0A3FE514606F115
:10A2B0003C0001F003FF20B1113002D00020CD4658
:10A2C0000FE0601CCD46D5E7294606F13C0001F0C1
:10A2D000F5FE28B110F1110F14BF0020012000E09D
:10A2E0000120BD46BDE8F0870E4B10B5382204466C
:10A2F000002140F8043B04F0A2FE0B4BA3600B4B83
:10A30000E3600B4B23610B4B63618023A361E3612B
:10A310002362E022A3620023626284F88030204638
:10A3200010BD00BF4C280300F1A00200DBA002001A
:10A3300035A20200D1A002002DE9F8439846054657
:10A340000E461746FFF7F0FDB8F1000F05D0B8F143
:10A35000010F2BD140F2031901E04FF00109382021
:10A36000FFF70EFF044608B33C363A464B462146FB
:10A37000304601F09EFF024618B12046FFF7F1FE7D
:10A3800014E0B8F1010F04D102232146304601F058
:10A3900099FA00232B776C61384605F06DFD01308A
:10A3A000FFF7EEFE3946A86105F04DFD2846BDE8F1
:10A3B000F883F8B50F4615460446FFF7B5FD2C2087
:10A3C000FFF7DEFE2A460646014607F13C0000F094
:10A3D000BFFD18B13046FFF7C4FE0CE00123237720
:10A3E0006661284605F048FD0130FFF7C9FE2946A1
:10A3F000A06105F028FD2046F8BD000010B5054C11
:10A400002046FFF771FF2046034A0449BDE810408B
:10A4100004F052BDF43A002000340020CFA0020026
:10A42000F0B50C46CBB0154606461F46FFF77CFD3F
:10A4300008AA294604F13C0000F044FE48B99DF802
:10A440002030112B09D02A4621466846FFF7B1FF7C
:10A4500009E002300ED1012F0CD13B462A4621469D
:10A460006846FFF769FF69463046FFF7E9FD684631
:10A47000FFF71AFD30464BB0F0BD00002DE9F04368
:10A48000CBB000AF80460E4614461D46FFF74CFD8C
:10A4900007F12002214606F13C0000F091FD012861
:10A4A00048D107F12801264805F0C3FC0028EFD069
:10A4B00007F12801234805F0BCFC0028E8D0284615
:10A4C00005F0DAFC044607F1280005F0D5FC20442D
:10A4D000093020F00700E946ADEB000D294668463B
:10A4E00005F0B1FC2B782F2B6C4601D16B781BB19A
:10A4F0001549204605F080FC07F12801204605F0AB
:10A500007BFC97F82030112B07D197F84831224671
:10A5100031463846FFF710FF04E022463146384600
:10A52000FFF747FF39464046FFF78AFD3846FFF7F9
:10A53000BBFCCD46404607F59677BD46BDE8F083A7
:10A5400047230300462303004028030003681A6AD8
:10A55000C36AD31A1944B1FBF2F302FB1311036B64
:10A56000994210B50BD24C09C26B012301F01F01B7
:10A5700003FA01F152F82430194342F82410002064
:10A5800010BD0368013304D04068431C5842584151
:10A5900070470120704710B50B6804689C4209D0D1
:10A5A00040684A68904205D0944203D0181A18BFF8
:10A5B000012010BD002010BD03689B6A10B5044641
:10A5C00013B9C06902F0F1F92368DB6A13B9A06A14
:10A5D00002F0EBF923681B6B23B9E06BBDE8104078
:10A5E00002F0E3B910BD00002DE9F04F9846036872
:10A5F0001B6A85B0434582460F4691460E9C0F9ECE
:10A60000109D28D8354B364A3648122104F05AFCA2
:10A61000DAF80000B9F1000F20D0D9F800309845E1
:10A620001CD1D9F80410A14218D8836901EB030B9F
:10A630005C4513D2C4EB0B0BAB45D9F8083028BFEF
:10A64000AB46611A30465A46194404F0D2FC5E44C7
:10A650005C44CBEB0505002DDAD13BE03B68984527
:10A660000FD179688C420CD3436901EB030B5C4535
:10A6700007D2C4EB0B0BAB4528BFAB46611ABB68D6
:10A68000E0E74369B4FBF3F203FB1242AAB99D422F
:10A6900013D3B5FBF3F203FB125BCBEB0503009383
:10A6A0000393436822461D4641463346A84790B966
:10A6B000039B5D461E441C44CDE7A21AC7F80080E8
:10A6C0007A600093D0F804B0BB684146D8470028B0
:10A6D000C1D000E0284605B0BDE8F08FB2280300E5
:10A6E00098280300D02803001FB5069C8DE81C00A5
:10A6F0000B46002200F11401FFF776FF04B010BDF5
:10A7000010B50C468269A068FF2104F098FC4FF058
:10A71000FF33236010BD00008B6A10B50446016052
:10A720000BB1C36105E0486902F030F9E06100282F
:10A730005FD02368DA6A0AB1A26205E0986902F084
:10A7400025F9A062002854D0206804F12001FFF709
:10A75000D7FF4FF0FF3363612368586AC20604D005
:10A76000274B284A40F6130104E030B9264B254A0E
:10A7700040F61401254804F0A5FB1B6B0BB1E36305
:10A7800005E0C00802F002F9E063002831D0236838
:10A7900098695969B0FBF1F201FB120222B11C4B1E
:10A7A000184A40F61F01E5E7DA69B2FBF0F300FB57
:10A7B000132020B1174B134A4FF40261DAE74FF030
:10A7C000FF31A2F10803B1FBF3F30B44B3FA83F3B7
:10A7D000C3F12003B2EB830F04D20F4B094A40F6BA
:10A7E0002401C7E76160A160E060206184F8400057
:10A7F00010BD2046FFF7E0FE6FF00B0010BD00BF5C
:10A8000048290300E52A030066290300D028030035
:10A810007E290300AD290300DD290300C069F8B5D6
:10A820000E68A0F108050F46B6FBF5F080B10138BF
:10A8300004F02EFB0230A6EB8004B4FBF5F42046B6
:10A8400004F026FB04FB1565A5EB8000386020466C
:10A85000F8BD2DE9F04F89B09B46129B139F8846A7
:10A8600008A9013B064641F80C3D00689146FFF7F8
:10A87000D5FF0DF1180A044659461498B84718BB7D
:10A880000CB304F00105C5F10205AB0002938DE89D
:10A8900001045B464A4641463046FFF7A5FE98B99B
:10A8A000034605F1FF3B5B4506DA06991498B84765
:10A8B00001230028F7D007E008AB03EB8B0B641BE8
:10A8C0005BF808BCD8E7204609B0BDE8F08F00006F
:10A8D0002DE9F04F89B0064689460592139F1BB9B2
:10A8E0004FF0FF323A6042E008A9013B41F8043DD5
:10A8F0000068FFF793FF12A905463068FFF78EFF47
:10A900004FF0040A80460DF1140BA8452CD2C8EB79
:10A910000503B3FA83F395FAA5F4B4FA84F4C3F10A
:10A920001F039C4228BF1C46A3000093CDF808A03B
:10A93000059BCDF804B0002249463046FFF754FE8F
:10A94000059BB8B9012B03D93268126A934206D924
:10A950000A4B0B4A0B484FF48F6104F0B3FA012302
:10A9600003FA04F42D1BD0E7059B3B60129B149A5D
:10A970000020136009B0BDE8F08F00BF292A030052
:10A98000D82A0300D02803002DE9F04F87B00646EF
:10A99000109C119D0F46904625444FF001090DF182
:10A9A000170AC4EB030BAC4214D00BEB0403009367
:10A9B000CDF80890CDF804A0434600223946304631
:10A9C000FFF712FE38B914F8013B9DF817209A42A0
:10A9D000E9D000E0012007B0BDE8F08FF7B50C46E4
:10A9E00009684B1C054616461ED0006862688369DC
:10A9F00000938768A368B847B8B926B92146286884
:10AA0000FFF77EFE10E02B689B690193A36800931B
:10AA1000314694E80C002846FFF7B6FF002804DB17
:10AA2000ECD16FF0330000E0002003B0F0BD000077
:10AA30002DE9F04F994603681B6A85B04B450746E0
:10AA4000884692460E9D0F9E109C25D83A4B3B4A55
:10AA50009C212CE0D8F80400854223D33B689B69F5
:10AA600000EB030B5D451DD2C5EB0B0BA345D8F8DE
:10AA7000083028BFA346281A5A463146184404F025
:10AA8000B8FA3B689A695D44B5FBF2F302FB1353D5
:10AA90005E44CBEB04046BB1002C48D0D8F8002006
:10AAA0009145D7D001320DD0254B244AB7212548F6
:10AAB00004F008FA524641463846FFF78FFF002857
:10AAC000EAD035E038688269B5FBF2F302FB135334
:10AAD0003BBB944225D3B4FBF2F302FB134BCBEB0D
:10AAE00004030093039383682A461C464946334671
:10AAF000A047E8B9BAF1000F04D1039B5C461E449D
:10AB00001D44C9E7039B019300962B464A465146D4
:10AB10003846FFF739FF00280ADBEED16FF033002B
:10AB200006E0EB1AC8F80090C8F80430B4E72046F5
:10AB300005B0BDE8F08F00BFB2280300C92A0300AA
:10AB4000542A0300D02803002DE9F04786B00546BB
:10AB5000894600F11408D71814464FF0010A0DF188
:10AB60001706BC420FD08DE850044B4600224146E8
:10AB70002846FFF739FD013430B9012231460E98DD
:10AB800001F0EEFBEDE7002006B0BDE8F0872DE90F
:10AB9000F04F8BB0136804930024536805938046EC
:10ABA0000E46274606AD4FF0100A04AB002253F8BC
:10ABB0002490CDF800A02B4649464046FFF794FD6F
:10ABC00030BB27B1F269069B9B1A002B3ADB079B2F
:10ABD00023F00043132B35D9D8F80020D2699342D3
:10ABE00030D80DF1280B4FF0FF334BF81C3D1022ED
:10ABF0002946584601F0B4FB079BCDF800B023F07E
:10AC00000043103B102249464046FFF79DFF18B114
:10AC100010F1340F1ED115E0039B9BB9631C0AAAE7
:10AC200003F0010302EB830306F11C0753F8183C01
:10AC3000B36095E80F00C6F80490C6F80CA087E84A
:10AC40000F0001270134022CAFD1002F0CBF6FF091
:10AC5000330000200BB0BDE8F08F2DE9F34106462C
:10AC60000C46154601F124074FF01008216AE268EE
:10AC700021F0004302F10C00043B984211D9002955
:10AC800003DB2A606FF0010026E03A462146304699
:10AC9000FFF77DFF00BBA369C4F80C801433A361E8
:10ACA000E4E70C23009361682B1D3046FFF71CFD81
:10ACB00090B96A79A979E3682B6004321144EA7982
:10ACC0000A441344E3606B79AA7904331344EA79A4
:10ACD0001344A2691344A36102B0BDE8F08130B50A
:10ACE000044693B004300D46FFF74BFC40BB019087
:10ACF000012301AA07A920460293FFF748FF00BBE2
:10AD000010A8FFF73EFCD8B910AA07A92046FFF704
:10AD10003EFFB0B903AA07A92046FFF79EFF10B176
:10AD2000831CEDD00DE09DF91030002BF2DB0822E2
:10AD3000294605A804F04EF90028EBD1012000E0D7
:10AD4000002013B030BD2DE9F8431D4600235362A7
:10AD50000123074688461446936202F1240605F152
:10AD600008093046FFF70DFCE0B932462146384667
:10AD7000FFF70DFFC8B92A4621463846FFF76DFF99
:10AD800018B1831CEDD0BDE8F8832B7903F0700374
:10AD9000202BF0D141464846FFF7FDFB0028EAD1C1
:10ADA000012002E00020BDE8F883BDE8F883F7B594
:10ADB000054604300F461646FFF7E3FB08B10020B6
:10ADC0001DE0009001236A46314628460193FFF7B3
:10ADD000DEFEA0B906F124042046FFF7D2FB0028CE
:10ADE000EDD139462046FFF7D6FB38B12246314631
:10ADF0002846FFF7CCFE0028EED000E0012003B08B
:10AE0000F0BD00002DE9F04F85B01E6802932223AB
:10AE100013710823537100239371D37143689360B6
:10AE20008368D36007468B4614464749304605F091
:10AE30002BF806EB000882464349404605F00BF824
:10AE40000128814608EB000504D116F80A302E2BA4
:10AE50000AD107E0022807D102463C49404604F0E7
:10AE6000B9F808B92E46E0E72E464FF0010A3649F8
:10AE7000284605F009F805443349284604F0EBFF5D
:10AE8000034690B102280CD1024603902F49284670
:10AE900004F0A0F8039B20B9BAF1010A03D1AE1C5B
:10AEA000C3E70AF1010A1D44E1E798F80000002811
:10AEB00046D0029BC3F800802379222B3ED104F1B7
:10AEC00008052A4659463846FFF761FE002837D163
:10AED00007F1140A224659463846FFF7BEFE78BBF2
:10AEE000237903F07F03112B01D0222BF2D1E379D8
:10AEF0009945EFD12368627904331344A2798DE830
:10AF0000000313445146DBF804203846FFF73CFDAC
:10AF1000002815DBDED094F90430002B85DA2946B1
:10AF20003846FFF7DCFE002803D009DB6FF0010094
:10AF300006E0237903F07F03237176E76FF01300B7
:10AF400005B0BDE8F08F00BF402803004623030092
:10AF500030B587B006AB054643F8142D42684A6009
:10AF600082688A6002AA0C46FFF74CFFB8B99DF8C8
:10AF70000C30222B11D104AA21462846FFF707FEE8
:10AF800068B963682361A36863610E23A36110231A
:10AF9000E3602B6923602C6101E06FF0130007B0C0
:10AFA00030BD036900F110023BB18B4202D11B6836
:10AFB000136002E01A461B68F6E7002070470000A5
:10AFC00070B50D46144686B006464FF484720021D3
:10AFD000204604F034F8AB690E2B05D1204622231D
:10AFE00000F8083B274906E00F2B13D12046222307
:10AFF00000F8083B244904F026FFAB690133AB613C
:10B0000001203DE09DF80C3003F07F02112A0CD0A6
:10B01000222A0AD002AA29463046FFF71EFE00283F
:10B02000F0D0821C08BF00202AE01B060CD504A922
:10B030003046FFF754FE002822DBEBD19DF80C30A0
:10B0400003F07F038DF80C309DF80C302370112B2A
:10B0500008BF059B029A08BF63609DF80D309DF8FC
:10B060000E1004321A449DF80F3000930A4404F184
:10B07000080369683046FFF737FB002808BF012046
:10B0800006B070BD472303004623030010B501F14D
:10B0900010020C46FFF77BFD38B9236963606369D2
:10B0A000A3600E23A3611023E36010BD086A7047FC
:10B0B000CB69486913F4003F03D00B6A984238BF4C
:10B0C0001846704770B594B014AB154643F8441D4C
:10B0D00005AA09A90646FFF795FE014648BB4FF4AD
:10B0E0008472284603F0ABFF9DF818302B70112BAB
:10B0F00004BF089B6B60311D07A8FFF74CFA05F1F0
:10B100000803044620B90D49184604F09CFE11E0DE
:10B11000059A9DF819109DF81B00009004320A440E
:10B120009DF81A1030460A440A99FFF7DDFA0446E2
:10B1300000E00446204614B070BD00BF4028030064
:10B1400030B599B00546FFF7E7FA002834D12B68EF
:10B15000E8621B6A28636863AB630290012302AA5A
:10B160000DA928460393FFF712FD044600BB2023D8
:10B170000093102205AB0E992846FFF7B5FA044656
:10B18000B0B9069B6B60079BAB6008220B490BA80C
:10B1900003F020FF38B90A9B1A0C012A06D19BB292
:10B1A000012B03D808E06FF0330401E06FF01504C1
:10B1B0002846FFF701FA204619B030BD702A030077
:10B1C0002DE9F041054696B004300E461746FFF7CC
:10B1D000D8F9002879D101230590069305993846BE
:10B1E000B047002872D106993846B04700286DD183
:10B1F00005AA0BA92846FFF7CAFC002866D10C2433
:10B20000139B0E9A23F0004302F10C01043B994278
:10B2100026D8009408AB0C992846FFF765FA002859
:10B2200054D19DF821309DF82220043313449DF819
:10B23000232013440E9A13440E939DF8203003F0FC
:10B240007003102BDCD10A9B002BD9D08DE8C800ED
:10B250000246099B05F114012846FFF7FAFACCE7EC
:10B26000149B059305A8159B0693FFF78AF9002800
:10B27000B4D0EC6805F114082CB3E369DA0303D405
:10B28000E3699B0311D50EE06369002BF8D08DE8CC
:10B29000C80004F12C02236941462846FFF7D9FA79
:10B2A0000028EDD012E0236A0BB92468E4E78DE8AA
:10B2B000C80004F12C02636A41462846FFF7C9FA28
:10B2C0000028F2D002E0204600E0002016B0BDE8E1
:10B2D000F0810000F8B504460D460126D4F830E0B0
:10B2E000626BA36B72452BD0511C6163013BE76B12
:10B2F000A363510902F01F0357F8211006FA03F364
:10B300000B42EDD1E36A1A442368196AB2FBF1F3E8
:10B3100001FB13222A60266B0125626BB2422CD0FE
:10B32000510902F01F0357F8210005FA03F31840F2
:10B3300005D0A36B0132013B6263A363EDE7F8BD67
:10B34000EBB12068E26A076A7244B2FBF7F107FBCF
:10B350001122E262426A934294BF23632263002176
:10B360006163D208E06B03F06AFE2246054920467D
:10B37000FFF726FF0028B1D0F8BD0020F8BD6FF020
:10B380001B00F8BD4DA5020037B50C46043105463B
:10B39000FFF7A0FFF0B904F108012846FFF79AFF74
:10B3A000C0B904230093024604F11C0361682846D7
:10B3B000FFF79AF910B110F1340F0BD1E3690133A3
:10B3C000E361142323624FF0FF336362A36210230F
:10B3D000E360002003B030BD2DE9F04F044687B094
:10B3E0000E4600F1140A05A92046FFF773FF002856
:10B3F00046D120680599C3689847054628B9804614
:10B4000006F12C0B4FF0010920E010F1340FEAD0C7
:10B4100037E00DF11307CDF808900197CDF80080C3
:10B42000736A5A4651462046FFF7DEF840BBCDF816
:10B4300008900197CDF80080059B524604F1200149
:10B440002046FFF7F5FA28B908F10108B36A9845D4
:10B45000DFD303E010F1340FC5D011E02368A16AF7
:10B460009A69706B03F0C5FD236AF362636A336304
:10B4700004F120012068FFF743F9059B736200E0A7
:10B480000546284607B0BDE8F08F00002DE9F04FD3
:10B490008DB005460793CB69059203F00302012A9C
:10B4A0000C4600F033815E0308D4E3691A050AD51F
:10B4B0006269216A914238BF226204E000F034F9E7
:10B4C0000028F2D024E113F4003602D0DDF81C800D
:10B4D00044E0276A63699F42F8D92362236A9F4246
:10B4E000F4D901230DF12202214628468DF822606D
:10B4F000FFF7CCFF0028F1DA0AE113F4003F04F172
:10B500002C0A30D02B68A26ADB699A4242D0A94645
:10B51000A76A59F8143BDB69DF1B474528BF47463C
:10B5200004F12C0A059B0193A36A00930297636AB6
:10B530004A4651462846FFF77BFA002840F0D28061
:10B54000236A3B442362A36A3B44A362059B3B44BA
:10B5500005932B681B6AAB63C7EB0808E369B8F176
:10B56000000FCAD1CDE0236AA3B104F12802013B48
:10B57000029204F124020192009322696369514608
:10B580002846FFF7A5F9002840F0B6805146286804
:10B59000FFF7B6F82B68626A1B6AAB63236A0992ED
:10B5A00005F114090A930BA92846FFF793FE00281A
:10B5B00040F08B800B99012903D92868036A9942CE
:10B5C00004D9554B554A40F28C416DE0C368984709
:10B5D000064618B110F1340F73D077E00A9B4BB3D5
:10B5E0000CA9013B41F8083D2868FFF717F92A68C4
:10B5F0000A9BD269013393420A931ED04FF0010B8C
:10B600000DF123070A9B9E4214D28DE8C008099BC6
:10B61000002249462846FEF7E7FF002855D18DE86D
:10B62000C0080B9B4A4651462846FFF701FAE0B98D
:10B630000136E7E70B9A626241E000F1010B9BFAE9
:10B64000ABFBBBFA8BFB0BF10103069337460423DC
:10B650000293BE0009AB019300960B9B4A465146EC
:10B660002846FFF7E5F9099B18B110F1340F28D0EF
:10B670002BE0BB4503D1099B012B0DD810E0042220
:10B68000029209AA01920096024649462846FEF710
:10B69000ABFF0028EFD018E02A68126A934206D95F
:10B6A0001F4B1E4A40F2D3411E4803F00BFC069B81
:10B6B0000137BB42CBD80B9B6362069B9B00A36206
:10B6C0000BE04FF0FF332B626DE706462EB1E369C6
:10B6D00043F40023E36130461AE0E36943F40033A6
:10B6E000E36114E710F1340F06D121462846FFF735
:10B6F00073FE00283FF416AFE36943F40023E361CF
:10B7000006E023F40023E361079801E06FF00800EE
:10B710000DB0BDE8F08F00BF792A0300FC2A0300BA
:10B72000292A0300D0280300CB695A032DE9F041F0
:10B7300044BF23F48023CB610546C86944BF4FF062
:10B74000FF32CA6210F4003090B00C4652D00E6A3C
:10B750003822002102A805F1140703F070FC2369C8
:10B76000069397E80700636907930123099310ABD9
:10B7700003E907004FF0FF330A966B619846226A8F
:10B7800063699A4219D201230DF1070202A92846E2
:10B7900000F033F800282DDB01230DF107022146CC
:10B7A0002846FFF773FE002824DB6B6901331CBFBA
:10B7B000CDF83480C5F81480E1E704F12C083A464E
:10B7C00041462846FFF70AF948B110F1340F11D16C
:10B7D00021462846FFF700FE0028F0D00AE0636A01
:10B7E0002361236A6361E369266223F4003343F42F
:10B7F0008033E36110B0BDE8F0812DE9F04F914650
:10B80000CA691E4602F00303022B87B080460C462D
:10B8100051D0920310D4206A626990424ED2101A1D
:10B82000864228BF064604F12803374604F12C0A55
:10B83000059304F1240B27E0FFF776FF0028EAD0F8
:10B840003DE0E3695B0322D5D8F80030A26ADB69EA
:10B850009A421CD0D8F80020A36AD569ED1ABD42DF
:10B8600028BF3D468DE808020295636A00225146D2
:10B870004046FEF7B9FE10BB236A2B442362A36A3D
:10B880002B44A362A9447F1B002FDAD111E0059B52
:10B890000293236A0093CDF804B06369226951468C
:10B8A0004046FFF715F850B9E36943F48023E3619C
:10B8B000D0E7304603E06FF0080000E0002007B05A
:10B8C000BDE8F08F70B50D4614461E46FFF72CFFFD
:10B8D00098B96EB1012E02D1002C2A6A03E0022E23
:10B8E00007D16A69002C02DA6342934203D81444F8
:10B8F0002C62286A70BD6FF0150070BDF0B501278D
:10B90000061D80F84070A7B004463046FEF739FEA9
:10B910000546002878D101462C2205A803F08FFBAC
:10B920004FF000432C22294610A80D9303F087FB0B
:10B930001A9723681B6A9D4263D219A8FEF721FE5D
:10B94000002861D119AA10A92046FFF720F9002884
:10B9500065D10D9B002B1DDB3046FEF712FE18B1A2
:10B96000199B0E931A9B53E001AB1BAA0EA920460C
:10B97000FFF7E9F9002852DBF2D0039B0E9A0F99EA
:10B98000934202D10498884204D08B423ED104995C
:10B990008A423BD11BAA10A92046FFF75EF980B16D
:10B9A000831C3CD10DF1400EBEE80F0005AF0FC760
:10B9B000BEE80F000FC79EE80700013587E80700C3
:10B9C000B7E79DF97030002BE4DA1DA92046FFF798
:10B9D00086F9002823DB05D01BAA10A9204600F019
:10B9E00055FA0BE09DF8703003F07F038DF870304E
:10B9F0001BAA034610A9204600F055F90028C9D01B
:10BA00000DE06FF033000AE0002008E00E93049B85
:10BA10000F9300231A4605A9204600F002F827B02C
:10BA2000F0BD2DE9F04F9DB04C680693CB698F684F
:10BA3000049201330D46CB614F608C6006460C3298
:10BA40000021069B994202F1100209DA286A52F895
:10BA5000103C034452F8180C1B1A2B620131F0E71A
:10BA6000002309970A94059330686968C36898476A
:10BA70000446002840F091800DF170094FF0FF332B
:10BA800049F83C3D05F11C0810224146484606F1A4
:10BA9000200A102700F064FC8DE81001224602976E
:10BAA0006B6851463046FEF7C3FF0446002874D148
:10BAB000B8468346CDF81C902B6A23F00043043B24
:10BAC0009F424CD2069B9B4527DA4FEA0B13049A00
:10BAD00002EB0309D35898451FD1D9F80C20D9F8A7
