:020000022000DC
:10600000000001207DEF0200BDEF020005F7020055
:10601000C1EF0200C3EF0200C5EF02000000000064
:10602000000000000000000000000000FDEE020083
:10603000C9EF0200000000001DEF0200CDEF0200DA
:10604000CFEF0200CFEF0200A9D60200CFEF02008F
:10605000CFEF0200CFEF0200CFEF0200CFEF020040
:10606000CFEF0200CFEF0200CFEF0200CFEF020030
:10607000CFEF0200CFEF0200CFEF0200CFEF020020
:10608000CFEF020021ED0200CFEF0200CFEF0200C0
:10609000CFEF0200CFEF0200B9930200CFEF020072
:1060A000CFEF0200CFEF0200CFEF0200CFEF0200F0
:1060B000CFEF0200CFEF0200000000000000000060
:1060C000CFEF0200CFEF0200CFEF0200CFEF0200D0
:1060D000CFEF0200CFEF0200CFEF02000000000080
:1060E00000000000000000000000000000000000B0
:1060F00000000000000000000000000000000000A0
:10610000000000000000000000000000000000008F
:10611000000000000000000000000000000000007F
:10612000000000000000000000000000000000006F
:10613000000000000000000000000000000000005F
:10614000000000000000000000000000000000004F
:10615000000000000000000000000000000000003F
:10616000000000000000000000000000000000002F
:10617000000000000000000000000000000000001F
:10618000000000000000000000000000000000000F
:1061900000000000000000000000000000000000FF
:1061A00000000000000000000000000000000000EF
:1061B00000000000000000000000000000000000DF
:1061C00000000000000000000000000000000000CF
:1061D00000000000000000000000000000000000BF
:1061E00000000000000000000000000000000000AF
:1061F000000000000000000000000000000000009F
:10620000044B05481B1A062B02D9044B03B118474F
:10621000704700BFE7340020E43400200000000095
:1062200005490648091A891001EBD171491002D0BD
:10623000034B03B118477047E4340020E4340020D6
:106240000000000010B5064C237843B9FFF7D8FFD3
:10625000044B13B10448AFF300800123237010BD39
:10626000E434002000000000CC5B030008B5084BBC
:106270001BB108490848AFF300800848036813B908
:10628000BDE80840CCE7064B002BF9D09847F7E76C
:1062900000000000E8340020CC5B0300E034002064
:1062A00000000000154B002B08BF134B9D46A3F5C3
:1062B000803A00218B460F461348144A121A09F0FF
:1062C000F4FE0F4B002B00D098470E4B002B00D054
:1062D00098470020002104000D000D48002802D03E
:1062E0000C48AFF3008009F075FE2000290008F08B
:1062F0006FFE09F049FE00BF000008000000012009
:106300000000000000000000E4340020E053002002
:1063100000000000000000007047000030B520249D
:1063200089B0054622460021684609F0BEFE234694
:10633000094C0A486A46294601F01EFF08492046D2
:1063400006F076FF6946204606F082FF05492046A2
:1063500006F07EFF09B030BD9C3B0020D8360020FF
:106360007C3403008A34030010B5044600F082FD3B
:10637000204610BD70B590E860000446AE4204D0DF
:10638000284600F077FD3035F8E7206808B108F0BE
:106390009DFE204670BD000010B5114C0621204620
:1063A00001F0BEF8204601F0A9F80E49204601F0A0
:1063B00077F804F1380001F081F82046012101F05E
:1063C000DCF82046F422202101F0D3F820461E21DB
:1063D00001F0CDF820460021BDE8104001F048B999
:1063E000B43900200436002010B552230446072299
:1063F000182100F007FF204610BD427D438D3AB9B9
:106400000133018D9BB2994243850BD8428506E04A
:10641000013B9BB243852BB9038D013B4385C36A86
:1064200003B11847704770B51546022283610275A3
:1064300004460E4600F0AEFF002363859DF8103041
:10644000208526626562637570BD70B504460025BF
:106450000326204600F09EFF85420FDA628D2A4413
:1064600092FBF6F303EB43039A42A9B20CBF226AF4
:10647000626A204600F001FF0135EAE7204600F09D
:106480005DFD2046BDE87040FFF7B7BF10B5026A5A
:10649000418D044600F0F1FE204600F04FFD2046FD
:1064A000BDE81040FFF7A9BF38B50423037582612A
:1064B00004460D4600F06EFF0138400000232085A1
:1064C0002562638538BD0846C1F34602C0F34640E5
:1064D000C1F3462100F003BF70B5044600252046F5
:1064E00000F058FF854218DA628D9542AEB203D0B3
:1064F000238D9B1A9D4201D1226A08E03146204635
:1065000000F0F9FE01462046FFF7DDFF0246314666
:10651000204600F0B2FE0135E1E7204600F00EFD16
:106520002046BDE87040FFF768BF70B505460E46CF
:106530000024284600F02EFF844206DAA1B232463B
:10654000284600F09AFE0134F3E72846BDE8704083
:1065500000F0F4BCF8B50546B0F828E06F6A036AAD
:10656000468DFAB2C6EB0E00D9B2724300FB01228F
:10657000C7F30721C3F307247143C7F3074700FBA1
:1065800004117E43C3F3074492FBFEF291FBFEF13C
:1065900000FB0463D2B293FBFEF0C9B2C0B200F0BC
:1065A0009EFE01462846FFF7C0FF284600F0C6FCC5
:1065B0002846BDE8F840FFF720BFC943C9B25429B7
:1065C00007D801EB4102A1EB8101481ED2B20021A4
:1065D00015E0A9290AD85539C9B2A1EB8102013ABF
:1065E00001EB4101D2B2C9B2002009E05631C8B274
:1065F000A0EB8001013900EB40000022C9B2C0B21B
:1066000000F06DBE38B504460025204600F0C2FEFD
:106610008542204612DA00F0BDFE94F82A302902A5
:1066200091FBF0F0C118C9B22046FFF7C6FFA9B22E
:106630000246204600F021FE0135E6E700F07EFC30
:106640002046BDE83840FFF7D8BE10B5044607F035
:106650004CF8E369C01AA369984224D907F045F8B9
:10666000237DE061013B042B1DD8DFE803F0030824
:106670000D1217002046BDE81040FFF7C3BF2046AB
:10668000BDE81040FFF7E1BE2046BDE81040FFF72F
:10669000FDBE2046BDE81040FFF71EBF2046BDE806
:1066A0001040FFF757BF10BD2DE9F84F1A4BDFF828
:1066B00078901D68002780463C46CB46174B1B78D8
:1066C0009F4224DA2646164B1A78331B9A4218DD6D
:1066D00099F80030AA7869782878032B1FFA86FA8F
:1066E00002D100F0FCFD02E0EB7800F0FDFD024677
:1066F0005146404600F0C1FD9BF8003001361D4474
:10670000E1E7084B1B789C1A34440137D6E7404632
:10671000BDE8F84F00F012BCD0350020BC36002098
:106720002C3500206C3500200434002070B52F4833
:106730002F4C03F009FB4FF480712E4803F02AFC24
:106740002D4A2E492B4809F0EDFB0023236063609E
:10675000A360C02008F0B8FC00F1C0060546206028
:106760006060A66015B12846FFF73EFE3035AE42A8
:10677000F8D1234D204A23491D48666009F0D2FB19
:10678000214C522310221821284600F03BFDEC62D8
:1067900028461E4D184A1E4909F0C4FB52231E22EA
:1067A0001821284600F02EFDEC622846194D124AA9
:1067B000174909F0B7FB52230F221821284600F091
:1067C00021FDEC622846144D0B4A114909F0AAFB41
:1067D0001B2218212846522300F014FDEC622846A3
:1067E000054A0B49BDE8704009F09CBB003500200C
:1067F00030350020043600200034002039A102008A
:106800003C3500207563020019630200A0350020AA
:1068100069630200D4350020703500202DE9F04175
:106820004FF4E1313E483F4E3F4FDFF8348106F0F0
:10683000D4FD3E493A4806F00BFD3D49384806F084
:1068400007FD3C49364806F003FD0FCE3C6825465F
:106850000FC50FCE0FC596E80F0085E80F00364E26
:106860000FCE04F130050FC50FCE0FC596E80F000F
:10687000324E85E80F000FCE04F160050FC50FCE34
:106880000FC596E80F0085E80F002D4D0FCD903411
:106890000FC40FCD0FC495E80F0084E80F0000254A
:1068A00030263C687B681B1B1B1108FB03F39D42D1
:1068B00013D206FB0544204600F0EBFA782120466F
:1068C00000F06AFD012323750523A361FF232385BF
:1068D0000023638563750135E3E700220121194830
:1068E00002F0E6FA0421174802F0DEFC16491548CA
:1068F00002F0A4FC1549134802F04AFD144915485A
:1069000003F048FA1449134803F042FA114803F01F
:1069100043FA124803F032FCBDE8F041FFF73CBDFA
:106920009C3B00203C35002030350020F034030033
:10693000BA34030019350300A0350020D4350020F7
:1069400070350020D8360020123503001D63020088
:10695000433503000035002057350300043600207E
:10696000ABAAAAAA10B5024604460749074806F092
:1069700079FC20460AF062FB21460246BDE8104041
:10698000034803F0D5BB00BF6B3503009C3B0020E0
:106990001436002070B5164D86B006460C462846C3
:1069A000144906F055FC1449284606F051FC1349D9
:1069B000284606F04DFC0A223146284606F0CDFC5A
:1069C000F1B2204600F0E8FC204600F0B7FA0FCC08
:1069D00001AD0FC523682B6001A8FFF765FE01A874
:1069E00000F048FA0648FFF7BDFF06B070BD00BFD3
:1069F0009C3B0020B23403007E3503009C3503002D
:106A000023430300A74803682DE9F047591C44F6C7
:106A1000206391FBF3F203FB1213002B18BF0B460C
:106A2000A14DA24E036094B0002495E80C009B1A7F
:106A30001B119D4F73439C42B84606D2302000FB89
:106A40000420FFF702FE0134EFE7994802F088FCCA
:106A5000002800F00482974803F004FA4428064610
:106A600000F0B58039DC422843D065DC412840F095
:106A7000F681904803F0F6F905468E4803F0F2F9E6
:106A80008D4980468D4806F0E3FB31460A228B484B
:106A900006F063FC0A222946884806F05EFC0A22BA
:106AA0004146864806F059FC3B68302404FB053417
:106AB0000FCC08AE0FC60FCC0FC694E80F0086E8C7
:106AC0000F000123FF208DF83430CDF83880ADF869
:106AD000480006F0FFFDC1B2BAE1462800F02E8161
:106AE000C0F2F480592800F072815A2800F0948195
:106AF000B5E1704803F0B6F905466E4803F0B2F907
:106B00003B68302404FB053486460FCC08AE0FC624
:106B10000FCC0FC694E80F0008AD86E80F000FCD2C
:106B200003AC0FC42B682360704603A9FFF732FF44
:106B300003A800F09FF98FE15E4803F093F98046C7
:106B40005C4803F08FF93C68302303FB0844064699
:106B50000FCC08AD0FC50FCC0FC594E80F0085E82A
:106B60000F005749554806F073FB0A22432153484A
:106B700006F0F3FB41460A22504806F0EEFB0A22DB
:106B800031464E4806F0E9FB0223FF208DF83430F1
:106B900006F0A0FDC1B208A8FFF70FFD1090FF207E
:106BA00006F098FDC1B208A8FFF707FD0446FF20D4
:106BB00006F090FDC1B208A8FFF7FFFC0023009388
:106BC0000246F3B2214608A8FFF72DFC44E13948FC
:106BD00003F048F90546374803F044F904463548C0
:106BE00003F040F98046334803F03CF982463148CF
:106BF00003F038F933498146304806F029FB314625
:106C00000A222E4806F0A9FB29460A222B4806F044
:106C1000A4FB21460A22294806F09FFB41460A228E
:106C2000264806F09AFB51460A22244806F095FBB6
:106C30000A224946214806F090FB3B6822491F483A
:106C4000302404FB05340025257506F001FB2046A1
:106C500000F0A0FB0A220146184806F07EFB5FFA0E
:106C60008AFA5FFA88F85FFA89F6204600F092FB0C
:106C7000854208DAA9B2009653464246204600F003
:106C8000D7FA0135F1E7204600F058F90FCC08ADEE
:106C90000FC508A823682B60FFF706FD08A800F0C1
:106CA000E9F8DCE02835002030350020ABAAAAAA9C
:106CB000D836002004360020AA3503009C3B002073
:106CC000C7350300E4350300FE350300654803F0D3
:106CD000C9F88046634803F0C5F83C68302303FBDD
:106CE000084406460FCC08AD0FC50FCC0FC594E87D
:106CF0000F0085E80F005C495C4806F0A9FA0A22FB
:106D000045215A4806F029FB41460A22574806F019
:106D100024FB0A223146554806F01FFB0423FF20BE
:106D20008DF8343006F0D6FCC1B208A8FFF745FC58
:106D3000F2B2014608A8FFF7B7FB8DE0494803F01F
:106D400091F83C68302303FB004480460FCC08AD2B
:106D50000FC50FCC0FC594E80F0085E80F0044491C
:106D6000424806F075FA31460A22404806F0F5FA24
:106D70000A2241463D4806F0F0FA3A4803F072F81C
:106D800005250446FF208DF8345006F0A3FCC1B25F
:106D900008A8FFF712FC0746FF2006F09BFCC1B2D3
:106DA00008A8FFF70AFC064608A800F0F3FA06F068
:106DB00091FCE4B200238DF834500E94ADF84800F5
:106DC00010971196ADF84A308DF8353044E02548DB
:106DD00003F048F83C68302303FB00440FCC08ADB7
:106DE0000FC50FCC0FC594E80F0085E80F000323F3
:106DF00008A88DF8343000F0CDFA6423ADF84800CF
:106E0000FF200E9306F066FCC1B208A8FFF7D5FB81
:106E1000109008A800F02EF8124803F023F8D8F8D4
:106E20000040302303FB00440FCC08AD0FC50FCC4E
:106E30000FC594E80F0085E80F00032308A88DF81C
:106E4000343000F0A7FA0A23ADF848000E93002171
:106E500008A8FFF7B2FB109008A800F00BF814B0D8
:106E6000BDE8F087043600201C3603009C3B002060
:106E70003336030010B50446806808B109F0D8F82D
:106E800094F90600002802DB002108F017FD2046D7
:106E900010BD10B5044690F90600002807DB01215B
:106EA00008F00CFD002194F9060008F029FD0123EB
:106EB000637010BD70B5054680680E4608B109F0D4
:106EC000B7F8EB7B2C7BA3420CBF0324042414FBF8
:106ED00006F4A4B2AC80204609F0A2F8A86028B15C
:106EE0002246002109F0E1F86E8070BDA88068801C
:106EF00070BD70B4C27B047B151B6C42C1F381066C
:106F00006C41FF29C1F38112C1F30115467301F0F1
:106F100003068CBF0021012101708168C2730573D3
:106F2000867341B1511B4A424A41A24203D0418873
:106F300070BCFFF7BFBF70BC704700002DE9F04F79
:106F400083688BB00546002B00F0348106F0D8FB37
:106F50002B69C01AB0F5967FF8D3984BAF8893E8A9
:106F6000070007AE86E80700002356F82340D4F850
:106F7000002502BBD4F86025002A1CDAD4F8642569
:106F8000002A18DAD4F86825002A14DAD4F86C2517
:106F9000002A10DA07F0E8FB3F01043701283846E1
:106FA00002D109F03DF801E006F074FC0646002825
:106FB00040F0888002E00133032BD6D107F09CFE1D
:106FC00095F906207E4B7F4C53F822307E4A1F2BCA
:106FD00088BF203B01269E402B78002B14BF122334
:106FE0001A23039314BF292346230293D36843F043
:106FF0008073D360236843F00103236015BF5823D7
:10700000C3234FF047084FF09C080593A1466368DF
:10701000D5F808A00493AB88504600224FF0A04159
:10702000CAEB0007BFB2BB4232D9082710F801BB38
:1070300001974FF0800ED4F804C0C2EB0C0CE04571
:10704000F9D8D9F80420D1F808C51BEA0E0F46EA92
:107050000C0CC1F808C507D0D4F804C0029FC2EBDD
:107060000C0C6745F8D806E0D4F804C0039FC2EBC7
:107070000C0C6745F8D8D1F80CC5019F46EA0C0CFA
:10708000013FC1F80CC54FEA5E0E0197D3D1C7E7A7
:107090006168891A8845FBD80499D9F80420521AE6
:1070A0000599DB004B439A4206D3484B4FF4964078
:1070B00043F001039847AAE707F028FE06F020FBFB
:1070C000286177E0002048F20D0A48F21308A988E9
:1070D00095F800C082B2D30091429BB221D9A96831
:1070E00011F802B00132D20092B24FF0800E0EEAD7
:1070F0000B01BCF1000F05D148F20809002918BFA7
:10710000C14604E048F20609002918BFD14626F816
:10711000139001339BB29A424FEA5E0EE7D10130E1
:10712000D5E74FF4004226F8132001339BB226F82E
:1071300013200023C4F80435C4F80C35BCF1000F4B
:1071400001D1282200E014227F08C4F80825C4F8E1
:107150001435C4F81035C4F82065C4F82475C4F893
:107160002835C4F82C3595F90610154A52F8212017
:10717000C4F860250122C4F80025C4F81031A260CB
:10718000D4F8103113B908F0CFF8F9E70023C4F8A8
:107190001031C4F800354FF0FF33C4F8603507F004
:1071A000E3FA0128304602D108F042FF86E706F0F4
:1071B00080FB83E70BB0BDE8F08F00BF883603008B
:1071C00044490300001000E0F0ED00E0A0360300A9
:1071D00038B5437804460D4633B190F906000028CF
:1071E00002DB002108F06AFB6378A5714BB12846E9
:1071F000012108F063FB28460021BDE8384008F073
:107200007FBB38BD70B50E46002104464170C17188
:107210008160016119461546FFF76BFE3146204635
:10722000FFF748FE20462946FFF7D2FF204670BDF3
:10723000F0B544889DF814708C421DD9C47944B1CE
:1072400012FB04F214FB03F314FB07F4120A1B0AEB
:10725000270AC57B047BAC4284681DBF04EB810117
:1072600000264E5501EB410108BF0919057B4A551F
:10727000427B8B54837BCF54F0BD43888B42F0B567
:107280002CD9C379C2F30746C2F30725D4B20BB990
:10729000A64608E05E435D435C43C6F30726C5F39C
:1072A0000725C4F3072E077BC47BA742876803D159
:1072B00001EB410139440AE007EB8101120E0C4455
:1072C0000BB9D3B202E05343C3F307232370037B0C
:1072D000CE54437BCD54837B01F803E0F0BD42EAFA
:1072E000012242EA0040704742EA012242EA00409D
:1072F00040EA0360704743888B42F0B548D9C67BAB
:10730000077B8368C279447B857BBE421BD101EB3E
:10731000410119447AB18B5D085D1B02B3FBF2F3A6
:107320001B040002B0FBF2F043EA00204B5D1B029D
:10733000B3FBF2F305E0885D0B5D000440EA032037
:107340004B5D1843F0BD03EB8101B2B1CB5D885DAD
:107350001B02B3FBF2F31B040002B0FBF2F043EAA2
:1073600000604B5D1B02B3FBF2F30343085D0002B8
:10737000B0FBF2F043EA0020F0BDC85D8B5D000475
:1073800040EA03604B5D18430B5D40EA0320F0BD0B
:107390000020F0BD408870474A1CC379D2B29A429F
:1073A00070B51ED0013B13F0FF0384680CD0FF2999
:1073B0001FBF110201F1FF3191FBF3F39BB204BF38
:1073C0004FF6FF7191FBF3F32546291B868889B29E
:1073D0008E4205D929785943091205F8011BF4E7B3
:1073E000C27170BD72DF704773DF704777DF70471F
:1073F0000022C2770270704770B51D46C37F0E46EB
:107400001146EA181D2A04460EDC18446A1CE25490
:10741000023000F8016C2A4608F021FEE27F0232B9
:10742000AB18E377012070BD002070BD2DE9F0415D
:10743000002688B007460D4601EBC2083446454594
:1074400016D0284601F0EFFB102802D0802809D082
:107450000CE008AA631C02EB44042A8824F8202CC0
:10746000DCB203E00EB1002017E06E680835E6E7F5
:1074700014B966B9012010E0630003F0FE036A4608
:1074800003213846FFF7B8FF0028F2D1EBE71023BD
:10749000324607213846FFF7AFFF08B0BDE8F0815C
:1074A00013B50831044603C901228DE8030069467B
:1074B0002046FFF7BBFF02B010BD000030B589B019
:1074C0000546202269460C4801F0CCFEEA7F1318DD
:1074D0001D2BC3BFC2F11D02D0B2082409240346EC
:1074E0006A4621462846FFF787FF18B1A4F1090331
:1074F0005842584109B030BDD836002013B5044673
:10750000064801F00BFF02AA012302F8010D0A212F
:107510002046FFF771FF02B010BD00BFD836002033
:1075200007B502AA012302F8011D1946FFF764FFFF
:1075300003B05DF804FB08B50346FFF759FFFF22CF
:10754000202183F82020012283F8212083F82220A3
:1075500099840022F42019851E21D88483F82320E1
:107560005985DA859A851A635A63184608BD41859C
:1075700070478184C2840185704780F8221070476B
:107580002DE9F041054686B00F4616460021182227
:10759000684608F08AFD95F821308DF8003006EB3A
:1075A000860303EB83032C4A02979B00ADF80C3053
:1075B0001368DB0709D4294BE97F99802849996032
:1075C000C97F1D609981012313606A46234905F133
:1075D0002000FFF707FF804678B14FF4B5722149CC
:1075E000214809F0A5FB404608F0D0F809F0A0FBBF
:1075F0000A2009F0B5FB00202BE01C4895F820403C
:1076000001F08CFE214602460120FFF7EFFE044602
:1076100038B140F26B121349134809F089FB204638
:10762000E2E7012195F82000FFF7DEFE804610B169
:107630004FF4B672D3E70D4801F0C6FFEA8D2F85EF
:1076400096424FF0010094BF921B921A85F82300D6
:10765000EA8506B0BDE8F081C0360020C4360020BF
:10766000EC390020A6360300D6360300D8360020B9
:1076700010B50446C1858185FA21054801F051FE07
:10768000628DA18C2046BDE81040FFF779BF00BF96
:10769000D836002038B50B88112B044612D0262B83
:1076A00024D0102B59D1CD7B012D56D1002380F849
:1076B00023302A4801F099FF29462848BDE8384080
:1076C00001F09FBF8988254800F02EFD012844D194
:1076D0000021224801F095FF94F82230002B3CD085
:1076E000A18D2046BDE83840FFF7C2BF0B7A012BC1
:1076F00033D1002380F823304FF4FA71174801F09A
:1077000010FEA38D23B9636B03B19847002205E0F7
:10771000E38D4BB1636B03B19847E28DE18C20465A
:10772000BDE83840FFF72CBF0C4801F05EFF236B2B
:107730009BB107F019F801284FF0100002D108F0B2
:107740006FFC01E006F0A6F80021236B0172436094
:107750000160BDE8384007F09BBE38BDD836002038
:1077600075DF704710B5044606F0FEFF012820467D
:1077700003D1BDE8104008F053BCBDE8104006F04E
:1077800089B8102242800280C82100228280C180F4
:107790008260C26070470000014800F019BC00BF61
:1077A0006C3A00202DE9F3410F888D88112F064691
:1077B0000C461CD01F2F39D0102F44D12946234806
:1077C00000F0B2FC02283ED1B368002B3BD0384613
:1077D000FFF7C8FFB26842600122027202AA0021CC
:1077E000016042F8085D03461068D8601AE0294637
:1077F000164800F099FC0228804624D1F36813B3A0
:107800001420FFF7AFFF0027F2680760426080F89E
:107810000880227A019200956A46034603CA1961DC
:10782000D8603946184607F033FE0CE054F8080FCC
:1078300061686B4603C36946BDF80030ADF802309D
:107840002846FFF78DFF02B0BDE8F081D836002052
:10785000AADF7047ABDF7047ACDF7047ADDF704722
:10786000AEDF7047704710B5044607F02FFC204686
:1078700010BD000070B5644B04461B680361061D13
:1078800096B0304601F0DEF994F8223013F0320160
:1078900001BF94F8232061F3030261F3071284F817
:1078A000232013F00C0101BF94F8242061F303029C
:1078B00061F3071284F8242013F030050ED04FF046
:1078C0000003012262F342038DF806304F4B1B7810
:1078D0008DF8043094F823308DF805301C220021F7
:1078E0000FA808F0E2FB94F822308DF83C3000231A
:1078F0000DB91A4600E001AAADF8083014924FF015
:107900000003012262F3420360698DF80A3094F8A3
:1079100023308DF8083058B103784BB1109009F03E
:107920008DFB02AB80B2ADF84400ADF84600139376
:10793000A37E13B104F11A031293142200210DEB5C
:10794000020008F0B2FB04F12303069394F82530FB
:107950000596DB0754BFE3890023ADF81C30E389AB
:10796000ADF8203005AA04F126030FA90020FFF787
:107970006FFF054610B140F209122CE0637E002B28
:1079800036D00346012262F342038DF80E3094F89C
:107990002330ADF80C008DF80C301D4B18680490A6
:1079A000294614220AA808F080FB0223ADF83030E3
:1079B000ADF8343004AB0A9303AB0B93284604F1C3
:1079C00018030DF102020AA90E93FFF743FF0546C3
:1079D00070B140F223120F490F4809F0A9F9284667
:1079E00007F0D4FE09F0A4F90A2009F0B9F907E07C
:1079F000257B25B92146094800F00EFF00E000254F
:107A0000284616B070BD00BFD4360020F6360300FD
:107A1000F836030035370300D6360300B4370020AC
:107A20000B88502B73B505460C4614D0512B2CD126
:107A30008B79022B03D1436B0BB108319847A379A3
:107A4000012B22D12B6B03B304F10801284602B0AD
:107A5000BDE870401847CA88C38C9A4205D1866B2E
:107A60001EB1CB890A8A1231B047E2886B8D9A42E7
:107A70000BD1EB6B4BB1628AADF80620BDF8061056
:107A8000284602B0BDE87040184702B070BD000043
:107A90001422C281104A127880F8242080F8232012
:107AA00001214FF00102002361F3420203730361DD
:107AB00043610383C0F81A30C0F81E3080F82230CA
:107AC00080F82520C384038583854385036343634E
:107AD0008363C363704700BFF636030013B50446E3
:107AE0008DE806002346064943F8041B9DE8030081
:107AF00083E805002046FFF7CBFF204602B010BD0B
:107B0000C43703000069704701230373704780F88E
:107B100022107047C181704790F8253019B1C1819A
:107B20006FF3000301E043F0010380F82530704754
:107B300080F8231080F824207047816370470A1C66
:107B400090F82530416318BF012262F3041380F8D6
:107B5000253070474161704751F8263F03604B68FC
:107B60004360704737B5C38901919A4228BF1A46CE
:107B700000240094C18CADF800204FF6FF706A46D7
:107B8000FFF76AFE054678B140F2A7120849094896
:107B900009F0CEF8284607F0F9FD09F0C9F80A20E7
:107BA00009F0DEF8204601E0BDF8000003B030BD6A
:107BB000FC360300D636030038B5054608460C46A9
:107BC00009F03CFA214682B22846BDE83840FFF76A
:107BD000C9BF07B502AB022223F8021D1946FFF701
:107BE000C1FF03B05DF804FB30B5044685B0194809
:107BF00001F0B6FB58B3608D48B30223002502950F
:107C00001448ADF808300DF10603039301F0C3FBEF
:107C1000618D02AAFFF722FE43F201439842044617
:107C200002D1ADF8065010E07CB14FF400720A4961
:107C30000A4809F07DF8204607F0A8FD09F078F819
:107C40000A2009F08DF8A0B201E0BDF8060005B0E9
:107C500030BD00BFD836002094370300D63603006D
:107C600008B590F8222002F0100202F0FF0322B1C2
:107C7000FFF7BAFF00F0010008BD184608BD00007C
:107C80002DE9F04390F8223003F010030F4687B03F
:107C9000064603F0FF01002B58D0C489944228BF48
:107CA0001446FFF7DDFF8046002849D02A4801F03E
:107CB00072FB0146284800F059FA03381FFA80F990
:107CC000002C44D0244801F066FB0146224800F015
:107CD0003CFA90B3A1454B464FF0100228BF234613
:107CE000002102A8ADF8063008F0DFF901238DF875
:107CF0000A30F38CADF80830174805970DF10603EC
:107D0000049301F048FB02A9FFF7AAFD054670B1F4
:107D100040F22D221149124809F00AF8284607F0CE
:107D200035FD09F005F80A2009F01AF805E0BDF85C
:107D30000630E41AA4B21F44C2E74FF0000806E080
:107D4000224639463046FFF70DFF00E088464046A0
:107D500007B0BDE8F08300BFD83600205E370300CF
:107D6000D6360300A1DF7047A3DF7047A4DF70475A
:107D700010B5044606F0F8FC0128204603D1BDE802
:107D8000104008F04DB9BDE8104005F083BD002358
:107D900083827047806900F00BB9808A70470000C9
:107DA0002DE9FF410B88CF88382B04460D4600F0A3
:107DB0008480392B03D0362B40F0F080C8E00B7B59
:107DC000012B02D0022B31D0E8E0C36A002B00F077
:107DD000E58090F8342012F0010FCA8923D01046B4
:107DE000FFF7C6FF0646002800F0D880EA8905F1B3
:107DF000100108F034F91820FFF7BAFFE26A426078
:107E000003220272EA89066003920194029601AA93
:107E1000034603CA1961D8601068586100211846EA
:107E200007F036FBBAE010319847B7E0036B002B40
:107E300000F0B48090F834208E8812F0020FCA89C6
:107E400023D01046FFF794FF0746002800F0A680D5
:107E5000EA8905F1100108F002F91820FFF788FF00
:107E6000226B426003220272EA8907600392019446
:107E7000029701AA034603CA1961D86010685861C5
:107E80000021184607F004FB01E01031984769898A
:107E90003046FFF76BFF044600287FD04FF4DB72BB
:107EA0004049414808F044FF204607F06FFC08F0C5
:107EB0003FFF0A2008F054FF70E017B104F11C00E6
:107EC0006AE000F11C060A8A3046394602F021FABF
:107ED00095F80C80B8F1010FF0D0B8F1040F5DD126
:107EE000A06900F065F80146304800F03FF9228DA6
:107EF000A38A053880B2904228BF1046B0B10197DE
:107F0000EA89ADF806302B8AADF80A001344ADF8C3
:107F10000830A069636A8DF80480039300F048F884
:107F200001A9FFF721FF002838D00FE005220290B9
:107F300003908DF80420A069ADF8063001228DF879
:107F4000052000F035F801A9FFF70EFF304623E0C9
:107F5000806900F02DF80146144800F007F9064644
:107F6000002FABD104F11C07EA8905F11001384656
:107F700002F0CFF9238D73B1033EEB89B6B2013E17
:107F8000B34208DBA06900F013F8628DA18A92B2B7
:107F9000FFF7E8FE10B1384602F0D3F904B0BDE8AF
:107FA000F08100BFD4370300D6360300D836002056
:107FB0008088704710B50446043002F060F9012350
:107FC00023804FF6FF73638000232375204610BD86
:107FD000017D10B5044621B9043002F054F90123A3
:107FE000237510BD007D704738B50B88322B0546D0
:107FF0000C461AD0332B2AD0302B40D1CB8823B952
:108000004B896BB10A2211442EE01D491D4808F02E
:108010008FFEE1881C4808F08BFE0A2008F0A0FEC5
:10802000281DBDE8384002F08CB9CB8843B94A8995
:10803000002AF5D0013A02EB820252000C3210E025
:108040000F49104808F074FEE1881048E3E7CB8838
:1080500073B94A89002AE3D0013A02EB4202520086
:10806000083292B204F10A01281D02F052F9D7E752
:108070000349044808F05CFEE1880548CBE738BDB9
:108080000C38030011380300303803004B3803006C
:10809000663803006DDF70477FDF704786DF70470B
:1080A0008FDF704790DF7047B1DF7047B5DF7047F3
:1080B00010B5C822044600210C3007F0F6FF172344
:1080C00003222380E3800123E37023716372A37290
:1080D00062F3061384F8D430072384F8D5301023D4
:1080E000A270227284F8D63084F8D72084F8D82081
:1080F000204610BD01290CBF0088C088704707B515
:108100006846FFF7C7FF02AB9DF8000053F8072D44
:108110000A609B888B80400803B05DF804FB28232D
:1081200003FB0101487B7047282303FB0101887B87
:10813000704710B5282303FB021252F8123F036068
:10814000938883809379837110BD042908B50BD877
:10815000282303FB0101086A38B1662105F01AFEE5
:10816000003018BF012008BD002008BD282303FBF4
:108170000101088A70470000F0B587B004AC1646CC
:108180001F460D4620464FF4285100F041FD8DE872
:10819000C0004FF6FF7303930123029394E80C0091
:1081A0002946024800F0DCF907B0F0BDB4370020E2
:1081B000F0B58E884FF6FF739E4218BF28240B88B7
:1081C0001ABF04FB06040C3400241A2B97B0074690
:1081D0000D4600F0D58019D8132B54D010D8102B91
:1081E00029D0112B40F08E810025606965702570C3
:1081F00005F08CFE6561A06905F088FEA56181E14E
:10820000142B00F0A280192B72D07BE1232B00F0FD
:10821000F88006D8212B00F00481222B00F0268163
:1082200070E1552B00F04481572B00F0C4803C2BAB
:1082300040F06881D2E001232370CB7BA37055F816
:10824000080FC4F806001723A988AA79A380F6B2FC
:10825000282303FB0673618122739B7B012B0CBFD8
:10826000F878787A014605F02AFC282303FB067685
:108270006061B37B012B0CBF3879B87A014605F0F9
:108280001EFCA0613EE106F06FFA01284FF050009D
:1082900002D107F0C5FE01E005F0FCFA05462061B9
:1082A000002800F02F815022002107F0FEFE4FF63B
:1082B000FF732022E381002102A807F0F6FE05F1FA
:1082C0001C030693A3780295012B05F138050CBF1A
:1082D00007F1D402002202AB002130460795FFF7D8
:1082E000DBFE0446002800F00D8140F2531292E0BC
:1082F0000B7A4BB92269A07801236370538AE3811A
:10830000314602F04BF812E07F49804840F2651296
:1083100008F00EFD7E4B297A18689B880290ADF814
:108320000C3002A832238DF80A3008F001FD2569CF
:1083300006F01AFA0128284602D107F079FE01E07A
:1083400005F0B7FA00232361DCE05022002102A8E7
:1083500007F0ABFE02AA298AA07802F091F8034642
:10836000A88843B1002310AA02A9FFF797FEBDF821
:108370001A30E381C6E01A461946FFF78FFEC1E0C6
:108380000B7A112B0DD0E289A078314602F028F942
:10839000034620B9024601463046FFF785FE012319
:1083A0006370606A002800F0AD8000231A46194609
:1083B00005F08EFBA6E06369002B00F0A380002689
:1083C000AA79F3B29A4206F1010640F29B8000239B
:1083D0001A461946606905F07BFBF1E7A369002B9B
:1083E00000F090800026AA7AF3B29A4206F10106C4
:1083F00040F2888000231A461946A06905F068FB00
:10840000F1E7002211463046FFF74CFE04460028F3
:1084100078D04FF4DF723C493E4808F089FC204692
:1084200060E03D4B0FCB02AC84E80F003B493C4879
:1084300008F07EFC6A7A3B4816AB03EB82022B7A8B
:1084400052F8502C16A901EB830353F8501C08F086
:108450006FFC0A2008F084FC002301A930468DF847
:1084600004308DF80530FFF71BFE4BE00B7A33B17B
:108470002A492B4808F05CFC297A2B483DE0264B22
:108480000FCB02AC84E80F002449254808F050FCCB
:10849000AA7A264816AB03EB82026B7A52F8502C6C
:1084A00016A901EB830353F8501C08F041FC26E0A9
:1084B0002822F3B202FB0303C9889B7B012B0CBF6C
:1084C0000388C388994228BF1946A1803046FFF728
:1084D000EDFD054658B140F2ED120B490D4808F08C
:1084E00027FC284607F052F908F022FC07E00B4968
:1084F0000B4808F01DFCA1880D4808F019FC0A2063
:1085000008F02EFC17B0F0BD94380300BB38030010
:1085100049390300D636030084380300DC380300F1
:1085200011380300E0380300FB380300163903005C
:1085300030390300A0DF704738B50446F82500F550
:10854000F87001F09CFE2A460021204607F0ADFDA0
:108550002A460021601907F0A8FD204638BD00001A
:10856000F0B585B08DE80C00BDF83030ADF80C30BA
:10857000BDF83430ADF80E300F466E4600F5F87594
:10858000284601F0C4FE044628B1194800F010FF47
:1085900005F0C2F8F4E70121284601F074FEBDF8A9
:1085A0002C200A99284601F083FE314603AA38465A
:1085B000FFF7C0FF064630B94FF4FA71284601F0C4
:1085C0007CFE04460CE046220A490B4808F0B0FB4A
:1085D000304607F0DBF808F0ABFB0A2008F0C0FBE0
:1085E000284601F059FE24EAE47080B205B0F0BDDF
:1085F000D836002068390300D63603002DE9F04F45
:108600000E888F88A6F11003012B87B005460C4613
:1086100012D84FF000082A785FFA88F39A420BD9F3
:108620009B002B44112E586803680CBF1B685B68C5
:10863000984708F10108EEE7764800F0ACFE874263
:1086400017D14FF028094FF0000A09FB07F90AE09B
:10865000502E13D0512E04D1B4F80880B8F1000F79
:108660000FD10AF1010A95F854205FFA8AF39A4271
:10867000EED805F5A67A4FF000091FE0B4F80680A1
:10868000ECE71633684655F823B05946FFF764FA0D
:10869000BDF80020424500F09980594602A8FFF736
:1086A0005BFABDF80C204245DBD18FE05AF8040F8D
:1086B000FFF770FB874206D009F1010995F84C31AC
:1086C0009945F3DB16E0382E03D0392E01D0362E33
:1086D000F2D1B4F80A80B8F1000FEDD0DAF800B0AA
:1086E0005846FFF75AFB8045E6D121465846FFF72A
:1086F00057FBE1E7112E26D1002495F8F820E3B2CC
:108700009A4201D8002618E005EB8303D3F8FC0059
:108710008388BB4202D103681B6898470134ECE7A9
:1087200005EB8404D4F85001FFF734FB874203D1F2
:10873000D4F85001FFF72BFB013695F84C31F4B219
:10874000A342EDD862E0532E1AD0562E2AD0352EF1
:108750005CD16189002959D0A2890E34231B901C59
:10876000B3FBF0F38B4205F5F87503D2A11C284644
:1087700001F0CFFD284607B0BDE8F04F01F0E1BDA4
:10878000244A282307FB033313441446586820B1B6
:1087900000231A46194605F09BF9282202FB0747D9
:1087A000012310E01B4A282307FB0333134414461C
:1087B000586820B100231A46194605F089F9282285
:1087C00002FB0747002387F828301FE0DBF8002072
:1087D0005846D268214690470E4800F0DFFD002839
:1087E0003FF43FAF502E7FF43CAF594604A8FFF74B
:1087F000B3F9BDF8143043457FF433AF054B4B4418
:1088000039465A8B987B01F0F3FD2AE707B0BDE8A3
:10881000F08F00BFD836002090F85430282B1FBFAF
:108820005A1C163380F8542040F8231014BF01203E
:10883000002070470378132B9FBF5A1C027000EB77
:108840008300416094BF0120002070478ADF704799
:1088500010B5044605F088FF0128204603D1BDE885
:10886000104007F0DDBBBDE8104005F013B810B5AF
:1088700004461F23206283840123002180F82930CD
:10888000802380F8281080F82A3080F82B1081850A
:1088900080F8341001638163C1630E22403007F019
:1088A00004FCA023A4F842305023A4F8443020460E
:1088B00010BD000038B504461F232062A0F8461002
:1088C000838400F120014030FFF7C0FF054670B1FE
:1088D0007B220A490A4808F02BFA284606F056FF80
:1088E00008F026FA0A2008F03BFA002038BD0548B7
:1088F00000F06AFE012084F8280038BDC139030069
:10890000D6360300D836002010B500F12001002033
:10891000FFF79CFF044670B186220849084808F01A
:1089200007FA204606F032FF08F002FA0A2008F0A3
:1089300017FA002010BD012010BD00BFE23903006E
:10894000D636030038B5012A9DF814501BD9487853
:108950000C78984204D1013C0231E4B209D114E010
:10896000E0430244013412F0FF022144EFD11046EB
:1089700038BD15B1AC4228BF2C462246049807F0FA
:108980006EFB204638BD002038BD084638BD37B5DF
:108990009DF818500C7F8DE82800134689692246FF
:1089A000FFF7D0FF03B030BD2DE9F04F8FB002AC20
:1089B00080462046894684E80C0000F034F9C0B2B5
:1089C000102807D102238DF8143003238DF81530B9
:1089D000274606E006238DF81430039F07238DF801
:1089E00015300026C508B2461F22002106A807F050
:1089F0005CFB05AB4946F25CCDF800A006AB4046F7
:108A0000FFF7C5FF0DF1180B04465CB12A46394645
:108A1000584607F015FB08B9012007E0641BAB447A
:108A2000E4B2F2E70136022EDED120460FB0BDE8F7
:108A3000F08F0000F0B50B88112B85B006464CD0A6
:108A400002D8102B3BD095E01B2B5DD01D2B40F0A6
:108A5000918090F92A2091F91B309A4267DC90F8B6
:108A6000343001F1080523B996F82B30002B62D081
:108A700015E0002796F83430FCB2A3420AD9336BD4
:108A800003EBC4030CCB29463046FFF78DFF0137BB
:108A90000028EFD096F83430A342E5D147E0022316
:108AA0000093FF2203AB29463046FFF770FF0028F2
:108AB0003DD0B28DBDF80C309A4238D13BE0CB7B33
:108AC000022B57D1002380F828302B4800F08DFD71
:108AD0000121294800F095FD4CE089882648FFF7E0
:108AE00023FB022846D196F82810002942D12248BB
:108AF00000F087FD96F82930002B3BD0B6F84610E1
:108B00003046FFF7D7FE35E00B7A012B32D1C36B2D
:108B1000002480F828406BB31020FFF799FEF26B19
:108B2000046042600472214606F0B2FC22E0304646
:108B3000FFF7EAFE1EE02420FFF78AFE0746C8B1D1
:108B40000FCD3C460FC40FCD0FC42B682360B36B11
:108B500083B11020FFF77CFEB26B426001220272EB
:108B600004AA076042F8047D03461068D86000211B
:108B70001846D9E705B0F0BDD8360020A8DF704709
:108B80007047000037B500F108040546204600F0A4
:108B900059F821460DF106020120FFF7EFFF0446C8
:108BA00068B145220A490B4808F0C2F8204606F091
:108BB000EDFD08F0BDF80A2008F0D2F805E0064BFC
:108BC00006481D602946FFF735FE204603B030BD3C
:108BD000FC390300D6360300D4360020B437002019
:108BE00013B504468DE806002346064943F8081BE2
:108BF0009DE8030083E8050000232046A38002B01F
:108C000010BD00BF283A030062DF704763DF704782
:108C10000123837000230180436070470023837029
:108C20000380416070478378012B06D0426832B9D7
:108C3000012B8CBF802000207047102070478020BF
:108C40007047000010B5837802460BB1002419E08C
:108C500040680028FAD0911CFFF7D6FF1020516819
:108C6000FFF7D4FF04460028F0D06D2206490748DC
:108C700008F05EF8204606F089FD08F059F80A2051
:108C800008F06EF8204610BD343A0300D6360300D3
:108C90004BDF704710DF704775DF704776DF704736
:108CA00077DF704778DF70477ADF70477CDF704787
:108CB0007DDF7047B1DF704760DF704769DF704765
:108CC00061DF704767DF70472DE9F74303461D4DAD
:108CD0000646894614461C491C484C2208F028F8D0
:108CE0004D221B491B4808F023F828680090B5F86E
:108CF0000480ADF804803827494668468DF8027034
:108D000008F016F84E221249134808F011F82868A6
:108D1000009021466846ADF804808DF8027008F096
:108D200007F8012E0CD15CB10C490D4808F000F891
:108D3000228861680B4807F0FBFF0A2008F010F852
:108D4000FEE700BF49390300FC3A0300093B03007A
:108D5000513E03001B3B03002B3B03003D3B030044
:108D600011380300443B0300132006F0F5BD00005A
:108D700037B5164DD5F8C8034FF0FF3105F00AF8A6
:108D80000028F7D0124C01A8FFF782FF0528F1D088
:108D90000028F8D1019B023B012BF4D80D490E4865
:108DA00007F0C6FF0D4B01990D4802290CBF214663
:108DB000194607F0BDFF0A2007F0D2FF094B002B30
:108DC000E1D0019804F03EFDDDE700BFD836002079
:108DD000563B0300643B0300113803005E3B030075
:108DE000683B030045D8020010B5044605F0BCFC02
:108DF0000128204603D1BDE8104007F011B9BDE8B5
:108E0000104004F047BD10B50446FFF751F904F1D6
:108E1000DC00FFF791FB04F53770FEF78CFB04F5DF
:108E20004570FEF7E5FA04F54D70FFF720FD04F5F7
:108E30006170FEF7A6FC04F56570FFF7BBF804F55A
:108E4000757000F0CFFE4FF400620023C4F8AC232D
:108E50000A22C4F8B03384F8B123012284F8B02385
:108E600084F8D0234FF6FF72A4F824241022A4F82B
:108E7000B6231822A4F8B82384F8B433C82284F89F
:108E8000B53384F8C033C4F8C433C4F8C833C4F865
:108E9000CC33A4F8BA33A4F8BC23A4F8BE33C4F886
:108EA0002834C4F82C34C4F83034204610BD0000F7
:108EB00070B5A44E80F8B4138CB080F8B523054685
:108EC00030680390A04903A8FFF7E4FE044610B100
:108ED00040F20D1210E009909C4A0A900B9095F810
:108EE000B133049209A901208DF82430FFF7E6FE82
:108EF000044670B14FF49F729549964807F018FFE9
:108F0000204606F043FC07F013FF0A2007F028FF75
:108F100082E195F8B43309908DF8253095F8B53392
:108F20008DF8263000330A900B9018BF0123049A65
:108F30008DF8273009A94020FFF7C0FE044610B184
:108F400040F24512D8E795F8B033099063F3000476
:108F50000A900B90049A8DF8244009A9A020FFF7ED
:108F6000ADFE044610B14FF4A772C5E70A900B900E
:108F7000D5F8AC33049A099309A9A120FFF79EFE06
:108F8000044610B140F25312B6E795F8B433002B03
:108F90004CD02A8809900A900B900123ADF8262026
:108FA00009A9049A8DF824302320FFF787FE044690
:108FB00010B14FF4AE729FE795F8B42309908DF885
:108FC0002620AA780A900B90ADF8282009A9049AC7
:108FD0008DF824302020FFF771FE044610B140F2D6
:108FE000631289E7EA7809900A900B908DF82620A1
:108FF00009A9049A8DF824302220FFF75FFE044669
:1090000010B140F2691277E709900A900B908DF841
:109010002430049A2B798DF8263009A92120FFF7F6
:109020004DFE044610B140F26F1265E795F8B53376
:10903000002B4DD00023EA8809930A930B93ADF8D7
:1090400026200223049A8DF8243009A92320FFF753
:1090500035FE044610B14FF4BC724DE795F8B523C8
:1090600009908DF826202A7A0A900B90ADF82820D6
:1090700009A9049A8DF824302020FFF71FFE04462A
:1090800010B140F27F1237E76A7A09900A900B908C
:109090008DF8262009A9049A8DF824302220FFF7A4
:1090A0000DFE044610B140F2851225E709900A90A2
:1090B0000B908DF82430049AAB7A8DF8263009A9EC
:1090C0002120FFF7FBFD044610B140F28B1213E79D
:1090D00004A8FFF7F1FD044658B11F491F4807F0E7
:1090E00027FE1A4A04991E4807F022FE0A2007F0BC
:1090F00037FE1949194807F01BFE0499194807F073
:1091000017FE0A2007F02CFE14B14FF4CD72F3E6DF
:1091100007940894E4B244F0010407A902208DF8F2
:109120001C40FFF7CFFD044610B140F2A112E3E668
:1091300005F2B630FFF7B8FD0446A8B14FF4D3727C
:10914000DAE600BF4C3A0300C98C0200003400206C
:10915000813E0300D6360300833B03001138030031
:10916000873B03002E3C03000CA8337900F8283D10
:109170000B222B49FFF79AFD044610B14FF4D5722C
:10918000BAE6FFF78FFD044610B14FF4D672B3E68E
:1091900005F5757000F048FD95F8B5331BB105F580
:1091A0006170FEF7F9FA03220021012004F06AFC45
:1091B000C5F8C40308B904242EE005AB03240193C9
:1091C0004FF4C062002317490094174805F027F8B0
:1091D00022460021012004F055FCC5F8C8030028F0
:1091E000E9D006AB019300940023C8220F49104830
:1091F00005F015F80F4B4FF480021A600E4B0093E8
:10920000002301224FF48071184605F0E5FBC5F8F4
:10921000CC0301F015F9002420460CB070BD00BF4E
:10922000503C03001350030081950200643B03008F
:10923000718D020000E100E0698D020037B5084B36
:1092400002AC1B7904F8043D08460D4607F0F6FE13
:10925000294682B22046FFF729FD03B030BD00BF8A
:109260004C3A030013B5084602A921F8022DFFF776
:109270001FFD044678B14FF4F0720949094807F020
:1092800057FD204606F082FA07F052FD0A2007F04B
:1092900067FD002001E09DF8060002B010BD00BF90
:1092A000C83A0300D63603007FB5194A05460C4676
:1092B00010685168127A01AB03C31A70002301AA27
:1092C000D156A14203D00133092BF9D119E0B5F8E9
:1092D00024144FF6FF73994215D022460320FFF75E
:1092E000DFFC064678B140F2F7120A490A4807F057
:1092F0001FFD304606F04AFA07F01AFD0A2007F073
:109300002FFD002002E085F8C043012004B070BDAD
:10931000513A03006C3A0300D636030090F9C003BB
:10932000704773B50446D0F8CC030E4605F092FCA6
:1093300000230546B6024FF47A720093B6FBF2F2B0
:109340000421D4F8CC0305F065FB3DB900952B460C
:109350002A460321D4F8CC0305F05CFB02B070BDB3
:10936000B0F824044FF6FF73C01A18BF01207047ED
:10937000B0F8240408B54FF6FF73984206D01321C5
:10938000FFF78CFCB0FA80F0400908BD012008BD51
:10939000C0F828147047B0F824047047B0F82414BB
:1093A0004FF6FF73994201D0FEF7B9BE0020704717
:1093B000B0F8BE037047000010B5064C0021D4F889
:1093C000C80304F044FCD4F8C4030021BDE81040F5
:1093D00004F03DBCD8360020F7B50D4604468E8813
:1093E0006248634907F0A4FC288806F0BBF93246BE
:1093F0000146604807F09CFC0A2007F0B1FC2946B2
:109400002046FEF7D5FE294604F53770FEF742F9EF
:1094100004F54D702946FFF70DFBB4F824042B88A2
:10942000864205D0102B01D01B2B5FD1112B01E000
:10943000112B3CD002D8102B0AD057E0122B32D07F
:10944000522B53D100231A461946FFF733FC4DE047
:10945000EB7B012B4AD12B8AB4F8B623A888A4F859
:1094600024049A42A4F8BE3367D8B4F8B8239342D0
:1094700063D8D4F82834002B38D01020FFF7B4FC80
:10948000D4F82824426001220272002102AA034675
:109490000160B4F8240442F8080D1068D86018463A
:1094A00005F0F6FF22E02B89A4F8BE331EE0D4F8C5
:1094B0002C34BBB11420FFF797FCD4F82C24426065
:1094C0000222027200270760B4F8242400922A7A4C
:1094D00001926A46034603CAD860196118463946A4
:1094E00005F0D6FF4FF6FF73A4F8243494F8B53393
:1094F00063B1B4F82434B34203D14FF6FF739E42F4
:1095000004D1294604F56170FEF74CF904F565763F
:109510003046FEF767FD18B129463046FEF764FD78
:10952000294604F1DC00FFF769F8D4F83034DBB1E8
:10953000284603B0BDE8F04018470021FFF7ACFB18
:109540000746002895D040F216320B490B4807F029
:10955000EFFB384606F01AF907F0EAFB0A2003B0E1
:10956000BDE8F04007F0FCBB03B0F0BD11380300CC
:10957000135003005C3C0300973A0300D636030007
:1095800073B54FF4FA70FFF72FFC0E4E04464FF000
:10959000FF31D6F8C40304F0FDFB0028F7D04FF4E8
:1095A000FA750DF106012046ADF80650FFF788FB6D
:1095B00020B921460348FFF70FFFF2E70528E6D060
:1095C000EFE700BFD836002090F8D03313B553B181
:1095D000D0F8CC4304F090FE002302460093012112
:1095E000204605F017FA02B010BD07B5002300931E
:1095F0001A460321D0F8CC0305F00CFA03B05DF84D
:1096000004FB90F8D03313B1132006F079B97047FA
:1096100030B5BE4D2DED028B95F862308DB004460D
:10962000002B00F0B881D0F8C433002B00F0B381D8
:10963000B749284603F00CFEB64AB749284603F05E
:1096400011FE0A2294F8B113284603F050FEB34AE3
:10965000B149284603F006FE0A22D4F8AC13284686
:1096600003F04FFEAE4AAC49284603F0FBFD0A2248
:1096700094F8B013284603F03AFE94F8B433002B64
:109680003BD0A849284603F0E3FDA749284603F04C
:10969000CFFDA64AA049284603F0E4FD0A2221880E
:1096A000284603F05AFEA049284603F0C1FDA04A0F
:1096B0009949284603F0D6FD0A22A178284603F0EE
:1096C00016FE9949284603F0B3FD9A4A9249284666
:1096D00003F0C8FD0A22E178284603F008FE92490B
:1096E000284603F0A5FD944A8B49284603F0BAFDAD
:1096F0000A222179284603F0FAFD94F8B533002BAD
:109700003BD08E49814803F0A3FD87497F4803F091
:109710008FFD864A80497D4803F0A4FD0A22E18836
:109720007A4803F01AFE8049784803F081FD804AA8
:109730007949764803F096FD0A22217A734803F0AE
:10974000D6FD7949714803F073FD7A4A72496F4832
:1097500003F088FD0A22617A6C4803F0C8FD724963
:109760006A4803F065FD744A6B49684803F07AFD66
:109770000A22A17A654803F0BAFD7149634803F0F3
:1097800067FD04AD6F4A6449604803F06BFD202219
:109790000021284606F089FC202229462046FFF7B2
:1097A00061FD2946594803F05DFD584803F048FD26
:1097B000654A5949554803F055FD94F8B423634967
:1097C0005248003218BF012203F04CFD94F8B53323
:1097D0005F494E48002B14BF0422002203F042FDD3
:1097E0004A4803F02DFD5B4A4B49484803F03AFDD7
:1097F000594B0FCB85E80F0002A92046FEF77FFCEE
:1098000000230546009306223A2302A93F4803F0AD
:10981000AFFD0CAB03EB8505504955F8202C3B48B8
:1098200003F020FD394803F00BFD4D4A3A49374813
:1098300003F018FD94F9C0234A49344803F012FD9F
:10984000324803F0FDFC484A3349304803F00AFD32
:10985000B4F8B63307EE903AF8EEE77AB7EE048A3A
:1098600067EE887A17EE900A06F0F4FA02460B4685
:1098700026483E4903F0F6FCB4F8B83307EE903AB8
:10988000F8EEE77A67EE887A17EE900A06F0E2FAC9
:109890000B46024636491D4803F0E4FC1B4803F022
:1098A000CFFC344A1C49194803F0DCFCB4F8BC3343
:1098B00007EE903AF8EEE77AB2EE047A67EE877A2E
:1098C00017EE900A06F0C6FA0B4602462A490F48E0
:1098D00003F0C8FC0D4803F0B3FC94F8B43353B163
:1098E000264A0D49094803F0BDFC084803F0A8FCCE
:1098F000012000F001FE94F8B533002B48D0204A37
:109900000549024803F0AEFC3CE000BF9C3B002050
:10991000723C0300983C0300A43C0300AC3C0300F1
:10992000BC3C0300CC3C0300E73C0300EC3C0300E0
:10993000F43C0300013D0300103D0300213D030002
:10994000393D03005B3D0300603D0300703D0300B3
:10995000823D0300903D03005C3A0300983D030004
:109960009E3D0300A73D0300AE3D0300BD3D030047
:10997000CD3D0300DB3D0300D33D0300E83D030084
:10998000023E0300064803F05BFC022000F0B4FD39
:10999000034803F055FC0DB0BDEC028B30BD00BF99
:1099A0009C3B00200148FFF733BE00BFD8360020A3
:1099B00010B5054C2046FFF726FA2046034A044915
:1099C000BDE8104006F0AEBAD836002000340020C2
:1099D000D599020010B5054BC0F8D433044600F504
:1099E0007970FDF73FFF204610BD00BFE83E030041
:1099F0003CDF70473DDF704711DF704713DF704772
:109A0000B0DF7047B2DF7047F0B59DB00C880746F5
:109A10000D46014608A8FEF79FF8BDF82030A34286
:109A200040F0C980AB79043B022B40F2C480634E06
:109A30003046FFF7B0FC1022044600210DEB020077
:109A400006F033FB022338468DF81030FEF708F994
:109A500040B940F2FD1304A92046ADF81430FFF7D9
:109A6000CFFFA8E0002304A92046ADF81430FFF78B
:109A7000C7FF2F7B012F40F09E80514D19463E229B
:109A8000284606F012FB1CAA082322F8623D4D4925
:109A90003B462046FFF7B6FF224631466846FEF7B2
:109AA00048FB00982860BDF804209DF80630AB7193
:109AB000AA8021463046FEF732FB10B3282303FB71
:109AC000046408AA618B384600F0DAFCC8B11AAC0D
:109AD00094E803003C4AA980090C2860A97116ADDE
:109AE0002B4603CBA342106051601D4602F10802D1
:109AF000F6D108AC0FCC354D0FC594E8070085E8CA
:109B000007002F48324C4FF6FF7110F8012B82EA04
:109B1000112383EA13139AB243EA012383EA02333F
:109B200083EA4213A04299B2EFD1254B2948998785
:109B30000021FDF722FD2148FFF71AFCFF2100203C
:109B4000FFF758FFB1210020FFF752FF044608B18C
:109B5000A32204E0FFF750FF044668B1A4221E4987
:109B60001E4807F0E5F8204605F010FE07F0E0F883
:109B70000A2007F0F5F81EE0194B4FF48002C3F8F5
:109B800080210124420900F01F012032013004FA33
:109B900001F1272843F82210F4D14FF0102358691F
:109BA000FFF72CFF044608B1B922D8E780F31488E8
:109BB000586900F069FE1DB0F0BD00BFD836002026
:109BC000807F0020B47F0020877F0020987F0020C6
:109BD000BC7F0020B4390020043F0300D6360300C8
:109BE00000E100E073B505460C496846FFF716F83A
:109BF0002E469DE806002846FEF7F2FF084B46F881
:109C0000103B68460749FFF709F89DE80600304613
:109C1000FDF764FF284602B070BD00BFB23E0300EE
:109C2000E83E0300F43E030070B5A2B00646FEF71E
:109C3000A9FF044668B1C9223E493F4807F078F8B9
:109C4000204605F0A3FD07F073F80A2007F088F816
:109C50006DE012AD39492846FEF7E0FF95E80600B1
:109C600002A8FDF73BFF02A8FDF74EFF042102A862
:109C7000FDF74DFF142102A8FDF74CFF02A8FDF7E8
:109C8000F9FD044608B1D02213E006F11004204685
:109C90001821FDF73CFF20461721FDF73BFF20462A
:109CA0002749FDF74CFF2046FDF7E4FD044668B167
:109CB000D5222049204807F03BF8204605F066FDF4
:109CC00007F036F80A2007F04BF82DE01D496846EA
:109CD000FEF7A4FF9DE806002846FDF7FFFE284694
:109CE000FDF712FF02212846FDF711FF0221284649
:109CF000FDF712FF2846FDF7BDFD044668B1DB22E3
:109D00000C490D4807F014F8204605F03FFD07F018
:109D10000FF80A2007F024F803E001212846FDF798
:109D200058FF2846FDF79EFD02A8FDF79BFD204643
:109D300022B070BDC23E0300D6360300543F03007C
:109D4000099A0200643F030037B5044641F60A0150
:109D50006846FEF75DFF9DE806002046FEF740FFDF
:109D6000074B2360074B236100236361A361E36119
:109D7000054B2362054B6362204603B030BD00BF34
:109D8000B83F0300743F03005A4D030043350300FE
:109D90000161704741627047F0B593B00446FEF729
:109DA000F1FE054668B14F222C492D4806F0C0FF50
:109DB000284605F0EBFC06F0BBFF0A2006F0D0FFBA
:109DC00048E005F03FFD606105F006FD0C34E06001
:109DD00042F624266F4654F8043F002B33D0314618
:109DE0003846FEF715FF97E8060002A8FDF776FE55
:109DF00002A8FDF789FE022102A8FDF788FE20686F
:109E000007F01CF981B202A8FDF786FE02A8FDF753
:109E100031FD054680B15E221049114806F088FFE9
:109E2000284605F0B3FC06F083FF0A2006F098FFF1
:109E300002A8FDF717FD0DE0216802A8FDF7BCFEA2
:109E400002A8FDF70FFD0136B6B242F62A239E4264
:109E5000C1D10025284613B0F0BD00BF8F3F0300DD
:109E6000D636030007B5036801229B690DF107018F
:109E7000984710B19DF8070001E04FF0FF3003B0A4
:109E80005DF804FBA0F11000FFF7ECBF13B502ABC7
:109E9000026803F8011D146A19460122A04702B0A6
:109EA00010BDA0F11000FFF7F1BFD0F8A0309889E5
:109EB00080B27047A0F11000FFF7F7BF70B50D46F4
:109EC0001646FDF71FFE044632462946D0F8A0008C
:109ED00005F0ABFBD4F8A83013B1BDE870401847CB
:109EE00070BD37B50546D0F8B40080B100240094A9
:109EF00023462246052104F08DFDD5F8AC00C5F8B7
:109F0000B44020B103B0BDE8304005F04CBB03B015
:109F100030BDD0F8A00005F046BBA0F11000FFF75F
:109F2000F8BF08B592B2D0F8A00005F0BFFB08BD9D
:109F300007B5D0F8A0000DF1070105F0D1FB10B175
:109F40009DF8070001E04FF0FF3003B05DF804FB1F
:109F5000A0F11000FFF7ECBF37B590F8B030044621
:109F60009BB10B4B0093012203460A21002004F011
:109F700033FDC4F8B400054604F0BEF900230246E0
:109F800000930121284604F045FD03B030BD00BF19
:109F900085A00200F7B504460F4668461A49FEF749
:109FA0003DFE9DE806002046FEF71AFE4FF47A7348
:109FB000A361164B1649002603F1080240332361C2
:109FC000226068466661FEF729FE9DE8060004F1FE
:109FD0002000FDF783FD68460E49FEF71FFE9DE851
:109FE000060004F16000FDF779FD2046C4F8A0608A
:109FF000C4F8A860A4F8A470C4F8AC6084F8B06099
:10A00000C4F8B46003B0F0BDD43F0300E43F0300E4
:10A01000C43F03003C40030070B506461848FFF7F4
:10A02000BAF901461648FEF7A1F8033885B204F0E4
:10A030009BFB0128284602D105F0F2FF01E003F066
:10A0400029FC0446D8B12A460146D6F8AC0005F0F2
:10A050002DFB024630B1214606F12000FDF710FE2F
:10A06000054600E0012504F07FFB0128204602D1CF
:10A0700005F0DEFF01E003F01CFC284670BD70BD5A
:10A08000D836002008B504F0F1FDD0F8AC301BB193
:10A09000BDE80840FFF7C0BF08BD00002DE9F0474C
:10A0A00090F8B03005468946174600F1200813B1F4
:10A0B000D0F8AC303BB9BAB249464046FDF7E0FDB6
:10A0C000F0B900242EE04046FDF7CAFD0028F8D084
:10A0D000BEB232464946D5F8AC0005F0A6FAD5F82E
:10A0E000AC3004461148B3F80CA0FFF754F9014610
:10A0F0000E48FEF73BF81FFA8AFA0338824501DA68
:10A100003C460FE02846FFF787FF0028D9D0A7423A
:10A11000F6D9321B92B209EB04014046FDF7B0FDBF
:10A120000028EDD12046BDE8F08700BFD8360020DA
:10A13000A0F11000FFF7B2BF0A4B10B5036038332F
:10A1400004460361D0F8AC0010B103685B6898471F
:10A1500004F16000FDF786FB04F12000FDF782FBAF
:10A16000204610BDEC3F030010B50446FFF7E4FFA6
:10A17000204604F0ABFF204610BD0000F8B50446B1
:10A18000182004F0A1FF00220546012105F0D6F9B0
:10A190002846C4F8A050B4F8A41005F0ECF9204605
:10A1A000FEF7F0FC054610B11034B3233DE0012169
:10A1B0002748FDF79FFF04F120060746102130468F
:10A1C000FDF7A5FC2A4611213046FDF7B1FC3946C2
:10A1D0003046FDF79FFC1F493046FDF7BBFC30467B
:10A1E000FDF748FB054610B11034BD231DE004F116
:10A1F00060060C213046FDF78AFC17493046FDF712
:10A200009CFC112229463046FDF792FC3946304627
:10A21000FDF780FC11493046FDF79CFC3046FDF708
:10A2200029FB054688B11034C7230D4A0D49204645
:10A2300003F018F8284605F0A9FA0146204603F075
:10A2400011F80949204603F00DF82846F8BD00BF73
:10A25000D83600204C400300BD9E02005040030051
:10A2600054400300D6360300244A03000123037040
:10A270000023437043608360C3818381704708B5C6
:10A28000FFF7F4FF08BD10B50446217019B90A2084
:10A2900003F015FC606010BD037810B5044613B9D7
:10A2A000406803F033FE2046BDE81040FFF7DEBFF4
:10A2B000002381608281C3817047037870B50546B1
:10A2C0000C466BB90123A4024FF47A716B70B4FB96
:10A2D000F1F1686803F05EFD68B94FF0FF340CE0FF
:10A2E00003220021012003F0CDFB68600028E9D1A2
:10A2F0004FF0FF3070BDEC89A4B22B7800266E7051
:10A300001BB1686803F002FE6E60204670BD4078A5
:10A31000704738B585899542044628BF154619B15E
:10A320002A46806805F09BFEA3682B44A360A3899E
:10A330005B1BA381E38915FA83F39BB2E381284673
:10A3400038BD406820B100231A46194603F0C0BB4F
:10A350007047B1DF7047B2DF7047000010B4054BA3
:10A36000054C01290CBF214619465DF8044B06F047
:10A3700001BE00BFC1400300A840030010B5044661
:10A3800004F0F2F90128204603D1BDE8104005F0A1
:10A3900047BEBDE8104003F07DBA0000F0B50646A8
:10A3A00085B050200D461746FFF7E8FF0446D8B1A8
:10A3B0005022394605F053FE1820FFF7DFFF0B4A05
:10A3C00042600322027201960295039401AA034699
:10A3D000046003CAD86010681961586100211846EA
:10A3E00005F056F80120FFE705B0F0BD91A7020087
:10A3F000F0B54FF6FF739A4285B007460E461546F4
:10A400004FF0000417D01820FFF7B8FF0B4A426046
:10A410000322027201970296039501AA0346046083
:10A4200003CAD8601068196158612146184605F0C2
:10A430002FF8012000E0204605B0F0BDC1A60200C3
:10A4400008B50C4800F04AFD0B490A4800F099FB9A
:10A4500018B90949074800F051FC0849054800F0BF
:10A4600090FB28B905490348BDE8084000F046BC08
:10A4700008BD00BF0C3B0020DA400300EE400300A3
:10A4800030B591B015460A46014601A8FFF766FFB0
:10A490000F4B002201A908A800F0F2FA08A800F06A
:10A4A00003FB044608B900240CE008A800F04EFAAB
:10A4B00050280246F7D1294608A800F037FA08A824
:10A4C00000F09CFA08A800F0E1F9204611B030BD78
:10A4D0000C3B002038B5044600F038FA051E08DDB4
:10A4E000204600F056FA2918204600F041FA0120D3
:10A4F00038BD002038BD0000B0B53549354C364B6D
:10A5000098B000AF012808BF21460022384600F06D
:10A51000B7FA314907F1200000F0F8F90022394676
:10A5200007F1400000F0D2FA07F1400107F12000E6
:10A5300000F078FA00F0B8FA044607F1400000F0A5
:10A54000A5F984B307F1200000F0BEFA30BB07F193
:10A550002000FFF7BFFF08B307F1200000F0F6F975
:10A56000021E1BDDD31D23F007036C46ADEB030D6C
:10A57000694692B207F1200000F0D8F907F12000F7
:10A5800000F097FA054607F1200000F023FA6A462A
:10A5900003462946114806F0CBFBA54607F12000EB
:10A5A00000F02CFABAE70A2006F0DAFB07F12000E7
:10A5B00000F024FA384600F021FA07F1200000F0FC
:10A5C00065F9384600F062F96037BD46B0BD00BF9E
:10A5D000EE400300DA4003000C3B00200241030080
:10A5E000F0B54FF6FF7391B09A420E4600AF0BD113
:10A5F0002849294806F09CFB284806F099FB0A20C8
:10A6000006F0AEFB002440E00146381DFFF7A6FE31
:10A61000234B0022391D07F1200000F031FA07F129
:10A62000200000F041FA08B9002424E007F12000DE
:10A63000FFF750FF07F12000FFF74CFF07F1200064
:10A6400000F084F90028EFDDC31D23F0070384B276
:10A650006D46ADEB030D2246694607F1200000F080
:10A6600065F92246694603233046FFF772FEB0FAC9
:10A6700080F46409AD4607F1200000F0BFF907F14E
:10A68000200000F003F9002CB2D020464437BD462C
:10A69000F0BD00BF18410300113803001D41030045
:10A6A0000C3B002070B505460E461446D1B200F0B2
:10A6B000EEF8224631462846BDE8704000F015B954
:10A6C0002DE9F04391B000AF07F140040E460021A0
:10A6D00024F83E1D03238046914630462246FFF76C
:10A6E0003AFE7B886D46002B46D0073323F00703E4
:10A6F000ADEB030D2246032369463046FFF72BFEE0
:10A70000044668B1AA221F491F4806F011FB2046E3
:10A7100005F03CF806F00CFB0A2006F021FB2BE0CC
:10A720004A464146381DFFF719FE184B0122391DD4
:10A7300007F1200000F0A4F907F1200000F0B4F9BF
:10A74000B0B1214607F1200000F012F907F1200016
:10A75000FFF7C0FE07F12000FFF7BCFE07F1200065
:10A760007A886946FFF79EFF07F1200000F046F95E
:10A7700007F1200000F08AF84437AD46BD46BDE839
:10A78000F08300BF73400300D63603000C3B00206B
:10A7900030B5144601289DB00CBF528AE28D0D469B
:10A7A000014605A8FFF7DAFD05A9254800F0E9F9FB
:10A7B00018B105A9224800F009FB214B012205A987
:10A7C0000CA800F05DF90CA800F06EF9002832D05A
:10A7D000502221460CA8FFF765FF2022002114A873
:10A7E00005F063FC202314AA29461648FDF7C4FC93
:10A7F0009DF850309BB994F84910039194F84A1091
:10A80000029194F84B10019194F84C10009194F837
:10A810004D3094F84E200C4914A806F0ABFB14A858
:10A8200006F00CFC421C92B20CA814A9FFF73AFFE8
:10A830000CA800F0E3F80CA800F028F81DB030BD1B
:10A840000C3B0020D836002034410300F0B503460D
:10A85000186880F308885868FF2464B2EFF3058510
:10A86000002D01D1A64600472546064621273FBABE
:10A87000F0B40024002500260027F0B4F92040B2EF
:10A88000004700BFF0BD00BFFFF7E0BF704707B54E
:10A89000027F8DF8071032B9036801225B680DF161
:10A8A0000701984700E0002003B05DF804FB10B5F5
:10A8B000044604F00BFC204610BD10B5044603F01E
:10A8C00053FF0128204603D1BDE8104005F0B0BB7E
:10A8D000BDE8104002F0EDBF027F034622B90069D7
:10A8E00059690268926A104770471346027F30B474
:10A8F00042B904692268156A0A46AC464169204695
:10A9000030BC6047002030BC7047000010B54FF4E9
:10A910007A7400228460044C4260046001614261E8
:10A920008261027710BD00BF5C4103001346027FC5
:10A9300030B442B904692268556A0A46AC46416996
:10A94000204630BC6047002030BC7047037F07B50D
:10A9500013B14FF0FF3008E001220DF10701FFF7BE
:10A96000E5FF0028F5DD9DF8070003B05DF804FB66
:10A970000A46017F10B4034639B9006901680C6BBF
:10A98000596923465DF8044B184700205DF8044BD5
:10A990007047027F034622B9006959690268526B09
:10A9A00010470020704738B5037F05467BB9036820
:10A9B000DB68984704462846FFF7EBFF08B1411EC5
:10A9C00000E001462846FFF7D3FF204638BD4FF090
:10A9D000FF3038BD027F034622B900695969026819
:10A9E000926B10470020704738B50546FFF7F2FF1D
:10A9F00004462846FFF7CDFF201A38BD416910B53F
:10AA0000044639B10069227F0368DB6A98476069B0
:10AA1000FFF753FFA06908B1FFF74FFF0023636101
:10AA2000A36110BD38B5436905460C460BB1FFF76D
:10AA3000E5FF21462B4604F1200251F8040B43F8B0
:10AA4000040B9142F9D1284638BDF0B5436989B06D
:10AA500004460E4617460BB1FFF7D0FF21690B687D
:10AA600032465D6868463B46A84769462046FFF780
:10AA7000D9FF6069003018BF012009B0F0BD0000A7
:10AA800070B54FF47A7600258660064E4560044620
:10AA900006600361456185610577FFF7D6FF2046B3
:10AAA00070BD00BF5C4103004069003018BF012049
:10AAB000704710B584692F21204606F0C7FA08B107
:10AAC000013010BD204610BD007F70470B7F73B56D
:10AAD00005461BB90969FFF719FF07E00C692368F0
:10AAE0000092DE6B4A698B692146B047284602B066
:10AAF00070BD704708B502F0B1FE002008BD08B572
:10AB000001F55A6102EBC110029A194602F0ACFE3F
:10AB1000002008BD08B501F55A6102EBC1111846C5
:10AB2000029A02F0A9FE002008BD10B5044604F008
:10AB3000CDFA204610BD08B53C30002301F080FD61
:10AB4000C043C00F08BD10B5044603F00DFE012838
:10AB5000204603D1BDE8104005F06ABABDE81040B8
:10AB600002F0A7BE10B5044603F0FEFD0128204602
:10AB700003D1BDE8104005F053BABDE8104002F023
:10AB800089BE00B5C3B06A463C3001F02DF9B0FA79
:10AB900080F0400943B05DF804FB08B53C3001F09B
:10ABA0002BFB20EAE07008BD3C3001F0E4BC3C30F7
:10ABB00001F00EB93C3001F00DB93C300AB101F0A2
:10ABC00082B801F0E5BF000010F1140F08B502468D
:10ABD0002DD013DC10F11C0F2FD007DC10F1340F37
:10ABE0001FD010F1270F2AD1194808BD10F1160FF8
:10ABF00021D010F1150F22D1164808BD10F1090F10
:10AC000017D007DC10F1110F0FD010F10C0F16D177
:10AC1000114808BD811C06D0B8B1431D0FD10F48A3
:10AC200008BD0F4808BD0F4808BD0F4808BD0F48B4
:10AC300008BD0F4808BD0F4808BD0F4808BD0F49A3
:10AC40000F4806F097F90E4808BD0E4808BD00BF32
:10AC50007A4303006C430300B4430300264303001C
:10AC600031430300414303004F4303005D430300AE
:10AC70008B43030098430300A6430300533B0300A8
:10AC8000903B00201B43030070B5054679B905F1E0
:10AC90003C0604352946304602F088F8044688B15F
:10ACA000E6221449144806F043F8204616E04FF413
:10ACB000DA24204604F5805402F0EAFDB4F5E82FCA
:10ACC000F7D1E4E72946304601F0CCF8054670B1EB
:10ACD000E7220849084806F02BF82846FFF774FFDA
:10ACE00006F026F80A2006F03BF8002070BD01208F
:10ACF00070BD00BFBB410300D63603002DE9F0470D
:10AD00000B782F2B804600AF0D460CBF481C084621
:10AD10004FF0000A2F2106F060F90446A0B3421B51
:10AD200002F1080323F00703E946ADEB030D6E467D
:10AD30008DF800A06B460DEB02018B4202D003F8A8
:10AD400001AFFAE72946304605F089F9314608F1A6
:10AD50003C0002F0C1F8064698B110F1110F10D076
:10AD600040F253121749184805F0E2FF3046FFF74A
:10AD70002BFF05F0DDFF0A2005F0F2FFCD46002095
:10AD80001CE0601CCD46C5E7294608F13C0002F0F6
:10AD9000A3F8054688B110F1110F0ED040F25D12F4
:10ADA0000849094805F0C4FF2846FFF70DFF05F0E4
:10ADB000BFFF0A2005F0D4FFE1E70120BD46BDE852
:10ADC000F08700BF63420300D636030010B53C3065
:10ADD00002F084F9044678B14FF4B3720749084889
:10ADE00005F0A6FF2046FFF7EFFE05F0A1FF0A20C1
:10ADF00005F0B6FF002010BD012010BD184403006F
:10AE0000D636030010B53C3002F068F9044668B14C
:10AE10004FF4B6720649074805F08AFF2046FFF74F
:10AE2000D3FE05F085FF0A2005F09AFF012010BD32
:10AE30008D420300D636030010B53C3002F04EF9C7
:10AE4000044668B140F275120649074805F070FFE4
:10AE50002046FFF7B9FE05F06BFF0A2005F080FFE2
:10AE6000012010BD43440300D636030010B53C302A
:10AE700001F040FE044678B140F2851207490848C7
:10AE800005F056FF2046FFF79FFE05F051FF0A2010
:10AE9000BDE8104005F064BF10BD00BFB74203001D
:10AEA000D636030010B53C3000F082FF044678B17E
:10AEB00040F2CB120749084805F03AFF2046FFF759
:10AEC00083FE05F035FF0A20BDE8104005F048BFBD
:10AED00010BD00BFE7430300D636030038B590F835
:10AEE00080500446BDB9012380F88030011D3C30FC
:10AEF00000F0B8FF34300ED10849094805F018FFBA
:10AF0000084805F015FF0A2005F02AFF23682946A6
:10AF1000DB6920469847012038BD00BFC2430300CB
:10AF200011380300C943030073B501F55A61CD011F
:10AF30000024FF26601901220DF1070101348DF86C
:10AF4000076002F091FC802CF4D1002002B070BDAB
:10AF50000E4B10B538220446002140F8043B05F0A2
:10AF6000A4F80B4BA3600B4BE3600B4B23610B4B23
:10AF700063618023A361E3612362E022A362002373
:10AF8000626284F88030204610BD00BF7844030020
:10AF900015AB0200FFAA020029AF0200F5AA0200C9
:10AFA0002DE9F843984605460E461746FFF7AEFCD6
:10AFB000B8F1000F05D0B8F1010F39D140F20319F3
:10AFC00001E04FF001093820FFF7CCFD044678B3CB
:10AFD0003C364B463A462146304602F078F88146E8
:10AFE00080B12046FFF7AFFDFD221349134805F05D
:10AFF0009FFE4846FFF7E8FD05F09AFE0A2005F09F
:10B00000AFFE15E0B8F1010F05D10246022321463B
:10B01000304601F015FB00232B776C61384606F0B3
:10B020000DF80130FFF79EFD3946A86105F0EDFFF0
:10B030002846BDE8F88300BFDE420300D636030091
:10B04000F8B50F4615460446FFF760FC2C20FFF7C5
:10B0500089FD2A460146064607F13C0000F00AFE3B
:10B06000074688B13046FFF76EFD40F219120E49CF
:10B070000E4805F05DFE3846FFF7A6FD05F058FEC8
:10B080000A2005F06DFE0CE0012323776661284657
:10B0900005F0D4FF0130FFF765FD2946A06105F0FA
:10B0A000B4FF2046F8BD00BF30420300D63603008F
:10B0B00010B5054C2046FFF74BFF2046034A0449D4
:10B0C000BDE8104004F02EBF0C3B002000340020EF
:10B0D000F3AA02002DE9F0410C46CAB01546984685
:10B0E0000646FFF713FC08AA294604F13C0000F0CD
:10B0F0007BFE074648B99DF82030112B0AD02A461E
:10B1000021466846FFF79CFF0AE0831C10D1B8F186
:10B11000010F1BD143462A4621466846FFF740FFF0
:10B1200069463046FFF77EFC6846FFF7AFFB0DE04F
:10B1300040F239120749084805F0FAFD3846FFF792
:10B1400043FD05F0F5FD0A2005F00AFE30464AB041
:10B15000BDE8F0817C410300D63603002DE9F043C1
:10B16000CBB000AF80460E4691461D46FFF7CEFBA2
:10B1700007F12002494606F13C0000F0B3FD01282A
:10B1800004460ED107F128012F4805F034FF0028AE
:10B19000EED007F128012D4805F02DFF0028E7D05B
:10B1A00010E0002849DA40F2C3122949294805F085
:10B1B000BFFD2046FFF708FD05F0BAFD0A2005F0A7
:10B1C000CFFD3AE0284605F039FF044607F1280094
:10B1D00005F034FF2044093020F00700E946ADEBCC
:10B1E000000D2946684605F010FF2B782F2B6C4682
:10B1F00001D16B781BB11849204605F0DFFE07F13D
:10B200002801204605F0DAFE97F82030112B07D1EF
:10B2100097F84831224631463846FFF7C1FE04E030
:10B22000224631463846FFF70BFF39464046FFF7C6
:10B23000F9FB3846FFF72AFBCD46404607F59677DF
:10B24000BD46BDE8F08300BFA8350300A735030065
:10B25000DF410300D6360300E543030003681A6AA2
:10B26000C36AD31A1944B1FBF2F302FB1311036B47
:10B27000994210B50BD24C09C26B012301F01F019A
:10B2800003FA01F152F82430194342F82410002047
:10B2900010BD0368013304D04068431C5842584134
:10B2A00070470120704710B50B6804689C4209D0B4
:10B2B00040684A68904205D0944203D0181A18BFDB
:10B2C000012010BD002010BD03689B6A10B5044624
:10B2D00013B9C06902F0EDFA2368DB6A13B9A06AFA
:10B2E00002F0E7FA23681B6B23B9E06BBDE810405E
:10B2F00002F0DFBA10BD00002DE9F04F9846036858
:10B300001B6A85B0434582460F4691460E9C0F9EB0
:10B31000109D28D8354B364A3648122104F008FED5
:10B32000DAF80000B9F1000F20D0D9F800309845C4
:10B330001CD1D9F80410A14218D8836901EB030B82
:10B340005C4513D2C4EB0B0BAB45D9F8083028BFD2
:10B35000AB46611A30465A46194404F080FE5E44FA
:10B360005C44CBEB0505002DDAD13BE03B6898450A
:10B370000FD179688C420CD3436901EB030B5C4518
:10B3800007D2C4EB0B0BAB4528BFAB46611ABB68B9
:10B39000E0E74369B4FBF3F203FB1242AAB99D4212
:10B3A00013D3B5FBF3F203FB125BCBEB0503009366
:10B3B0000393436822461D4641463346A84790B949
:10B3C000039B5D461E441C44CDE7A21AC7F80080CB
:10B3D0007A600093D0F804B0BB684146D847002893
:10B3E000C1D000E0284605B0BDE8F08FF844030066
:10B3F000F5480300164503001FB5069C8DE81C00A8
:10B400000B46002200F11401FFF776FF04B010BDD7
:10B4100010B50C468269A068FF2104F046FE4FF08B
:10B42000FF33236010BD00008B6A10B50446016035
:10B430000BB1C36105E0486902F02CFAE061002815
:10B440005FD02368DA6A0AB1A26205E0986902F067
:10B4500021FAA062002854D0206804F12001FFF7EF
:10B46000D7FF4FF0FF3363612368586AC20604D0E8
:10B47000274B284A40F6130104E030B9264B254AF1
:10B4800040F61401254804F053FD1B6B0BB1E36338
:10B4900005E0C00802F0FEF9E063002831D023681F
:10B4A00098695969B0FBF1F201FB120222B11C4B01
:10B4B000184A40F61F01E5E7DA69B2FBF0F300FB3A
:10B4C000132020B1174B134A4FF40261DAE74FF013
:10B4D000FF31A2F10803B1FBF3F30B44B3FA83F39A
:10B4E000C3F12003B2EB830F04D20F4B094A40F69D
:10B4F0002401C7E76160A160E060206184F840003A
:10B5000010BD2046FFF7E0FE6FF00B0010BD00BF3E
:10B510007E450300E04403009C45030016450300FC
:10B52000B4450300E345030013460300C069F8B5C2
:10B530000E68A0F108050F46B6FBF5F080B10138A2
:10B5400004F0DCFC0230A6EB8004B4FBF5F42046EA
:10B5500004F0D4FC04FB1565A5EB800038602046A0
:10B56000F8BD2DE9F04F89B09B46129B139F88468A
:10B5700008A9013B064641F80C3D00689146FFF7DB
:10B58000D5FF0DF1180A044659461498B84718BB60
:10B590000CB304F00105C5F10205AB0002938DE880
:10B5A00001045B464A4641463046FFF7A5FE98B97E
:10B5B000034605F1FF3B5B4506DA06991498B84748
:10B5C00001230028F7D007E008AB03EB8B0B641BCB
:10B5D0005BF808BCD8E7204609B0BDE8F08F000052
:10B5E0002DE9F04F89B0064689460592139F1BB995
:10B5F0004FF0FF323A6042E008A9013B41F8043DB8
:10B600000068FFF793FF12A905463068FFF78EFF29
:10B610004FF0040A80460DF1140BA8452CD2C8EB5C
:10B620000503B3FA83F395FAA5F4B4FA84F4C3F1ED
:10B630001F039C4228BF1C46A3000093CDF808A01E
:10B64000059BCDF804B0002249463046FFF754FE72
:10B65000059BB8B9012B03D93268126A934206D907
:10B660000A4B0B4A0B484FF48F6104F061FC012335
:10B6700003FA04F42D1BD0E7059B3B60129B149A40
:10B680000020136009B0BDE8F08F00BF5F460300E3
:10B69000D3440300164503002DE9F04F87B006465A
:10B6A000109C119D0F46904625444FF001090DF165
:10B6B000170AC4EB030BAC4214D00BEB040300934A
:10B6C000CDF80890CDF804A0434600223946304614
:10B6D000FFF712FE38B914F8013B9DF817209A4283
:10B6E000E9D000E0012007B0BDE8F08FF7B50C46C7
:10B6F00009684B1C054616461ED0006862688369BF
:10B7000000938768A368B847B8B926B92146286866
:10B71000FFF77EFE10E02B689B690193A3680093FE
:10B72000314694E80C002846FFF7B6FF002804DBFA
:10B73000ECD16FF0330000E0002003B0F0BD00005A
:10B740002DE9F04F994603681B6A85B04B450746C3
:10B75000884692460E9D0F9E109C25D83A4B3B4A38
:10B760009C212CE0D8F80400854223D33B689B69D8
:10B7700000EB030B5D451DD2C5EB0B0BA345D8F8C1
:10B78000083028BFA346281A5A463146184404F008
:10B7900066FC3B689A695D44B5FBF2F302FB135308
:10B7A0005E44CBEB04046BB1002C48D0D8F80020E9
:10B7B0009145D7D001320DD0254B244AB7212548D9
:10B7C00004F0B6FB524641463846FFF78FFF00288B
:10B7D000EAD035E038688269B5FBF2F302FB135317
:10B7E0003BBB944225D3B4FBF2F302FB134BCBEBF0
:10B7F00004030093039383682A461C464946334654
:10B80000A047E8B9BAF1000F04D1039B5C461E447F
:10B810001D44C9E7039B019300962B464A465146B7
:10B820003846FFF739FF00280ADBEED16FF033000E
:10B8300006E0EB1AC8F80090C8F80430B4E72046D8
:10B8400005B0BDE8F08F00BFF8440300C444030016
:10B850008A460300164503002DE9F04786B00546E9
:10B86000894600F11408D71814464FF0010A0DF16B
:10B870001706BC420FD08DE850044B4600224146CB
:10B880002846FFF739FD013430B9012231460E98C0
:10B8900001F074FCEDE7002006B0BDE8F087000081
:10B8A0002DE9F04F8BB0136804930024536805937F
:10B8B00080460E46274606AD4FF0100A04AB002224
:10B8C00053F82490CDF800A02B4649464046FFF798
:10B8D00093FD30BB27B1F269069B9B1A002B3ADB24
:10B8E000079B23F00043132B35D9D8F80020D269E9
:10B8F000934230D80DF1280B4FF0FF334BF81C3D2D
:10B9000010222946584601F039FC079BCDF800B0BB
:10B9100023F00043103B102249464046FFF79CFFAE
:10B9200018B110F1340F25D115E0039B9BB9631CAE
:10B930000AAA03F0010302EB830306F11C0753F884
:10B94000183CB36095E80F00C6F80490C6F80CA048
:10B9500087E80F0001270134022CAFD14FB9059BB6
:10B96000049A06484FF4F77105F0E2F96FF03300DE
:10B9700000E000200BB0BDE8F08F00BFA64603003A
:10B980002DE9F34106460C46154601F124074FF018
:10B990001008216AE26821F0004302F10C00043B28
:10B9A000984211D9002903DB2A606FF0010026E0DC
:10B9B0003A4621463046FFF773FF00BBA369C4F83F
:10B9C0000C801433A361E4E70C23009361682B1D02
:10B9D0003046FFF711FD90B96A79A979E3682B60C9
:10B9E00004321144EA790A441344E3606B79AA797A
:10B9F00004331344EA791344A2691344A36102B0E7
:10BA0000BDE8F08130B5044693B004300D46FFF731
:10BA100040FC40BB0190012301AA07A920460293E4
:10BA2000FFF73EFF00BB10A8FFF733FCD8B910AA00
:10BA300007A92046FFF734FFB0B903AA07A920469B
:10BA4000FFF79EFF10B1831CEDD00DE09DF9103083
:10BA5000002BF2DB0822294605A804F0F1FA0028A1
:10BA6000EBD1012000E0002013B030BD2DE9F843F8
:10BA70001D460023536201230746884614469362FD
:10BA800002F1240605F108093046FFF702FCE0B98F
:10BA9000324621463846FFF703FFC8B92A462146F9
:10BAA0003846FFF76DFF18B1831CEDD0BDE8F88371
:10BAB0002B7903F07003202BF0D141464846FFF765
:10BAC000F2FB0028EAD1012002E00020BDE8F88363
:10BAD000BDE8F883F7B5054604300F461646FFF774
