:020000022000DC
:1060000000000120E1CF020021D0020023D00200D5
:1060100025D0020027D0020029D002000000000095
:1060200000000000000000000000000061CF02003E
:106030002DD002000000000081CF020031D002000C
:1060400033D0020033D002009DB7020033D00200EB
:1060500033D0020033D0020033D0020033D002002C
:1060600033D0020033D0020033D0020033D002001C
:1060700033D0020033D0020033D0020033D002000C
:1060800033D0020085CD020033D0020033D00200AD
:1060900033D0020033D002009980020033D00200D6
:1060A00033D0020033D0020033D0020033D00200DC
:1060B00033D0020033D002000000000000000000D6
:1060C00033D0020033D0020033D0020033D00200BC
:1060D00033D0020033D0020033D0020000000000B1
:1060E00000000000000000000000000000000000B0
:1060F00000000000000000000000000000000000A0
:10610000000000000000000000000000000000008F
:10611000000000000000000000000000000000007F
:10612000000000000000000000000000000000006F
:10613000000000000000000000000000000000005F
:10614000000000000000000000000000000000004F
:10615000000000000000000000000000000000003F
:10616000000000000000000000000000000000002F
:10617000000000000000000000000000000000001F
:10618000000000000000000000000000000000000F
:1061900000000000000000000000000000000000FF
:1061A00000000000000000000000000000000000EF
:1061B00000000000000000000000000000000000DF
:1061C00000000000000000000000000000000000CF
:1061D00000000000000000000000000000000000BF
:1061E00000000000000000000000000000000000AF
:1061F000000000000000000000000000000000009F
:10620000044B05481B1A062B02D9044B03B118474F
:10621000704700BFE3340020E0340020000000009D
:1062200005490648091A891001EBD171491002D0BD
:10623000034B03B118477047E0340020E0340020DE
:106240000000000010B5064C237843B9FFF7D8FFD3
:10625000044B13B10448AFF300800123237010BD39
:10626000E034002000000000241C030008B5084BA7
:106270001BB108490848AFF300800848036813B908
:10628000BDE80840CCE7064B002BF9D09847F7E76C
:1062900000000000E4340020241C0300DC34002053
:1062A00000000000154B002B08BF134B9D46A3F5C3
:1062B000803A00218B460F461348144A121A07F001
:1062C00068FE0F4B002B00D098470E4B002B00D0E0
:1062D00098470020002104000D000D48002802D03E
:1062E0000C48AFF3008007F0E9FD2000290006F01C
:1062F000B3FE07F0BDFD00BF000008000000012054
:106300000000000000000000E034002010530020D6
:10631000000000000000000030B5202489B00546D0
:1063200022460021684607F034FE2346094C0A48FD
:106330006A46294600F064FF0849204605F0ADF89A
:106340006946204605F0B6F80549204605F0B2F842
:1063500009B030BDDC3A0020243600209410030040
:10636000A210030010B5044600F0BEF8204610BD90
:106370007047000010B5114C0621204600F0D4F9FA
:10638000204600F0BFF90E49204600F08DF904F1D7
:10639000380000F097F92046012100F0F2F920467C
:1063A000F422202100F0E9F920461E2100F0E3F953
:1063B00020460021BDE8104000F03EBA0039002020
:1063C00024350020437D23B901234375038D013B10
:1063D00001E0002343754385704700000148FFF743
:1063E000F1BF00BFDC35002038B50F4C0F48104D11
:1063F00002F0D6F84FF48071204602F0D9F9204619
:106400000C4C0D492A4607F001FD52231022182199
:10641000204600F0D5F8094BE3622A462046084999
:10642000BDE8384007F0F2BC24350020FC340020E1
:1064300000340020DC35002055890200DD630200B5
:106440006563020010B51D4C4FF4E131204605F0A4
:106450003EF81B49204605F02DF81A49204605F064
:1064600029F8204605F01EF82046174C174905F07C
:1064700021F800220121204601F0F8FB04212046EA
:1064800001F094FD2046124901F06CFD2046114CAC
:10649000114901F0EDFD2046104902F0A7F810491E
:1064A000204602F0A1F8204602F0A2F80D4802F0C2
:1064B00073FABDE81040FFF75DBF00BFDC3A002073
:1064C00008110300D210030024360020311103000C
:1064D0002A110300FC340020196302005B11030041
:1064E0006F1103002435002010B50446806808B100
:1064F00007F012FD94F90600002802DB002107F0E6
:1065000051F9204610BD70B5054680680E4608B1A9
:1065100007F002FDEB7B2C7BA3420CBF0324042479
:1065200014FB06F4A4B2AC80204607F0EDFCA86092
:1065300028B12246002107F02CFD6E8070BDA88096
:10654000688070BD70B4C27B047B151B6C42C1F3C4
:1065500081066C41FF29C1F38112C1F30115467315
:1065600001F003068CBF0021012101708168C27314
:106570000573867341B1511B4A424A41A24203D07E
:10658000418870BCFFF7BFBF70BC704738B5437817
:1065900004460D4633B190F90600002802DB0021C5
:1065A00007F000F96378A5714BB12846012107F087
:1065B000F9F828460021BDE8384007F015B938BD84
:1065C00070B50E46002104464170C17181600161C1
:1065D00019461546FFF7B6FF31462046FFF793FFF1
:1065E00020462946FFF7D2FF204670BD72DF704774
:1065F00073DF704777DF70470022C2770270704701
:1066000070B51D46C37F0E461146EA181D2A044682
:106610000EDC18446A1CE254023000F8016C2A4671
:1066200007F091FCE27F0232AB18E377012070BDE6
:10663000002070BD2DE9F041002688B007460D46C8
:1066400001EBC2083446454516D0284601F04BFA06
:10665000102802D0802809D00CE008AA631C02EBA5
:1066600044042A8824F8202CDCB203E00EB1002078
:1066700017E06E680835E6E714B966B9012010E046
:10668000630003F0FE036A4603213846FFF7B8FFB4
:106690000028F2D1EBE71023324607213846FFF7F6
:1066A000AFFF08B0BDE8F08113B50831044603C957
:1066B00001228DE8030069462046FFF7BBFF02B0C8
:1066C00010BD000030B589B00546202269460C484F
:1066D00001F05CFCEA7F13181D2BC3BFC2F11D0241
:1066E000D0B20824092403466A4621462846FFF70B
:1066F00087FF18B1A4F109035842584109B030BDD1
:106700002436002013B50446064801F077FC02AA9F
:10671000012302F8010D0A212046FFF771FF02B0A4
:1067200010BD00BF2436002007B502AA012302F8DD
:10673000011D1946FFF764FF03B05DF804FB08B5BF
:106740000346FFF759FFFF22202183F82020012272
:1067500083F8212083F8222099840022F4201985CF
:106760001E21D88483F823205985DA859A851A63F7
:106770005A63184608BD418570478184C2840185EB
:10678000704780F822107047F0B5044687B00E4677
:10679000154600211822684607F0FBFB94F82130CB
:1067A0008DF8003005EB850303EB83031E4A029648
:1067B0009B00ADF80C301368DB0709D41B4BE17F5D
:1067C00099801B499960C97F1C60998101231360DE
:1067D0006A46164904F12000FFF708FF08B10020BF
:1067E00020E0144894F8207001F008FC3946024675
:1067F0000120FFF7FFFE0028F1D1012194F82000CD
:10680000FFF7F6FE0028EAD10A4801F021FDE28DEB
:10681000268595424FF0010094BF521B921A84F8CE
:106820002300E28507B0F0BD0C36002010360020B2
:10683000383900202436002010B50446C1858185F2
:10684000FA21054801F0DDFB628DA18C2046BDE8F0
:106850001040FFF799BF00BF2436002038B50B88E1
:10686000112B044612D0262B24D0102B59D1CD7BCE
:10687000012D56D1002380F823302A4801F0F9FC7D
:1068800029462848BDE8384001F0FFBC89882548E2
:1068900000F08EFC012844D10021224801F0F5FCD3
:1068A00094F82230002B3CD0A18D2046BDE8384022
:1068B000FFF7C2BF0B7A012B33D1002380F82330BE
:1068C0004FF4FA71174801F09CFBA38D23B9636B59
:1068D00003B19847002205E0E38D4BB1636B03B130
:1068E0009847E28DE18C2046BDE83840FFF74CBF69
:1068F0000C4801F0BEFC236B9BB105F067FF01283B
:106900004FF0100002D107F0FFFA01E004F0F4FFAD
:106910000021236B017243600160BDE8384006F03E
:1069200095BD38BD2436002075DF704710B504468C
:1069300005F04CFF0128204603D1BDE8104007F0C8
:10694000E3BABDE8104004F0D7BF102242800280B5
:10695000C82100228280C1808260C260704700002E
:10696000014800F0AFBB00BFB83900202DE9F3416A
:106970000F888D88112F06460C461CD01F2F39D04A
:10698000102F44D12946234800F012FC02283ED1A2
:10699000B368002B3BD03846FFF7C8FFB2684260AF
:1069A0000122027202AA0021016042F8085D03463A
:1069B0001068D8601AE02946164800F0F9FB022852
:1069C000804624D1F36813B31420FFF7AFFF0027EC
:1069D000F2680760426080F80880227A0192009590
:1069E0006A46034603CA1961D8603946184606F05C
:1069F0002DFD0CE054F8080F61686B4603C369462F
:106A0000BDF80030ADF802302846FFF78DFF02B028
:106A1000BDE8F08124360020AADF7047ABDF704765
:106A2000ACDF7047ADDF7047AEDF7047704710B521
:106A3000044606F06FFB204610BD000070B55A4BAF
:106A400004461B680361061D96B0304601F059F8F4
:106A500094F8223013F0320101BF94F8232061F33F
:106A6000030261F3071284F8232013F00C0101BF25
:106A700094F8242061F3030261F3071284F82420C0
:106A800013F030050ED04FF00003012262F34203F1
:106A90008DF80630454B1B788DF8043094F8233080
:106AA0008DF805301C2200210FA807F072FA94F827
:106AB00022308DF83C3000230DB91A4600E001AABF
:106AC000ADF8083014924FF00003012262F3420344
:106AD00060698DF80A3094F823308DF8083058B189
:106AE00003784BB1109008F037F902AB80B2ADF8E3
:106AF0004400ADF846001393A37E13B104F11A03CA
:106B00001293142200210DEB020007F042FA04F167
:106B10002303069394F825300596DB0754BFE389D9
:106B20000023ADF81C30E389ADF8203005AA04F14C
:106B300026030FA90020FFF76FFF054680BB637E89
:106B400043B30346012262F342038DF80E3094F8FA
:106B50002330ADF80C008DF80C30154B18680490FC
:106B6000142229460AA807F014FA0223ADF830309F
:106B7000ADF8343004AB0A9303AB0B930DF1020272
:106B800004F118030AA928460E93FFF747FF08B13E
:106B9000054605E0237B1BB92146064800F0D4FDDD
:106BA000284616B070BD00BF203600200612030034
:106BB00008120300003700200B88502B73B50546E0
:106BC0000C4614D0512B2CD18B79022B03D1436B63
:106BD0000BB108319847A379012B22D12B6B03B35A
:106BE00004F10801284602B0BDE870401847CA8881
:106BF000C38C9A4205D1866B1EB1CB890A8A1231A9
:106C0000B047E2886B8D9A420BD1EB6B4BB1628A35
:106C1000ADF80620BDF80610284602B0BDE8704069
:106C2000184702B070BD00001422C281104A1278C9
:106C300080F8242080F8232001214FF00102002356
:106C400061F342020373036143610383C0F81A30A6
:106C5000C0F81E3080F8223080F82520C3840385D8
:106C600083854385036343638363C363704700BFC6
:106C70000612030013B504468DE8060023460649B4
:106C800043F8041B9DE8030083E805002046FFF756
:106C9000CBFF204602B010BD1412030000697047FC
:106CA00001230373704780F822107047C181704739
:106CB00090F8253019B1C1816FF3000301E043F072
:106CC000010380F82530704780F8231080F82420D5
:106CD0007047816370470A1C90F82530416318BFE4
:106CE000012262F3041380F8253070474161704738
:106CF00051F8263F03604B684360704713B5C48961
:106D00000191A24228BF224600230093C18CADF816
:106D100000204FF6FF706A46FFF782FE10B9BDF8FB
:106D2000000000E0184602B010BD38B50546084620
:106D30000C4608F011F8214682B22846BDE83840DA
:106D4000FFF7DCBF07B502AB022223F8021D19468C
:106D5000FFF7D4FF03B05DF804FB000030B5054633
:106D600085B0114801F06CF9E0B1688DD0B1022313
:106D7000002402940C48ADF808300DF1060303938B
:106D800001F079F902AA698DFFF74CFE43F2014345
:106D9000984202D1ADF8064002E008B180B201E0AD
:106DA000BDF8060005B030BD2436002008B590F8C7
:106DB000222002F0100202F0FF0322B1FFF7CEFF03
:106DC00000F0010008BD184608BD00002DE9F041A3
:106DD00090F8223003F010030E4686B0054603F00B
:106DE000FF01002B46D0C489944228BF1446FFF708
:106DF000DDFF0746002837D0214801F03CF9014665
:106E00001F4800F0F7F903381FFA80F89CB31C48BC
:106E100001F031F901461A4800F0DBF910B3A04542
:106E200043464FF0000128BF2346102202A8ADF8C8
:106E3000063007F0AEF801238DF80A30EB8CADF880
:106E400008300F4805960DF10603049301F013F97D
:106E500002A9FFF7E9FD28B9BDF80630E41AA4B28B
:106E60001E44D3E7002706E0224631462846FFF7B6
:106E700045FF00E00F46384606B0BDE8F08100BF90
:106E800024360020A1DF7047A3DF7047A4DF7047DE
:106E900010B5044605F09AFC0128204603D1BDE850
:106EA000104007F031B8BDE8104004F025BD0023C4
:106EB00083827047806900F0F5B8808A70470000CF
:106EC0002DE9FF410B88CF88382B04460D4672D040
:106ED000392B03D0362B40F0DF80B7E00B7B012B42
:106EE00002D0022B31D0D7E0C36A002B00F0D4804F
:106EF00090F8342012F0010FCA8923D01046FFF712
:106F0000C7FF0646002800F0C780EA8905F1100196
:106F100007F019F81820FFF7BBFFE26A426003226E
:106F20000272EA89066003920194029601AA03465E
:106F300003CA1961D860106858610021184606F02C
:106F400085FAA9E010319847A6E0036B002B00F00A
:106F5000A38090F834208E8812F0020FCA8923D0C3
:106F60001046FFF795FF0746002800F09580EA8954
:106F700005F1100106F0E7FF1820FFF789FF226BEB
:106F8000426003220272EA89076003920194029729
:106F900001AA034603CA1961D8601068586100212C
:106FA000184606F053FA01E01031984769893046D7
:106FB000FFF76CFF70E017B104F11C006AE000F10C
:106FC0001C060A8A3046394601F091FD95F80C807E
:106FD000B8F1010FF0D0B8F1040F5DD1A06900F055
:106FE00061F801462E4800F005F9228DA38A053884
:106FF00080B2904228BF1046B0B10197EA89ADF83F
:1070000006302B8AADF80A001344ADF80830A069A9
:10701000636A8DF80480039300F044F801A9FFF738
:1070200033FF002838D00FE00522029003908DF83E
:107030000420A069ADF8063001228DF8052000F08B
:1070400031F801A9FFF720FF304623E0806900F006
:1070500029F80146124800F0CDF80646002FABD1C2
:1070600004F11C07EA8905F11001384601F03FFDE3
:10707000238D73B1033EEB89B6B2013EB34208DB08
:10708000A06900F00FF8628DA18A92B2FFF7FAFEB4
:1070900010B1384601F043FD04B0BDE8F08100BFF7
:1070A000243600208088704710B50446043001F073
:1070B000D4FC012323804FF6FF73638000232375E4
:1070C000204610BD017D10B5044621B9043001F001
:1070D000C8FC0123237510BD007D70470B88322B3F
:1070E00010B5044611D0332B1BD0302B27D1CB88C1
:1070F00033B94B8923B10A221144201D01F0F7FC5A
:10710000201DBDE8104001F00ABDCB88002BF7D14F
:107110004A89002AF4D0013A02EB820252000C3272
:107120000AE0CB88002BEBD14A89002AE8D0013A4B
:1071300002EB42025200083292B20A31DDE710BD82
:107140007FDF704786DF70478FDF704790DF7047C3
:10715000B1DF7047B5DF704710B5C8220446002183
:107160000C3006F016FF172303222380E38001234F
:10717000E37023716372A37262F3061384F8D43050
:10718000072384F8D5301023A270227284F8D630F9
:1071900084F8D72084F8D820204610BD01290CBFE0
:1071A0000088C0887047282303FB0101487B704793
:1071B000282303FB0101887B704710B5282303FBBC
:1071C000021252F8123F036093888380937983718F
:1071D00010BD042908B50BD8282303FB0101086A58
:1071E00038B1662104F008FE003018BF012008BD48
:1071F000002008BD282303FB0101088A7047000016
:10720000F0B587B004AC16461F460D4620464FF435
:10721000285100F05DFC8DE8C0004FF6FF7303932A
:107220000123029394E80C002946024800F042F939
:1072300007B0F0BD00370020F0B58D884FF6FF7322
:107240009D4218BF28240B881ABF04FB05040C3488
:1072500000241A2B95B007460E4600F0BD8019D8C1
:10726000132B56D010D8102B2BD0112B40F00A81A5
:10727000002560696570257004F07AFE6561A0697B
:1072800004F076FEA561FDE0142B00F08A80192B36
:107290006ED0F7E03C2B00F0CA800BD8212B00F019
:1072A000D680232B40F0EE80002211462846FFF7BF
:1072B0004DFFE7E0552B00F0D480572B00F0A6805F
:1072C000E0E001232370CB7BA37056F8080FC4F8CD
:1072D00006001723B188B279A380EDB2282303FBFF
:1072E0000573618122739B7B012B0CBFF878787A40
:1072F000014604F016FC282303FB05756061AB7B97
:10730000012B0CBF3879B87A014604F00AFCA06161
:10731000B8E005F05BFA01284FF0500002D106F00A
:10732000F3FD01E004F0E8FA06462061002800F0D1
:10733000A9805022002106F02CFE4FF6FF73202278
:10734000E3810021684606F024FE06F11C03049345
:10735000A3780096012B06F138060CBF07F1D40282
:1073600000226B46002128460596FFF7E9FE89E0DA
:107370000B7A43B92269A07801236370538AE381B1
:10738000294601F0F9FB256905F020FA0128284675
:1073900002D106F0C1FD01E004F0BDFA0023236133
:1073A00070E050220021684606F0F3FD6A46318AFB
:1073B000A07801F053FC0346B08843B100230EAA25
:1073C0006946FFF7BFFEBDF81230E3815AE01A4666
:1073D0001946FFF7B7FE55E00B7A112B0DD0E28965
:1073E000A078294601F076FC034620B90246014602
:1073F0002846FFF7ADFE01236370606A002841D084
:1074000000231A46194604F095FB3BE06369002B04
:1074100038D00025B279EBB29A4205F1010531D995
:1074200000231A461946606904F084FBF2E7A36959
:1074300043B30025B27AEBB29A4205F1010521D996
:1074400000231A461946A06904F074FBF2E70023F2
:10745000694628468DF800308DF80130FFF774FE3C
:1074600010E0EBB2282202FB0303C9889B7B012BAF
:107470000CBF0388C388994228BF1946A1802846BB
:10748000FFF768FE15B0F0BDA0DF704738B50446C1
:10749000F82500F5F87001F0E0FA2A4600212046B0
:1074A00006F077FD2A460021601906F072FD20469D
:1074B00038BD0000F0B585B08DE80C00BDF8303067
:1074C000ADF80C30BDF83430ADF80E300F466E46D6
:1074D00000F5F875284601F008FB044628B112486B
:1074E00000F0D6FD04F070F9F4E70121284601F020
:1074F000B8FABDF82C200A99284601F0C7FA03AA69
:1075000031463846FFF7C0FF28B94FF4FA712846D4
:1075100001F0C1FA0446284601F0ACFA24EAE4700E
:1075200080B205B0F0BD00BF243600202DE9F04F39
:107530000E888F88A6F11003012B87B005460C46F4
:1075400012D84FF000082A785FFA88F39A420BD9D4
:107550009B002B44112E586803680CBF1B685B68A6
:10756000984708F10108EEE7764800F084FD87426D
:1075700017D14FF028094FF0000A09FB07F90AE07C
:10758000502E13D0512E04D1B4F80880B8F1000F5A
:107590000FD10AF1010A95F854205FFA8AF39A4252
:1075A000EED805F5A67A4FF000091FE0B4F8068082
:1075B000ECE71633684655F823B05946FFF798FBB9
:1075C000BDF80020424500F09980594602A8FFF717
:1075D0008FFBBDF80C204245DBD18FE05AF8040F39
:1075E000FFF768FC874206D009F1010995F84C3194
:1075F0009945F3DB16E0382E03D0392E01D0362E14
:10760000F2D1B4F80A80B8F1000FEDD0DAF800B08A
:107610005846FFF752FC8045E6D121465846FFF711
:107620004FFCE1E7112E26D1002495F8F820E3B2B3
:107630009A4201D8002618E005EB8303D3F8FC003A
:107640008388BB4202D103681B6898470134ECE78A
:1076500005EB8404D4F85001FFF72CFC874203D1DA
:10766000D4F85001FFF723FC013695F84C31F4B201
:10767000A342EDD862E0532E1AD0562E2AD0352ED2
:107680005CD16189002959D0A2890E34231B901C3A
:10769000B3FBF0F38B4205F5F87503D2A11C284625
:1076A00001F025FA284607B0BDE8F04F01F037BADF
:1076B000244A282307FB033313441446586820B197
:1076C00000231A46194604F035FA282202FB074720
:1076D000012310E01B4A282307FB033313441446FD
:1076E000586820B100231A46194604F023FA2822CC
:1076F00002FB0747002387F828301FE0DBF8002053
:107700005846D268214690470E4800F0B7FC002842
:107710003FF43FAF502E7FF43CAF594604A8FFF72B
:10772000E7FABDF8143043457FF433AF054B4B44C3
:1077300039465A8B987B01F049FA2AE707B0BDE831
:10774000F08F00BF2436002090F85430282B1FBF44
:107750005A1C163380F8542040F8231014BF01201F
:10776000002070470378132B9FBF5A1C027000EB58
:107770008300416094BF0120002070478ADF70477A
:1077800010B5044605F022F80128204603D1BDE8D3
:10779000104006F0B9BBBDE8104004F0ADB810B51C
:1077A00004461F23206283840123002180F82930AE
:1077B000802380F8281080F82A3080F82B108185EB
:1077C00080F8341001638163C1630E22403006F0FB
:1077D000E0FBA023A4F842305023A4F84430204614
:1077E00010BD000010B504461F232062A0F846100B
:1077F000838400F120014030FFF7C0FF30B9044816
:1078000000F026FD012084F8280010BD002010BDE6
:107810002436002000F1200108B50020FFF7AEFF5C
:10782000B0FA80F0400908BD38B5012A9DF814501F
:107830001BD948780C78984204D1013C0231E4B25B
:1078400009D114E0E0430244013412F0FF02214464
:10785000EFD1104638BD15B1AC4228BF2C462246A8
:10786000049806F070FB204638BD002038BD08465D
:1078700038BD37B59DF818500C7F8DE828001346A9
:1078800089692246FFF7D0FF03B030BD2DE9F04FE4
:107890008FB002AC80462046894684E80C0000F098
:1078A00022F9C0B2102807D102238DF81430032327
:1078B0008DF81530274606E006238DF81430039F17
:1078C00007238DF815300026C508B2461F22002177
:1078D00006A806F05EFB05AB4946F25CCDF800A0B9
:1078E00006AB4046FFF7C5FF0DF1180B04465CB12F
:1078F0002A463946584606F017FB08B9012007E02A
:10790000641BAB44E4B2F2E70136022EDED120461E
:107910000FB0BDE8F08F0000F0B50B88112B85B0DB
:1079200006464CD002D8102B3BD095E01B2B5DD0E7
:107930001D2B40F0918090F92A2091F91B309A423A
:1079400067DC90F8343001F1080523B996F82B3044
:10795000002B62D015E0002796F83430FCB2A34229
:107960000AD9336B03EBC4030CCB29463046FFF72F
:107970008DFF01370028EFD096F83430A342E5D1CF
:1079800047E002230093FF2203AB29463046FFF76E
:1079900070FF00283DD0B28DBDF80C309A4238D12E
:1079A0003BE0CB7B022B57D1002380F828302B48BB
:1079B00000F05FFC0121294800F067FC4CE0898859
:1079C0002648FFF7F5FB022846D196F82810002933
:1079D00042D1224800F059FC96F82930002B3BD0C8
:1079E000B6F846103046FFF7FDFE35E00B7A012B66
:1079F00032D1C36B002480F828406BB31020FFF70E
:107A0000BFFEF26B046042600472214605F01EFD69
:107A100022E03046FFF7FEFE1EE02420FFF7B0FE16
:107A20000746C8B10FCD3C460FC40FCD0FC42B681D
:107A30002360B36B83B11020FFF7A2FEB26B4260EC
:107A40000122027204AA076042F8047D034610680E
:107A5000D86000211846D9E705B0F0BD24360020D3
:107A6000A8DF70477047000037B500F108050446ED
:107A7000284600F046F829460DF106020120FFF7DE
:107A8000EFFF054628B9044B04481C602146FFF768
:107A900069FE284603B030BD2036002000370020A4
:107AA00013B504468DE806002346064943F8081B33
:107AB0009DE8030083E8050000232046A38002B070
:107AC00010BD00BF2C12030062DF704763DF7047F8
:107AD000012383700023018043607047002383707B
:107AE0000380416070478378012B06D0426832B929
:107AF000012B8CBF80200020704710207047802011
:107B0000704708B58378024653B9406840B1911C6C
:107B1000FFF7DAFF10205168BDE80840FFF7D6BF35
:107B2000002008BD4BDF704710DF704775DF7047DE
:107B300076DF704777DF704778DF70477ADF70470E
:107B40007CDF70477DDF7047B1DF704760DF7047D3
:107B500069DF704761DF704767DF70477047132048
:107B600005F06EBE37B50D4C0D4DD4F8C8034FF07F
:107B7000FF3104F041F90028F7D001A8FFF7D2FF48
:107B80000528F2D00028F8D10198831E012BF4D8E3
:107B9000002DF2D003F088FEEFE700BF243600206E
:107BA000A9B8020010B5044604F010FE01282046D2
:107BB00003D1BDE8104006F0A7B9BDE8104003F0BE
:107BC0009BBE10B50446FFF7C7FA04F1DC00FFF7CF
:107BD0005DFC04F53770FEF7B2FD04F54570FEF765
:107BE0000BFD04F54D70FFF7DAFD04F56170FEF74B
:107BF000ACFE04F56570FFF757FA04F5757000F0F8
:107C00004BFC4FF400620023C4F8AC230A22C4F8F2
:107C1000B03384F8B123012284F8B02384F8D02350
:107C20004FF6FF72A4F824241022A4F8B6231822D9
:107C3000A4F8B82384F8B433C82284F8B53384F8A0
:107C4000C033C4F8C433C4F8C833C4F8CC33A4F880
:107C5000BA33A4F8BC23A4F8BE33C4F82834C4F85B
:107C60002C34C4F83034204610BD000070B5B34B3E
:107C700080F8B4138CB080F8B523054618680390DB
:107C8000AF4903A8FFF750FF0446002840F0528197
:107C900095F8B1130990AB4A0A900B908DF8241017
:107CA000012009A90492FFF753FF0446002840F081
:107CB000418195F8B42309908DF8252095F8B523D6
:107CC0008DF82620003218BF01220A900B908DF803
:107CD000272009A9049A4020FFF73AFF044600280C
:107CE00040F0288195F8B023099062F300040A90CF
:107CF0000B90049A8DF8244009A9A020FFF728FFD3
:107D00000446002840F01681D5F8AC230A900B9069
:107D1000099209A9049AA120FFF71AFF0446002836
:107D200040F0088195F8B42322B995F8B523002ACC
:107D300049D190E02A8809900A900B90ADF826204E
:107D40000126049A8DF8246009A92320FFF700FF7B
:107D50000446002840F0EE8095F8B42309908DF891
:107D60002620AA780A900B90ADF8282009A9049A39
:107D70008DF824602020FFF7EBFE0446002840F039
:107D8000D980EA7809900A900B908DF8262009A9ED
:107D9000049A8DF824602220FFF7DAFE04460028BA
:107DA00040F0C8802A7909900A900B908DF826201F
:107DB00009A9049A8DF824602120FFF7C9FE044622
:107DC0000028B2D0B6E0002209920A920B92EA880B
:107DD000ADF826200226049A8DF8246009A92320F4
:107DE000FFF7B6FE0446002840F0A48095F8B523BE
:107DF00009908DF826202A7A0A900B90ADF8282059
:107E000009A9049A8DF824602020FFF7A1FE0446FA
:107E1000002840F08F806A7A09900A900B908DF8C4
:107E2000262009A9049A8DF824602220FFF790FEED
:107E3000044600287ED1AA7A09900A900B908DF80A
:107E4000262009A9049A8DF824602120FFF780FEDE
:107E5000044600286ED104A8FFF778FE002868D1F8
:107E600007900890C0B240F001008DF81C0007A9EF
:107E70000220FFF771FE044600285BD105F2B63000
:107E8000FFF75CFE0446002854D10CA81B7900F8CB
:107E9000283D0B222C49FFF753FE0446002849D108
:107EA000FFF74AFE0446002844D105F5757000F03E
:107EB00015FB95F8B5331BB105F56170FEF750FD64
:107EC00003220021012003F00FFEC5F8C40308B906
:107ED00004242FE005AB032601934FF4C062002376
:107EE0001A4900961A4804F0CCF9324600210120C4
:107EF00003F0FAFDC5F8C8030028E9D006AB0193EA
:107F000000960023C8221349134804F0BAF9134B12
:107F10004FF480021A60124B0093002301224FF4A9
:107F20008071184604F08AFDC5F8CC0300F076FE97
:107F300000E0044620460CB070BD00BF38120300BC
:107F40005D7B02000034002058120300641203001D
:107F50000982020068120300657B020000E100E074
:107F60005F7B020037B5084B02AC1B7904F8043D77
:107F700008460D4606F0F0FE294682B22046FFF77D
:107F8000DFFD03B030BD00BF3812030007B508465F
:107F900002A921F8022DFFF7D5FD10B99DF80600C2
:107FA00000E0002003B05DF804FB000030B5124A89
:107FB00085B005460C4610685168127A01AB03C3C0
:107FC0001A70002301AAD156A14204D00133092B13
:107FD000F9D100200EE0B5F824144FF6FF73994252
:107FE00005D022460320FFF7A5FD0028F1D185F832
:107FF000C043012005B030BD3D12030090F9C0031D
:10800000704773B50446D0F8CC030E4604F054FE16
:1080100000230546B6024FF47A720093B6FBF2F2E3
:108020000421D4F8CC0304F027FD3DB900952B467C
:108030002A460321D4F8CC0304F01EFD02B070BD23
:10804000B0F824044FF6FF73C01A18BF0120704720
:10805000B0F8240408B54FF6FF73984206D01321F8
:10806000FFF766FDB0FA80F0400908BD012008BDA9
:10807000C0F828147047B0F824047047B0F82414EE
:108080004FF6FF73994201D0FFF78DB8002070477B
:10809000B0F8BE037047000010B5064C0021D4F8BC
:1080A000C80303F006FED4F8C4030021BDE8104065
:1080B00003F0FFBD24360020F7B504460D468E8838
:1080C000FFF7BAF8294604F53770FEF7C7FB04F549
:1080D0004D702946FFF720FCB4F824042B88864213
:1080E00005D0102B01D01B2B5FD1112B01E0112BE0
:1080F0003CD002D8102B0AD057E0122B32D0522B92
:1081000053D100231A461946FFF71EFD4DE0EB7BC5
:10811000012B4AD12B8AB4F8B623A888A4F82404EA
:108120009A42A4F8BE3367D8B4F8B823934263D810
:10813000D4F82834002B38D01020FFF733FDD4F8C2
:108140002824426001220272002102AA0346016033
:10815000B4F8240442F8080D1068D860184605F0F9
:1081600075F922E02B89A4F8BE331EE0D4F82C3434
:10817000BBB11420FFF716FDD4F82C244260022274
:10818000027200270760B4F8242400922A7A019230
:108190006A46034603CAD86019611846394605F095
:1081A00055F94FF6FF73A4F8243494F8B53363B14E
:1081B000B4F82434B34203D14FF6FF739E4204D186
:1081C000294604F56170FEF7D1FB04F5657630466B
:1081D000FEF782FF18B129463046FEF77FFF294699
:1081E00004F1DC00FFF7A2F9D4F830344BB1284693
:1081F00003B0BDE8F04018470021FFF797FC0028C6
:1082000096D003B0F0BD000073B54FF4FA70FFF7DD
:10821000C9FC0E4E04464FF0FF31D6F8C40303F0FC
:10822000EBFD0028F7D04FF4FA750DF1060120465A
:10823000ADF80650FFF78EFC20B921460348FFF742
:108240003BFFF2E70528E6D0EFE700BF2436002029
:1082500090F8D03313B553B1D0F8CC4304F07EF886
:108260000023024600930121204604F005FC02B0E1
:1082700010BD07B5002300931A460321D0F8CC03A4
:1082800004F0FAFB03B05DF804FB90F8D03313B1AF
:10829000132005F0A9BA704710B5054C2046FFF72A
:1082A00090FC2046034A0449BDE8104005F0AEBDED
:1082B0002436002000340020BD82020010B5054B9A
:1082C000C0F8D433044600F57970FEF7AFFB2046C2
:1082D00010BD00BF741403003CDF70473DDF7047E2
:1082E00011DF704713DF7047B0DF7047B2DF7047B0
:1082F000F0B59DB00C8807460D46014608A8FEF76C
:10830000F7FCBDF82030A34240F0B480AB79043BC9
:10831000022B40F2AF80584E3046FFF7ACFE1022E1
:10832000044600210DEB020005F033FE022338461F
:108330008DF81030FEF73AFD40B940F2FD1304A964
:108340002046ADF81430FFF7CFFF93E0002304A9D7
:108350002046ADF81430FFF7C7FF2F7B012F40F008
:108360008980464D19463E22284605F012FE1CAA79
:10837000082322F8623D42493B462046FFF7B6FFFC
:10838000224631466846FEF718FF00982860BDF87F
:1083900004209DF80630AB71AA8021463046FEF7D6
:1083A00002FF10B3282303FB046408AA618B38463C
:1083B00000F054FCC8B11AAC94E80300314AA9801B
:1083C000090C2860A97116AD2B4603CBA34210609F
:1083D00051601D4602F10802F6D108AC0FCC2A4DBF
:1083E0000FC594E8070085E807002448274C4FF69E
:1083F000FF7110F8012B82EA112383EA13139AB25A
:1084000043EA012383EA023383EA4213A04299B28A
:10841000EFD11A4B1E4899870021FEF7B2F9164892
:10842000FFF716FEFF210020FFF758FFB1210020C3
:10843000FFF752FFF0B9FFF753FFD8B9154B4FF4D0
:108440008002C3F880210124420900F01F0120327C
:10845000013004FA01F1272843F82210F4D14FF03B
:1084600010235869FFF73EFF20B980F3148858693C
:1084700000F05EFD1DB0F0BD24360020807F00209E
:10848000B47F0020877F0020987F0020BC7F0020E1
:108490000039002000E100E073B505460C4968464C
:1084A000FFF71CFB2E469DE806002846FFF7F8FA6A
:1084B000084B46F8103B68460749FFF70FFB9DE85D
:1084C00006003046FEF7D6FB284602B070BD00BF5E
:1084D0004B140300741403005B14030070B5A2B0C6
:1084E0000646FFF7C1FA054600284FD112AC2949CC
:1084F0002046FFF7F3FA94E8060002A8FEF7BAFB5D
:1085000002A8FEF7CDFB042102A8FEF7CCFB142144
:1085100002A8FEF7CBFB02A8FEF790FA054690BB37
:1085200006F1100528461821FEF7BDFB2846172145
:10853000FEF7BCFB28461849FEF7CDFB2846FEF7A0
:108540007DFA0546F8B915496846FFF7C7FA9DE870
:1085500006002046FEF78EFB2046FEF7A1FB022117
:108560002046FEF7A0FB02212046FEF7A1FB204695
:10857000FEF764FA054618B901212046FEF7E2FB32
:108580002046FEF753FA02A8FEF750FA284622B01A
:1085900070BD00BF80140300F1820200901403003C
:1085A00037B5044641F60A016846FFF791FA9DE89F
:1085B00006002046FFF774FA074B2360074B236140
:1085C00000236361A361E361054B2362054B636292
:1085D000204603B030BD00BFCC140300A01403003C
:1085E000BB1403005B1103000161704741627047D7
:1085F0002DE9F04192B00446FFF736FA064600280E
:108600003AD105F093F8606105F05AF80C34E06057
:1086100042F624256F4654F8043F3BB329463846BA
:10862000FFF756FA97E8060002A8FEF723FB02A818
:10863000FEF736FB022102A8FEF735FB206806F0A4
:108640008BFB81B202A8FEF733FB02A8FEF7F6F916
:10865000804620B102A8FEF7E9F946460CE0216801
:1086600002A8FEF762FB02A8FEF7E0F90135ADB201
:1086700042F62A239D42CED1304612B0BDE8F081A9
:1086800007B5036801229B690DF10701984710B1F6
:108690009DF8070001E04FF0FF3003B05DF804FBE8
:1086A000A0F11000FFF7ECBF13B502AB026803F8AE
:1086B000011D146A19460122A04702B010BDA0F1A5
:1086C0001000FFF7F1BFD0F8A030988980B2704752
:1086D000A0F11000FFF7F7BF70B50D461646FEF784
:1086E000DDFA044632462946D0F8A00004F07BFFAC
:1086F000D4F8A83013B1BDE87040184770BD37B545
:108700000546D0F8B40080B10024009423462246E8
:10871000052104F0B1F9D5F8AC00C5F8B44020B19A
:1087200003B0BDE8304004F01CBF03B030BDD0F84A
:10873000A00004F016BFA0F11000FFF7F8BF08B5C5
:1087400092B2D0F8A00004F08FFF08BD07B5D0F8B2
:10875000A0000DF1070104F0A1FF10B19DF8070082
:1087600001E04FF0FF3003B05DF804FBA0F1100012
:10877000FFF7ECBF37B590F8B03004469BB10B4B18
:108780000093012203460A21002004F057F9C4F89F
:10879000B400054603F0E2FD0023024600930121E8
:1087A000284604F069F903B030BD00BFA18802007B
:1087B000F7B504460F4668461A49FFF78FF99DE85A
:1087C00006002046FFF76CF94FF47A73A361164B4D
:1087D0001649002603F108024033236122606846EF
:1087E0006661FFF77BF99DE8060004F12000FEF7C3
:1087F00041FA68460E49FFF771F99DE8060004F159
:108800006000FEF737FA2046C4F8A060C4F8A860FC
:10881000A4F8A470C4F8AC6084F8B060C4F8B46084
:1088200003B0F0BDE8140300F8140300D8140300EB
:108830005015030070B506461848FFF71CFC0146AA
:108840001648FEF7D7FC033885B203F0BFFF0128B6
:10885000284602D105F058FB01E003F04DF804462C
:10886000D8B12A460146D6F8AC0004F0FDFE024617
:1088700030B1214606F12000FEF7A8FA054600E0D7
:10888000012503F0A3FF0128204602D105F044FB97
:1088900001E003F040F8284670BD70BD243600208A
:1088A00008B504F015FAD0F8AC301BB1BDE80840AB
:1088B000FFF7C0BF08BD00002DE9F04790F8B030C9
:1088C00005468946174600F1200813B1D0F8AC30B0
:1088D0003BB9BAB249464046FEF778FAF0B90024EF
:1088E0002EE04046FEF762FA0028F8D0BEB23246CB
:1088F0004946D5F8AC0004F076FED5F8AC30044615
:108900001148B3F80CA0FFF7B6FB01460E48FEF77E
:1089100071FC1FFA8AFA0338824501DA3C460FE0FF
:108920002846FFF787FF0028D9D0A742F6D9321B87
:1089300092B209EB04014046FEF748FA0028EDD157
:108940002046BDE8F08700BF24360020A0F11000CB
:10895000FFF7B2BF0A4B10B503603833044603611A
:10896000D0F8AC0010B103685B68984704F1600070
:10897000FEF75CF804F12000FEF758F8204610BD21
:108980000015030010B50446FFF7E4FF204604F08D
:10899000C1FB204610BD0000F8B50446182004F0C5
:1089A000B7FB00220546012104F0A6FDB4F8A4108F
:1089B000C4F8A050284604F0BCFD2046FFF754F848
:1089C0000646B8BB01211C48FEF7E8FB04F1200570
:1089D000074610212846FEF766F93246112128463F
:1089E000FEF772F939462846FEF760F91349284622
:1089F000FEF77CF92846FEF721F80646D0B9603428
:108A000020460C21FEF74FF920460D49FEF761F98B
:108A1000112231462046FEF757F939462046FEF727
:108A200045F920460749FEF761F92046BDE8F840C0
:108A3000FEF704B83046F8BD243600206015030068
:108A4000D9860200641503000123037000234370DC
:108A500043608360C3818381704708B5FFF7F4FFEB
:108A600008BD10B50446217019B90A2003F059F861
:108A7000606010BD037810B5044613B9406803F078
:108A800077FA2046BDE81040FFF7DEBF0023816083
:108A90008281C3817047037870B505460C466BB977
:108AA0000123A4024FF47A716B70B4FBF1F1686892
:108AB00003F0A2F968B94FF0FF340CE00322002163
:108AC000012003F011F868600028E9D14FF0FF3071
:108AD00070BDEC89A4B22B7800266E701BB168685B
:108AE00003F046FA6E60204670BD4078704738B596
:108AF00085899542044628BF154619B12A468068E3
:108B000005F021FAA3682B44A360A3895B1BA38112
:108B1000E38915FA83F39BB2E381284638BD4068A8
:108B200020B100231A46194603F004B87047B1DF9C
:108B30007047B2DF7047000010B4054B054C0129A7
:108B40000CBF214619465DF8044B06F0A1B800BFE2
:108B5000811503006815030010B5044603F036FEC6
:108B60000128204603D1BDE8104005F0CDB9BDE88D
:108B7000104002F0C1BE0000F0B5064685B050209E
:108B80000D461746FFF7E8FF0446D8B15022394694
:108B900005F0D9F91820FFF7DFFF0B4A42600322E6
:108BA000027201960295039401AA0346046003CA67
:108BB000D8601068196158610021184604F046FC1D
:108BC0000120FFE705B0F0BD398E0200F0B54FF689
:108BD000FF739A4285B007460E4615464FF00004D3
:108BE00017D01820FFF7B8FF0B4A42600322027229
:108BF00001970296039501AA0346046003CAD86050
:108C00001068196158612146184604F01FFC0120C4
:108C100000E0204605B0F0BD918D020008B50C487B
:108C200000F039FB0B490A4800F0FFFA18B909496E
:108C3000074800F059FB0849054800F0F6FA28B942
:108C400005490348BDE8084000F04EBB08BD00BF21
:108C5000583A00209A150300AE15030030B591B0C4
:108C600015460A46014601A8FFF766FF0F4B002292
:108C700001A908A800F058FA08A800F069FA04460B
:108C800008B900240CE008A800F0B4F95028024606
:108C9000F7D1294608A800F09DF908A800F002FACB
:108CA00008A800F047F9204611B030BD583A00201E
:108CB00038B5044600F09EF9051E08DD204600F098
:108CC000BCF92918204600F0A7F9012038BD002082
:108CD00038BD0000F0B54FF6FF7391B09A420E46D2
:108CE00000AF3FD00146381DFFF726FF204B002282
:108CF000391D07F1200000F017FA07F1200000F0FD
:108D000027FA08B9002424E007F12000FFF7D0FF7C
:108D100007F12000FFF7CCFF07F1200000F06AF90F
:108D20000028EFDDC31D23F0070384B26D46ADEBD1
:108D3000030D2246694607F1200000F04BF9224658
:108D4000694603233046FFF7F2FEB0FA80F4640967
:108D5000AD4607F1200000F0A5F907F1200000F072
:108D6000E9F800E0002420464437BD46F0BD00BFCE
:108D7000583A002070B505460E461446D1B200F0B0
:108D8000DAF8224631462846BDE8704000F001B9C5
:108D90002DE9F04391B000AF07F140040E460021E9
:108DA00024F83E1D03238046914630462246FFF7B5
:108DB000C0FE7B886D46C3B3073323F00703ADEBDA
:108DC000030D2246032369463046FFF7B2FE0446F0
:108DD00058BB4A464146381DFFF7AEFE154B0122EF
:108DE000391D07F1200000F09FF907F1200000F085
:108DF000AFF9B0B1214607F1200000F00DF907F1FD
:108E00002000FFF755FF07F12000FFF751FF07F1A2
:108E100020007A886946FFF7ADFF07F1200000F0D7
:108E200041F907F1200000F085F84437AD46BD4612
:108E3000BDE8F083583A002030B5144601289DB0B3
:108E40000CBF528AE28D0D46014605A8FFF774FE5D
:108E500005A9254800F0E9F918B105A9224800F054
:108E6000F0F9214B012205A90CA800F05DF90CA82E
:108E700000F06EF9002832D0502221460CA8FFF7EE
:108E800079FF2022002114A805F083F8202314AADA
:108E900029461648FEF7B4F99DF850309BB994F86E
:108EA0004910039194F84A10029194F84B100191E3
:108EB00094F84C10009194F84D3094F84E200C49E1
:108EC00014A805F0E5FE14A805F046FF421C92B276
:108ED0000CA814A9FFF74EFF0CA800F0E3F80CA8AB
:108EE00000F028F81DB030BD583A0020243600208C
:108EF000D8150300F0B50346186880F30888586851
:108F0000FF2464B2EFF30585002D01D1A64600478A
:108F10002546064621273FBAF0B400240025002646
:108F20000027F0B4F92040B2004700BFF0BD00BFF9
:108F3000FFF7E0BF704707B5027F8DF8071032B921
:108F4000036801225B680DF10701984700E00020EB
:108F500003B05DF804FB10B5044604F0DBF82046CE
:108F600010BD10B5044603F031FC0128204603D1A2
:108F7000BDE8104004F0D0BFBDE8104002F0CBBC0B
:108F8000027F034622B9006959690268926A104754
:108F900070471346027F30B442B904692268156AEB
:108FA0000A46AC464169204630BC6047002030BCD0
:108FB0007047000010B54FF47A7400228460044CAE
:108FC00042600460016142618261027710BD00BFAE
:108FD000001603001346027F30B442B904692268C8
:108FE000556A0A46AC464169204630BC60470020BD
:108FF00030BC7047037F07B513B14FF0FF3008E076
:1090000001220DF10701FFF7E5FF0028F5DD9DF8CE
:10901000070003B05DF804FB0A46017F10B4034665
:1090200039B9006901680C6B596923465DF8044B36
:10903000184700205DF8044B7047027F034622B9B1
:10904000006959690268526B10470020704738B5B3
:10905000037F05467BB90368DB68984704462846CA
:10906000FFF7EBFF08B1411E00E001462846FFF77D
:10907000D3FF204638BD4FF0FF3038BD027F034696
:1090800022B9006959690268926B10470020704745
:1090900038B50546FFF7F2FF04462846FFF7CDFF37
:1090A000201A38BD416910B5044639B10069227FE4
:1090B0000368DB6A98476069FFF753FFA06908B14E
:1090C000FFF74FFF00236361A36110BD38B543690B
:1090D00005460C460BB1FFF7E5FF21462B4604F190
:1090E000200251F8040B43F8040B9142F9D12846B1
:1090F00038BDF0B5436989B004460E4617460BB13A
:10910000FFF7D0FF21690B6832465D6868463B4631
:10911000A84769462046FFF7D9FF6069003018BFAD
:10912000012009B0F0BD000070B54FF47A7600253B
:109130008660064E456004460660036145618561B0
:109140000577FFF7D6FF204670BD00BF001603006D
:109150004069003018BF01207047704708B502F021
:10916000AFFB002008BD08B501F55A6102EBC11044
:10917000029A194602F0AAFB002008BD08B501F5C5
:109180005A6102EBC1111846029A02F0A7FB0020B7
:1091900008BD10B5044603F0BDFF204610BD38B52C
:1091A000044679B904F13C0504342146284601F00F
:1091B00035FF90B92146284601F008F8B0FA80F052
:1091C000400938BD4FF4DA25284605F5805502F0F0
:1091D00091FBB5F5E82FF7D1E4E7002038BD08B5DD
:1091E0003C30002301F0B4FBC043C00F08BD10B5F4
:1091F000044603F0EBFA0128204603D1BDE81040F5
:1092000004F08ABEBDE8104002F085BB10B50446EC
:1092100003F0DCFA0128204603D1BDE8104004F039
:1092200073BEBDE8104002F067BB00B5C3B06A462C
:109230003C3000F08DFFB0FA80F0400943B05DF89B
:1092400004FB08B53C3002F081F8B0FA80F0400928
:1092500008BD08B53C3002F079F8012008BD08B51A
:109260003C3001F059F920EAE07008BD3C3001F0D3
:1092700079BD3C3001F007BB3C3000F05DBF3C30B5
:1092800000F05CBF3C300AB100F0D1BE01F0B8BDC7
:109290003C3000F041BF38B590F8805004466DB9BD
:1092A000012380F88030011D3C3000F08FFF343006
:1092B00004D123682946DB6920469847012038BD40
:1092C00073B501F55A61CD010024FF266019012212
:1092D0000DF1070101348DF8076002F0F7FA802CD8
:1092E000F4D1002002B070BD2DE9F0470B782F2B90
:1092F000064600AF0D460CBF481C08464FF000085C
:109300002F2105F0F8FC044620B3421B02F10803AC
:1093100023F00703E946ADEB030DEA468DF8008024
:109320006B460DEB02018B4202D003F8018FFAE786
:109330002946504604F007FE514606F13C0001F074
:1093400003FF20B1113002D00020CD460FE0601C99
:10935000CD46D5E7294606F13C0001F0F5FE28B1DF
:1093600010F1110F14BF0020012000E00120BD46C4
:10937000BDE8F0870E4B10B538220446002140F8B6
:10938000043B04F006FE0B4BA3600B4BE3600B4B5E
:1093900023610B4B63618023A361E3612362E022BD
:1093A000A3620023626284F88030204610BD00BFB3
:1093B0002C1603007D91020067910200C192020009
:1093C0005D9102002DE9F843984605460E46174682
:1093D000FFF7F0FDB8F1000F05D0B8F1010F2BD168
:1093E00040F2031901E04FF001093820FFF70EFFAA
:1093F000044608B33C363A464B462146304601F017
:109400009EFF024618B12046FFF7F1FE14E0B8F1C6
:10941000010F04D102232146304601F099FA0023BE
:109420002B776C61384605F097FC0130FFF7EEFEB4
:109430003946A86105F077FC2846BDE8F883F8B501
:109440000F4615460446FFF7B5FD2C20FFF7DEFE5C
:109450002A460646014607F13C0000F0BFFD18B160
:109460003046FFF7C4FE0CE00123237766612846EF
:1094700005F072FC0130FFF7C9FE2946A06105F036
:1094800052FC2046F8BD000010B5054C2046FFF701
:1094900071FF2046034A0449BDE8104004F0B6BC01
:1094A000583A0020003400205B910200F0B50C46D1
:1094B000CBB0154606461F46FFF77CFD08AA294695
:1094C00004F13C0000F044FE48B99DF82030112B17
:1094D00009D02A4621466846FFF7B1FF09E002306D
:1094E0000ED1012F0CD13B462A4621466846FFF794
:1094F00069FF69463046FFF7E9FD6846FFF71AFD48
:1095000030464BB0F0BD00002DE9F043CBB000AFCA
:1095100080460E4614461D46FFF74CFD07F120021B
:10952000214606F13C0000F091FD012848D107F1E9
:109530002801264805F0EDFB0028EFD007F12801AF
:10954000234805F0E6FB0028E8D0284605F004FC97
:10955000044607F1280005F0FFFB2044093020F005
:109560000700E946ADEB000D2946684605F0DBFB38
:109570002B782F2B6C4601D16B781BB115492046F7
:1095800005F0AAFB07F12801204605F0A5FB97F896
:109590002030112B07D197F8483122463146384602
:1095A000FFF710FF04E0224631463846FFF747FF39
:1095B00039464046FFF78AFD3846FFF7BBFCCD46EB
:1095C000404607F59677BD46BDE8F083C01103001D
:1095D000BF1103002016030003681A6AC36AD31A76
:1095E0001944B1FBF2F302FB1311036B994210B55E
:1095F0000BD24C09C26B012301F01F0103FA01F1E8
:1096000052F82430194342F82410002010BD03689A
:10961000013304D04068431C584258417047012030
:10962000704710B50B6804689C4209D040684A68CE
:10963000904205D0944203D0181A18BF012010BDE3
:10964000002010BD03689B6A10B5044613B9C069B9
:1096500002F061F92368DB6A13B9A06A02F05BF9D2
:1096600023681B6B23B9E06BBDE8104002F053B9CF
:1096700010BD00002DE9F04F984603681B6A85B0C5
:10968000434582460F4691460E9C0F9E109D28D85A
:10969000354B364A3648122104F0BEFBDAF800009A
:1096A000B9F1000F20D0D9F8003098451CD1D9F875
:1096B0000410A14218D8836901EB030B5C4513D257
:1096C000C4EB0B0BAB45D9F8083028BFAB46611A89
:1096D00030465A46194404F036FC5E445C44CBEBF9
:1096E0000505002DDAD13BE03B6898450FD179683C
:1096F0008C420CD3436901EB030B5C4507D2C4EBEE
:109700000B0BAB4528BFAB46611ABB68E0E743696A
:10971000B4FBF3F203FB1242AAB99D4213D3B5FB8B
:10972000F3F203FB125BCBEB050300930393436857
:1097300022461D4641463346A84790B9039B5D46E5
:109740001E441C44CDE7A21AC7F800807A6000933B
:10975000D0F804B0BB684146D8470028C1D000E02B
:10976000284605B0BDE8F08F921603007816030076
:10977000B01603001FB5069C8DE81C000B460022A6
:1097800000F11401FFF776FF04B010BD10B50C46D0
:109790008269A068FF2104F0FCFB4FF0FF332360D7
:1097A00010BD00008B6A10B5044601600BB1C361A7
:1097B00005E0486902F0A0F8E06100285FD0236866
:1097C000DA6A0AB1A26205E0986902F095F8A0622F
:1097D000002854D0206804F12001FFF7D7FF4FF094
:1097E000FF3363612368586AC20604D0274B284AB6
:1097F00040F6130104E030B9264B254A40F6140127
:10980000254804F009FB1B6B0BB1E36305E0C008BE
:1098100002F072F8E063002831D023689869596932
:10982000B0FBF1F201FB120222B11C4B184A40F6C8
:109830001F01E5E7DA69B2FBF0F300FB132020B16A
:10984000174B134A4FF40261DAE74FF0FF31A2F1F0
:109850000803B1FBF3F30B44B3FA83F3C3F1200322
:10986000B2EB830F04D20F4B094A40F62401C7E73D
:109870006160A160E060206184F8400010BD204676
:10988000FFF7E0FE6FF00B0010BD00BF18170300DC
:10989000B518030036170300B01603004E17030077
:1098A0007D170300AD170300C069F8B50E68A0F17D
:1098B00008050F46B6FBF5F080B1013804F092FAC6
:1098C0000230A6EB8004B4FBF5F4204604F08AFADB
:1098D00004FB1565A5EB800038602046F8BD2DE936
:1098E000F04F89B09B46129B139F884608A9013B05
:1098F000064641F80C3D00689146FFF7D5FF0DF193
:10990000180A044659461498B84718BB0CB304F01B
:109910000105C5F10205AB0002938DE801045B4629
:109920004A4641463046FFF7A5FE98B9034605F181
:10993000FF3B5B4506DA06991498B84701230028D7
:10994000F7D007E008AB03EB8B0B641B5BF808BC9C
:10995000D8E7204609B0BDE8F08F00002DE9F04FB0
:1099600089B0064689460592139F1BB94FF0FF3216
:109970003A6042E008A9013B41F8043D0068FFF766
:1099800093FF12A905463068FFF78EFF4FF0040AD7
:1099900080460DF1140BA8452CD2C8EB0503B3FA91
:1099A00083F395FAA5F4B4FA84F4C3F11F039C423F
:1099B00028BF1C46A3000093CDF808A0059BCDF856
:1099C00004B0002249463046FFF754FE059BB8B963
:1099D000012B03D93268126A934206D90A4B0B4A0B
:1099E0000B484FF48F6104F017FA012303FA04F4D3
:1099F0002D1BD0E7059B3B60129B149A002013603F
:109A000009B0BDE8F08F00BFF9170300A8180300E4
:109A1000B01603002DE9F04F87B00646109C119D4B
:109A20000F46904625444FF001090DF1170AC4EB8B
:109A3000030BAC4214D00BEB04030093CDF8089059
:109A4000CDF804A04346002239463046FFF712FE07
:109A500038B914F8013B9DF817209A42E9D000E08C
:109A6000012007B0BDE8F08FF7B50C4609684B1C24
:109A7000054616461ED000686268836900938768B1
:109A8000A368B847B8B926B921462868FFF77EFE13
:109A900010E02B689B690193A3680093314694E81A
:109AA0000C002846FFF7B6FF002804DBECD16FF06E
:109AB000330000E0002003B0F0BD00002DE9F04FBE
:109AC000994603681B6A85B04B450746884692460F
:109AD0000E9D0F9E109C25D83A4B3B4A9C212CE0B2
:109AE000D8F80400854223D33B689B6900EB030B45
:109AF0005D451DD2C5EB0B0BA345D8F8083028BF38
:109B0000A346281A5A463146184404F01CFA3B680A
:109B10009A695D44B5FBF2F302FB13535E44CBEB51
:109B200004046BB1002C48D0D8F800209145D7D060
:109B300001320DD0254B244AB721254804F06CF999
:109B4000524641463846FFF78FFF0028EAD035E0FD
:109B500038688269B5FBF2F302FB13533BBB9442B6
:109B600025D3B4FBF2F302FB134BCBEB04030093BE
:109B7000039383682A461C4649463346A047E8B902
:109B8000BAF1000F04D1039B5C461E441D44C9E793
:109B9000039B019300962B464A4651463846FFF7F1
:109BA00039FF00280ADBEED16FF0330006E0EB1A34
:109BB000C8F80090C8F80430B4E7204605B0BDE806
:109BC000F08F00BF921603009918030024180300B9
:109BD000B01603002DE9F04786B00546894600F12E
:109BE0001408D71814464FF0010A0DF11706BC42AD
:109BF0000FD08DE850044B46002241462846FFF71F
:109C000039FD013430B9012231460E9801F0EEFBE6
:109C1000EDE7002006B0BDE8F0872DE9F04F8BB0EE
:109C20001368049300245368059380460E46274624
:109C300006AD4FF0100A04AB002253F82490CDF883
:109C400000A02B4649464046FFF794FD30BB27B1A4
:109C5000F269069B9B1A002B3ADB079B23F000431B
:109C6000132B35D9D8F80020D269934230D80DF1A2
:109C7000280B4FF0FF334BF81C3D10222946584665
:109C800001F0B4FB079BCDF800B023F00043103B7C
:109C9000102249464046FFF79DFF18B110F1340FDE
:109CA0001ED115E0039B9BB9631C0AAA03F00103B4
:109CB00002EB830306F11C0753F8183CB36095E8E8
:109CC0000F00C6F80490C6F80CA087E80F00012723
:109CD0000134022CAFD1002F0CBF6FF033000020F5
:109CE0000BB0BDE8F08F2DE9F34106460C46154652
:109CF00001F124074FF01008216AE26821F00043C7
:109D000002F10C00043B984211D9002903DB2A60C0
:109D10006FF0010026E03A4621463046FFF77DFF0E
:109D200000BBA369C4F80C801433A361E4E70C23DF
:109D3000009361682B1D3046FFF71CFD90B96A79CE
:109D4000A979E3682B6004321144EA790A44134488
:109D5000E3606B79AA7904331344EA791344A26966
:109D60001344A36102B0BDE8F08130B5044693B05E
:109D700004300D46FFF74BFC40BB0190012301AAC4
:109D800007A920460293FFF748FF00BB10A8FFF782
:109D90003EFCD8B910AA07A92046FFF73EFFB0B98C
:109DA00003AA07A92046FFF79EFF10B1831CEDD040
:109DB0000DE09DF91030002BF2DB0822294605A8A2
:109DC00004F0B2F80028EBD1012000E0002013B02D
:109DD00030BD2DE9F8431D46002353620123074699
:109DE00088461446936202F1240605F108093046BC
:109DF000FFF70DFCE0B9324621463846FFF70DFF6C
:109E0000C8B92A4621463846FFF76DFF18B1831CB2
:109E1000EDD0BDE8F8832B7903F07003202BF0D14F
:109E200041464846FFF7FDFB0028EAD1012002E049
:109E30000020BDE8F883BDE8F883F7B50546043097
:109E40000F461646FFF7E3FB08B100201DE0009027
:109E500001236A46314628460193FFF7DEFEA0B98A
:109E600006F124042046FFF7D2FB0028EDD1394645
:109E70002046FFF7D6FB38B1224631462846FFF789
:109E8000CCFE0028EED000E0012003B0F0BD0000C1
:109E90002DE9F04F85B01E68029322231371082329
:109EA000537100239371D371436893608368D360C7
:109EB00007468B4614464749304604F055FF06EBEB
:109EC000000882464349404604F035FF0128814698
:109ED00008EB000504D116F80A302E2B0AD107E052
:109EE000022807D102463C49404604F01DF808B953
:109EF0002E46E0E72E464FF0010A3649284604F088
:109F000033FF05443349284604F015FF034690B15A
:109F100002280CD1024603902F49284604F004F889
:109F2000039B20B9BAF1010A03D1AE1CC3E70AF1C1
:109F3000010A1D44E1E798F80000002846D0029B82
:109F4000C3F800802379222B3ED104F108052A466C
:109F500059463846FFF761FE002837D107F1140A49
:109F6000224659463846FFF7BEFE78BB237903F0F8
:109F70007F03112B01D0222BF2D1E3799945EFD148
:109F80002368627904331344A2798DE800031344F3
:109F90005146DBF804203846FFF73CFD002815DB6E
:109FA000DED094F90430002B85DA29463846FFF7D5
:109FB000DCFE002803D009DB6FF0010006E0237906
:109FC00003F07F03237176E76FF0130005B0BDE85F
:109FD000F08F00BF20160300BF11030030B587B01B
:109FE00006AB054643F8142D42684A6082688A60D1
:109FF00002AA0C46FFF74CFFB8B99DF80C30222B93
:10A0000011D104AA21462846FFF707FE68B9636804
:10A010002361A36863610E23A3611023E3602B69AE
:10A0200023602C6101E06FF0130007B030BD0369BD
:10A0300000F110023BB18B4202D11B68136002E0B9
:10A040001A461B68F6E700207047000070B50D4601
:10A05000144686B006464FF484720021204603F071
:10A0600098FFAB690E2B05D12046222300F8083B50
:10A07000274906E00F2B13D12046222300F8083B86
:10A08000244904F050FEAB690133AB6101203DE08F
:10A090009DF80C3003F07F02112A0CD0222A0AD03E
:10A0A00002AA29463046FFF71EFE0028F0D0821C87
:10A0B00008BF00202AE01B060CD504A93046FFF794
:10A0C00054FE002822DBEBD19DF80C3003F07F0317
:10A0D0008DF80C309DF80C302370112B08BF059BB8
:10A0E000029A08BF63609DF80D309DF80E1004328F
:10A0F0001A449DF80F3000930A4404F1080369687C
:10A100003046FFF737FB002808BF012006B070BDBE
:10A11000C0110300BF11030010B501F110020C467D
:10A12000FFF77BFD38B9236963606369A3600E2381
:10A13000A3611023E36010BD086A7047CB694869CA
:10A1400013F4003F03D00B6A984238BF184670479B
:10A1500070B594B014AB154643F8441D05AA09A97F
:10A160000646FFF795FE014648BB4FF48472284629
:10A1700003F00FFF9DF818302B70112B04BF089BC4
:10A180006B60311D07A8FFF74CFA05F10803044680
:10A1900020B90D49184604F0C6FD11E0059A9DF856
:10A1A00019109DF81B00009004320A449DF81A1003
:10A1B00030460A440A99FFF7DDFA044600E00446F7
:10A1C000204614B070BD00BF2016030030B599B012
:10A1D0000546FFF7E7FA002834D12B68E8621B6ACE
:10A1E00028636863AB630290012302AA0DA9284685
:10A1F0000393FFF712FD044600BB202300931022B7
:10A2000005AB0E992846FFF7B5FA0446B0B9069B90
:10A210006B60079BAB6008220B490BA803F084FE20
:10A2200038B90A9B1A0C012A06D19BB2012B03D81C
:10A2300008E06FF0330401E06FF015042846FFF7E3
:10A2400001FA204619B030BD401803002DE9F04155
:10A25000054696B004300E461746FFF7D8F9002899
:10A2600079D101230590069305993846B047002817
:10A2700072D106993846B04700286DD105AA0BA9BE
:10A280002846FFF7CAFC002866D10C24139B0E9ABF
:10A2900023F0004302F10C01043B994226D80094BC
:10A2A00008AB0C992846FFF765FA002854D19DF8B1
:10A2B00021309DF82220043313449DF823201344B9
:10A2C0000E9A13440E939DF8203003F07003102B68
:10A2D000DCD10A9B002BD9D08DE8C8000246099B2F
:10A2E00005F114012846FFF7FAFACCE7149B059311
:10A2F00005A8159B0693FFF78AF90028B4D0EC68EF
:10A3000005F114082CB3E369DA0303D4E3699B0372
:10A3100011D50EE06369002BF8D08DE8C80004F178
:10A320002C02236941462846FFF7D9FA0028EDD0D0
:10A3300012E0236A0BB92468E4E78DE8C80004F151
:10A340002C02636A41462846FFF7C9FA0028F2D07A
:10A3500002E0204600E0002016B0BDE8F0810000D9
:10A36000F8B504460D460126D4F830E0626BA36BC5
:10A3700072452BD0511C6163013BE76BA36351090C
:10A3800002F01F0357F8211006FA03F30B42EDD138
:10A39000E36A1A442368196AB2FBF1F301FB132242
:10A3A0002A60266B0125626BB2422CD0510902F063
:10A3B0001F0357F8210005FA03F3184005D0A36BDB
:10A3C0000132013B6263A363EDE7F8BDEBB12068A6
:10A3D000E26A076A7244B2FBF7F107FB1122E262FC
:10A3E000426A934294BF2363226300216163D208CF
:10A3F000E06B03F0CEFD224605492046FFF726FF1D
:10A400000028B1D0F8BD0020F8BD6FF01B00F8BDEA
:10A41000D995020037B50C4604310546FFF7A0FF79
:10A42000F0B904F108012846FFF79AFFC0B90423E8
:10A430000093024604F11C0361682846FFF79AF96D
:10A4400010B110F1340F0BD1E3690133E361142330
:10A4500023624FF0FF336362A3621023E3600020A6
:10A4600003B030BD2DE9F04F044687B00E4600F131
:10A47000140A05A92046FFF773FF002846D120687B
:10A480000599C3689847054628B9804606F12C0B04
:10A490004FF0010920E010F1340FEAD037E00DF160
:10A4A0001307CDF808900197CDF80080736A5A46DB
:10A4B00051462046FFF7DEF840BBCDF808900197E3
:10A4C000CDF80080059B524604F120012046FFF79D
:10A4D000F5FA28B908F10108B36A9845DFD303E01B
:10A4E00010F1340FC5D011E02368A16A9A69706B2E
:10A4F00003F029FD236AF362636A336304F12001E8
:10A500002068FFF743F9059B736200E00546284683
:10A5100007B0BDE8F08F00002DE9F04F8DB0054683
:10A520000793CB69059203F00302012A0C4600F061
:10A5300033815E0308D4E3691A050AD56269216A8A
:10A54000914238BF226204E000F034F90028F2D0D2
:10A5500024E113F4003602D0DDF81C8044E0276AC1
:10A5600063699F42F8D92362236A9F42F4D9012389
:10A570000DF12202214628468DF82260FFF7CCFF1C
:10A580000028F1DA0AE113F4003F04F12C0A30D07C
:10A590002B68A26ADB699A4242D0A946A76A59F899
:10A5A000143BDB69DF1B474528BF474604F12C0AF3
:10A5B000059B0193A36A00930297636A4A4651463A
:10A5C0002846FFF77BFA002840F0D280236A3B44FC
:10A5D0002362A36A3B44A362059B3B4405932B681B
:10A5E0001B6AAB63C7EB0808E369B8F1000FCAD177
:10A5F000CDE0236AA3B104F12802013B029204F1E9
:10A600002402019200932269636951462846FFF7AC
:10A61000A5F9002840F0B68051462868FFF7B6F843
:10A620002B68626A1B6AAB63236A099205F11409FD
:10A630000A930BA92846FFF793FE002840F08B8071
:10A640000B99012903D92868036A994204D9554B0B
:10A65000554A40F28C416DE0C3689847064618B1F0
:10A6600010F1340F73D077E00A9B4BB30CA9013B78
:10A6700041F8083D2868FFF717F92A680A9BD26954
:10A68000013393420A931ED04FF0010B0DF12307C3
:10A690000A9B9E4214D28DE8C008099B00224946BD
:10A6A0002846FEF7E7FF002855D18DE8C0080B9B30
:10A6B0004A4651462846FFF701FAE0B90136E7E776
:10A6C0000B9A626241E000F1010B9BFAABFBBBFA13
:10A6D0008BFB0BF101030693374604230293BE0064
:10A6E00009AB019300960B9B4A4651462846FFF75B
:10A6F000E5F9099B18B110F1340F28D02BE0BB45C8
:10A7000003D1099B012B0DD810E00422029209AA63
:10A7100001920096024649462846FEF7ABFF002804
:10A72000EFD018E02A68126A934206D91F4B1E4ADE
:10A7300040F2D3411E4803F06FFB069B0137BB423A
:10A74000CBD80B9B6362069B9B00A3620BE04FF090
:10A75000FF332B626DE706462EB1E36943F4002315
:10A76000E36130461AE0E36943F40033E36114E740
:10A7700010F1340F06D121462846FFF773FE00285A
:10A780003FF416AFE36943F40023E36106E023F4EA
:10A790000023E361079801E06FF008000DB0BDE809
:10A7A000F08F00BF49180300CC180300F91703000D
:10A7B000B0160300CB695A032DE9F04144BF23F4DE
:10A7C0008023CB610546C86944BF4FF0FF32CA629F
:10A7D00010F4003090B00C4652D00E6A382200219E
:10A7E00002A805F1140703F0D4FB2369069397E848
:10A7F0000700636907930123099310AB03E907007E
:10A800004FF0FF330A966B619846226A63699A4259
:10A8100019D201230DF1070202A9284600F033F8EE
:10A8200000282DDB01230DF1070221462846FFF702
:10A8300073FE002824DB6B6901331CBFCDF8348024
:10A84000C5F81480E1E704F12C083A464146284651
:10A85000FFF70AF948B110F1340F11D1214628460B
:10A86000FFF700FE0028F0D00AE0636A2361236A44
:10A870006361E369266223F4003343F48033E361C8
:10A8800010B0BDE8F0812DE9F04F9146CA691E462F
:10A8900002F00303022B87B080460C4651D092038E
:10A8A00010D4206A626990424ED2101A864228BFA4
:10A8B000064604F12803374604F12C0A059304F1F7
:10A8C000240B27E0FFF776FF0028EAD03DE0E3699C
:10A8D0005B0322D5D8F80030A26ADB699A421CD00B
:10A8E000D8F80020A36AD569ED1ABD4228BF3D46BD
:10A8F0008DE808020295636A002251464046FEF741
:10A90000B9FE10BB236A2B442362A36A2B44A362C3
:10A91000A9447F1B002FDAD111E0059B0293236A23
:10A920000093CDF804B06369226951464046FFF7B1
:10A9300015F850B9E36943F48023E361D0E730466A
:10A9400003E06FF0080000E0002007B0BDE8F08FE2
:10A9500070B50D4614461E46FFF72CFF98B96EB130
:10A96000012E02D1002C2A6A03E0022E07D16A6967
:10A97000002C02DA6342934203D814442C62286A02
:10A9800070BD6FF0150070BDF0B50127061D80F891
:10A990004070A7B004463046FEF739FE0546002851
:10A9A00078D101462C2205A803F0F3FA4FF00043BA
:10A9B0002C22294610A80D9303F0EBFA1A9723686E
:10A9C0001B6A9D4263D219A8FEF721FE002861D1BF
:10A9D00019AA10A92046FFF720F9002865D10D9B80
:10A9E000002B1DDB3046FEF712FE18B1199B0E93AB
:10A9F0001A9B53E001AB1BAA0EA92046FFF7E9F909
:10AA0000002852DBF2D0039B0E9A0F99934202D199
:10AA10000498884204D08B423ED104998A423BD1AB
:10AA20001BAA10A92046FFF75EF980B1831C3CD118
:10AA30000DF1400EBEE80F0005AF0FC7BEE80F00D6
:10AA40000FC79EE80700013587E80700B7E79DF9C3
:10AA50007030002BE4DA1DA92046FFF786F90028A4
:10AA600023DB05D01BAA10A9204600F055FA0BE005
:10AA70009DF8703003F07F038DF870301BAA0346F9
:10AA800010A9204600F055F90028C9D00DE06FF05C
:10AA900033000AE0002008E00E93049B0F9300238C
:10AAA0001A4605A9204600F002F827B0F0BD2DE9AE
:10AAB000F04F9DB04C680693CB698F6804920133C8
:10AAC0000D46CB614F608C6006460C320021069B20
:10AAD000994202F1100209DA286A52F8103C034444
:10AAE00052F8180C1B1A2B620131F0E7002309976A
:10AAF0000A94059330686968C3689847044600283B
:10AB000040F091800DF170094FF0FF3349F83C3D62
:10AB100005F11C0810224146484606F1200A10277C
:10AB200000F064FC8DE81001224602976B685146E4
:10AB30003046FEF7C3FF0446002874D1B84683466A
:10AB4000CDF81C902B6A23F00043043B9F424CD26B
:10AB5000069B9B4527DA4FEA0B13049A02EB030985
:10AB6000D35898451FD1D9F80C20D9F80810079868
:10AB700000F03CFCD9F80C300293D9F8083001936E
:10AB800000976B68002251463046FEF797FF044657
:10AB9000002848D1D9F804309844D9F80C300BF18A
:10ABA000010B1F44CEE701230093424611AB0A99E3
:10ABB0003046FEF7DFFD0446002840F0B680012253
:10ABC00011A9079800F012FC0123029311AB019325
:10ABD000224600976B6851463046FEF76FFF0446E9
:10ABE00008BB08F101080137ACE704230DF1340874
:10ABF00002938DE880016B68002251463046FEF7D3
:10AC00005DFF044678B94FF0FF3302467361514649
:10AC10003046FEF729FF28B9306803699847044693
:10AC200028B100E0044614F1340F1AD07DE01CAFC7
:10AC30004FF0FF3347F82C3D2B6A009723F0004379
:10AC40000246043B69683046FEF7C4FF00286BD11A
:10AC50000D9B119A9A4204D1059BCBB936692F1DE1
:10AC60005CE04FF0FF33336200230B930BA9012309
:10AC700009A80C93FEF7D5FC002852D0291D3046B8
:10AC8000FFF76EFB0123059300283FF433AF4BE041
:10AC900006F104094846FEF7BAFC00BB43463A46B3
:10ACA00009A93046FFF795F800283DDB17D06B68FF
:10ACB0000F93AB681093424600233946304600F0AC
:10ACC00038F8F0B9494609A8FEF7ABFC18B96B682B
:10ACD0007360AB68B3603046FFF756FE11E03A464A
:10ACE00009A93046FFF7A9F800280ADBB6D06B683F
:10ACF0001A93AB681B9300231A4639463046FFF778
:10AD0000D6FE0028AAD00FE03946301DFEF789FC98
:10AD100018B96B687360AB68B3603668002EF3D106
:10AD200003E06FF0330400E0044620461DB0BDE8A8
:10AD3000F08F70B5154688B055F8044BD27906935C
:10AD40000C26002B009405920792344414BF022372
:10AD500001236A460196029503960494FFF7A7FE25
:10AD600008B070BD30B593B00C460546FFF722FD24
:10AD7000014600283AD1E36903F41023B3F5803F7C
:10AD800034D1221D1046FEF742FC00282ED107A91F
:10AD90002846FEF742FF50BB0146102203A803F0ED
:10ADA000F8F80C23E26800930899039204AB284654
:10ADB000FEF7E0FCD8B99DF81030112B06D00D4BF2
:10ADC0000D4A0E4840F2136103F026F823690593FB
:10ADD0006369069303AA034607A92846FFF7A9FF5C
:10ADE00028B9E36923F48033E36100E0084613B037
:10ADF00030BD00BF78180300BE180300B016030072
:10AE000070B505460C46FFF7ADFFEB68064605F149
:10AE10000C023BB19C4202D12368136002E01A4647
:10AE20001B68F6E7A3690BB11B682BB92B685B6B3A
:10AE300013B9606B00F06FFD304670BD2DE9F04333
:10AE4000804695B00E461746994601F124047A795A
:10AE5000B979F879336A04320A44D8F80010024408
:10AE6000C9691A448A4211D8043B47F8043B0022BE
:10AE70000C2109930A920C910D930E920B97CDF829
:10AE80003C901090022309AA314637E0002B39DBB1
:10AE900035460FCD09AC0FC40FCD0FC495E80700A0
:10AEA00084E8070031464046FFF7B4FA002830D165
:10AEB000129B7362139BB362336A02903A46043B5F
:10AEC00042F8043B0193039205930C22FB79049210
:10AED0000690089301AA022331464046CDF81C9003
:10AEE000FFF7E5FDA8B9119B43F000431193736888
:10AEF0001293B36813930246034609A94046FFF72D
:10AF0000D6FD06E0224631464046FEF786FE002882
:10AF10009DD015B0BDE8F0832DE9F0430B6A0E46D5
:10AF200023F0004153791546927904331344EA79AA
:10AF30001344143399428DB0074618D101AA311D2C
:10AF4000FEF77BFF002865DB099B002B0FDA326AD6
:10AF500062F0004213400993736A0A93B36A0B9339
:10AF600000231A4601A93846FFF7A1FD52E02B68DD
:10AF700001936B79AA7904331A44EB791344029351
:10AF800000230393049301AA012331463846FFF7B7
:10AF90008EFD00283ED1FC6806F104094FF0FF3811
:10AFA000C4B14946201DFEF73CFB88B9E3682A6816
:10AFB000934204D1C4F80480C4F8088008E007D99B
:10AFC0006A79A97904321144EA790A449B1AE36048
:10AFD0002468E5E73C690436DCB13146201DFEF704
:10AFE00020FBA0B9E3682A68934210D96A79A9794D
:10AFF00004321144EA790A449B1AE3606B79A97917
:10B00000EA7904330B441A44A3699B1AA3612468A8
:10B01000E2E720460DB0BDE8F08300002DE9F047DF
:10B02000A6B00546FEF7BEFB0446002840F0868029
:10B030002B685A6A0146D208E86B02F0AAFF2A6818
:10B04000EC62136A526A9A4294BF2A632B636C6360
:10B05000AB6310A92846FFF7DDF9044600286AD142
:10B060001BA92846FFF7D6F90446002863D10346FA
:10B0700002461BA92846FFF71AFD044600285AD1AC
:10B080001C9F1D9E6F600146AE60242207A802F03F
:10B0900080FF2E228DF8202014228DF821200822F6
:10B0A0008DF823202A680997D1690B912549126AE6
:10B0B00008680C9249680A964FF001120D920EAA88
:10B0C000102303C24FF02009342219971A960793D0
:10B0D00018920227264698460DEB090A012303AA77
:10B0E00010A92846CDF80C80CDF81090CDF814A00A
:10B0F000CDF81890FFF7DBFC044610B110F1340FC7
:10B1000019D11EB9B4FA84F4640900E00124013FA6
:10B110002646E3D16CB1012301AA10A92846019764
:10B120000293FEF77AFD044628B92B681B6AAB63CD
:10B1300001E06FF033042846FEF784FA204626B07B
:10B14000BDE8F0874018030030B590F840309DB05E
:10B15000054601914BB101AB02AA06A92846FEF7AC
:10B1600097FE831C04460CD104E0FFF70DFC002879
:10B17000F1D03EE02F21019803F0BDFD002837D12A
:10B1800004E0002808BF6FF0100032E02B681B6A53
:10B19000AB6311A92846FFF73DF950BB0F9B1A93EB
:10B1A000109B1B930246034611A92846FFF77FFC1C
:10B1B000F8B9019C8DF80E0022238DF80C30204642
:10B1C00008238DF80D3003F0C7FD129A139B8DF8FC
:10B1D0000F00049205930F92109302AA234606A92A
:10B1E0002846FFF72BFE20B92B681B6AAB6300E0F3
:10B1F00020461DB030BD2DE9F0471F4692B003F048
:10B200000303012B06460C460192DDF8688008D145
:10B2100001AB03AA07A93046FEF73AFE054648B936
:10B2200041E090F84030002BF2D1FFF7ADFB002851
:10B23000EED081E002307BD1DDF804902F2148462A
:10B2400003F059FD8246002872D1F90570D511230B
:10B250008DF810308DF81200082348468DF8113013
:10B2600003F07AFD4FF0FF338DF81300059303AA26
:10B270004B4607A93046CDF818A0FFF7DFFD0028A0
:10B280005AD1089B6360099BA360039BE360002283
:10B29000059B23612262069BC4F818807A056361CE
:10B2A000E76109D411E09DF81030222B42D0BB0594
:10B2B000E7D56FF010003FE013B147F48037E76146
:10B2C0004FF0FF332361002363614FF0FF33E362EC
:10B2D000B8F1000F04D0D8F800300BB1636315E06B
:10B2E00033685A6B32B1F36813B16FF00B0023E08F
:10B2F00062630BE0E26902F00302012A0CBF5869A5
:10B30000986900F0F9FA60630028EED04FF0FF333F
:10B31000E362E36903F00303012B04D004F12C0181
:10B320003068FEF733FAF36823600020F46003E02E
:10B33000284601E06FF0140012B0BDE8F08713B5A5
:10B3400000240094FFF757FF02B010BD30B590F80D
:10B3500040309DB0044601913BB101AB02AA06A961
:10B360002046FEF795FD28B137E0FFF70DFB0028DA
:10B37000F3D032E09DF80C30222B07D002AA06A9A8
:10B380002046FFF7C9FD054640B125E004AA11A9F2
:10B390002046FEF742FC0028F0D01EE09DF80C305D
:10B3A000222B19D106AA12A92046FEF746FD002835
:10B3B00013DB06D10A4B0B4A0B4840F26E7102F0C8
:10B3C0002BFD1A9B0F931B9B10932A462B4606A915
:10B3D0002046FFF76CFB00E028461DB030BD00BFE3
:10B3E0009518030087160300B0160300F0B50E4D44
:10B3F0000A44914216D006680F4611F8014B74407A
:10B4000004F00F0455F8243083EA161303603C78E7
:10B4100083EA141404F00F0455F8244084EA13134B
:10B420000360E6E7F0BD00BFDC18030008B50121AA
:10B43000112002F0B7F9112002F010FA13200121B7
:10B4400002F0B0F91320BDE8084002F007BA2DE978
:10B45000F04106460D4601EB02080C464445A4EBBC
:10B46000050707D0336814F8011B1B68304698475E
:10B470000028F3D13846BDE8F08170B505460C468A
:10B48000084649B103F068FC2B680246214628466D
:10B490005B68BDE87040184770BD08B5FFF7EDFF69
:10B4A00008BD000008B50249FFF7E7FF08BD00BF6F
:10B4B000E519030038B50546FFF7DFFF04462846C7
:10B4C000FFF7F0FF204438BD90F862007047036832
:10B4D0001322DB691847143002F0D9B938B590F857
:10B4E0005C305AB25209044601212032124803F05E
:10B4F0001F0301FA03F340F8223023690422C3F842
:10B50000082300254FF0FF32596004F11400D96080
:10B51000C3F80055C3F80C25C3F81425C3F8082553
:10B52000C3F8102502F0B3F9606E00F021FD6566E6
:10B5300084F8625038BD00BF00E100E0143002F032
:10B54000B8B9143002F0BBB9143002F0A4B938B560
:10B5500004460D46406E4FF0FF3100F04DFC22696D
:10B56000C2F81C55D2F81C31002BFBD00023C2F8C6
:10B570001C3119461A46606E00F0DCFA012038BD15
:10B5800038B590F862300446002B40F0AC80026978
:10B5900090F85E00C2F80C0594F85D00C2F814053E
:10B5A00094F86100012801BF94F85F30C2F81035AB
:10B5B00094F86030C2F8083514BFC2F86C35C2F890
:10B5C0006C05B1F5966F2ED9B1F5166F2ED9B1F580
:10B5D000965F2ED9B1F5165F2DD9B1F5615F2CD9E3
:10B5E000B1F5964F2BD9B1F5E14F2AD9B1F5164FE8
:10B5F00029D9B1F5614F29D9B1F5963F29D9B1F5CE
:10B60000E13F28D9B1F5613F28D9374B994228D974
:10B61000B1F5E12F28D9B1F5612F8CBF4FF08053E0
:10B620004FF0706322E04FF49E231FE04FF41D2380
:10B630001CE02E4B1AE02E4B18E02E4B16E02E4B42
:10B6400014E02E4B12E04FF41D030FE04FF46B0398
:10B650000CE02B4B0AE04FF0EB7307E04FF06C73FC
:10B6600004E04FF0806301E04FF0E863C2F8243556
:10B6700000210423C2F80035C2F80811C2F81C11D9
:10B68000012111609160C2F8043394F85C2053B238
:10B69000D2B202F01F055809A9406030194D002BA5
:10B6A00045F8201006DA184B02F00F02134460220E
:10B6B0001A7606E003F1604303F56143602283F8E4
:10B6C000002394F85C300F495AB20125520903F067
:10B6D0001F0305FA03F341F82230284600F0B2FABE
:10B6E00084F86250606638BD90D0030000B013004B
:10B6F0000050270000F03A0000A04E0000C0750086
:10B7000000903A0100E100E0FCEC00E008B5044BD9
:10B710002BB1044802F0CDF808B1AFF3008008BDAA
:10B7200000000000F03A00202DE9F0411E464FF4E1
:10B730007A7300258360104B4560044640F8143B43
:10B740001746884602F08DF80C4AC4F8108052F86B
:10B75000263084F85D309DF8183084F85C7052F81B
:10B76000233084F85E3084F86150656684F8625056
:10B770002046BDE8F08100BFAC1903001C1903008E
:10B780000369D3F8082142B10022C3F80821D3F895
:10B7900018151430C9B202F06FB870470148FFF7AE
:10B7A000EFBF00BFDC3A002007B50623009302225A
:10B7B000082303490348FFF7B7FF03B05DF804FB14
:10B7C00000200040DC3A002080024FF47A73B0FB86
:10B7D000F3F000F0B1BE29DF704728DF704712DFB9
:10B7E000704708B502F0A0FBB0FA80F0400908BD30
:10B7F00010B5144602F0A7FB204610BDF7B505466C
:10B8000002A8002300F8013D0E461446FFF7E7FFAB
:10B8100097083A4631462846FFF7DDFF112803D145
:10B820000120FFF7D1FFF4E748B99DF8073043B195
:10B83000054B4FF0FF31186800F0DEFA01E0002000
:10B8400000E0204603B0F0BD444B002037B5154C56
:10B850002168054609B12D0B07E00A2000F061F9C7
:10B8600020600028F7D1002019E02846FFF7B5FF37
:10B87000112803D10120FFF7A7FFF6E70028F2D136
:10B8800002AB03F8010D1846FFF7A9FF9DF807303A
:10B8900023B14FF0FF31206800F0AEFA012003B071
:10B8A00030BD00BF444B0020044B186820B100237A
:10B8B0001A46194600F03EB9704700BF444B0020BD
:10B8C000014802F004B800BF0434002013460A46C1
:10B8D0000146014802F01CB80434002010B513469C
:10B8E00014460A460146024802F03FF8204610BDC1
:10B8F00004340020FFF7AABF10B5044600F026FD6F
:10B90000204602F001FB044600F0ACFD0CB901F04A
:10B9100030FD204610BD10B5044640B100F016FDC4
:10B92000204602F0F9FABDE8104000F09BBD10BDC2
:10B9300010B5044601F012FAA46B01F019FAB4FA3A
:10B9400084F0400910BD70B51546026C866B044644
:10B9500032B905682DBB406800F08AFF656027E0BA
:10B9600065B9806802F0EFFAA268236C134462683C
:10B97000A360934217D32368A36014E0C06802F069
:10B98000E2FA236CE26821685B421A448A42E26070
:10B990003EBF62689B18E360022D06D13EB1013EB6
:10B9A00003E0104604E0284602E0002000E03046B4
:10B9B0000136A66370BD034610B41A6C084662B126
:10B9C000D9685C681144A142D96024BF1968D96064
:10B9D000D9685DF8044B02F0B6BA5DF8044B7047C5
:10B9E00070B5044601F0BAF994F8455004F1240604
:10B9F000EDB26BB2002B0ADD636A43B1304600F052
:10BA000057FE08B100F0C2FE013DEDB2F1E7FF23A1
:10BA100084F8453001F0ACF901F0A0F994F84450F5
:10BA200004F11006EDB26BB2002B0ADD236943B1BD
:10BA3000304600F03DFE08B100F0A8FE013DEDB239
:10BA4000F1E7FF2384F84430BDE8704001F090B97D
:10BA500038B504460D4601F081F9206CE36B22688D
:10BA6000A2604343D1181B1A13446160E3600021B4
:10BA7000FF23A16384F8443084F8453085B92369F5
:10BA8000B3B104F1100000F013FE88B10A4B4FF07F
:10BA900080525A6040BFBFF34F8FBFF36F8F07E0F4
:10BAA00004F1100001F0A3FF04F1240001F09FFF56
:10BAB00001F05EF9012038BD00ED00E010B51C4634
:10BAC00083B10123002908BF224684F84630E06391
:10BAD0002164226019462046FFF7BAFF9DF808301E
